:020000040800F2
:1000000028080020CD0100088B100008831000088C
:10001000871000087F020008D51E000800000000BD
:100020000000000000000000000000009116000821
:100030006B0F0008000000008D110008D5180008A3
:10004000E7010008E7010008E7010008E7010008F0
:10005000E7010008E7010008E7010008E7010008E0
:10006000E7010008E7010008E7010008E7010008D0
:10007000E7010008E7010008E7010008E7010008C0
:10008000350D0008E7010008E7010008F51D00082C
:10009000111E0008E7010008E7010008E701000859
:1000A000E7010008E7010008E7010008E701000890
:1000B000E7010008E7010008E7010008E701000880
:1000C000E7010008E7010008E7010008E701000870
:1000D000E7010008E7010008E7010008D91A000855
:1000E000E7010008E7010008E7010008E701000850
:1000F000E7010008E7010008E7010008E701000840
:10010000E7010008E701000845190008E7010008B9
:10011000E7010008E7010008C5190008E701000829
:10012000E7010008E7010008E7010008E70100080F
:1001300000F002F800F03AF80AA090E8000C8244BF
:100140008344AAF10107DA4501D100F02FF8AFF29C
:10015000090EBAE80F0013F0010F18BFFB1A43F0A5
:1001600001031847B0300000D0300000103A24BF1F
:1001700078C878C1FAD8520724BF30C830C144BF0C
:1001800004680C607047000000230024002500264E
:10019000103A28BF78C1FBD8520728BF30C148BFEA
:1001A0000B6070471FB51FBD10B510BD00F031F8D2
:1001B0001146FFF7F7FF02F033F800F04FF803B4F1
:1001C000FFF7F2FF03BC00F053F800000948804736
:1001D00009480047FEE7FEE7FEE7FEE7FEE7FEE729
:1001E000FEE7FEE7FEE7FEE704480549054A064B41
:1001F00070470000E51800083101000828020020BF
:100200002808002028040020280400207047704798
:100210007047754600F028F8AE460500694653461B
:1002200020F00700854618B020B5FFF7DDFFBDE8D8
:1002300020404FF000064FF000074FF000084FF04D
:10024000000B21F00701AC46ACE8C009ACE8C009DE
:10025000ACE8C009ACE8C0098D4670470446AFF36E
:1002600000802046FFF7ABFF00487047C801002020
:1002700001491820ABBEFEE726000200704700BF10
:10028000FEE70000B1F5007F3AD00FDC202928D02E
:1002900006DC01291CD004291DD0082940D11DE00D
:1002A000402921D0B1F5807F3AD126E0B1F5004F49
:1002B00031D006DCB1F5806F25D0B1F5006F2FD1BC
:1002C00024E0B1F5803F12D0B1F5003F28D111E014
:1002D000154A826025E00822C26022E01022C26036
:1002E0001FE0082202611CE01022026119E00822CE
:1002F000426016E01022426013E00422426010E0E7
:10030000042242600DE0042242600AE00022826181
:100310000422426005E0002282610422426000E083
:1003200000BF00BF704700000101010010B50021AF
:10033000837A012202FA03F13D4A126842F0010277
:100340003B4B1A603A4A1C3212688A43384B1C33C2
:100350001A60027BCAB9364A0C3212688A43344B9F
:100360000C331A604288C38842EA0343304A403261
:10037000847A42F834300288838842EA03432C4A64
:100380004032847A02EBC4025360027B012A19D105
:10039000274A0C3212680A43254B0C331A604288F4
:1003A000038842EA0343224A4032847A42F83430D6
:1003B000C288838842EA03431D4A4032847A02EBB2
:1003C000C4025360C27A3AB9194A121D12688A43AC
:1003D000174B1B1D1A6006E0154A121D12680A43CE
:1003E000134B1B1D1A60028932B9114A143212686C
:1003F0008A430F4B14331A600289012A06D10C4A32
:10040000143212680A430A4B14331A60427B012AE1
:1004100006D1074A1C3212680A43054B1C331A6086
:10042000034A126822F00102014B1A6010BD00005D
:100430000066004070B504460D46002660692840FD
:10044000002871D0B5F5807F5CD010DC082D35D048
:1004500006DC012D20D0022D24D0042D72D127E0FE
:10046000102D31D0202D35D0402D6BD138E0B5F591
:10047000004F60D009DCB5F5007F49D0B5F5806F3D
:100480004CD0B5F5006F5DD14FE0B5F5803F2DD074
:10049000B5F5003F56D12FE0A0682D4900F040FC93
:1004A000064651E0E068032100F03AFC06464BE0C6
:1004B000E068082100F034FC064645E0E0681021C1
:1004C00000F02EFC06463FE02069032100F028FCE6
:1004D000064639E02069082100F022FC064633E098
:1004E0002069102100F01CFC06462DE06068082100
:1004F00000F016FC064627E06068102100F010FCB2
:10050000064621E0A069012100F00AFC06461BE036
:10051000A069022100F004FC064615E0A069042150
:1005200000F0FEFB06460FE00FE0A069702100F02E
:10053000F7FB064608E06068042100F0F1FB064680
:1005400002E0FFE7002600BF00E00026304670BD55
:10055000010101001AB143690B43436102E04369A1
:100560008B434361704730B5024600200023146876
:1005700024F002041460146844F00104146000E0E4
:100580005B1C546804F001041CB94FF6FF74A342CD
:10059000F6D1546804F001040CB900206CE08C79A9
:1005A000012C04D1146844F08004146003E0146842
:1005B00024F080041460CC79012C04D1146844F038
:1005C0004004146003E0146824F0400414600C7AC2
:1005D000012C04D1146844F02004146003E0146872
:1005E00024F0200414604C7A012C04D1146844F0E7
:1005F0001004146003E0146824F0100414608C7A72
:10060000012C04D1146844F00804146003E0146859
:1006100024F008041460CC7A012C04D1146844F04E
:100620000404146003E0146824F0040414608C785B
:10063000A407CD7844EA05640D7944EA05444D7970
:1006400044EA05540D886D1E2C43D461146824F0CF
:1006500001041460002300E05B1C546804F00104F2
:100660001CB14FF6FF74A342F6D1546804F00104A4
:100670000CB1002000E0012030BD000000B589B0C1
:100680000121042000F0B4FD0121480600F090FD96
:100690004FF48050ADF8200003208DF82200182080
:1006A0008DF8230008A9374800F060FC4FF4006083
:1006B000ADF8200048208DF8230008A9314800F04B
:1006C00055FC00208DF81A008DF81B008DF81C00D9
:1006D0008DF81D008DF81E0001208DF81F000020F0
:1006E0008DF816008DF8170008208DF818000720E7
:1006F0008DF819000220ADF8140005A92248FFF773
:1007000032FF00208DF80E008DF80F0001208DF8CB
:1007100010000020ADF80400ADF80600ADF80800A8
:10072000ADF80A00ADF80C0001208DF8110001A809
:10073000FFF7FCFD012202211348FFF70BFF012206
:1007400011461148FFF706FF14208DF80000012024
:100750008DF801008DF802008DF80300684600F066
:1007600095FC13208DF8000000208DF80100012079
:100770008DF802008DF80300684600F087FC09B090
:1007800000BD0000000801400064004010B500F505
:10079000D87303EB01131B6803F004031372137A7D
:1007A00053B900F5D87303EB01131B6840F2FF74D3
:1007B00004EA5353136009E000F5D87303EB011307
:1007C0001B686FF0604404EAD303536000F5D873EC
:1007D00003EB01131B6803F00203537200F5D87397
:1007E00003EB01135B6803F00F03937200F5D873FA
:1007F00003EB01135B681B0AD37400F5D87303EB9A
:1008000001139B68D37200F5D87303EB01139B6847
:100810001C0A147300F5D87303EB01139B681C0CBE
:10082000547300F5D87303EB01139B681B0E93738D
:1008300000F5D87303EB0113DB68D37300F5D873AD
:1008400003EB0113DB681C0A147400F5D87303EB87
:100850000113DB681C0C547400F5D87303EB01130F
:10086000DB681B0E937421B9C36843F02003C36097
:1008700003E0036943F02003036110BD10B5024695
:100880000020936803F08063B3F1806F00D110E023
:10089000936803F00063B3F1006F01D1012008E019
:1008A000936803F08053B3F1805F01D1022000E030
:1008B0000420042874D002F5C07303EB00131B68F6
:1008C00003F0010402F5C07303EB00131C600B7A04
:1008D0007BB94B7A0C8843EA445302F5C07404EBAD
:1008E00000142468234302F5C07404EB0014236051
:1008F00010E00B7A4C6843EAC4034C7A234302F5B8
:10090000C07404EB00142468234302F5C07404EBA4
:10091000001423608B7A03F00F038B7202F5C0730F
:1009200003EB00135B6823F00F0402F5C07303EBC5
:1009300000135C6002F5C07303EB00135B688C7AF4
:10094000234302F5C07404EB001463608B7B1C0628
:100950004B7B44EA03440B7B44EA0323CC7A2343D6
:1009600002F5C07404EB0014A3608B7C1C064B7C66
:1009700044EA03440B7C44EA0323CC7B234302F583
:10098000C07404EB0014E36002F5C07303EB0013C2
:100990001B6843F0010402F5C07303EB00131C60F5
:1009A00010BD00002DE9F05F2F4880882E4909888E
:1009B000401A00B22D4988810846408A8989084436
:1009C00000B22A4948820846B0F91250C089098A03
:1009D000401A04B22548C089244908820846808903
:1009E000C881204602F0BCFA81462048816848460A
:1009F00002F0CEFA0746284602F0B2FA83461B48B8
:100A00004168584602F0C4FA81461849B1F90C0011
:100A100002F0A6FA834615480168584602F0B8FA73
:100A20008246494602F05CF98046394602F058F9A0
:100A3000064602F079FA00B20C4988820846B0F9FD
:100A4000140010F5FA5F02DA4EF2C00088820748FF
:100A5000B0F91400B0F5FA5F03DD4FF4FA50034922
:100A60008882BDE8F09F000064000020B0000020F4
:100A70002DE9F05F2F4880882E490988401A00B27E
:100A80002D4988810846408A8989084400B22A494C
:100A900048820846B0F91250C089098A401A04B247
:100AA0002548C0892449088208468089C881204693
:100AB00002F056FA814620488168484602F068FAFA
:100AC0000746284602F04CFA83461B4841685846C0
:100AD00002F05EFA81461849B1F90C0002F040FAC2
:100AE000834615480168584602F052FA8246494644
:100AF00002F0F6F88046394602F0F2F8064602F0B7
:100B000013FA00B20C4988820846B0F9140010F5B7
:100B1000FA5F02DA4EF2C00088820748B0F914008A
:100B2000B0F5FA5F03DD4FF4FA5003498882BDE85F
:100B3000F09F00006C000020D00000202DE9F05F45
:100B40002F4880882E490988401A00B22D49888193
:100B50000846408A8989084400B22A4948820846E2
:100B6000B0F91250B0F90E00B1F91010441A25482E
:100B7000C0892449088208468089C881204602F03D
:100B8000EFF981461F488168484602F001FA07469E
:100B9000284602F0E5F983461A484168584602F0B3
:100BA000F7F981461749B1F90C0002F0D9F98346EB
:100BB00014480168584602F0EBF98246494602F0B3
:100BC0008FF88046394602F08BF8064602F0ACF901
:100BD00000B20C4988820846B0F9140010F5FA5F9B
:100BE00002DA4EF2C00088820648B0F91400B0F56F
:100BF000FA5F03DD4FF4FA5002498882BDE8F09FA6
:100C000074000020F00000202DE9F05F2F4880885C
:100C10002E490988401A00B22D4988810846408A29
:100C20008989084400B22A4948820846B0F912501E
:100C3000B0F90E00B1F91010441A2548C0892449B2
:100C4000088208468089C881204602F089F98146D9
:100C50001F488168484602F09BF90746284602F083
:100C60007FF983461A484168584602F091F9814657
:100C70001749B1F90C0002F073F983461448016872
:100C8000584602F085F98246494602F029F8804626
:100C9000394602F025F8064602F046F900B20C4942
:100CA00088820846B0F9140010F5FA5F02DA4EF2B5
:100CB000C00088820648B0F91400B0F5FA5F03DD81
:100CC0004FF4FA5002498882BDE8F09F7C00002072
:100CD0001001002008B501F0FFF8FFF7C9FEFFF78B
:100CE00093FFFFF75FFEFFF729FF0848B0F91400F4
:100CF00000900748B0F914300648B0F914200648AF
:100D0000B0F91410054800F095FD08BD1001002051
:100D1000F0000020D0000020B0000020006400405F
:100D20000246002002EA01030BB1012000E000208E
:100D30007047000010B54FF4001000F0D9F830B142
:100D40004FF4801000F014F8014800F061FB10BD72
:100D50008001002000F0805111B10349086001E0DA
:100D6000024948607047000004040240000002404D
:100D700000F0805111B10349086001E00249486068
:100D800070470000040402400000024021B10268E4
:100D900042F00102026004E002684FF6FE731A405E
:100DA0000260704701684FF6FE7211400160002139
:100DB000016041608160C1604B49884208D14A4965
:100DC0000839496841F00F01474A083A51608AE002
:100DD00045491431884208D143490839496841F0EE
:100DE000F001414A083A51607DE03F49283188428C
:100DF00008D13D490839496841F470613A4A083AD6
:100E0000516070E038493C31884208D13649083990
:100E1000496841F47041344A083A516063E032490C
:100E20005031884208D130490839496841F470216D
:100E30002D4A083A516056E02B496431884208D166
:100E400029490839496841F47001274A083A516034
:100E500049E025497831884208D123490839496851
:100E600041F07061204A083A51603CE01F498842D5
:100E700006D1011F096841F00F01021F116032E025
:100E80001A491431884208D11849091F096841F0EC
:100E9000F001164A121F116025E0144928318842DA
:100EA00008D11249091F096841F470610F4A121FE5
:100EB000116018E00D493C31884208D10B49091FE7
:100EC000096841F47041094A121F11600BE007499B
:100ED0005031884207D10549091F096841F4702142
:100EE000024A121F116070470800024008040240C5
:100EF00001460020002201F0805313B1054B1A680F
:100F000001E0054B1A6802EA01030BB1012000E081
:100F10000020704700040240000002401AB103683C
:100F20000B43036002E003688B430360704710B516
:100F30000022026847F6F0739A430C6A8B682343D9
:100F40000C6923434C6923438C692343CC692343B5
:100F50004C6A23438C6A23431A430260CB68436084
:100F60000B6883604B68C36010BD70472DE9F0418A
:100F7000024600250026002000230024002791F8C7
:100F800003C00CF00F0591F803C00CF0100CBCF17D
:100F9000000F03D091F802C04CEA050591F800C09B
:100FA000BCF1000F31D0146800202BE04FF0010C91
:100FB0000CFA00F3B1F800C00CEA03069E4220D1FF
:100FC00083004FF00F0C0CFA03F7BC4305FA03FC47
:100FD0004CEA040491F803C0BCF1280F06D14FF08D
:100FE000010C0CFA00FCC2F814C00AE091F803C02E
:100FF000BCF1480F05D14FF0010C0CFA00FCC2F80F
:1010000010C0401C0828D1D31460B1F800C0BCF156
:10101000FF0F34DD546800202EE000F1080C4FF083
:10102000010808FA0CF3B1F800C00CEA03069E426E
:1010300021D183004FF00F0C0CFA03F7BC4305FAE3
:1010400003FC4CEA040491F803C0BCF1280F05D15D
:1010500000F1080C08FA0CF8C2F8148091F803C0EB
:10106000BCF1480F07D100F1080C4FF0010808FA55
:101070000CF8C2F81080401C0828CED35460BDE89C
:10108000F08100BFFEE700BFFEE7704770B50021AA
:1010900000230F22C47804B3154C246804F4E064E0
:1010A000C4F5E064210AC1F10403CA40447804FA9B
:1010B00003F184781440214309010E4C0678A155B0
:1010C000047804F01F050124AC4005786D11AD00D3
:1010D00005F1E025C5F8004109E0047804F01F059A
:1010E0000124AC40044D0678761145F8264070BDC9
:1010F0000CED00E000E400E080E100E00249014383
:10110000024A1160704700000000FA050CED00E093
:10111000144815490860154848601548886011480A
:101120001449086011484860114888600D48124908
:1011300008600E4848600E4888600A480F490860F9
:101140000A4848600A4888600D480E490860002037
:10115000486088600A480C49086000204860886040
:101160007047000000002040B00000200AD7A33DD7
:10117000CDCCCC3DD0000020F0000020100100209C
:101180000000404030010020500100207047000066
:1011900029B1064A52690243044B5A6104E0034AEA
:1011A00052698243014B5A617047000000100240AF
:1011B00029B1064AD2690243044BDA6104E0034ACA
:1011C000D2698243014BDA6170470000001002408F
:1011D00029B1064A12690243044B1A6104E0034A2A
:1011E00012698243014B1A617047000000100240EF
:1011F00029B1064A92690243044B9A6104E0034A0A
:1012000092698243014B9A617047000000100240CE
:1012100029B1064AD2680243044BDA6004E0034A6B
:10122000D2688243014BDA60704700000010024030
:1012300030B500210022002400232D4D6D6805F0FB
:101240000C0121B1042905D0082923D105E0294D3D
:10125000056022E0274D05601FE0254D6D6805F40F
:101260007012234D6D6805F48034022505EB92421F
:101270001CB9214D554305600BE01D4D6D6805F40B
:1012800000351DB11C4D5543056002E0194D554315
:10129000056002E0174D056000BF00BF144D6D688A
:1012A00005F0F0010909154D6B5C0568DD404560EE
:1012B0000F4D6D6805F4E061090A104D6B5C4568DF
:1012C000DD4085600A4D6D6805F46051C90A0B4D1B
:1012D0006B5C4568DD40C560054D6D6805F44041B7
:1012E000890B074D6B5CC568B5FBF3F5056130BD37
:1012F0000010024000127A0000093D00500000205A
:101300006000002000B587B001210420FFF770FFC6
:1013100001214804FFF74CFF374800F04BFC082040
:10132000ADF8180004208DF81B0006A93348FFF71C
:101330001DFE334802900020ADF80C00ADF80E0001
:101340004FF48060ADF810000020ADF814000C20C0
:10135000ADF8120002A9284800F0D6FC0121264869
:1013600000F013FC01210846FFF712FF0022402184
:10137000214800F016FC2348FFF714FD1E48001D0D
:101380002149086021484860002088601220C86018
:10139000002008618020486100208861C861202009
:1013A00008624FF440504862002088621548FFF7F9
:1013B000BEFD4FF40030FFF7CDFC012202211148A1
:1013C000FFF7ACFD012240210B4800F0EAFB1020A2
:1013D0008DF8040002208DF805008DF8060001202C
:1013E0008DF8070001A8FFF751FE01210548FFF71E
:1013F000CDFC07B000BD00000044004000080140E3
:10140000A08601006C0002409C01002080010020A9
:1014100070B5044604B970BD2078617840EA0120B7
:10142000C0F30A008D4908806078C010A17840EAB6
:101430004110C0F30A0089494880A0788011E17802
:1014400040EA8100217940EA8120C0F30A00834903
:10145000888020794010617940EAC110C0F30A0009
:101460007E49C88060790011800808726079C0F3F5
:101470000110487208460088B0F5AF6F11DA0846CF
:101480000088B0F5167F0CDD0988A1F5806001F0B9
:101490008AF90546724A734B01F0D8F9724A03C2C1
:1014A0000CE06E490988A1F5806001F07CF90546E1
:1014B0006E4A6F4B01F0CAF96B4A03C26748408815
:1014C000B0F5AF6F12DA65484088B0F5167F0DDDD4
:1014D00062494988A1F5806001F065F90546604AD6
:1014E000604B01F0B3F9634A03C20CE05B494988E1
:1014F000A1F5806001F057F905465C4A5C4B01F0AC
:10150000A5F95C4A03C255488088B0F5AF6F12DA7E
:1015100052488088B0F5167F0DDD50498988A1F5C5
:10152000806001F040F905464D4A4E4B01F08EF9BE
:10153000514A03C20CE049498988A1F5806001F055
:1015400032F90546494A4A4B01F080F94A4A03C23A
:101550004248008840F2946188422FDA3F48408830
:1015600088422BDC3D488088884227DC3B48C08885
:10157000884223DC3948007A03281FDC3748407A48
:1015800003281BDC35480088B0F5B67F16DB3348EE
:101590004088B0F5B67F11DB30488088B0F5B67F63
:1015A0000CDB2E48C088B0F5B67F07DB2B48007AED
:1015B000012803DB2948407A012801DA00F06AFF9C
:1015C0002E4A2F4B284903C901F03EFA04D82B4973
:1015D0002B48254AC2E9001000224FF080432549DC
:1015E00003C901F031FA05D800214FF08040214AAB
:1015F000C2E900100022234B1F4903C901F024FA5D
:1016000004D800211F481C4AC2E900101B4A1E4B87
:10161000154903C901F0DEF803D818481A49124ADF
:1016200003C200224FF04043124903C901F0D2F82F
:1016300005D800214FF040400E4AC2E900100022B8
:10164000124B0D4903C901F0C5F804D800210F4819
:10165000094AC2E9001000BFDDE600009201002047
:101660007B14AE47E17A643F080000203BDF4F8DDA
:10167000976E723F1000002000000020CDCCCCCC33
:10168000CCCCFC3F00000C40CCCCFCBF00000CC01C
:101690007047000010B50446492000F05DFF392076
:1016A00000F05AFF012C06D0022C0BD0032C10D0D6
:1016B000042C1CD114E0132000F04EFF01200F4930
:1016C000087018E0362000F047FF01200B49087031
:1016D00011E0342000F040FF0120084908700AE0C2
:1016E000312000F039FF01200449087003E0002098
:1016F0000249087000BF00BF10BD0000AF0000200D
:1017000010B5552000F028FF392000F025FF0020FB
:101710000149087010BD0000AF00002010B504465C
:10172000207800F019FF607800F016FFA07800F034
:1017300013FF10BD10B50446207800F00DFF60784F
:1017400000F00AFFA07800F007FF10BD10B500F010
:1017500001F810BD0CB500200190009033480068DE
:1017600040F480303149086000BF3048006800F420
:10177000003000900198401C0190009818B9019821
:10178000B0F5A06FF1D12948006800F4003010B125
:101790000120009001E0002000900098012843D132
:1017A0002348006840F0100021490860084600689E
:1017B00020F0030008600846006840F0020008605E
:1017C0001A48406819494860084640684860084619
:1017D000406840F4806048600846406820F47C100F
:1017E00048600846406840F4E810486008460068D1
:1017F00040F08070086000BF0C48006800F0007086
:101800000028F9D00948406820F0030007494860E3
:101810000846406840F00200486000BF0348406846
:1018200000F00C000828F9D10CBD000000100240A7
:10183000002002402DE9F04186B080460C46154656
:101840001E460C9F16494C8016494D8016494E8005
:1018500016494F804FF40070019000208DF80C0065
:101860008DF80D0008208DF80E00200A8DF80F006D
:101870008DF81040290A8DF811108DF81250310A98
:101880008DF813108DF81460390A8DF815108DF845
:10189000167001A94046FEF7F1FF06B0BDE8F081E1
:1018A000640000206C000020740000207C000020F8
:1018B00010B54AB20C0A63B24270837010BD10B505
:1018C000CBB20A0A4370827010BD0170704701707C
:1018D0007047000002480068401C014908607047DA
:1018E0004C00002010B51348006840F00100114979
:1018F000086008464068104908400E49486008469C
:1019000000680E4908400B4908600846006820F44A
:10191000802008600846406820F4FE0048604FF4CC
:101920001F008860FFF712FF4FF000600449086055
:1019300010BD0000001002400000FFF8FFFFF6FE9F
:1019400008ED00E010B50121054800F058F828B175
:101950000121034800F044F8FFF7BCF910BD000076
:10196000000C00407FB505460C4601210820FFF71A
:101970001FFCADF80850ADF804400020ADF80A0097
:10198000ADF8060001A90E4800F054F801221146F6
:101990000B4800F045F832208DF8000000208DF84B
:1019A000010003208DF8020001208DF80300684635
:1019B000FFF76CFB0121024800F015F87FBD000025
:1019C000000C004010B50121044800F018F818B1CF
:1019D0000121024800F004F810BD00000010004092
:1019E000CA430282704721B1028842F0010202809C
:1019F00004E002884FF6FE731A400280704730B54B
:101A00000246002000230024158A05EA0103958977
:101A100005EA010413B10CB1012000E0002030BD43
:101A20001AB183890B43838102E083898B438381CD
:101A300070470000002202881D4B98420ED01D4BBB
:101A400098420BD0B0F1804F08D01B4B984205D084
:101A50001A4B984202D01A4B984204D14FF68F731A
:101A60001A404B881A43174B984207D0164B98429E
:101A700004D04FF6FF431A40CB881A4302808B886C
:101A800083850B8803850A4B98420BD0094B9842FB
:101A900008D00E4B984205D00D4B984202D00D4B0A
:101AA000984201D10B7A038601238382704700009C
:101AB000002C0140003401400004004000080040B8
:101AC000000C0040001000400014004000400140A5
:101AD000004401400048014010B540F225511F4824
:101AE00000F0C3F838B31D4800F07AF9C4B21C48BE
:101AF000008800F4005088B11A4801880088401C12
:101B0000184A1080184844541046008805281FD1F0
:101B10000020114608801249088019E0104800880A
:101B200000F4805060B1592C06D10D48008840F473
:101B300000500B4908800BE000200949088007E0AD
:101B4000592C05D10648008840F48050044908808B
:101B500040F22551014800F009F810BD004800404E
:101B60009400002096000020A000002010B5002264
:101B7000002340F66A14A14200D100BF0A120124DA
:101B80009440A3B2DC43048010BD21B1828942F4A9
:101B90000052828104E082894DF6FF731A408281EF
:101BA00070471AB1838A0B43838202E0838A8B4396
:101BB0008382704710B504462048844209D1012130
:101BC0008803FFF725FB00214FF48040FFF720FB3F
:101BD00032E01B48844209D101214804FFF7F8FA9A
:101BE00000214FF40030FFF7F3FA25E01548844256
:101BF00009D101218804FFF7EBFA00214FF480207E
:101C0000FFF7E6FA18E01048844209D10121C80420
:101C1000FFF7DEFA00214FF40020FFF7D9FA0BE0BE
:101C20000A48844208D101210805FFF7D1FA0021B2
:101C30004FF48010FFF7CCFA10BD000000380140CF
:101C40000044004000480040004C0040005000406C
:101C500002460020B1F5007F00D100BF13880B4081
:101C60000BB1012000E00020704770B5024600244F
:101C700000230025002040F66A16B14200D100BFC3
:101C8000C1F3421501F01F03012606FA03F3012DEB
:101C900002D19689334006E0022D02D1168A3340E4
:101CA00001E0968A33400C12012606FA04F41688E5
:101CB000344013B10CB1012000E0002070BDF0B53C
:101CC0000346002400260025002040F66A17B9428A
:101CD00000D100BF1846C1F3421401F01F060127CE
:101CE00007FA06F5012C01D10C3004E0022C01D1D9
:101CF000103000E014301AB107682F43076002E08B
:101D00000768AF430760F0BD2DE9F04786B0054690
:101D10000E460024A24600BFA1460027B08900B1AC
:101D200000BF2F462C8A4CF6FF700440F088044315
:101D30002C82AC894EF6F3100440B08831890843F8
:101D4000718908430443AC81AC8A4FF6FF400440DC
:101D5000B0890443AC8201A8FFF76AFA1F488742A2
:101D600002D1DDF810A001E0DDF80CA0A88900F494
:101D7000004040B10AEBCA0000EB0A10316849008C
:101D8000B0FBF1F807E00AEBCA0000EB0A1031687B
:101D90008900B0FBF1F86420B8FBF0F004012009E1
:101DA000642101FB1089A88900F4004040B1322071
:101DB00000EBC900B0FBF1F000F00700044308E0BD
:101DC000322000EB09106421B0FBF1F000F00F00AD
:101DD00004432C8106B0BDE8F087000000380140C4
:101DE00001468888C0F308007047C1F3080282806A
:101DF0007047000010B501210448FEF71BFB18B125
:101E000001210248FEF73EFA10BD000000640040C8
:101E100000B585B002212848FEF70CFB002849D008
:101E200002212548FEF72EFA6A4600212248FEF7D5
:101E3000ADFC0098A0F2012006283AD2DFE800F0BD
:101E4000030C151E27309DF80E109DF80D0041EA79
:101E500000201A4908802CE09DF80E109DF80D0016
:101E600041EA00201649088023E09DF80E109DF8F5
:101E70000D0041EA0020134908801AE09DF80E1079
:101E80009DF80D0041EA00200F49088011E09DF8FF
:101E90000E109DF80D0041EA00200C49088008E072
:101EA0009DF80E109DF80D0041EA002008490880B9
:101EB00000BF00BF05B000BD00640040640000200A
:101EC0006C000020740000207C00002084000020B2
:101ED0008C00002000BFFEE72DE9FF5F6B480390F8
:101EE00000226B4B6B4903C900F0B0FC044600F0C4
:101EF00045FB02900022664B674903C900F0A6FC2F
:101F0000044600F03BFB01900022614B634903C98A
:101F100000F09CFC044600F031FB0090009800F0BB
:101F2000B3FE82465E4A5F4B00F090FC06460F46C9
:101F3000DDE9010101F0F8F8824600F0A5FE8046D7
:101F400032463B4600F04CFB044600F017FB564976
:101F50000860009800F098FE8246514A514B00F00C
:101F600075FC04460D46DDE9010100F0B9FE82462C
:101F700000F08AFE064622462B4600F09BFD804676
:101F800000F0FCFA48494860009800F07DFE0646E3
:101F9000434A444B00F05AFC80468946DDE9010182
:101FA00001F0C2F8064600F06FFE044642464B467A
:101FB00000F080FD824600F0E1FA3B49886000981D
:101FC00000F062FE8046364A364B00F03FFC044685
:101FD0000D46DDE9010100F083FE804600F054FE6D
:101FE000064622462B4600F0FBFA824600F0C6FA6F
:101FF0002D49C8600868039900F0D4FE044600F03B
:1020000093FF40422949486027494868039900F0F6
:10201000C9FE044600F088FF2549486022498868C7
:10202000039900F0BFFE044600F07EFF214948609E
:102030001D49C868039900F0B5FE044600F074FF1E
:1020400040421D4948601948406800EB400101EBDF
:102050000010164948601648406800EB400101EB4B
:102060000010134948601348406800EB400101EB41
:102070000010104948601048406800EB400101EB37
:1020800000100D494860BDE8FF9F00006747CC3E47
:1020900000004E400800002010000020000000203A
:1020A0003E0AD7A3703DD23F70010020640000209B
:1020B0006C000020740000207C00002030B500205F
:1020C00015490860154800684FF47A72B0FBF2F1C8
:1020D000B1F1807F00D31DE021F07F40401E4FF022
:1020E000E022506150170F22002807DA13071D0E57
:1020F0000B4B00F00F04241F1D5503E013071C0EAB
:10210000084B1C5400BF00204FF0E02290610720D4
:10211000106100BF30BD00004C00002038000020DE
:1021200018ED00E000E400E000B587B001210820D0
:10213000FFF75EF801218804FFF73AF84FF40060DA
:10214000ADF8040004208DF8070001A93248FEF71D
:102150000DFF4FF48060ADF8040003208DF80600F9
:1021600018208DF8070001A92B48FEF7FFFE01217A
:102170000820FFF73DF80120ADF8040003208DF89A
:10218000060018208DF8070001A92348FEF7EEFE8F
:1021900001210820FFF72CF80220ADF804000320ED
:1021A0008DF8060018208DF8070001A91A48FEF7DF
:1021B000DDFE4FF4E13003900020ADF81000ADF8E3
:1021C0001200ADF81400ADF818000420ADF81600A8
:1021D00003A91248FFF798FD012240F225510F484C
:1021E000FFF76DFD01210D48FFF7CFFC4FF4A06014
:1021F000FEF784FF27208DF8080003208DF80900E2
:1022000002208DF80A0001208DF80B0002A8FEF7CD
:102210003DFF07B000BD0000000C01400048004039
:10222000FFF760FBFFF74AFF4FF4A060FEF766FF81
:10223000FEF724FA42F20F714720FFF793FBFFF7F6
:1022400061F8FFF771FF4FF4E13000F035F9FEF768
:102250005FFF26E000F02CF812490968401A642854
:1022600005D300F0CBF800F023F80E49086000F029
:102270001FF80D490968401A0A2805D300F01EF816
:1022800000F016F80849086000F012F807490968DC
:10229000401A642805D300F057F800F009F8034904
:1022A0000860D7E7300000202C0000203400002018
:1022B00001480068704700004C00002010B5012064
:1022C000FFF7E8F91A48007878B304211948FFF7B6
:1022D000FEFA194801881748FFF7F1FA1548FFF789
:1022E00029FA05211348FFF7F2FA1448018811482A
:1022F000FFF7E5FA0F48FFF71DFA06210D48FFF733
:10230000E6FA0F4801880B48FFF7D9FA0948FFF7AA
:1023100011FA07210748FFF7DAFA0A480188054849
:10232000FFF7CDFA0348FFF705FAFFF7E9F910BD0B
:10233000AF000020A5000020980000209A00002097
:102340009C0000209E00002010B50220FFF7A2F99B
:1023500027480078002847D008212648FFF7B7FA19
:10236000254801882348FFF7AAFA2248FFF7E2F937
:1023700008212048FFF7ABFA1F4841881D48FFF7A6
:102380009EFA1C48FFF7D6F909211A48FFF79FFA71
:10239000194881881748FFF792FA1648FFF7CAF9DB
:1023A0000A211448FFF793FA1348C1881148FFF730
:1023B00086FA1048FFF7BEF90B210E48FFF787FA9F
:1023C0000D48017A0B48FFF77AFA0A48FFF7B2F98D
:1023D0000C210848FFF77BFA0748417A0548FFF7C8
:1023E0006EFA0448FFF7A6F9FFF78AF910BD00005E
:1023F000AF000020A50000209201002010B50120B0
:10240000FFF748F91E480078002835D001211D4803
:10241000FFF75BFA1C4903C900F096F964214843B1
:1024200004B221461748FFF743FA1648FFF776F93A
:1024300002211448FFF749FA144903C900F084F94E
:102440006421484304B221460E48FFF731FA0D4893
:10245000FFF764F903210B48FFF737FA0C4903C96A
:1024600000F072F96421484304B221460548FFF7A1
:102470001FFA0448FFF752F9FFF742F910BD0000B8
:10248000AF000020AA00002008000020100000205B
:10249000000000200021054A116051600020044A1C
:1024A00010605060034A11605160704708000020BE
:1024B000100000200000002010B586B00446012165
:1024C00044F20400FEF794FE4FF40070ADF81400DF
:1024D00003208DF8160018208DF8170005A91C4858
:1024E000FEF744FD4FF40060ADF8140004208DF8B1
:1024F000170005A91648FEF739FD01940020ADF834
:102500000800ADF80A00ADF80C00ADF810000C2082
:10251000ADF80E0001A90F48FFF7F6FB25208DF856
:10252000000000208DF8010001208DF802008DF8D8
:1025300003006846FEF7AAFD012240F22551054836
:10254000FFF7BDFB01210348FFF71FFB06B010BDDD
:10255000000801400038014010B5044621460648F5
:10256000FFF743FC00BF80210348FFF771FB002801
:10257000F9D0012010BD00000038014021F00042D8
:10258000A2F16052B2F5801F01F0004328BFD2F1E2
:102590007F6C0BD95FEA001C43EAC20242EB507029
:1025A00018BF704728BF20F001007047B2F5801FA8
:1025B000BCBF184670474FEA410C1CF5001F02D201
:1025C000084600F0ACBD70B500F0EAF900000089E3
:1025D000FFF7F6BF4FF00040A0F580007047000005
:1025E00010B591EA030F48BF83F0004300F16A82FF
:1025F000841A71EB030C05D2121943EB0C03001B78
:1026000061EB0C01DFF824E14FEA1154A4EB135CF9
:102610001EEA430F18BF9EEA445F73D023EA0E03FD
:10262000DCF1200E21EA045143F4801332D322FA64
:102630000CFE10EB0E0023FA0CFE41EB0E01CCF168
:10264000200E03FA0EFE10EB0E0051F10001B1F561
:10265000801FCCF1200E32D201EB045112FA0EF29F
:10266000BDE8104058BF7047401C38BF5FEA4202C7
:1026700018BF7047002814BF20F0010041F100018D
:102680004FEA410313F5001F38BF7047A1F1C04165
:1026900000F0D4B9012A43EB0302ACF1200CDCF1C9
:1026A0001F0E32BF4FF0000E23FA0CF310EB0300A5
:1026B00041EB0451B4EB115FD0D0A1EB045101F513
:1026C000801149085FEA300001EB04510ED350F14C
:1026D000000038BF12FA0EFE08D1BDE81040C9E76D
:1026E000401C38BF5FEA4202CAD1C3E7BDE81040D0
:1026F0004FEA410313F5001F38BF7047A1F1C041F5
:1027000000F09CB99EEA445F08D011EA5E0FBDE874
:10271000104004BF01F0004100207047BDE81040A8
:1027200070B500F03DF900BF64FBBE3E0000E0FF65
:10273000491058BFC1F140415B1058BFC3F140433D
:102740008B42EFF3008070474FEA41034FEA535347
:10275000A3F58063D3F11E03C8BFD3F1210C0CDDB8
:102760004FF0004242EAC12242EA505232FA03FCE0
:102770008CEAE17CACEBE1707047102BC4BF002009
:10278000704703F5787CBCF1FF3F04D06FF0004246
:1027900082EA2100704770B500F002F94992248066
:1027A00000207047F2E710F0004248BF4042B0FA04
:1027B00080F310FA03F10AD0C3F11D0303F580631F
:1027C0004FEA415002EB035202EBD12170474FF028
:1027D0000000704751EA030C17D41CF5801F58BF46
:1027E000BCF5801F00F10680994218BF704708BFF2
:1027F0009042704707D711F5801F58BF13F5801F0F
:1028000019D499427047894270471CF5801F08D53A
:10281000BCF5801FF7D58B4218BF704708BF8242B6
:1028200070474FF4001C1CEB410F38BF1CEB430FEB
:1028300001D28B42704770B500F0B2F89224490083
:102840004FF000514FF08053FFF772BFDFF848C1DF
:1028500070B51CEA111E1EBF1CEA13159EEA0C0F70
:1028600095EA0C0F00F06F8081EA030423EA4C1311
:102870004EEAD47E21EA4C1141F4801143F48013D6
:10288000AE44A1FB024CA0FB0365AEF17F7E36197E
:1028900055EB0C05A1FB034C4CF10003A0FB021C03
:1028A00016EB0C06654153F10003094218BF46F0D0
:1028B000010613F4007F0BD14FEA03314FEA0530D4
:1028C000340341EA155140EA16506FF003020AE062
:1028D0004FEAC3214FEAC520F40241EA555140EACC
:1028E00056506FF0020202EB2E4201EB025585EAD0
:1028F000CE710AD05FEA440C18BF24F0004450F1B6
:10290000000041F1000120EAD47040F2FE7C6245F3
:1029100000D270BDA84214BF4FF080444FF0404435
:10292000002E08BF0024BEF1806FA8BFA1F1C041F6
:10293000BDE8704080F282804FF0000001F1C0419C
:1029400001F0004170479EEA0C0F0CEA131518BF06
:1029500095EA0C0F06D04FF0000081EA030E0EF04E
:10296000004170BD00F01CF88900013E00F007B87E
:1029700000F009B84FEA430C5FEA5C5C08D081EADA
:10298000030100F05BB84FEA410C5FEA5C5CF6D1F2
:102990004FF00000014970470000FF070000F87F7A
:1029A0000EF1020E2EF0030E5EF8046B364205D4D3
:1029B000012A43EB030515F5001F12D8012841EB4E
:1029C000010C1CF5001F0CD80ED14FEAD17C15F577
:1029D000001F0CEB4C0C0CF1020C08BF4CEBD37C31
:1029E00004E04FF0080C01E04FEAD37C0CEB4C05FF
:1029F00026FA05F606F00706B6F1040C06D20EEB31
:102A0000860CBDE870404CF0010C6047DFE80CF02C
:102A1000090B02024FF000414FF00000A1F5002128
:102A200070BD19461046012851EB010418BFD4F5BA
:102A3000001484BF002001F0004170BD0808A0F51B
:102A400000114FEA3101704753EA010C17D41CF50D
:102A5000801F58BFBCF5801F00F106808B4218BF55
:102A6000704708BF8242704707D713F5801F58BFD1
:102A700011F5801F19D48B4270479B4270471CF59B
:102A8000801F08D5BCF5801FF7D5994218BF704745
:102A900008BF904270474FF4001C1CEB430F38BF37
:102AA0001CEB410F01D2994270470FB40CBC03BC20
:102AB000FFF7C1BE10B591EA030F48BF83F0004392
:102AC0003FF596AD841A71EB030C07D212198CF006
:102AD000004C43EB0C03001B61EB0C01DFF8A4E19D
:102AE0004FEA1154A4EB135C1EEA430F18BF9EEA91
:102AF000445F00F0B08023EA6E03524221EA0451A1
:102B0000C3EB6E0338BF5B1EDCF1200E25D322FA27
:102B10000CFE10EB0E0043FA0CFE41EB0E01CCF163
:102B2000200E03FA0EFE10EB0E0051F10001CCF165
:102B3000200E29D412FA0EF201EB0451BDE8104028
:102B400058BF7047401C1CBFB2F1004F70470028AF
:102B50000CBF491C20F00100704712EB020E43EB42
:102B6000030218BF4FF0010E4EEA4202ACF1200CF6
:102B7000DCF11E0E54D943FA0CFE10EB0E0051F19D
:102B8000FF31CCF11E0ED5D50EF1010E12FA0EFE5C
:102B9000404141EB010101EB445C5FEA5C5C10D910
:102BA00010EBDE7001EB045138BFBEF1004FBDE801
:102BB000104018BF704700280CBF491C20F00100CE
:102BC000704730D24FEAD42C11F5001124F4006480
:102BD0001BD0B1FA81F20B3AA41AA41ED2F1200341
:102BE000914030FA03F31943904001EBCC71002C73
:102BF00001EB0451BDE81040A8BF704701F1C0418E
:102C00004FF0000001F000417047B0FA80F310FA75
:102C100003F100D110BDE41A173C4805C90AE4E7E6
:102C200001EB045110BD491001EB0451BDE8104007
:102C30004FEA300002E04FF0000170474A0008BF41
:102C40000042F8D0B2F5001F28BF704701F00041E4
:102C50004FF0000070479EEA445F07D011EA5E0F14
:102C6000BDE8104004BF002100207047BDE81040BF
:102C700070B5FFF795FE00BF40DFF63E83F00041E0
:102C8000104670470000E0FF43004FEAD30C4FEAC4
:102C90003C0C43401FBF40070CF1605113F0FE4F46
:102CA00070471CF0006F03D100200CF0004170470A
:102CB0000CF0004343EA507010B540EACC0000F03D
:102CC000E8F900BF000000924FEA0001FFF7B6BE2E
:102CD0004FF000414FF00000A1F5002170470000C7
:102CE00090EA010F48BF81F0004100F12482421AAE
:102CF0003CBF801A89184FEAD0524FF07F4C1CEA33
:102D0000410FA2EBD15318BF9CEA026F00F03B8049
:102D10004FF0004C4CEA00204CEA012121FA03FC60
:102D200010EB0C0C1ED202F1FF325FEA1C2040EBCC
:102D3000C25038BF70471CF07F0F4FEA400C18BFDD
:102D4000BCF17F4F38BF7047C3F12003994008BFE3
:102D500020F00100BCF17F4F38BF7047A0F1C040A8
:102D600000F0DDB94FEA3C00000A40EBC25028BF3A
:102D70001CF0FF0F4FEA400CE6D018BFBCF17F4FAC
:102D800038BF7047EAE79CEA026F05D010EA5C0F93
:102D900008BF00F00040704710B500F07AF900BF9E
:102DA00064FBBE3E4FF47F0C1CEAD0121EBF1CEA2F
:102DB000D11392EA0C0F93EA0C0F00F0858090EA91
:102DC000010F48BF42F4807240F4000C41F400004F
:102DD0002CF07F4120F07F4000B58142A2EB03023E
:102DE0000FF2081CACEB504EC0F100009EF800E062
:102DF0004FEA4E0E00FB0EFC38BF49004FEA2C1C78
:102E000002F5FA020CFB0EF34FEACE1E4FEA112C2C
:102E10004FEAC1210EEB635E42EB22420EFB0CFC3B
:102E20004FEA1C5300FB03114FEA112C4FEA01310A
:102E30000EFB0CFC4FEADC4C00FB0C11C14228BF1E
:102E400009184CEB03335DF804EB10EB410143EB45
:102E5000C250B2F57C0F38BF704729D512F0F00F81
:102E60001CBF00F1C04000F0004070470081828329
:102E70008485868788898B8C8D8E8F919293959689
:102E800097999A9C9D9FA0A2A3A5A7A8AAACAEB013
:102E9000B2B3B5B7B9BCBEC0C2C5C7C9CCCED1D418
:102EA000D7D9DCDFE2E6E9ECF0F3F7FAFE00000048
:102EB0004FEA400C0CF1807CBCF17E4F28BF70477C
:102EC000B0F1C04000F02BB990EA010F0CEAD11329
:102ED00048BF42F48072624538BF634507D213F49D
:102EE0007F0F16D080EA010000F00040704710B557
:102EF00000F0CFF8097EFC3E00F005B880EA010042
:102F000000F00040704780EA010000F0004000F04F
:102F100006B912F47F0F04BF0248704780EA01002F
:102F200000F0FDB80000C07F41000B0ED3F19E02FF
:102F300008D950F400034FEA032323FA02F048BFF4
:102F40004042704710B500F0A4F800BF49922480B9
:102F5000002070476FF0004282EA200070470000B6
:102F600010F0004148BF4042B0FA80F310FA03F27B
:102F7000C3F19D030BD051EAC35101EB122053065C
:102F800038BF704700F1010008BF20F00100704712
:102F90004FF47F0C1CEAD0121EBF1CEAD11392EA38
:102FA0000C0F93EA0C0F00F0478090EA010F48BF26
:102FB00042F480724FF0004C4CEA00204CEA0121B0
:102FC00002EB0302A0FB0113A2F50002002918BFC7
:102FD00043F001035B0028BF4FEA330342EB224278
:102FE0005FEA132C4CEBC2502EBFBCEB436FB2F523
:102FF0007C0F70474FEA036CBCF1004F08BF20F014
:103000000100B2F57C0F38BF70470BD582F0FF028C
:1030100012F5803FC8BF704700F1C040D8BF00F034
:103020000040704700F5000C5FEA4C0C48BF704749
:10303000B0F1C04000F073B890EA010F0CEAD11370
:1030400048BF42F48072624538BF634504D280EACB
:10305000010000F00040704710B500F01AF800BF02
:103060008900013E00F007B800F009B85FEA410CA2
:103070005FEA1C6C08D080EA010000F050B85FEAFB
:10308000400C5FEA1C6CF6D14FF00040A0F58000C8
:1030900070470EF1020E2EF0030E5EF8044B244230
:1030A00004D44FEA4102B2F17F4F11D84FEA4003F6
:1030B000B3F17F4F0CD80ED14FEAD07CB2F17F4FE5
:1030C0000CEB4C0C0CF1020C08BF4CEBD17C04E077
:1030D0004FF0080C01E04FEAD17C0CEB4C0324FAD2
:1030E00003F404F00704B4F1040C06D20EEB840CD4
:1030F000BDE810404CF0010C6047DFE80CF0070819
:1031000002024FF00040A0F5800010BD08464200CA
:1031100018BFD2F1807288BF00F0004010BDFF21BF
:1031200041EAD050C005704790EA010F48BF81F0D6
:1031300000413FF5DCAD421A04D882F00042A0EB1A
:10314000020011444FEAD0524FF07F4C1CEA410F6D
:10315000A2EBD15318BF9CEA026F4AD04FF0004C4B
:103160004CEA00204CEA012121FA03FCB0EB0C0CE4
:103170000FD412F0FE0F36D05FEA4C001DD50012BE
:1031800040EBC25038BF70471CF03F0F18BF70476C
:103190000BE0A2F101025FEA1C2040EBC25038BFF5
:1031A00070471CF07F0F18BF7047C3F12003994090
:1031B00014BF401E20F00100704780084FEA122320
:1031C00008BF7047B0FA80FCA2EB0C02CCF1280CCF
:1031D00060FA0CF093EA122F04BF00EBC250704764
:1031E0004FEAC3707047130A5FEADC1008BF7047EC
:1031F000F6E79CEA026F04D010EA5C0F08BF0020DB
:10320000704710B5FFF745FF40DFF63E81F0004004
:10321000704700003432000800000020B0000000B9
:103220006C010008E4320008B000002078070000BC
:1032300088010008000000000000000000000000FD
:103240000000F03F0000000000000000000000004F
:10325000000000000000000000000000000000006E
:1032600000000000000000000000000000A24A046E
:103270000000000000000000010203040607080926
:10328000000000000000000001020304010203042A
:1032900006070809020406080000000000000000FC
:1032A000000000000000000000000000000000001E
:1032B000000000000000000000000000000000000E
:1032C00000000000000000000000000000000000FE
:1032D00000000000000000000000000000000000EE
:0432E00000000000EA
:04000005080001CD21
:00000001FF
