:020000040800F2
:10000000500700207902000875250008CF2300085A
:10001000712500084B180008952F0008000000000B
:10002000000000000000000000000000812A00081D
:100030000B2200080000000069290008AD2B000811
:10004000930200089302000893020008930200083C
:10005000930200089302000893020008930200082C
:10006000930200089302000893020008930200081C
:10007000930200089302000893020008930200080C
:100080009302000893020008930200080D2F000855
:10009000292F000893020008930200089302000829
:1000A00093020008930200089302000893020008DC
:1000B00093020008930200089302000893020008CC
:1000C00093020008930200089302000893020008BC
:1000D00093020008930200089302000893020008AC
:1000E000930200089302000893020008930200089C
:1000F000930200089302000893020008930200088C
:1001000093020008930200081D2C000893020008C7
:1001100093020008930200089D2C00089302000837
:10012000930200089302000893020008930200085B
:1001300000F002F800F090F80AA090E8000C824469
:100140008344AAF10107DA4501D100F085F8AFF246
:10015000090EBAE80F0013F0010F18BFFB1A43F0A5
:1001600001031847E047000000480000103A24BF90
:1001700078C878C1FAD8520724BF30C830C144BF0C
:1001800004680C607047000000230024002500264E
:10019000103A28BF78C1FBD8520728BF30C148BFEA
:1001A0000B6070476E2900F05981702900F09B8226
:1001B000662903F04D87652903F04A87672903F014
:1001C00047876129AFF3008003681B0A28BF41F00D
:1001D0008001692900F00681642900F003817529F6
:1001E00000F000816F2900F02982782900F06782F1
:1001F000E92900F0C381E42900F0C081F52900F06D
:10020000BD81EF2900F02682F82900F0668203689C
:10021000DB0928BF41F08001632900F0E8857329DC
:1002200000F0ED85E32900F0F885F32900F0FD8565
:10023000002070471FB500F049FE04000020002197
:1002400003F082F9401C60600020002103F066F991
:10025000E0601FBD10B510BD00F00BFE1146FFF7AA
:10026000E9FF02F075FF00F0E3FE03B4FFF7F2FFD1
:1002700003BC00F029FF00000948804709480047F7
:10028000FEE7FEE7FEE7FEE7FEE7FEE7FEE7FEE746
:10029000FEE7FEE704480549054A064B70470000A3
:1002A000BD2B00083101000850010020500700203C
:1002B00050030020500300201CB50C46064B7B4425
:1002C00069460090204600F0E2F8044600206946A6
:1002D00000F0F0F820461CBDF301000010B5431CEF
:1002E00002E010F8011B71B18107FAD14FF0013221
:1002F00002C88C1A8C4314EAC211F9D0C01A0A063B
:1003000003D0C01E10BDC01A10BD0A0401D0801E4B
:1003100010BD0902FCD0401E10BD704770477047E9
:1003200070B5044685690068C10601D5302600E035
:100330002026C00707D070BDD4E901213046904780
:10034000206A401C20626D1EF6D570BD70B5044653
:1003500085690078C00707D170BDD4E9012120204C
:100360009047206A401C20626D1EF6D570BD09685A
:100370004A0501D540B27047C905FCD500B27047A7
:1003800009684A0501D5C0B27047C905FCD580B2DD
:10039000704770B50C460546012A05D028788006BE
:1003A00000D5EA69002302E0012305E05B1C9342CB
:1003B00002D2E05C0028F9D1A869E618C01AA86149
:1003C000286A184428622846FFF7AAFF04E0D5E906
:1003D000012114F8010B9047B442F8D32846FFF7E7
:1003E000B5FF70BD2DE9F04106460024106875295F
:1003F000314616A510D0FFF7BAFF002802DA4042B6
:1004000013A507E031688A0701D512A502E0490764
:1004100004D511A5012401E0FFF7B2FF00210A2253
:1004200006F1240709E0B0FBF2FCB0FBF2F302FB9B
:100430001C00303078541846491C0028F3D123465C
:100440002A463046BDE8F04100F061BA00000000E5
:100450002D0000002B000000200000001168026841
:10046000006A530501D508700AE0D30501D508805C
:1004700006E0130603D5C217C1E9000200E00860D8
:100480000120704701694A1C02610878704700B575
:100490008FB0CDE901310021059105497944CDE9BD
:1004A00003101146684600F029F90FB000BD0000A6
:1004B000E5FFFFFF0A6802F8010B0A6070470000C1
:1004C0002DE9FF5F15468A460446DFF8AC80F84404
:1004D0000027D8E900103E46CDE9001010E03AF8B8
:1004E00016106A4602A800F0A4FC411C07D021782F
:1004F000890603D5E269391891420DD80744761C64
:100500002078800602D5E069B84205DDAE42E6DB20
:100510003AF816000028E2D1A069C01BA06120466D
:10052000FFF7FEFED8E90010CDE90010002017E02B
:100530003AF818106A4602A800F07BFCB0F1FF3FC1
:1005400081460BD000250DF1080B05E0D4E901210F
:100550001BF8050090476D1C4D45F7D308F10100CD
:10056000B0428046E4DB206A384420622046FFF730
:10057000EDFEBDE8FF9F00009A4300002DE9F04129
:100580008046D21D22F007020025D2E90002F5299B
:1005900015A614D0011E72F1000106DA0023D0EB7B
:1005A000030063EB020211A608E0D8F800108B07E5
:1005B00001D50FA602E0490701D50EA60125114677
:1005C000002408F1240704E000F05CF930323A55C9
:1005D000641C50EA0102F7D12B46324621464046C0
:1005E000BDE8F04100F093B9000000002D000000CC
:1005F0002B0000002000000030B4002100F1240492
:1006000008E002F00705D208303542EA4372DB0801
:100610006554491C52EA0305F3D10468002310A273
:10062000250708D504F020040C4304D0C469012335
:100630000CA2641EC46130BC00F069B910B5044658
:1006400021461068FFF79CFE02462046BDE8104098
:100650000023D1E7D21D22F00701D1E90023CBE727
:100660000000000030000000F0B40D4601880905CC
:1006700002D5214C7C4402E01F4C7C440E34002106
:1006800000F1240608E002F00F071209E75D42EAD4
:1006900003721B097754491C52EA0307F3D102780D
:1006A0000023120704D5702D06D009B1022311349E
:1006B0002246F0BC00F02BB901231034F8E770B5E6
:1006C00004460D4621461068FFF75AFE02462946A9
:1006D0002046BDE870400023C6E7D21D22F0070384
:1006E000D3E90023C0E70368126843F020030360E6
:1006F0000823C3610023B7E7FC4100002DE9F05F48
:10070000894604464FF0000ADFF874B1FB44C0F894
:1007100020A02046E1688847002874D0252806D00C
:10072000D4E901219047206A401C2062F1E70026AD
:100730005F462046E16888472028054607DB312DC3
:1007400005D2781910F8200C08B10643F1E7B0077C
:1007500001D526F00406C4F81CA00027C4F818A090
:100760002A2D09D0284602F081FC38B304EB870813
:10077000303DC8F8185019E059F8041B204604EB26
:1007800087029161E1688847012F054618D1E06929
:10079000002820DA26F020061DE0D8F8180000EB2B
:1007A000800005EB40003038C8F818002046E168AA
:1007B0008847054602F05AFC0028EED1012F0AD0E6
:1007C0002E2D08D12046E16888477F1C0546022F60
:1007D00046F02006C4DBA069002803DA404246F058
:1007E0000106A061F00701D026F010066C2D0BD099
:1007F000682D09D04C2D39D06A2D35D0742D35D0C7
:100800007A2D33D016E038E0E1682F46204688473D
:10081000B842054609D16C2F26D04FF48060E168BC
:10082000064320468847054604E06C2F1AD04FF453
:10083000807006430DB3A5F14100192802D8203578
:1008400046F400664A462946204626604E46FFF793
:10085000A9FC80B101280BD0F61D26F0070000F19D
:10086000080956E74020E4E78020D8E70020D6E7D3
:1008700006F104094DE7284652E7206ABDE8F09FDB
:100880008C41000030B5B0F10A024FEA900E71F1D0
:1008900000034EEA817EB0EB0E0061EB91014FEA5E
:1008A000101E4EEA017E10EB0E0041EB11114FEAD3
:1008B000102E4EEA016E10EB0E0041EB11214FEAB3
:1008C000104E4EEA014E10EB0E0041EB1141401864
:1008D00041F100014FEAD00040EA41704FEAD101F6
:1008E00010EB80054FEA810444EA907444EB010464
:1008F0006D1944EB0404521BA3414FF0000348BFA1
:100900000A3200D530BD401C41F1000130BD2DE957
:10091000F0470D4699469246044600F124080168C6
:10092000880604D5E06921F01001216000E0012073
:10093000A84201DD471B00E00027A1697A1902EBFC
:100940000900081AA0612078C00602D42046FFF7EB
:10095000E7FC002608E0D4E901211AF806009047D8
:10096000206A401C761C20624E45F4DB2078C006CD
:100970000AD52046FFF7D4FC06E0D4E90121302057
:100980009047206A401C2062381EA7F10107F4DC62
:1009900007E0D4E9012118F805009047206A401CBF
:1009A0002062281EA5F10105F3DC2046FFF7CEFCEE
:1009B0002078000602D50220BDE8F0870120FBE781
:1009C00070472DE9FF4F0C461E464FF0FF378BB0A6
:1009D000D2E90001DDF860800A908A46C1F30A5529
:1009E00005B93D46002108464FF00000BAF1000F5E
:1009F00000F4400005DA00EB80004FF4400101EA0A
:100A000050004FEA9059B9F1010F00DDB9460A983C
:100A100050EA4A000ED044F61050A5F2FF35454387
:100A20002F14B8F1000F1ED07542291E1EDDC9F12A
:100A300000021CE0B8F1010F4FF0000001D030219E
:100A400003E0F24305E02154401CB042FBDB30469A
:100A50000022002121540B99C1F80880C1E900202F
:100A60000FB0BDE8F08FBD1B6D1CDEE74A4600DA13
:100A7000694206A800F06EFA06AB93E8070003ABE4
:100A800083E8070050460A9900F024FB8DE8070030
:100A9000A0F500501F3800900398002D09DD42F2A8
:100AA0001F014A46084403A90390684600F083FDED
:100AB00008E0A0F500504A461F3803A90390684695
:100AC00000F08DFD8DE807000004000C03D04FF00E
:100AD000FF30410800E01046B8F1000F03D00022BB
:100AE000009215461EE0751E05D4FFF7CBFE30328E
:100AF00062556D1EF9D5B3460122084302D000228B
:100B00007F1C04E02078302801D100227F1E002ABB
:100B1000099786D01DE0112D07DAFFF7B3FE3032BA
:100B200062556D1C50EA0102F5D1084302D00098CD
:100B3000C8B10EE00021681E05E0235C625C6354CE
:100B40002254401E491C8142F7DBAB46A81B401EC5
:100B50000990002004F80B000B98099AC0F808804F
:100B6000C0E9002B7CE711264FF0000859E72DE97A
:100B7000F04F88460446D21D22F0070191B0D1E91A
:100B80000001CDE90A0102F05DFA02460B98C00FA0
:100B900001D02D2007E02068810701D52B2002E03D
:100BA000202101EAC000032A099001D0072A05DBB1
:100BB00003464146204600F08DF90BE1207880067F
:100BC00001D5E06900E00620B8F1650F814606D046
:100BD000B8F1660F18D0B8F1670F70D131E000207E
:100BE000B9F1110F009001DB112301E009F10103BC
:100BF0000AAA01A90CA8FFF7E4FEDDE90C700026A3
:100C000009F10105834647E001204B4600904FF073
:100C100000470AAA01A90CA8FFF7D3FEDDE90DB031
:100C20000C995D46002610B909F101000D18B9EBC9
:100C3000050003D4C0F1FF3609F10105A5EB090059
:100C40002BE0B9F1010F01DA4FF001090020B9F1F1
:100C5000110F0090484601DD112300E003460AAA67
:100C600001A90CA8FFF7ADFEDDE90C704D4600268A
:100C70008346207800070AD4AB4500DA5D4601A818
:100C8000012D04DD411911F8011C302907D04F4511
:100C900002DA17F1040F04DA012082460FE06D1E1C
:100CA000EEE7002F02DCED1B3E4403E0781CA84277
:100CB00000DD7D1CB81B00F1010A4FF000472078D1
:100CC000000703D4AA4501DB4FF0FF3A0021B7F13A
:100CD000004F0DF143088DF8431024D002202B2340
:100CE000002F01DA7F422D230A21021EA0F101000C
:100CF00000DC5FB197FBF1FC97FBF1F201FB1C7C80
:100D000017460CF1300C08F801CDEEE7A8F1010010
:100D100003702188090501D5452100E06521A0F176
:100D2000010800F8011C09980FA9A1EB0807FF1D95
:100D300000B10120411901EBEA70A1693844081A99
:100D4000401EA0612078C00602D42046FFF7E8FAD2
:100D5000099828B1D4E901219047206A401C2062FB
:100D60002078C00622D52046FFF7DAFA1EE0002ED2
:100D700004DBB34502DD01A8805D00E03020D4E94A
:100D800001219047206A401C2062761CAAF10100D4
:100D90005FEA000A0AD100F099F8C0680168405C77
:100DA000D4E901219047206A401C2062281EA5F149
:100DB0000105DCDC07E0D4E9012118F8010B9047BC
:100DC000206A401C2062381EA7F10107F3DC204690
:100DD000FFF7BCFA032011B043E610B5436913B125
:100DE000AFF3008001E0FFF7D4FA012010BD1278C4
:100DF00000F124010A7000224A700122EDE7116817
:100E00004FF0FF32E9E710B5436913B1AFF300804B
:100E100001E0FFF755FB012010BD128800F124010D
:100E200082840022C2840122EDE711684FF0FF3274
:100E3000E9E770B516460C46054600F03FF8036832
:100E400093F80101012806D0FF2C0FD8185D68B176
:100E500001202C7070BDD3F807013246214603F201
:100E6000071303442846BDE8704018474FF0FF3091
:100E700070BD754600F0E2F8AE460500694653467F
:100E800020F00700854618B020B5FFF703FABDE84B
:100E900020404FF000064FF000074FF000084FF0E1
:100EA000000B21F00701AC46ACE8C009ACE8C00972
:100EB000ACE8C009ACE8C0098D46704710B500F039
:100EC00005F8001D10BD00BF8126000000487047D6
:100ED000100100202DE9F0411F4604460326016859
:100EE000072A01F4006004DB08B116A505E016A589
:100EF00003E008B115A500E015A521F01000206061
:100F0000A069C01EA0610FB1401EA0612046FFF77E
:100F100007FA4FB1D4E9012138469047206A401CB6
:100F20002062C01C206206E0206AFAE7D4E90121B1
:100F300015F8010B9047761EF8D22046FFF706FA07
:100F4000BDE8F0814E414E006E616E00494E460094
:100F5000696E66002DE9F047814616468AB033482F
:100F600078440DC88DE80D0030487844801C03ACEF
:100F70000DC884E80D0041F69B300844372190FBF2
:100F8000F1F290FBF1F5A5F1800501FB12041B3C89
:100F900002D56442012000E00020DFF890A08046E6
:100FA0000027FA44AAF1BE0A0DE0E00709D0324654
:100FB000684607EB47010AEB810100F010FB8DE862
:100FC000070064107F1C002CEFD1184F7F44AC3F0A
:100FD00018E0E80714D007EB04100DF1180A90E8A8
:100FE0000E008AE80E00C068F04201D198190890FE
:100FF000324606A903A800F0F2FA03AB83E8070023
:101000006D10641C002DE4D132466946B8F1000F22
:1010100003A802D000F0CFFA01E000F0E0FAC9E93D
:101020000001C9F808200AB0BDE8F087C8390000FF
:101030000446AFF300802046FFF717F900487047D9
:10104000F0000020704700004FF0013C50F8042BE6
:1010500051F8043B9A4221D1A2EB0C03934313EACB
:10106000CC1317D150F8042B51F8043B9A4215D1F8
:10107000A2EB0C03934313EACC130BD150F8042BCF
:1010800051F8043B9A4209D1A2EB0C03934313EAB3
:10109000CC13DBD04FF00000704700BFD01A01BA6C
:1010A000B1FA81F101F0180122FA01F0CB40C1F14F
:1010B0002001DBB2C0B2C01A2CFA01F3D11A91435D
:1010C00011EAC311E6D1704701491820ABBEFEE713
:1010D000260002005FEA400C08BF91F0000F4FEAC3
:1010E0008C234FEAC12243EA51514FEA1C5018BFEA
:1010F00000F5F0404FEA300018BF41F000415FEAD0
:101100006C5C00F02980BCF1FF3F08BF40F08040DC
:101110007047130C06BF12044FF0100C4FF0000C78
:10112000130E04BF12020CF1080C130F04BF1201BE
:101130000CF1040C930F04BF92000CF1020CD30FBE
:1011400004BF52000CF1010C11464FF00002A0F157
:101150001F00A0EB0C00704711F0004F08BF704754
:1011600031F000413FF4D5AF0B0C06BF09044FF03E
:10117000100C4FF0000C0B0E04BF09020CF1080C10
:101180000B0F04BF09010CF1040C8B0F04BF890085
:101190000CF1020CCB0F04BF49000CF1010CCCF197
:1011A0002003A0EB0C0022FA03F302FA0CF241EA4E
:1011B000030100F10100704720F07F4C80EA03003A
:1011C00023F07F47ACEB070303F57C5300F00040AE
:1011D00003F1FF032DE980494FEA154B09B44FEAAB
:1011E000144325EA0B4E24EA03480FF2042606EBCB
:1011F000132749083E785FEA320203FB0667C7F50A
:10120000000707FB06F64FEA54374FEAD64606F1C9
:10121000020607FB066CCCF1005C4FEA1C472CEA87
:10122000074C07FB06F40CFB06F504EB15464FEAEA
:10123000961634BF00204FF000404FEAD13706FB2E
:1012400007FC4FEA1C4C0CFB0BF7D21B03FB0CF703
:1012500061EB07010CFB0EF7B0EB074072EB174296
:101260000CFB08F734BFA2EB0742B2EB074261EB7D
:1012700017414FEA0C444FEA910706FB07FC4FEA7F
:101280001C4C0CFB0BF7B0EBC74072EB573203FB67
:101290000CF734BFA2EBC742B2EBC74261EB573148
:1012A0000CFB0EF7B0EBC70072EB57720CFB08F7A4
:1012B00034BFA2EBC702B2EBC70261EB5771039FC9
:1012C0004FEA816141EA921104EBCC044FEAD13735
:1012D0004FEA826206FB07FC42EA90124FEA806006
:1012E0004FEA1C4C0CFB0BF7D21B03FB0CF761EB1A
:1012F00007010CFB0EF7B0EB074072EB17420CFB3B
:1013000008F734BFA2EB0742B2EB074261EB17418B
:101310004FEA8C554FEA910704EB9C2406FB07FC2F
:101320004FEA1C4C0CFB0BF7B0EBC74072EB57328B
:1013300003FB0CF734BFA2EBC742B2EBC74261EB31
:1013400057310CFB0EF7B0EBC70072EB57720CFB7A
:1013500008F734BFA2EBC702B2EBC70261EB5771CB
:1013600015EB4C254FEA816141EA92114FEA826206
:101370004FEAD13742EA901206FB07FC44F1000421
:101380004FEA80604FEA1C4C0CFB0BF7D21B03FBAF
:101390000CF761EB07010CFB0EF7B0EB074072EBAB
:1013A00017420CFB08F734BFA2EB0742B2EB07422F
:1013B00061EB174115EB1C154FEA813141EA92416F
:1013C0004FEA823242EA90424FEA80304FEA0C768E
:1013D00044F1000448EA03434EEA0B484FF0000E84
:1013E000B2EB080C71EB030724BF624639464EEBA3
:1013F0000E0E4FF0000B0018524149414BEB0B0B06
:10140000B2EB080C71EB03077BF1000B24BF6246C3
:1014100039464EEB0E0E4FF0000B00185241494179
:101420004BEB0B0BB2EB080C71EB03077BF1000BE2
:1014300024BF624639464EEB0E0E51EA020718BF32
:1014400046F0010616EB0E7655F1000254F100014C
:1014500003D5BDE88901BDE80088BDE88901BDE884
:101460000048B619524141EB0101A3F10103704755
:1014700080807F7E7D7C7B7A7978777676757473D1
:10148000727171706F6E6E6D6C6C6B6A6A69686890
:10149000676666656464636362616160605F5F5E26
:1014A0005E5D5D5C5C5B5B5A5A595958585757569C
:1014B0005655555554545353525252515150505001
:1014C0004F4F4F4E4E4D4D4D4C4C4C4B4B4B4A4A53
:1014D0004A49494948484847474747464646454597
:1014E00045444444444343434342424242414141D0
:1014F000002B26D4770021D01CB54FEA370703B460
:101500004FF010004FF010014FF000000FBCBDE88D
:1015100010400BF1010BBBF1010F08BF5FEA170789
:1015200022BF12F1010211F101014FF0004143F11C
:10153000000300F0004043EA00007047F9D3570869
:10154000DAE746EA064613F1400F4FEA16461FDD7A
:1015500013F1200FDFBF16430A46002120335B4200
:10156000C8D0C3F1200746EA064602FA07F74FEA59
:10157000164646EA0706C3F1200722FA03F201FAEB
:1015800007F721FA03F14FF0000342EA0702B1E73F
:1015900046EA020646EA06464FEA164646EA0106CB
:1015A000BCBF46EA0646360C4FF000034FF000027F
:1015B0004FF000019EE72DE9C048934630B491E812
:1015C000380007C831EA400C48BF34EA430C03D561
:1015D000FFF7F2FDFFF78CFFF0BCBDE800882DE9B6
:1015E000C048934630B491E8380007C810F0804FE7
:1015F00008BF13F0804F03D100F005F8FFF778FF24
:10160000F0BCBDE8008820F07F4780EA030023F0AB
:101610007F4C07EB0C03A3F57C5300F00040A3F1D3
:10162000FE0392F0000F00F0B38095F0000F00F081
:1016300077802DE901494FEA11404FEA144621EA2B
:10164000004800FB06FC24EA064708FB06F607FBF9
:1016500008F800FB07F718EB06484CEB164C4FEA6E
:10166000124B18EB07484FEA15464CEB174022EA9D
:101670000B4E0BFB06FC25EA06470EFB06F607FBA6
:101680000EFE0BFB07F71EEB064E4CEB164C4FF015
:1016900000061EEB074E4CEB174B18EB0B0840F106
:1016A000000018EB0E0B58EB000840F100008F1AF9
:1016B0004FF000013CBFC943661B14BFB5EB040CDF
:1016C00000213CBFC943F61B4FEA17444EEA8E0E79
:1016D00027EA04454FEA1C4704FB07622CEA074C43
:1016E00005FB07F70CFB05F604FB0CFC16EB0746A5
:1016F00042EB174216EB0C4642EB1C421BEB060674
:1017000058EB0202414146EA9E0601D5BDE8018937
:10171000B619524141EB0101A3F10103BDE8018972
:101720004FEA14454FEA114724EA054621EA074CDF
:1017300005FB07F406FB07F70CFB06F105FB0CFCA9
:1017400011EB074144EB17444FEA124711EB0C41F0
:1017500044EB1C4422EA074C05FB07F206FB07F7A3
:101760000CFB06F605FB0CFC16EB074642EB17429A
:1017700016EB0C4642EB1C456A1854F1000148BFB9
:101780007047B619524141EB0101A3F101037047C3
:1017900095F0000F37D04FEA11424FEA144721EA83
:1017A000024624EA074C02FB07F106FB07F70CFB95
:1017B00006F402FB0CFC14EB074441EB17414FEA23
:1017C000154714EB0C4441EB1C4125EA074C02FB86
:1017D00007F506FB07F70CFB06F602FB0CFC16EB05
:1017E000074645EB174516EB0C4645EB1C42121914
:1017F00051F1000148BF7047B619524141EB010158
:10180000A3F1010370474FEA14454FEA114724EA58
:10181000054621EA074C05FB07F106FB07F70CFB21
:1018200006F24FF0000605FB0CFC12EB074241EB01
:10183000174112EB0C4251EB1C4148BF7047921804
:1018400041EB0101A3F10103704700BFFEE7000077
:10185000B1F5007F3AD00FDC202928D006DC012921
:101860001CD004291DD0082940D11DE0402921D0D9
:10187000B1F5807F3AD126E0B1F5004F31D006DCDA
:10188000B1F5806F25D0B1F5006F2FD124E0B1F50F
:10189000803F12D0B1F5003F28D111E0154A826097
:1018A00025E00822C26022E01022C2601FE0082268
:1018B00002611CE01022026119E00822426016E079
:1018C0001022426013E00422426010E004224260D1
:1018D0000DE0042242600AE000228261042242609C
:1018E00005E0002282610422426000E000BF00BFE8
:1018F000704700000101010010B50021837A012228
:1019000002FA03F13D4A126842F001023B4B1A60B1
:101910003A4A1C3212688A43384B1C331A60027BE5
:10192000CAB9364A0C3212688A43344B0C331A60F7
:101930004288C38842EA0343304A4032847A42F8FC
:1019400034300288838842EA03432C4A4032847A46
:1019500002EBC4025360027B012A19D1274A0C32E0
:1019600012680A43254B0C331A604288038842EA06
:101970000343224A4032847A42F83430C288838852
:1019800042EA03431D4A4032847A02EBC4025360A8
:10199000C27A3AB9194A121D12688A43174B1B1DA5
:1019A0001A6006E0154A121D12680A43134B1B1DEC
:1019B0001A60028932B9114A143212688A430F4BF5
:1019C00014331A600289012A06D10C4A14321268B3
:1019D0000A430A4B14331A60427B012A06D1074A94
:1019E0001C3212680A43054B1C331A60034A126802
:1019F00022F00102014B1A6010BD00000066004099
:101A000070B504460D46002660692840002871D054
:101A1000B5F5807F5CD010DC082D35D006DC012DBB
:101A200020D0022D24D0042D72D127E0102D31D0EA
:101A3000202D35D0402D6BD138E0B5F5004F60D06A
:101A400009DCB5F5007F49D0B5F5806F4CD0B5F510
:101A5000006F5DD14FE0B5F5803F2DD0B5F5003F6B
:101A600056D12FE0A0682D4900F0C6FB064651E094
:101A7000E068032100F0C0FB06464BE0E068082167
:101A800000F0BAFB064645E0E068102100F0B4FB28
:101A900006463FE02069032100F0AEFB064639E030
:101AA0002069082100F0A8FB064633E020691021D8
:101AB00000F0A2FB06462DE06068082100F09CFBC8
:101AC000064627E06068102100F096FB064621E0FC
:101AD000A069012100F090FB06461BE0A0690221ED
:101AE00000F08AFB064615E0A069042100F084FBA3
:101AF00006460FE00FE0A069702100F07DFB06466E
:101B000008E06068042100F077FB064602E0FFE78A
:101B1000002600BF00E00026304670BD0101010034
:101B20001AB143690B43436102E043698B4343614C
:101B3000704730B5024600200023146824F00204E8
:101B40001460146844F00104146000E05B1C5468E5
:101B500004F001041CB94FF6FF74A342F6D1546897
:101B600004F001040CB900206CE08C79012C04D144
:101B7000146844F08004146003E0146824F08004C6
:101B80001460CC79012C04D1146844F04004146032
:101B900003E0146824F0400414600C7A012C04D192
:101BA000146844F02004146003E0146824F0200456
:101BB00014604C7A012C04D1146844F010041460B1
:101BC00003E0146824F0100414608C7A012C04D112
:101BD000146844F00804146003E0146824F0080456
:101BE0001460CC7A012C04D1146844F0040414600D
:101BF00003E0146824F0040414608C78A407CD7802
:101C000044EA05640D7944EA05444D7944EA0554F3
:101C10000D886D1E2C43D461146824F001041460F7
:101C2000002300E05B1C546804F001041CB14FF673
:101C3000FF74A342F6D1546804F001040CB10020F3
:101C400000E0012030BD000000B589B00121042072
:101C500000F09CFE0121480600F088FE4FF4805001
:101C6000ADF8200003208DF8220018208DF8230005
:101C700008A9374800F0CAFA4FF40060ADF8200018
:101C800048208DF8230008A9314800F0BFFA002051
:101C90008DF81A008DF81B008DF81C008DF81D00C2
:101CA0008DF81E0001208DF81F0000208DF8160011
:101CB0008DF8170008208DF8180007208DF81900FE
:101CC0000220ADF8140005A92248FFF732FF0020DA
:101CD0008DF80E008DF80F0001208DF81000002007
:101CE000ADF80400ADF80600ADF80800ADF80A0044
:101CF000ADF80C0001208DF8110001A8FFF7FCFDE4
:101D0000012202211348FFF70BFF0122114611485F
:101D1000FFF706FF14208DF8000001208DF8010068
:101D20008DF802008DF80300684600F025FC1320B2
:101D30008DF8000000208DF8010001208DF80200D0
:101D40008DF80300684600F017FC09B000BD0000E4
:101D5000000801400064004010B500F5D87303EBA3
:101D600001131B6803F004031372137A53B900F5CF
:101D7000D87303EB01131B6840F2FF7404EA53535A
:101D8000136009E000F5D87303EB01131B686FF0D3
:101D9000604404EAD303536000F5D87303EB0113E6
:101DA0001B6803F00203537200F5D87303EB0113B1
:101DB0005B6803F00F03937200F5D87303EB011314
:101DC0005B681B0AD37400F5D87303EB01139B689F
:101DD000D37200F5D87303EB01139B681C0A1473CC
:101DE00000F5D87303EB01139B681C0C547300F5CA
:101DF000D87303EB01139B681B0E937300F5D87324
:101E000003EB0113DB68D37300F5D87303EB011305
:101E1000DB681C0A147400F5D87303EB0113DB684C
:101E20001C0C547400F5D87303EB0113DB681B0E14
:101E3000937421B9C36843F02003C36003E00369CE
:101E400043F02003036110BD10B5024600209368E3
:101E500003F08063B3F1806F00D110E0936803F06A
:101E60000063B3F1006F01D1012008E0936803F033
:101E70008053B3F1805F01D1022000E004200428E8
:101E800074D002F5C07303EB00131B6803F0010468
:101E900002F5C07303EB00131C600B7A7BB94B7A1D
:101EA0000C8843EA445302F5C07404EB0014246820
:101EB000234302F5C07404EB0014236010E00B7A96
:101EC0004C6843EAC4034C7A234302F5C07404EB24
:101ED00000142468234302F5C07404EB001423604B
:101EE0008B7A03F00F038B7202F5C07303EB0013C0
:101EF0005B6823F00F0402F5C07303EB00135C6012
:101F000002F5C07303EB00135B688C7A234302F580
:101F1000C07404EB001463608B7B1C064B7B44EAAB
:101F200003440B7B44EA0323CC7A234302F5C074B9
:101F300004EB0014A3608B7C1C064B7C44EA034436
:101F40000B7C44EA0323CC7B234302F5C07404EBEF
:101F50000014E36002F5C07303EB00131B6843F049
:101F6000010402F5C07303EB00131C6010BD0000F8
:101F70002DE9F04F89B03848408837490988401A20
:101F800000B2364908830846C08B098B084400B26A
:101F90003249C8830846B0F91E0006900846408BB7
:101FA000898B401A00B207902C48408B2B498883BC
:101FB0000846008B4883079801F01FFC04460D4635
:101FC0002649D1E904633246294601F069FCCDE98E
:101FD0000201069801F011FC04462048D0E9026392
:101FE0003246204601F05CFC804689461B49B1F927
:101FF000180001F002FC04461848D0E9006332469C
:10200000204601F04DFC824642464B4601F0E4FA80
:10201000CDE90001DDE9022301F0DEFACDE904019A
:1020200001F08EFB00B20D4908840846B0F920008B
:102030000B49884203DA4FF62420084908840748F0
:10204000B0F9200040F2DC51884202DD0846034925
:10205000088409B0BDE8F08F5C0000207800002003
:1020600024FAFFFF2DE9F04F89B0384840883749FE
:102070000988401A00B2364908830846C08B098B8C
:10208000084400B23249C8830846B0F91E000690E1
:102090000846408B898B401A00B207902C48408B31
:1020A0002B4988830846008B4883079801F0A5FBDD
:1020B00004462748D0E904633246204601F0F0FB8D
:1020C000CDE90201069801F098FB04462048D0E9CA
:1020D00002633246204601F0E3FB804689461C49F4
:1020E000B1F9180001F089FB04460D461849D1E901
:1020F00000633246294601F0D3FB824642464B46F6
:1021000001F06AFACDE90001DDE9022301F064FA89
:10211000CDE9040101F014FB00B20D490884084622
:10212000B0F920000B49884203DA4FF62420084911
:1021300008840748B0F9200040F2DC51884202DDF3
:1021400008460349088409B0BDE8F08F600000200C
:10215000A000002024FAFFFF70B54FF033321E4B71
:102160001E4903C901F09AFC06D24FF033311A48D8
:102170001A4AC2E900100DE04FF03332184B1749EC
:1021800003C901F051FB05D24FF033311448134A13
:10219000C2E90010114903C900F07CFF044601F0B8
:1021A000CFFA00B20F4948800C4903C900F072FF12
:1021B000044601F0C5FA00B20B494880FFF7D8FE8B
:1021C000FFF750FF0948B0F920200948B0F9201066
:1021D000084800F0CBFC70BD3333F33F0000002013
:1021E0003333F3BF5C00002060000020A00000201B
:1021F00078000020006400400246002002EA01034B
:102200000BB1012000E00020704770472DE9F0413C
:10221000024600250026002000230024002791F814
:1022200003C00CF00F0591F803C00CF0100CBCF1CA
:10223000000F03D091F802C04CEA050591F800C0E8
:10224000BCF1000F31D0146800202BE04FF0010CDE
:102250000CFA00F3B1F800C00CEA03069E4220D14C
:1022600083004FF00F0C0CFA03F7BC4305FA03FC94
:102270004CEA040491F803C0BCF1280F06D14FF0DA
:10228000010C0CFA00FCC2F814C00AE091F803C07B
:10229000BCF1480F05D14FF0010C0CFA00FCC2F85C
:1022A00010C0401C0828D1D31460B1F800C0BCF1A4
:1022B000FF0F34DD546800202EE000F1080C4FF0D1
:1022C000010808FA0CF3B1F800C00CEA03069E42BC
:1022D00021D183004FF00F0C0CFA03F7BC4305FA31
:1022E00003FC4CEA040491F803C0BCF1280F05D1AB
:1022F00000F1080C08FA0CF8C2F8148091F803C039
:10230000BCF1480F07D100F1080C4FF0010808FAA2
:102310000CF8C2F81080401C0828CED35460BDE8E9
:10232000F0810000F0B50A460023002400210025BA
:1023300000F00046B6F1004F02D11D4EF16901E0F8
:102340001B4E7168C0F3034583B200F44016B6F526
:10235000401F08D121F07061154E766826F0706636
:10236000134F7E6012E000F48016B6F5801F06D190
:10237000032606FA05F4A14341F0706106E0460D1C
:10238000360103FA06F6B14341F0706122B1460D01
:10239000360103FA06F6314300F00046B6F1004F6D
:1023A00002D1034EF16101E0014E7160F0BD000009
:1023B000000001400246002093680B400BB1012051
:1023C00000E000207047416170470161704700BF25
:1023D000FEE7000010B540210748FFF7F6FF802117
:1023E0000548FFF7F2FF80210348FFF7ECFF40218B
:1023F0000148FFF7E8FF10BD0014014010B540216F
:102400000548FFF7E2FF80210348FFF7DCFF80214A
:102410000148FFF7DAFF10BD0014014010B540215C
:102420000348FFF7D2FF40210148FFF7CCFF10BD62
:102430000014014008B50121402000F0A7FA4FF434
:102440006770ADF8000048208DF803006946024827
:10245000FFF7DCFE08BD00000018014010B504467F
:1024600014B10120404908703F480078002852D03C
:1024700010213E48FFF79EFFD0B108213B48FFF7EF
:1024800099FFA8B104213948FFF794FF80B180215A
:102490003648FFF78FFF58B14FF480713348FFF78C
:1024A00089FF28B14FF400713048FFF783FF88BBE4
:1024B0000A2000F0E3FD00202B49087010212B4872
:1024C000FFF778FF08B9012010BD08212748FFF762
:1024D00071FF08B90220F7E704212448FFF76AFFDB
:1024E00008B90320F0E780212048FFF763FF08B90F
:1024F0000420E9E74FF480711C48FFF75BFF08B93F
:102500000520E1E74FF400711848FFF753FF40BB87
:102510000620D9E7FFE710211448FFF74BFF0128F9
:102520001FD108211148FFF745FF012819D10421C7
:102530000E48FFF73FFF012813D180210B48FFF71A
:1025400039FF01280DD101020848FFF733FF0128A8
:1025500007D141020548FFF72DFF012801D10249AB
:1025600008700020B0E7000074000020001801404F
:1025700000BFFEE77047000070B5002100230F2266
:10258000C47804B3154C246804F4E064C4F5E06432
:10259000210AC1F10403CA40447804FA03F18478A3
:1025A0001440214309010E4C0678A155047804F02B
:1025B0001F050124AC4005786D11AD0005F1E02543
:1025C000C5F8004109E0047804F01F050124AC407F
:1025D000044D0678761145F8264070BD0CED00E0FC
:1025E00000E400E080E100E002490143024A11609A
:1025F000704700000000FA050CED00E070B5002403
:1026000018E004F1B000002100F067F9002108464D
:1026100000F063F90021102000F05FF9002505E0CB
:102620000121002000F059F9681CC5B2802DF7DBAC
:10263000601CC4B2082CE4DB70BD000008B50121A9
:10264000202000F0A3F9C020ADF8000010208DF884
:10265000030003208DF8020069463B48FFF7D6FDD2
:10266000C0213948FFF7B1FEC82000F007FD002166
:10267000AE2000F032F90021084600F02EF90021CA
:10268000102000F02AF90021402000F026F9002156
:10269000B02000F022F90021812000F01EF9002175
:1026A000FF2000F01AF90021A12000F016F9002106
:1026B000A62000F012F90021A82000F00EF9002158
:1026C0003F2000F00AF90021C82000F006F900219F
:1026D000D32000F002F90021084600F0FEF80021A6
:1026E000D52000F0FAF80021802000F0F6F8002153
:1026F000D82000F0F2F80021052000F0EEF80021CB
:10270000D92000F0EAF80021F12000F0E6F80021DD
:10271000DA2000F0E2F80021122000F0DEF80021BB
:10272000DB2000F0DAF80021302000F0D6F800219C
:102730008D2000F0D2F80021142000F0CEF8002106
:10274000AF2000F0CAF808BD0014014070B504467F
:102750000D4605F1B000002100F0BFF8102141EA5C
:102760001410002100F0B9F804F00F00002100F06F
:10277000B4F870BD2DE9F04707460E4690469946DD
:1027800000250024A8F12000C5B27F2F02DD00271C
:10279000B01CC6B2B9F1100F24D131463846FFF74C
:1027A000D5FF002408E004EB0511194A505C012113
:1027B00000F093F8601CC4B2082CF4DB701CC1B2AA
:1027C0003846FFF7C3FF002409E004EB0511083188
:1027D0000F4A505C012100F080F8601CC4B2082C44
:1027E000F3DB12E031463846FFF7B0FF00240AE081
:1027F00005EB4501074A02EB4101085D012100F0AC
:102800006CF8601CC4B2062CF2DBBDE8F087000057
:102810007C420008544000082DE9FF5F07469146BE
:102820001E460E9D4FF0000A002435E0301B401E6E
:10283000C1B20A2000F0E4FDB9FBF0F00A21B0FBC0
:10284000F1F201FB1208BAF1000F14D1701EA04280
:1028500011DDB8F1000F0CD1AB4605EBDB7149106F
:1028600001FB0471C8B22B4620220199FFF782FFB9
:1028700010E04FF0010AAB4605EBDB71491001FB9C
:102880000471C8B208F13001CAB22B460199FFF7B2
:1028900071FF00BF601CC4B2B442C7DBBDE8FF9F3C
:1028A0002DE9F04104460F461546984600260FE0F4
:1028B000AA5D434639462046FFF75CFF04F1080055
:1028C000C4B2782C02DD0024B81CC7B2701CC6B29A
:1028D000A85D0028ECD1BDE8F08170B504460D4636
:1028E0001DB1E0B200F098FB02E0E0B200F07EFB28
:1028F00070BD00001648D0E90010164AC2E9001069
:102900001548D0E90010C2E90210144903C9C2E910
:1029100004010F4903C9124A03C20F48D0E900104D
:10292000083AC2E902100D48D0E90010C2E90410CB
:102930000748D0E900100B4AC2E90010064903C954
:10294000C2E90201054903C9C2E904017047000058
:10295000180000207800002020000020280000201F
:10296000A0000020C80000207047000029B1064ADE
:10297000D2690243044BDA6104E0034AD26982431C
:10298000014BDA61704700000010024029B1064A8D
:1029900092690243044B9A6104E0034A92698243BC
:1029A000014B9A61704700000010024030B50021D1
:1029B0000022002400232D4D6D6805F00C0121B18B
:1029C000042905D0082923D105E0294D056022E01E
:1029D000274D05601FE0254D6D6805F47012234DED
:1029E0006D6805F48034022505EB92421CB9214D37
:1029F000554305600BE01D4D6D6805F400351DB1B4
:102A00001C4D5543056002E0194D5543056002E039
:102A1000174D056000BF00BF144D6D6805F0F00153
:102A20000909154D6B5C0568DD4045600F4D6D680B
:102A300005F4E061090A104D6B5C4568DD40856076
:102A40000A4D6D6805F46051C90A0B4D6B5C456811
:102A5000DD40C560054D6D6805F44041890B074DAB
:102A60006B5CC568B5FBF3F5056130BD0010024035
:102A700000127A0000093D004800002058000020A4
:102A8000704710B500F002F810BD00000CB5002032
:102A9000019000903348006840F48030314908606C
:102AA00000BF3048006800F4003000900198401CDE
:102AB0000190009818B90198B0F5A06FF1D129489C
:102AC000006800F4003010B10120009001E0002007
:102AD00000900098012843D12348006840F010007E
:102AE000214908600846006820F003000860084695
:102AF000006840F0020008601A48406819494860C0
:102B00000846406848600846406840F48060486075
:102B10000846406820F47C1048600846406840F44D
:102B2000E81048600846006840F08070086000BF08
:102B30000C48006800F000700028F9D0094840688F
:102B400020F00300074948600846406840F0020052
:102B5000486000BF0348406800F00C000828F9D125
:102B60000CBD0000001002400020024070B586B08D
:102B700006460C4615464FF40070019000208DF873
:102B80000C008DF80D0008208DF80E00200A8DF83D
:102B90000F008DF81040290A8DF811108DF8125091
:102BA00001A93046FFF750F906B070BD0248006831
:102BB000401C0149086070474400002010B51348CC
:102BC000006840F00100114908600846406810495B
:102BD00008400E494860084600680E4908400B4905
:102BE00008600846006820F48020086008464068B5
:102BF00020F4FE0048604FF41F008860FFF741FF9B
:102C00004FF000600449086010BD00000010024051
:102C10000000FFF8FFFFF6FE08ED00E010B501210F
:102C2000054800F058F828B10121034800F044F8A5
:102C3000FFF792FA10BD0000000C00407FB505467A
:102C40000C4601210820FFF791FEADF80850ADF8C1
:102C500004400020ADF80A00ADF8060001A90E48B6
:102C600000F054F8012211460B4800F045F83220DC
:102C70008DF8000001208DF8010000208DF8020081
:102C800001208DF803006846FFF776FC0121024819
:102C900000F015F87FBD0000000C004010B50121C8
:102CA000044800F018F818B10121024800F004F8B7
:102CB00010BD000000100040CA430282704721B1DD
:102CC000028842F00102028004E002884FF6FE739F
:102CD0001A400280704730B50246002000230024CD
:102CE000158A05EA0103958905EA010413B10CB1BF
:102CF000012000E0002030BD1AB183890B4383819D
:102D000002E083898B4383817047000000220288A0
:102D10001D4B98420ED01D4B98420BD0B0F1804F06
:102D200008D01B4B984205D01A4B984202D01A4B40
:102D3000984204D14FF68F731A404B881A43174BB1
:102D4000984207D0164B984204D04FF6FF431A40E2
:102D5000CB881A4302808B8883850B8803850A4BB6
:102D600098420BD0094B984208D00E4B984205D0A0
:102D70000D4B984202D00D4B984201D10B7A03863D
:102D80000123838270470000002C01400034014081
:102D90000004004000080040000C0040001000400B
:102DA0000014004000400140004401400048014040
:102DB00021B1828942F40052828104E082894DF679
:102DC000FF731A408281704702460020B1F5007FF0
:102DD00000D100BF13880B400BB1012000E00020A0
:102DE0007047F0B50346002400260025002040F679
:102DF0006A17B94200D100BF1846C1F3421401F06E
:102E00001F06012707FA06F5012C01D10C3004E05A
:102E1000022C01D1103000E014301AB107682F43A2
:102E2000076002E00768AF430760F0BD2DE9F04797
:102E300086B005460E460024A24600BFA1460027E4
:102E4000B08900B100BF2F462C8A4CF6FF700440B9
:102E5000F08804432C82AC894EF6F3100440B0880D
:102E600031890843718908430443AC81AC8A4FF629
:102E7000FF400440B0890443AC8201A8FFF796FDEF
:102E80001F48874202D1DDF810A001E0DDF80CA058
:102E9000A88900F4004040B10AEBCA0000EB0A1018
:102EA00031684900B0FBF1F807E00AEBCA0000EB1B
:102EB0000A1031688900B0FBF1F86420B8FBF0F02B
:102EC00004012009642101FB1089A88900F4004055
:102ED00040B1322000EBC900B0FBF1F000F0070078
:102EE000044308E0322000EB09106421B0FBF1F04C
:102EF00000F00F0004432C8106B0BDE8F08700000D
:102F000000380140C1F308028280704710B50121EA
:102F10000448FEF775FD18B101210248FEF798FC40
:102F200010BD00000064004000B585B002211648C5
:102F3000FEF766FD30B302211348FEF789FC6A46AE
:102F400000211148FEF708FF0098A0F2012010B1FF
:102F5000012816D10AE09DF80E109DF80D0041EAF7
:102F60000020404200B2094908800AE09DF80E1096
:102F70009DF80D0041EA0020404200B2044908805B
:102F800000BF00BF05B000BD006400405C00002031
:102F90006000002000BFFEE72DE9F04105462C4609
:102FA00040211148FFF70FFA002619E0274607F0E5
:102FB0008007802F04D180210B48FFF706FA03E039
:102FC00080210948FFF7FFF96006040E40210648FA
:102FD000FFF7FBF940210448FFF7F5F9701CC6B272
:102FE000082EE3DBBDE8F0810014014010B5044673
:102FF000FFF7F0F97820FFF7CFFFFFF70FFA002077
:10300000FFF7CAFFFFF70AFA2046FFF7C5FFFFF7F1
:1030100005FAFFF7F3F910BD10B50446FFF7DAF92A
:103020007820FFF7B9FFFFF7F9F94020FFF7B4FF69
:10303000FFF7F4F92046FFF7AFFFFFF7EFF9FFF7CF
:10304000DDF910BD490050EAC12018BF04204A0D27
:1030500018BF40F0010040F2FF72B2EB515F08BFB1
:1030600040F00200012808BF0520704730380A28C8
:1030700001D201207047002070470000044A126806
:10308000111800BF024A12688A42FBD37047000041
:10309000440000202DE9F05F04460D46DFF838A01B
:1030A00000220E4B2046294600F0FAFB804600F035
:1030B00061FA83460A49584600F0FEFE81465146B1
:1030C00000F038FE804600F009FE06460F46304606
:1030D0003946BDE8F09F00003BEF303E00004E4017
:1030E0000000984130B50020154908601548006877
:1030F0004FF47A72B0FBF2F1B1F1807F00D31DE0A2
:1031000021F07F40401E4FF0E022506150170F2207
:10311000002807DA13071D0E0B4B00F00F04241FC5
:103120001D5503E013071C0E084B1C5400BF002064
:103130004FF0E02290610720106100BF30BD000019
:10314000440000203000002018ED00E000E400E022
:1031500008B501210520FFF719FC01219148FFF76F
:10316000E1F8FFF72BFDFFF7BDFF4FF4A060FFF77D
:103170003BFAFEF769FD40F2E7312320FFF75EFDE1
:10318000FFF75CFAFFF73AFA4FF4E13000F044F948
:10319000FFF7B0FBFFF74EF9FEF756FD00E182485E
:1031A000B0F9001081A000F087F9102380A200215F
:1031B0000846FFF775FB7F4800227F4BD0E900519E
:1031C000284600F06DFB074600F0EAFA044610209E
:1031D0000423224600210090FFF71EFB102377A254
:1031E00002210020FFF75CFB72480022724BD0E9FD
:1031F0000251284600F054FB074600F0D1FA04467D
:1032000010200423224602210090FFF705FB102323
:103210006BA204210020FFF743FB0022664B6949A3
:1032200003C900F03DFB054600F08AFA041E4FF08A
:103230001000009001DB204600E0604202460423BB
:1032400019461020FFF7E8FA10235FA20021322070
:10325000FFF726FB5D48B0F9004010200090002CDD
:1032600001DB204600E060420246042300214C209E
:10327000FFF7D2FA102356A202213220FFF710FBEB
:103280004948B0F9004010200090002C01DB204696
:1032900000E060420246042302214C20FFF7BCFA02
:1032A00010234CA206210020FFF7FAFA3E48B0F99D
:1032B000024010200090002C01DB204600E060421C
:1032C0000246042306211020FFF7A6FA102342A28B
:1032D00004213220FFF7E4FA4048B0F920401020E2
:1032E0000090002C01DB204600E0604202460423EF
:1032F00019464C20FFF790FA102339A206213220FC
:10330000FFF7CEFA2B48B0F9204010200090002C97
:1033100001DB204600E060420246042306214C20E7
:10332000FFF77AFA0120FFF799F8072837D2DFE88C
:1033300000F036040D161B242D002A4A2A4B214981
:1033400003C900F049F91F4A03C228E0254A264B69
:103350001C4903C900F0D8FB1A4A03C21FE0002031
:10336000184A106050601AE0204A214B214903C9D5
:1033700000F0CAFB1F4A03C211E01C4A1C4B1E4945
:1033800003C900F0C1FB1C4A03C208E0174A184BEE
:103390001A4903C900F0B8FB184A03C200BF00BFB6
:1033A000FDE60000000230006000002025640A00F5
:1033B00050000000A000002000408F4049000000A5
:1033C00056000000000000204D3100005C0000208D
:1033D0004D320000530000005431000078000020FE
:1033E000543200009A9999999999A93F7B14AE4754
:1033F000E17A843F180000202000002028000020EF
:1034000010B50246012000E050430B00A1F1010479
:10341000E1B2F9D110BD000010B586B0044601211B
:1034200044F20400FFF7B2FA4FF40070ADF8140054
:1034300003208DF8160018208DF8170005A91C48E8
:10344000FEF7E4FE4FF40060ADF8140004208DF8A0
:10345000170005A91648FEF7D9FE01940020ADF823
:103460000800ADF80A00ADF80C00ADF810000C2013
:10347000ADF80E0001A90F48FFF7D8FC25208DF804
:10348000000003208DF8010001208DF802008DF866
:1034900003006846FFF770F8012240F22551054805
:1034A000FFF79FFC01210348FFF782FC06B010BD27
:1034B00000080140003801400FB400B5C1B043A876
:1034C00040906846409A4299FCF7F6FE00204090F2
:1034D000684600F003F841B05DF814FB70B505468E
:1034E000002403E0285D00F007F8641C2846FCF780
:1034F000F5FEA042F6D870BD10B504462146064838
:10350000FFF700FD00BF80210348FFF75DFC0028A6
:10351000F9D0012010BD00000038014010B500298D
:103520000AD00878002807D005487844FDF78CFDBC
:10353000002801D0002010BD0248784410BD0000D2
:103540003A1400003214000010B500290AD008789F
:10355000002807D005487844FDF776FD002801D003
:10356000002010BD0248784410BD00002A1400005D
:103570002214000021F00042A2F16052B2F5801F37
:1035800001F0004328BFD2F17F6C0BD95FEA001C29
:1035900043EAC20242EB507018BF704728BF20F0C8
:1035A00001007047B2F5801FBCBF184670474FEA54
:1035B000410C1CF5001F02D2084600F044BD70B556
:1035C00000F018FA00000089FFF7F6BF4FF0004046
:1035D000A0F580007047000010B591EA030F48BFC6
:1035E00083F0004300F19882841A71EB030C05D23A
:1035F000121943EB0C03001B61EB0C01DFF824E113
:103600004FEA1154A4EB135C1EEA430F18BF9EEA65
:10361000445F73D023EA0E03DCF1200E21EA04514B
:1036200043F4801332D322FA0CFE10EB0E0023FA7F
:103630000CFE41EB0E01CCF1200E03FA0EFE10EB56
:103640000E0051F10001B1F5801FCCF1200E32D2F5
:1036500001EB045112FA0EF2BDE8104058BF70475A
:10366000401C38BF5FEA420218BF7047002814BFF1
:1036700020F0010041F100014FEA410313F5001F62
:1036800038BF7047A1F1C04100F002BA012A43EBF4
:103690000302ACF1200CDCF11F0E32BF4FF0000E24
:1036A00023FA0CF310EB030041EB0451B4EB115F70
:1036B000D0D0A1EB045101F5801149085FEA300038
:1036C00001EB04510ED350F1000038BF12FA0EFE88
:1036D00008D1BDE81040C9E7401C38BF5FEA42028C
:1036E000CAD1C3E7BDE810404FEA410313F5001FFC
:1036F00038BF7047A1F1C04100F0CAB99EEA445FEB
:1037000008D011EA5E0FBDE8104004BF01F000418F
:1037100000207047BDE8104070B500F06BF900BFA5
:1037200064FBBE3E0000E0FF491058BFC1F14041BC
:103730005B1058BFC3F140438B42EFF300807047EA
:103740004FEA41034FEA5353A3F58063D3F11E03BD
:10375000C8BFD3F1210C0CDD4FF0004242EAC12278
:1037600042EA505232FA03FC8CEAE17CACEBE170A5
:103770007047102BC4BF0020704703F5787CBCF164
:10378000FF3F04D06FF0004282EA2100704770B51D
:1037900000F030F94992248000207047F2E70000E1
:1037A0004FEA1153A3F58063D3F11E03A8BFD3F1F1
:1037B000200C08DB4FF0004242EAC12252EA50528C
:1037C00032FA03F0704709420BD4102BC4BF00201B
:1037D000704703F5787CBCF1FF3F05D04FF0FF3018
:1037E00070474FF00000704770B500F003F900BF5C
:1037F0004992248000207047F0E710F0004248BF53
:103800004042B0FA80F310FA03F10AD0C3F11D036D
:1038100003F580634FEA415002EB035202EBD121E2
:1038200070474FF00000704751EA030C17D41CF5A5
:10383000801F58BFBCF5801F00F10680994218BF59
:10384000704708BF9042704707D711F5801F58BFD7
:1038500013F5801F19D499427047894270471CF5AF
:10386000801F08D5BCF5801FF7D58B4218BF704765
:1038700008BF824270474FF4001C1CEB410F38BF59
:103880001CEB430F01D28B42704770B500F0B2F8C9
:10389000922449004FF000514FF08053FFF744BF8E
:1038A000DFF848C170B51CEA111E1EBF1CEA1315D3
:1038B0009EEA0C0F95EA0C0F00F06F8081EA03047A
:1038C00023EA4C134EEAD47E21EA4C1141F48011D4
:1038D00043F48013AE44A1FB024CA0FB0365AEF1A0
:1038E0007F7E361955EB0C05A1FB034C4CF1000310
:1038F000A0FB021C16EB0C06654153F100030942C4
:1039000018BF46F0010613F4007F0BD14FEA0331D4
:103910004FEA0530340341EA155140EA16506FF082
:1039200003020AE04FEAC3214FEAC520F40241EA4C
:10393000555140EA56506FF0020202EB2E4201EB65
:10394000025585EACE710AD05FEA440C18BF24F014
:10395000004450F1000041F1000120EAD47040F22F
:10396000FE7C624500D270BDA84214BF4FF0804477
:103970004FF04044002E08BF0024BEF1806FA8BF66
:10398000A1F1C041BDE8704080F282804FF000009C
:1039900001F1C04101F0004170479EEA0C0F0CEAB2
:1039A000131518BF95EA0C0F06D04FF0000081EAFE
:1039B000030E0EF0004170BD00F01CF88900013EBE
:1039C00000F007B800F009B84FEA430C5FEA5C5C0E
:1039D00008D081EA030100F05BB84FEA410C5FEACE
:1039E0005C5CF6D14FF00000014970470000FF0712
:1039F0000000F87F0EF1020E2EF0030E5EF8046B4D
:103A0000364205D4012A43EB030515F5001F12D8F1
:103A1000012841EB010C1CF5001F0CD80ED14FEA18
:103A2000D17C15F5001F0CEB4C0C0CF1020C08BFFF
:103A30004CEBD37C04E04FF0080C01E04FEAD37C60
:103A40000CEB4C0526FA05F606F00706B6F1040C59
:103A500006D20EEB860CBDE870404CF0010C6047BE
:103A6000DFE80CF0090B02024FF000414FF00000BC
:103A7000A1F5002170BD19461046012851EB010443
:103A800018BFD4F5001484BF002001F0004170BDC0
:103A90000808A0F500114FEA3101704753EA010C04
:103AA00017D41CF5801F58BFBCF5801F00F106809D
:103AB0008B4218BF704708BF8242704707D713F583
:103AC000801F58BF11F5801F19D48B4270479B424D
:103AD00070471CF5801F08D5BCF5801FF7D59942AB
:103AE00018BF704708BF904270474FF4001C1CEB92
:103AF000430F38BF1CEB410F01D2994270470FB4FE
:103B00000CBC03BCFFF7C1BE10B591EA030F48BF60
:103B100083F000433FF568AD841A71EB030C07D2C4
:103B200012198CF0004C43EB0C03001B61EB0C01F1
:103B3000DFF8A4E14FEA1154A4EB135C1EEA430F33
:103B400018BF9EEA445F00F0B08023EA6E03524241
:103B500021EA0451C3EB6E0338BF5B1EDCF1200E7B
:103B600025D322FA0CFE10EB0E0043FA0CFE41EBBB
:103B70000E01CCF1200E03FA0EFE10EB0E0051F1F7
:103B80000001CCF1200E29D412FA0EF201EB0451FF
:103B9000BDE8104058BF7047401C1CBFB2F1004F39
:103BA000704700280CBF491C20F00100704712EB41
:103BB000020E43EB030218BF4FF0010E4EEA420221
:103BC000ACF1200CDCF11E0E54D943FA0CFE10EBC4
:103BD0000E0051F1FF31CCF11E0ED5D50EF1010EC4
:103BE00012FA0EFE404141EB010101EB445C5FEA39
:103BF0005C5C10D910EBDE7001EB045138BFBEF1F4
:103C0000004FBDE8104018BF704700280CBF491C8A
:103C100020F00100704730D24FEAD42C11F500118A
:103C200024F400641BD0B1FA81F20B3AA41AA41E4A
:103C3000D2F12003914030FA03F31943904001EB95
:103C4000CC71002C01EB0451BDE81040A8BF7047B7
:103C500001F1C0414FF0000001F000417047B0FA9F
:103C600080F310FA03F100D110BDE41A173C4805A7
:103C7000C90AE4E701EB045110BD491001EB0451FE
:103C8000BDE810404FEA300002E04FF000017047FD
:103C90004A0008BF0042F8D0B2F5001F28BF7047A5
:103CA00001F000414FF0000070479EEA445F07D0EA
:103CB00011EA5E0FBDE8104004BF002100207047EC
:103CC000BDE8104070B5FFF795FE00BF40DFF63E3F
:103CD00083F00041104670470000E0FF43004FEAC8
:103CE000D30C4FEA3C0C43401FBF40070CF160511E
:103CF00013F0FE4F70471CF0006F03D100200CF052
:103D0000004170470CF0004343EA507010B540EAA0
:103D1000CC0000F052F900BF000000924FEA000111
:103D2000FFF7B6BE4FF000414FF00000A1F50021B3
:103D3000704700004FF47F0C1CEAD0121EBF1CEA33
:103D4000D11392EA0C0F93EA0C0F00F0858090EAF1
:103D5000010F48BF42F4807240F4000C41F40000AF
:103D60002CF07F4120F07F4000B58142A2EB03029E
:103D70000FF2081CACEB504EC0F100009EF800E0C2
:103D80004FEA4E0E00FB0EFC38BF49004FEA2C1CD8
:103D900002F5FA020CFB0EF34FEACE1E4FEA112C8D
:103DA0004FEAC1210EEB635E42EB22420EFB0CFC9C
:103DB0004FEA1C5300FB03114FEA112C4FEA01316B
:103DC0000EFB0CFC4FEADC4C00FB0C11C14228BF7F
:103DD00009184CEB03335DF804EB10EB410143EBA6
:103DE000C250B2F57C0F38BF704729D512F0F00FE2
:103DF0001CBF00F1C04000F000407047008182838A
:103E00008485868788898B8C8D8E8F9192939596E9
:103E100097999A9C9D9FA0A2A3A5A7A8AAACAEB073
:103E2000B2B3B5B7B9BCBEC0C2C5C7C9CCCED1D478
:103E3000D7D9DCDFE2E6E9ECF0F3F7FAFE000000A8
:103E40004FEA400C0CF1807CBCF17E4F28BF7047DC
:103E5000B0F1C04000F0F7B890EA010F0CEAD113BE
:103E600048BF42F48072624538BF634507D213F4FD
:103E70007F0F16D080EA010000F00040704710B5B7
:103E800000F09BF8097EFC3E00F005B880EA0100D6
:103E900000F00040704780EA010000F0004000F0B0
:103EA000D2B812F47F0F04BF0248704780EA0100C5
:103EB00000F0C9B80000C07F4FF47F0C1CEAD0129C
:103EC0001EBF1CEAD11392EA0C0F93EA0C0F00F00C
:103ED000478090EA010F48BF42F480724FF0004CD7
:103EE0004CEA00204CEA012102EB0302A0FB011383
:103EF000A2F50002002918BF43F001035B0028BFB0
:103F00004FEA330342EB22425FEA132C4CEBC250E0
:103F10002EBFBCEB436FB2F57C0F70474FEA036CCA
:103F2000BCF1004F08BF20F00100B2F57C0F38BF94
:103F300070470BD582F0FF0212F5803FC8BF704773
:103F400000F1C040D8BF00F00040704700F5000C01
:103F50005FEA4C0C48BF7047B0F1C04000F073B846
:103F600090EA010F0CEAD11348BF42F48072624517
:103F700038BF634504D280EA010000F0004070477A
:103F800010B500F01AF800BF8900013E00F007B834
:103F900000F009B85FEA410C5FEA1C6C08D080EAC7
:103FA000010000F050B85FEA400C5FEA1C6CF6D1EB
:103FB0004FF00040A0F5800070470EF1020E2EF089
:103FC000030E5EF8044B244204D44FEA4102B2F1DE
:103FD0007F4F11D84FEA4003B3F17F4F0CD80ED179
:103FE0004FEAD07CB2F17F4F0CEB4C0C0CF1020C81
:103FF00008BF4CEBD17C04E04FF0080C01E04FEA25
:10400000D17C0CEB4C0324FA03F404F00704B4F164
:10401000040C06D20EEB840CBDE810404CF0010CF1
:104020006047DFE80CF0070802024FF00040A0F5FF
:10403000800010BD0846420018BFD2F1807288BFD0
:1040400000F0004010BDFF2141EAD050C00570478C
:10405000FCF78DBD0000000000000000002F0000F4
:1040600000000700070000147F147F1400242A7F3B
:104070002A120062640813230036495522500000BA
:104080000503000000001C224100000041221C002A
:104090000014083E08140008083E0808000000A0AC
:1040A00060000008080808080000606000000020A8
:1040B00010080402003E5149453E0000427F400086
:1040C000004261514946002141454B31001814120C
:1040D0007F10002745454539003C4A4949300001D9
:1040E0007109050300364949493600064949291E28
:1040F000000036360000000056360000000814228A
:104100004100001414141414000041221408000289
:104110000151090600324959513E007C1211127CAE
:10412000007F49494936003E41414122007F4141DB
:10413000221C007F49494941007F09090901003ECD
:104140004149497A007F0808087F0000417F41000B
:10415000002040413F01007F08142241007F404081
:104160004040007F020C027F007F0408107F003E69
:104170004141413E007F09090906003E4151215E4F
:10418000007F091929460046494949310001017F4C
:104190000101003F4040403F001F2040201F003FE2
:1041A0004038403F00631408146300070870080794
:1041B00000615149454300007F41410000552A55A7
:1041C0002A55000041417F00000402010204004022
:1041D0004040404000000102040000205454547844
:1041E000007F484444380038444444200038444464
:1041F000487F00385454541800087E090102001802
:10420000A4A4A47C007F080404780000447D40003E
:10421000004080847D00007F102844000000417F22
:104220004000007C04180478007C080404780038FE
:104230004444443800FC242424180018242418FC86
:10424000007C0804040800485454542000043F44EF
:104250004020003C4040207C001C2040201C003CB2
:104260004030403C004428102844001CA0A0A07C02
:10427000004464544C44141414141414000000003A
:10428000000000000000000000000000000000F836
:1042900000000000000000333000000000100C0699
:1042A000100C0600000000000000000040C0784034
:1042B000C0784000043F04043F040400007088FC00
:1042C00008300000001820FF211E0000F008F00058
:1042D000E018000000211C031E211E0000F00888C9
:1042E000700000001E2123241927211010160E0033
:1042F000000000000000000000000000000000E0DE
:1043000018040200000000071820400000020418F2
:10431000E00000000040201807000000404080F04E
:10432000804040000202010F01020200000000F084
:10433000000000000101011F010101000000000058
:104340000000000080B070000000000000000000CD
:104350000000000000010101010101010000000056
:1043600000000000003030000000000000000000ED
:1043700080601804006018060100000000E01008CA
:104380000810E000000F102020100F00001010F89F
:10439000000000000020203F2020000000700808DE
:1043A000088870000030282422213000003008885E
:1043B000884830000018202020110E000000C02086
:1043C00010F8000000070424243F240000F80888A7
:1043D000880808000019212020110E0000E0108834
:1043E00088180000000F112020110E000038080866
:1043F000C83808000000003F000000000070880876
:1044000008887000001C222121221C0000E01008F6
:104410000810E0000000312222110F00000000C04F
:10442000C0000000000000303000000000000080EC
:1044300000000000000080600000000000008040DC
:1044400020100800000102040810200040404040F5
:104450004040400004040404040404000008102048
:10446000408000000020100804020100007048088D
:104470000808F0000000003036010000C030C828F5
:10448000E810E0000718272423140B000000C038B0
:10449000E0000000203C23020227382008F888882A
:1044A00088700000203F202020110E00C030080836
:1044B00008083800071820202010080008F808080D
:1044C0000810E000203F202020100F0008F8888806
:1044D000E8081000203F20202320180008F88888D2
:1044E000E8081000203F200003000000C03008084A
:1044F0000838000007182020221E020008F80800D3
:104500000008F808203F210101213F20000808F899
:10451000080800000020203F2020000000000808BC
:10452000F8080800C08080807F00000008F888C07C
:1045300028180800203F20012638200008F808002D
:1045400000000000203F20202020300008F8F80064
:10455000F8F80800203F003F003F200008F830C076
:104560000008F808203F200007183F00E010080866
:104570000810E0000F10202020100F0008F8080895
:104580000808F000203F210101010000E0100808A8
:104590000810E0000F18242438504F0008F88888CD
:1045A00088887000203F2000030C302000708808AD
:1045B000080838000038202121221C00180808F8BB
:1045C000080818000000203F2000000008F808003C
:1045D0000008F808001F202020201F00087888000D
:1045E00000C83808000007380E010000F80800F87D
:1045F0000008F800033C0700073C03000818688027
:104600008068180820302C03032C30200838C8009C
:10461000C83808000000203F2000000010080808EB
:10462000C83808002038262120201800000000FE8D
:10463000020202000000007F40404000000C30C039
:1046400000000000000000010638C0000002020265
:10465000FE000000004040407F0000000000040217
:104660000202040000000000000000000000000042
:104670000000000080808080808080800002020432
:10468000000000000000000000000000000080802A
:10469000808000000019242222223F2008F8008098
:1046A00080000000003F112020110E00000000805B
:1046B00080800000000E11202020110000000080EA
:1046C0008088F800000E112020103F20000080801C
:1046D00080800000001F222222221300008080F030
:1046E000888888180020203F20200000000080805B
:1046F00080808000006B94949493600008F80080A0
:1047000080800000203F210000203F2000809898FA
:10471000000000000020203F20200000000000805A
:104720009898000000C08080807F000008F800009A
:1047300080808000203F24022D302000000808F8EF
:10474000000000000020203F2020000080808080AA
:1047500080808000203F20003F20003F808000803C
:1047600080800000203F210000203F20000080804A
:1047700080800000001F202020201F0080800080FB
:104780008000000080FFA12020110E0000000080AA
:1047900080808000000E112020A0FF80808080009B
:1047A0008080800020203F212000010000008080C8
:1047B000808080000033242424241900008080E0BD
:1047C000808000000000001F20200000808000008A
:1047D00000808000001F202020103F20808080006B
:1047E0000080808000010E3008060100808000807B
:1047F000008080800F300C030C300F0000808000A0
:10480000808080000020312E0E31200080808000CA
:104810000080808080818E7018060100008080807A
:10482000808080000021302C222130000000000018
:10483000807C020200000000003F404000000000B9
:10484000FF00000000000000FF0000000002027CEA
:10485000800000000040403F000000000006010111
:10486000020204040000000000000000000000003C
:1048700000000000303132333435363738394142A8
:1048800043444546403058003031323334353637B2
:10489000383961626364656640307800040000085E
:1048A00000000000000000020001000010000000F5
:1048B00002400000000000A00000000005400000D1
:1048C000000000C8000000000C4000000000409CF8
:1048D00000000000194000000020BCBE00000000E5
:1048E00034400000BFC91B8E00000004B54000002A
:1048F000504BCFD06607E2CF010000006C410000B2
:104900003E8251AADFEEA73401000000D942000028
:10491000DCB5A0E23A301F97FFFFFFFFB44500006F
:10492000FD25A0C8E9A3C14FFFFFFFFFFF3F000027
:104930000000008000000000FF3F00000000008039
:1049400000000000904A00080000002078000000ED
:104950006C010008084B000878000020D806000011
:10496000880100081C00000043000000F8FFFFFF62
:104970000C0000000E0000000F0000002E000000E0
:104980001001000043000000F8FFFFFF004040401E
:104990004040404040404141414141404040404012
:1049A00040404040404040404040404040050202BE
:1049B000020202020202020202020202022020207D
:1049C00020202020202020020202020202029090D9
:1049D00090909090101010101010101010101010D7
:1049E000101010101010101002020202020288882B
:1049F0008888888808080808080808080808080837
:104A0000080808080808080802020202400000001E
:104A10000000000000000000000000000000000096
:104A20000000000000000000000000000000000086
:104A30000000000000000000000000000000000076
:104A40000000000000000000000000000000000066
:104A50000000000000000000000000000000000056
:104A60000000000000000000000000000000000046
:104A70000000000000000000000000000000000036
:104A80000000000000000000000000000000000026
:104A90009A9999999999E93F000000000200000352
:104AA0000001000000000000CDCCCCCCCCCC0340F9
:104AB000B81E85EB51B89E3F7B14AE47E17A943F18
:104AC00000A24A04000000000000000001020304EC
:104AD00006070809000000000000000001020304AE
:104AE000010203040607080902040608000000008A
:104AF00000000000000000000000000000000000B6
:084B00000000000001000000AC
:040000050800027974
:00000001FF
