:020000040800F2
:10000000801D00200D020008011F00088715000850
:10001000FD1E00088D060008953500080000000050
:10002000000000000000000000000000012F000898
:10003000C313000800000000012B0008393000083D
:1000400027020008270200082702000827020008EC
:1000500027020008270200082702000827020008DC
:1000600027020008270200082702000827020008CC
:10007000270200086D110008270200082702000867
:100080008D11000827020008270200080D3500081E
:100090002935000827020008270200082702000867
:1000A000270200082702000827020008270200088C
:1000B000270200082702000827020008270200087C
:1000C000270200082702000827020008270200086C
:1000D000270200082702000827020008270200085C
:1000E000270200082702000827020008270200084C
:1000F000270200082702000827020008270200083C
:100100002702000827020008A9300008270200087B
:10011000270200082702000829310008AD31000835
:10012000270200082702000827020008270200080B
:1001300000F002F800F05AF80AA090E8000C82449F
:100140008344AAF10107DA4501D100F04FF8AFF27C
:10015000090EBAE80F0013F0010F18BFFB1A43F0A5
:1001600001031847305E0000505E00000A444FF063
:10017000000C10F8013B13F0070408BF10F8014B06
:100180001D1108BF10F8015B641E05D010F8016B4B
:10019000641E01F8016BF9D113F0080F1EBF10F8AF
:1001A000014BAD1C0C1B09D16D1E58BF01F801CBD2
:1001B000FAD505E014F8016B01F8016B6D1EF9D555
:1001C0009142D6D37047000000230024002500266A
:1001D000103A28BF78C1FBD8520728BF30C148BFAA
:1001E0000B6070471FB51FBD10B510BD00F0A6F81D
:1001F0001146FFF7F7FF03F0EBFD00F0C4F803B47E
:10020000FFF7F2FF03BC00F0C9F80000094880477F
:1002100009480047FEE7FEE7FEE7FEE7FEE7FEE7E8
:10022000FEE7FEE7FEE7FEE704480549054A064B00
:100230007047000049300008310100088017002095
:10024000801D0020801900208019002040EA010351
:10025000024630B59B0710D14FF0013400E008C2D0
:1002600008C91D1B9D4315EAC41FF8D013F0FF01F8
:1002700002F8011B0DD01B0AF8E711F8013B002B17
:1002800002F8013B05D011F8013B002B02F8013BBD
:10029000F3D130BD02F0FF0343EA032242EA0242F7
:1002A00000F005B87047704770474FF0000204290E
:1002B000C0F0128010F0030C00F01B80CCF1040C95
:1002C000BCF1020F18BF00F8012BA8BF20F8022BC9
:1002D000A1EB0C0100F00DB85FEAC17C24BF00F86F
:1002E000012B00F8012B48BF00F8012B70474FF09D
:1002F000000200B5134694469646203922BFA0E876
:100300000C50A0E80C50B1F12001BFF4F7AF090781
:1003100028BFA0E80C5048BF0CC05DF804EB890072
:1003200028BF40F8042B08BF704748BF20F8022BB5
:1003300011F0804F18BF00F8012B7047754600F090
:1003400029F8AE4605006946534620F00700854669
:1003500018B020B5FFF768FFBDE820404FF0000659
:100360004FF000074FF000084FF0000B21F007019D
:10037000AC46ACE8C009ACE8C009ACE8C009ACE8E0
:10038000C0098D4670470446AFF300802046FFF752
:1003900036FF0000004870471C1700200149182054
:1003A000ABBEFEE726000200704721B1826842F032
:1003B0000102826003E0826822F0010282607047DD
:1003C00021B1826842F48072826003E0826822F484
:1003D000807282607047000008B50121102002F091
:1003E000C1FB3C20ADF8000000208DF803006946F9
:1003F000014800F0E7FF08BD001001400146002061
:100400008A6802F004020AB1012000E0002070476F
:10041000014600208A6802F008020AB1012000E0CB
:100420000020704730B502460020002350680F4C72
:1004300020400D790C6844EA052420435060906800
:100440000B4C2040D1E902542C434D7944EA450439
:1004500020439060D06A20F470000C7C641EE4B2EB
:10046000234340EA0350D06230BD0000FFFEF0FF9E
:10047000FDF7F1FFF0B504460D4600200021092DDF
:1004800011DDE068A5F10A0606EB4607072606FA25
:1004900007F18843A5F10A0606EB460603FA06F1C2
:1004A0000843E0600CE0206905EB4507072606FAE3
:1004B00007F1884305EB450603FA06F1084320617E
:1004C000072A0FDA606B561E06EB86071F2606FA10
:1004D00007F18843561E06EB860605FA06F1084327
:1004E000606322E00D2A0FDA206BD61F06EB860729
:1004F0001F2606FA07F18843D61F06EB860605FA83
:1005000006F10843206310E0E06AA2F10D0606EB55
:1005100086071F2606FA07F18843A2F10D0606EBAF
:10052000860605FA06F10843E062F0BD816841F0F5
:1005300008018160704721B1826842F4A0028260A4
:1005400003E0826822F4A00282607047816841F073
:10055000040181607047000000B591B00121084698
:1005600002F0D0FA0121480202F0FCFA3B4800F008
:1005700045FE3B4806903B48079000200890042029
:10058000099000200A9080200B9040000C90800081
:100590000D9020200E9000020F900020109006A9D0
:1005A0002E4800F0F0FE01212C4800F01BFE002038
:1005B000019001208DF808008DF809004FF46020AB
:1005C00003900020049004208DF8140001A9244811
:1005D0004C38FFF727FF062301220C2120484C3816
:1005E000FFF748FF062302220D211D484C38FFF774
:1005F00041FF062303220E2119484C38FFF73AFF2A
:10060000062304220F2116484C38FFF733FF01213F
:1006100013484C38FFF7D4FE012111484C38FFF73E
:10062000C4FE0F484C38FFF781FF00BF0C484C3820
:10063000FFF7EEFE0028F9D109484C38FFF786FF96
:1006400000BF07484C38FFF7D9FE0028F9D1012137
:1006500003484C38FFF76FFF11B000BD080002409F
:100660004C2401400004002010B50446012C04D1A4
:10067000C103054800F085FF04E04FF40041024843
:1006800000F07DFF10BD00000008014000BFFEE744
:10069000B1F5007F3AD00FDC202928D006DC0129F3
:1006A0001CD004291DD0082940D11DE0402921D0AB
:1006B000B1F5807F3AD126E0B1F5004F31D006DCAC
:1006C000B1F5806F25D0B1F5006F2FD124E0B1F5E1
:1006D000803F12D0B1F5003F28D111E0154A826069
:1006E00025E00822C26022E01022C2601FE008223A
:1006F00002611CE01022026119E00822426016E04B
:100700001022426013E00422426010E004224260A2
:100710000DE0042242600AE000228261042242606D
:1007200005E0002282610422426000E000BF00BFB9
:10073000704700000101010010B50021837A0122F9
:1007400002FA03F13D4A126842F001023B4B1A6083
:100750003A4A1C3212688A43384B1C331A60027BB7
:10076000CAB9364A0C3212688A43344B0C331A60C9
:100770004288C38842EA0343304A4032847A42F8CE
:1007800034300288838842EA03432C4A4032847A18
:1007900002EBC4025360027B012A19D1274A0C32B2
:1007A00012680A43254B0C331A604288038842EAD8
:1007B0000343224A4032847A42F83430C288838824
:1007C00042EA03431D4A4032847A02EBC40253607A
:1007D000C27A3AB9194A121D12688A43174B1B1D77
:1007E0001A6006E0154A121D12680A43134B1B1DBE
:1007F0001A60028932B9114A143212688A430F4BC7
:1008000014331A600289012A06D10C4A1432126884
:100810000A430A4B14331A60427B012A06D1074A65
:100820001C3212680A43054B1C331A60034A1268D3
:1008300022F00102014B1A6010BD0000006600406A
:1008400070B504460D46002660692840002871D026
:10085000B5F5807F5CD010DC082D35D006DC012D8D
:1008600020D0022D24D0042D72D127E0102D31D0BC
:10087000202D35D0402D6BD138E0B5F5004F60D03C
:1008800009DCB5F5007F49D0B5F5806F4CD0B5F5E2
:10089000006F5DD14FE0B5F5803F2DD0B5F5003F3D
:1008A00056D12FE0A0682D4900F056FC064651E0D5
:1008B000E068032100F050FC06464BE0E0680821A8
:1008C00000F04AFC064645E0E068102100F044FCD8
:1008D00006463FE02069032100F03EFC064639E071
:1008E0002069082100F038FC064633E02069102119
:1008F00000F032FC06462DE06068082100F02CFC78
:10090000064627E06068102100F026FC064621E03C
:10091000A069012100F020FC06461BE0A06902212D
:1009200000F01AFC064615E0A069042100F014FC52
:1009300006460FE00FE0A069702100F00DFC0646AE
:1009400008E06068042100F007FC064602E0FFE7CB
:10095000002600BF00E00026304670BD0101010006
:100960001AB143690B43436102E043698B4343611E
:10097000704730B5024600200023146824F00204BA
:100980001460146844F00104146000E05B1C5468B7
:1009900004F001041CB94FF6FF74A342F6D1546869
:1009A00004F001040CB900206CE08C79012C04D116
:1009B000146844F08004146003E0146824F0800498
:1009C0001460CC79012C04D1146844F04004146004
:1009D00003E0146824F0400414600C7A012C04D164
:1009E000146844F02004146003E0146824F0200428
:1009F00014604C7A012C04D1146844F01004146083
:100A000003E0146824F0100414608C7A012C04D1E3
:100A1000146844F00804146003E0146824F0080427
:100A20001460CC7A012C04D1146844F004041460DE
:100A300003E0146824F0040414608C78A407CD78D3
:100A400044EA05640D7944EA05444D7944EA0554C5
:100A50000D886D1E2C43D461146824F001041460C9
:100A6000002300E05B1C546804F001041CB14FF645
:100A7000FF74A342F6D1546804F001040CB10020C5
:100A800000E0012030BD000000B589B00121042044
:100A900002F068F80121480602F044F84FF4805053
:100AA000ADF8200003208DF8220018208DF82300D7
:100AB00008A9374800F086FC4FF40060ADF820002C
:100AC00048208DF8230008A9314800F07BFC002065
:100AD0008DF81A008DF81B008DF81C008DF81D0094
:100AE0008DF81E0001208DF81F0000208DF81600E3
:100AF0008DF8170008208DF8180007208DF81900D0
:100B00000220ADF8140005A92248FFF732FF0020AB
:100B10008DF80E008DF80F0001208DF810000020D8
:100B2000ADF80400ADF80600ADF80800ADF80A0015
:100B3000ADF80C0001208DF8110001A8FFF7FCFDB5
:100B4000012202211348FFF70BFF01221146114831
:100B5000FFF706FF14208DF8000001208DF801003A
:100B60008DF802008DF80300684601F0CBF91320E0
:100B70008DF8000000208DF8010001208DF80200A2
:100B80008DF80300684601F0BDF909B000BD000012
:100B9000000801400064004010B500F5D87303EB75
:100BA00001131B6803F004031372137A53B900F5A1
:100BB000D87303EB01131B6840F2FF7404EA53532C
:100BC000136009E000F5D87303EB01131B686FF0A5
:100BD000604404EAD303536000F5D87303EB0113B8
:100BE0001B6803F00203537200F5D87303EB011383
:100BF0005B6803F00F03937200F5D87303EB0113E6
:100C00005B681B0AD37400F5D87303EB01139B6870
:100C1000D37200F5D87303EB01139B681C0A14739D
:100C200000F5D87303EB01139B681C0C547300F59B
:100C3000D87303EB01139B681B0E937300F5D873F5
:100C400003EB0113DB68D37300F5D87303EB0113D7
:100C5000DB681C0A147400F5D87303EB0113DB681E
:100C60001C0C547400F5D87303EB0113DB681B0EE6
:100C7000937421B9C36843F02003C36003E00369A0
:100C800043F02003036110BD10B5024600209368B5
:100C900003F08063B3F1806F00D110E0936803F03C
:100CA0000063B3F1006F01D1012008E0936803F005
:100CB0008053B3F1805F01D1022000E004200428BA
:100CC00074D002F5C07303EB00131B6803F001043A
:100CD00002F5C07303EB00131C600B7A7BB94B7AEF
:100CE0000C8843EA445302F5C07404EB00142468F2
:100CF000234302F5C07404EB0014236010E00B7A68
:100D00004C6843EAC4034C7A234302F5C07404EBF5
:100D100000142468234302F5C07404EB001423601C
:100D20008B7A03F00F038B7202F5C07303EB001391
:100D30005B6823F00F0402F5C07303EB00135C60E3
:100D400002F5C07303EB00135B688C7A234302F552
:100D5000C07404EB001463608B7B1C064B7B44EA7D
:100D600003440B7B44EA0323CC7A234302F5C0748B
:100D700004EB0014A3608B7C1C064B7C44EA034408
:100D80000B7C44EA0323CC7B234302F5C07404EBC1
:100D90000014E36002F5C07303EB00131B6843F01B
:100DA000010402F5C07303EB00131C6010BD0000CA
:100DB0002DE9F04F89B03A48408839490988401AEE
:100DC00000B2384988810846408A8989084400B2BF
:100DD000344948820846B0F9120006900846C08996
:100DE000098A401A00B207902E48C0892D4908820E
:100DF00008468089C881079804F0DCFB054629482D
:100E00008168284604F0EEFB044604F0E5FACDE9DB
:100E10000401069804F0CEFB074622484168384694
:100E200004F0E0FB064604F0D7FA04460D461D49DF
:100E3000086804F0D1FA06460F461A49B1F90C00C9
:100E400004F045F8804632463B4604F0A7F82246B7
:100E50002B46CDE9000103F095FDCDE90201DDE966
:100E6000042303F08FFD824603F0D4FF00B20D4946
:100E700088820846B0F914000B49884203DA4FF61D
:100E80002420084988820748B0F9140040F2DC5158
:100E9000884202DD08460349888209B0BDE8F08F28
:100EA000440000202404002024FAFFFF2DE9F04F25
:100EB00089B03A48408839490988401A00B238490F
:100EC00088810846408A8989084400B234494882AA
:100ED0000846B0F9120006900846C089098A401AEF
:100EE00000B207902E48C0892D49088208468089A3
:100EF000C881079804F05EFB0546294881682846AA
:100F000004F070FB044604F067FACDE9040106988A
:100F100004F050FB074622484168384604F062FB63
:100F2000064604F059FA04460D461D49086804F0C7
:100F300053FA06460F461A49B1F90C0003F0C7FFF1
:100F4000804632463B4604F029F822462B46CDE93E
:100F5000000103F017FDCDE90201DDE9042303F0F0
:100F600011FD824603F056FF00B20D498882084603
:100F7000B0F914000B49884203DA4FF624200849DF
:100F800088820748B0F9140040F2DC51884202DD43
:100F900008460349888209B0BDE8F08F4800002068
:100FA0004004002024FAFFFF10B5FFF701FFFFF710
:100FB0007DFF0548B0F914200448B0F91410044826
:100FC00002F014F810BD00004004002024040020AA
:100FD0000064004010B55A480078C8B9012159484A
:100FE00000F0C4FAA0B90221564800F0BFFA78B95F
:100FF0000421544800F0BAFA50B90821514800F0D1
:10100000B5FA28B90020FFF72FFB01204C490870E2
:101010004B480078012872D101214A4800F0A6FA15
:10102000012805D10221474800F0A0FA01280BD081
:101030000421444800F09AFA01287FD10821414850
:1010400000F094FA012879D10120FFF70DFB3E480A
:10105000007830B1012853D0022836D0032869D156
:1010600019E000221346394903C904F095F805D266
:1010700037480078401C364908700BE000221346C0
:10108000324903C903F04EFF04D231480078401EB4
:101090002F4908704EE0002213462C4903C904F082
:1010A0007BF805D22B480078401C2A4908700BE0D9
:1010B00000221346254903C903F034FF04D2254812
:1010C0000078401E2349087034E0002213461F496F
:1010D00003C904F061F805D21D480078401E1C4980
:1010E00008700BE000221346184903C903F01AFFE9
:1010F00004D217480078401C154908701AE01DE01A
:1011000000221346114903C904F046F805D21148DC
:101110000078401E0F4908700BE0002213460B496F
:1011200003C903F0FFFE04D20A480078401C0949B5
:10113000087000BF00BF00200149087010BD00000A
:101140007A000020000C01400D000020000000206B
:101150000B0000200C0000200246002002EA0103E0
:101160000BB1012000E000207047000010B54FF4E3
:10117000007000F0E9F830B14FF4807000F024F80E
:10118000014802F0E3FD10BD6C00002010B54FF4E3
:10119000001000F0D9F830B14FF4801000F014F8CE
:1011A000014801F079FE10BD7804002000F0805164
:1011B00011B10349086001E002494860704700002E
:1011C000040402400000024000F0805111B10349C4
:1011D000086001E0024948607047000004040240D2
:1011E0000000024021B1026842F00102026004E006
:1011F00002684FF6FE731A400260704701684FF6AE
:10120000FE72114001600021016041608160C16097
:101210004B49884208D14A490839496841F00F01D1
:10122000474A083A51608AE045491431884208D15A
:1012300043490839496841F0F001414A083A516090
:101240007DE03F492831884208D13D490839496845
:1012500041F470613A4A083A516070E038493C31D3
:10126000884208D136490839496841F47041344A06
:10127000083A516063E032495031884208D1304920
:101280000839496841F470212D4A083A516056E006
:101290002B496431884208D129490839496841F409
:1012A0007001274A083A516049E02549783188425F
:1012B00008D123490839496841F07061204A083A49
:1012C00051603CE01F49884206D1011F096841F086
:1012D0000F01021F116032E01A491431884208D10F
:1012E0001849091F096841F0F001164A121F1160E0
:1012F00025E014492831884208D11249091F09689C
:1013000041F470610F4A121F116018E00D493C3121
:10131000884208D10B49091F096841F47041094A04
:10132000121F11600BE007495031884207D105496F
:10133000091F096841F47021024A121F11607047A9
:10134000080002400804024001460020002201F08B
:10135000805313B1054B1A6801E0054B1A6802EA85
:1013600001030BB1012000E000207047000402409F
:10137000000002401AB103680B43036002E00368F7
:101380008B430360704710B50022026847F6F07384
:101390009A430C6A8B6823430C6923434C692343AB
:1013A0008C692343CC6923434C6A23438C6A2343CF
:1013B0001A430260CB6843600B6883604B68C3606C
:1013C00010BD70472DE9F04102460025002600209F
:1013D00000230024002791F803C00CF00F0591F8BA
:1013E00003C00CF0100CBCF1000F03D091F802C048
:1013F0004CEA050591F800C0BCF1000F31D014682B
:1014000000202BE04FF0010C0CFA00F3B1F800C003
:101410000CEA03069E4220D183004FF00F0C0CFA19
:1014200003F7BC4305FA03FC4CEA040491F803C03B
:10143000BCF1280F06D14FF0010C0CFA00FCC2F8E9
:1014400014C00AE091F803C0BCF1480F05D14FF079
:10145000010C0CFA00FCC2F810C0401C0828D1D3C3
:101460001460B1F800C0BCF1FF0F34DD54680020F7
:101470002EE000F1080C4FF0010808FA0CF3B1F867
:1014800000C00CEA03069E4221D183004FF00F0CEE
:101490000CFA03F7BC4305FA03FC4CEA040491F888
:1014A00003C0BCF1280F05D100F1080C08FA0CF8B4
:1014B000C2F8148091F803C0BCF1480F07D100F1C5
:1014C000080C4FF0010808FA0CF8C2F81080401C14
:1014D0000828CED35460BDE8F0810000F0B50A467C
:1014E000002300240021002500F00046B6F1004F43
:1014F00002D11D4EF16901E01B4E7168C0F3034536
:1015000083B200F44016B6F5401F08D121F0706197
:10151000154E766826F07066134F7E6012E000F478
:101520008016B6F5801F06D1032606FA05F4A143FE
:1015300041F0706106E0460D360103FA06F6B1434C
:1015400041F0706122B1460D360103FA06F63143CF
:1015500000F00046B6F1004F02D1034EF16101E008
:10156000014E7160F0BD0000000001400246002005
:1015700093680B400BB1012000E0002070474161EF
:1015800070470161704700BFFEE700002DE9F04F92
:1015900089B03A48008839494988401A00B2384928
:1015A00088810846408A8989084400B234494882C3
:1015B0000846B0F9120006900846C089098A401A08
:1015C00000B207902E48C0892D49088208468089BC
:1015D000C881079803F0EEFF054629488168284630
:1015E00004F000F8044603F0F7FECDE90401069884
:1015F00003F0E0FF074622484168384603F0F2FF57
:10160000064603F0E9FE04460D461D49086803F04E
:10161000E3FE06460F461A49B1F90C0003F057FCE9
:10162000804632463B4603F0B9FC22462B46CDE9C4
:10163000000103F0A7F9CDE90201DDE9042303F07D
:10164000A1F9824603F0E6FB00B20D498882084604
:10165000B0F9140010F5167F02DA4FF6A850888210
:101660000748B0F91400B0F5167F03DD4FF416708B
:101670000349888209B0BDE8F08F0000080400200B
:101680005C04002010B540210748FFF77AFF802155
:101690000548FFF776FF80210348FFF770FF4021E0
:1016A0000148FFF76CFF10BD0014014010B5402148
:1016B0000548FFF766FF80210348FFF760FF8021A0
:1016C0000148FFF75EFF10BD0014014010B5402136
:1016D0000348FFF756FF40210148FFF750FF10BDB8
:1016E0000014014008B50121402001F03BFA4FF4FD
:1016F000F970ADF8000048208DF8030069460248F3
:10170000FFF760FE08BD00000018014010B5044658
:1017100014B101203F4908703E480078002850D09D
:1017200010213D48FFF722FFC8B120213A48FFF7BA
:101730001DFFA0B140213848FFF718FF78B1802184
:101740003548FFF713FF50B14FF480713248FFF76F
:101750000DFF20B102213048FFF708FF80BB0A20AF
:1017600002F09CF900202B49087010212A48FFF74D
:10177000FDFE08B9012010BD20212748FFF7F6FE25
:1017800008B90220F7E740212348FFF7EFFE08B928
:101790000320F0E780212048FFF7E8FE08B9042085
:1017A000E9E74FF480711C48FFF7E0FE08B9052017
:1017B000E1E702211848FFF7D9FE40BB0620DAE72F
:1017C000FFE710211448FFF7D1FE01281FD1202187
:1017D0001148FFF7CBFE012819D140210E48FFF731
:1017E000C5FE012813D180210B48FFF7BFFE012859
:1017F0000DD101020848FFF7B9FE012807D10221E7
:101800000548FFF7B3FE012801D102490870002006
:10181000B1E70000230400200018014070B5044621
:101820000D46B5F5806F0AD024B929460948FFF75F
:10183000A8FE0EE029460748FFF7A1FE09E024B9FB
:1018400029460548FFF79DFE03E029460248FFF7B9
:1018500096FE70BD00100140001C014008B501213A
:10186000102001F07FF90320ADF8000010208DF862
:10187000030003208DF8020069461C48FFF7A2FD13
:101880000121802001F06EF94FF48060ADF8000076
:1018900010208DF8030003208DF8020069461448DB
:1018A000FFF790FD0121042001F05CF94FF40040A6
:1018B000ADF8000010208DF8030003208DF8020021
:1018C00069460C48FFF77EFD01210020FFF7A6FFC7
:1018D00002210020FFF7A2FF4FF480610020FFF7F4
:1018E0009DFF0020FEF7C0FE08BD00000010014073
:1018F000001C01400008014070B504460D46FC483C
:10190000007884427EDDFB48007830B101287ED02B
:10191000022828D0032825D14FE0F5480078201A66
:10192000012806DD4FF03331F348F44AC2E90010D4
:1019300018E0EF480078201A012813D1F04AF14B43
:10194000EE4903C903F05EFCEC4A03C2EC4AEE4BDD
:10195000EA4903C903F0E6FA04D8E949EA48E74A44
:10196000C2E900107BE0012001F010FA012001F033
:101970000DFADF480078201A012805DD4FF03330DA
:10198000DD49DE4A03C217E0D9480078201A012851
:1019900012D1DB4ADB4BD94903C903F033FCD74AE8
:1019A00003C2D74AD84BD54903C903F0BBFA03D8C1
:1019B000D348D549D14A03C251E0012001F0E6F9EC
:1019C000CB480078201A012805DD4FF03330CA4992
:1019D000CA4A03C21AE0C6480078201A012815D165
:1019E000C74AC84BC54903C903F00CFCC34A03C22C
:1019F000C34AC54BC14903C903F094FA06D8C0488D
:101A0000C14901E02CE002E0BC4A03C227E000200B
:101A100001F0BCF9B6480078201A012806DD4FF025
:101A20003331B548B54AC2E9001017E0B048007834
:101A3000201A012812D1B24AB24BB04903C903F0AF
:101A4000E1FBAE4A03C2AE4AAF4BAC4903C903F057
:101A500069FA03D8AA48AC49A84A03C200BF27E2E2
:101A6000A348007884427DDAA248007830B101288A
:101A70007FD002282DD003282AD14FE0012001F089
:101A800085F9012001F082F999480078001B0128AE
:101A900006DD4FF033319848984AC2E9001017E04C
:101AA00093480078201A401C90B9954A954B934969
:101AB00003C903F0A7FB914A03C2914A924B8F4995
:101AC00003C903F02FFA03D88D488F498B4A03C20C
:101AD00078E087480078001B012806DD4FF033319D
:101AE0008548864AC2E9001017E081480078201A2C
:101AF000401C90B9824A834B804903C903F082FBA2
:101B00007E4A03C27E4A804B7C4903C903F00AFA2D
:101B100003D87B487C49794A03C253E0002001F096
:101B200035F973480078001B012805DD4FF033308C
:101B30007149724A03C21BE06D480078201A401CAC
:101B4000B0B96F4A6F4B6D4903C903F05BFB6B4A39
:101B500003C26B4A6C4B694903C903F0E3F907D828
:101B6000674901E02FE004E06748644AC2E90010D9
:101B700028E0012001F00AF95D480078001B0128E7
:101B800006DD4FF033315C485C4AC2E9001018E0D2
:101B900057480078201A401C98B9594A594B574960
:101BA00003C903F02FFB554A03C2554A564B53490C
:101BB00003C903F0B7F904D8514953484F4AC2E961
:101BC000001000BF74E15148007885427DDD49482E
:101BD000007830B101287AD002282AD0032827D1F2
:101BE0004FE0002001F0D2F848480078281A012878
:101BF00006DD4FF033314048404AC2E9001017E09B
:101C000042480078281A012812D13D4A3D4B3B49F1
:101C100003C903F0F7FA394A03C2394A3A4B374944
:101C200003C903F07FF903D835483749334A03C263
:101C300088E0012001F0AAF834480078281A012829
:101C400006DD4FF033312C482C4AC2E9001017E072
:101C50002E480078281A012812D1294A294B2749F1
:101C600003C903F0CFFA254A03C2254A264B23496C
:101C700003C903F057F903D8214823491F4A03C277
:101C800060E022480078281A012805DD4FF0333043
:101C900019491A4A03C217E01C480078281A01287B
:101CA00012D1174A174B154903C903F0ABFA134A6F
:101CB00003C2134A144B114903C903F033F903D883
:101CC0000F4811490D4A03C23CE03CE0FFE7012008
:101CD00001F05CF8012001F059F80C480078281A4E
:101CE000012815DD4FF033300349044A03C228E0D0
:101CF0000B0000200D0000203333D33F00000020F4
:101D00009A9999999999A93F9999C93F0C000020EE
:101D100070480078281A012813D16F4A6F4B704918
:101D200003C903F06FFA6E4A03C26B4A6D4B6C49EC
:101D300003C903F0F7F804D867496A48684AC2E95A
:101D4000001000BFB4E06348007885427EDA664840
:101D5000007830B101287AD0022829D0032826D172
:101D60004EE0012001F012F85A480078401B01288B
:101D700005DD4FF033305D49594A03C217E055483D
:101D80000078281A401C90B9534A544B544903C94F
:101D900003F038FA524A03C24F4A524B504903C922
:101DA00003F0C0F803D84C484E494D4A03C27AE0CC
:101DB000002000F0EBFF47480078401B012805DDBC
:101DC0004FF033304949464A03C218E04148007891
:101DD000281A401C98B9404A404B414903C903F0B6
:101DE00011FA3F4A03C23C4A3E4B3D4903C903F046
:101DF00099F804D838493B48394AC2E9001052E002
:101E0000012000F0C3FF012000F0C0FF314800783E
:101E1000401B012806DD4FF033313448304AC2E917
:101E200000101AE02B480078281A401CA8B92A4A4A
:101E30002A4B2B4903C903F0E5F9294A03C2264A74
:101E4000284B274903C903F06DF801E02CE005E0B9
:101E500003D821482349224A03C224E01D480078C0
:101E6000401B012805DD4FF0333020491C4A03C2D6
:101E700018E018480078281A401C98B9164A174BE1
:101E8000174903C903F0BEF9154A03C2124A154B9C
:101E9000134903C903F046F804D80F491148104A02
:101EA000C2E9001000BF03E000200D4A106050603E
:101EB0000F4800780F490978884209D10548007811
:101EC0000D490978884203D10020054A106050600E
:101ED00070BD00000C0000209A9999999999A93F2A
:101EE000000000209999C93F0D0000203333D33FF3
:101EF0000B0000200E0000200F00002000BFFEE7B6
:101F00007047000070B5002100230F22C47804B38D
:101F1000154C246804F4E064C4F5E064210AC1F1BE
:101F20000403CA40447804FA03F18478144021433E
:101F300009010E4C0678A155047804F01F05012410
:101F4000AC4005786D11AD0005F1E025C5F8004104
:101F500009E0047804F01F050124AC40044D067824
:101F6000761145F8264070BD0CED00E000E400E07D
:101F700080E100E002490143024A1160704700001D
:101F80000000FA050CED00E070B5002418E004F143
:101F9000B000002100F085FD0021084600F081FD21
:101FA0000021102000F07DFD002505E0012100202A
:101FB00000F077FD681CC5B2802DF7DB601CC4B251
:101FC000082CE4DB70BD000008B50121202000F0E2
:101FD000C9FDC020ADF8000010208DF803000320DB
:101FE0008DF8020069463B48FFF7ECF9C0213948FB
:101FF000FFF7C7FAC82001F051FD0021AE2000F024
:1020000050FD0021084600F04CFD0021102000F09A
:1020100048FD0021402000F044FD0021B02000F0E8
:1020200040FD0021812000F03CFD0021FF2000F058
:1020300038FD0021A12000F034FD0021A62000F091
:1020400030FD0021A82000F02CFD00213F2000F0F1
:1020500028FD0021C82000F024FD0021D32000F03D
:1020600020FD0021084600F01CFD0021D52000F0D5
:1020700018FD0021802000F014FD0021D82000F080
:1020800010FD0021052000F00CFD0021D92000F0FA
:1020900008FD0021F12000F004FD0021DA2000F00D
:1020A00000FD0021122000F0FCFC0021DB2000F0EC
:1020B000F8FC0021302000F0F4FC00218D2000F01D
:1020C000F0FC0021142000F0ECFC0021AF2000F017
:1020D000E8FC08BD00140140F8B5F948007806286E
:1020E00074D2DFE800F07303F0EFEEED1023F5A2F9
:1020F0000021084600F0B8FC102003230090F248AD
:1021000002780021102000F06BFC1023EFA20221C6
:10211000002000F0A9FC102003230090EC48027876
:102120000221102000F05CFC1023EAA20421002010
:1021300000F09AFC102003230090E7480288042155
:10214000102000F04DFC1023E4A20621002000F036
:102150008BFC00221346E24903C902F0E3FE06D2DB
:1021600010232D2206210A2000F0E8FB05E01023B1
:10217000202206210A2000F0E1FB0022D94BD84999
:1021800003C902F00BFF054602F044FE041E4FF0A7
:102190001000009001DB204600E06042024603236D
:1021A0000621102000F01CFC1023CFA200213220B9
:1021B00000F05AFCCD48B0F90200002807DA1023DD
:1021C0002D220021462000F0B9FB06E0BAE21023E0
:1021D00020220021462000F0B1FBC448B0F90240A3
:1021E00010200090002C01DB204600E060420246F7
:1021F000042300214C2000F0F3FB1023BCA2022199
:10220000322000F031FCBB48B0F90200002806DAA9
:1022100010232D220221462000F090FB05E0102320
:1022200020220221462000F089FBB248B0F902408A
:1022300010200090002C01DB204600E060420246A6
:10224000042302214C2000F0CBFB1023AAA204217E
:10225000322000F009FC10200090A84802880423D6
:1022600019464C2000F0BCFB1023A5A20621322009
:1022700000F0FAFB10200090A048428804230621B9
:102280004C2000F0ADFB0020FFF740FA9D4908709C
:102290000846007807282AD2DFE800F0290429162A
:1022A0001F09250000208E4A106050601FE0964AEA
:1022B000964B8B4903C902F065FB894A03C216E0BD
:1022C00041E27EE1A7E014E08F4A904B844903C9C4
:1022D00002F098FF824A03C209E0FFF755FE022090
:1022E0007749087003E0012000F050FD00BF00BFF7
:1022F000D7E2102386A20021084600F0B5FB10208B
:1023000000908448028804230021192000F068FB13
:10231000102381A20221002000F0A6FB10200090D3
:102320007C48428804230221192000F059FB102325
:102330007AA20421002000F097FB1020009075483D
:10234000828804231946192000F04AFB102374A246
:102350000621002000F088FB102000906D48C28804
:1023600004230621192000F03BFB10236DA200215D
:10237000502000F079FB102000906648027A01237B
:1023800000216A2000F02CFB102367A202215020BC
:1023900000F06AFB102000905E48427A012302217F
:1023A0006A2000F01DFB0020FFF7B0F955490870C6
:1023B0000846007807282CD2DFE800F02B041B1217
:1023C000210927000021464A1160516021E04E4A50
:1023D0004E4B434903C902F0D5FA414A03C218E003
:1023E000494A4A4B3E4903C902F00CFF3C4A03C22A
:1023F0000FE0FFF7C9FD01203149087009E0FFF740
:10240000C3FD03202E49087003E0012000F0BEFC4C
:1024100000BF00BF45E2102344A20021084600F09F
:1024200023FB102001230090424802780021322033
:1024300000F0D6FA102340A20221002000F014FB85
:102440001020012300903D4802780221322000F044
:10245000C7FA10233AA20421002000F005FB102047
:1024600001230090384802780421322000F0B8FAA5
:10247000102336A20621002000F0F6FA10200123D6
:102480000090344802780621322000F0A9FA102387
:1024900031A20021462000F0E7FA1020012300902D
:1024A0002F4802780021782000F09AFA0020FFF7E8
:1024B0002DF9144908700846007807287FD251E0AA
:1024C000FB030020580000000B0000205900000012
:1024D0000C00002044000000120000205600000004
:1024E00000000020000059404D3100004400002051
:1024F0004D32000048000020483100000804002050
:1025000048320000FC0300209A9999999999B93FA3
:10251000433000008A0400204331000043320000B1
:1025200043330000533100005332000073746F7066
:102530000000000009000020686400001000002076
:102540004D6F66690000000010040020526F746136
:10255000000000001104002052656D6F00000000B3
:102560005C000020DFE800F02B041B12210927008B
:102570000021CD4A1160516021E0CC4ACC4BCA49C0
:1025800003C902F0FFF9C84A03C218E0C74AC84BA2
:10259000C54903C902F036FEC34A03C20FE0FFF784
:1025A000F3FC0220C349087009E0FFF7EDFC0420AA
:1025B000C049087003E0012000F0E8FB00BF00BF45
:1025C0006FE11023BCA20021084600F04DFA012162
:1025D000BA48FEF7CBFF0446102001232246002113
:1025E0000090232000F0FCF91023B5A20221002066
:1025F00000F03AFA0221B148FEF7B8FF0446102075
:102600000123224602210090232000F0E9F9102343
:10261000ACA20421002000F027FA0421A748FEF70D
:10262000A5FF044610200123224604210090232008
:1026300000F0D6F91023A4A20621002000F014FA1D
:1026400008219E48FEF792FF0446102001232246EF
:1026500006210090232000F0C3F91023AFF2681286
:102660000021322000F000FA1020009097480288E4
:10267000042300214C2000F0B3F91023AFF28012A4
:102680000221322000F0F0F9102000908F4842889B
:10269000042302214C2000F0A3F910238CA2042172
:1026A000322000F0E1F9102000908848828804234D
:1026B00019464C2000F094F9102386A206213220FE
:1026C00000F0D2F9102000908048C288042306212F
:1026D0004C2000F085F90020FFF718F87E490870BB
:1026E0000846007807282CD2DFE800F02B041B12E4
:1026F0002109270000216C4A1160516021E06B4ADA
:102700006B4B694903C902F03DF9674A03C218E0FF
:10271000664A674B644903C902F074FD624A03C20A
:102720000FE0FFF731FC03206249087009E0FFF772
:102730002BFC05205F49087003E0012000F026FB18
:1027400000BF00BFADE01023AFF288220021084691
:1027500000F08AF9102001230090604802780021DF
:10276000232000F03DF91023AFF2A0220221002027
:1027700000F07AF9102001230090594802780221D4
:10278000232000F02DF9102356A20421002000F090
:102790006BF9102001230090534802780421232074
:1027A00000F01EF9102351A20621002000F05CF970
:1027B0001020012300904E4802780621232000F0CB
:1027C0000FF910234BA20021322000F04DF9102008
:1027D00004230090484890F9002000214C2000F08C
:1027E000FFF8102345A20221322000F03DF910200D
:1027F00004230090424890F9002002214C2000F070
:10280000EFF810233FA20421322000F02DF9102010
:10281000042300903C48027819464C2000F0E0F870
:1028200010233AA20621322000F01EF910200423C2
:1028300000903748027806214C2000F0D1F80020A3
:10284000FEF764FF2449087008460078072826D25E
:10285000DFE800F025041B12250921000021124A9F
:10286000116051601BE0114A114B0F4903C902F07E
:1028700089F80D4A03C212E00C4A0D4B0A4903C9FC
:1028800002F0C0FC084A03C209E0FFF77DFB042008
:102890000849087003E0012000F078FA00BF00BF8B
:1028A00000BF00BFF8BD0000000000209A99999970
:1028B0009999B93FFB03002042310000000C014010
:1028C000423200004233000042340000080400207D
:1028D0004833000048340000FC0300200B000020B7
:1028E0000C000020545800000E0000205459000035
:1028F0000F0000204E580000190400204E5900001F
:102900001A0400204F620000110000204F720000E6
:102910000D00002070B504460D4605F1B000002101
:1029200000F0BFF8102141EA1410002100F0B9F8BE
:1029300004F00F00002100F0B4F870BD2DE9F0475D
:1029400007460E469046994600250024A8F120002F
:10295000C5B27F2F02DD0027B01CC6B2B9F1100F3F
:1029600024D131463846FFF7D5FF002408E004EBB8
:102970000511194A505C012100F093F8601CC4B2A3
:10298000082CF4DB701CC1B23846FFF7C3FF0024EB
:1029900009E004EB051108310F4A505C012100F0F9
:1029A00080F8601CC4B2082CF3DB12E031463846D4
:1029B000FFF7B0FF00240AE005EB4501074A02EBF0
:1029C0004101085D012100F06CF8601CC4B2062CC6
:1029D000F2DBBDE8F0870000A45900087C5700082E
:1029E0002DE9FF5F074691461E460E9D4FF0000AF7
:1029F000002435E0301B401EC1B20A2001F026FC45
:102A0000B9FBF0F00A21B0FBF1F201FB1208BAF1B8
:102A1000000F14D1701EA04211DDB8F1000F0CD1CF
:102A2000AB4605EBDB71491001FB0471C8B22B46C4
:102A300020220199FFF782FF10E04FF0010AAB4618
:102A400005EBDB71491001FB0471C8B208F13001DC
:102A5000CAB22B460199FFF771FF00BF601CC4B2D8
:102A6000B442C7DBBDE8FF9F2DE9F04104460F46A5
:102A70001546984600260FE0AA5D43463946204693
:102A8000FFF75CFF04F10800C4B2782C02DD0024DB
:102A9000B81CC7B2701CC6B2A85D0028ECD1BDE856
:102AA000F08170B504460D461DB1E0B200F0B4FDF2
:102AB00002E0E0B200F09AFD70BD00000A480B4948
:102AC00008600B4848600B48886007480A4908605E
:102AD00007484860074888604FF07C500749086005
:102AE000002048608860704766661E40240400200D
:102AF000295C0F3D0AD7A33C400400205C04002061
:102B00007047000029B1064A52690243044B5A61DA
:102B100004E0034A52698243014B5A617047000046
:102B20000010024029B1064AD2690243044BDA611F
:102B300004E0034AD2698243014BDA617047000026
:102B40000010024029B1064A12690243044B1A617F
:102B500004E0034A12698243014B1A617047000086
:102B60000010024029B1064A92690243044B9A615F
:102B700004E0034A92698243014B9A617047000066
:102B80000010024029B1064AD2680243044BDA60C1
:102B900004E0034AD2688243014BDA6070470000C8
:102BA0000010024030B500210022002400232D4DEA
:102BB0006D6805F00C0121B1042905D0082923D145
:102BC00005E0294D056022E0274D05601FE0254DF9
:102BD0006D6805F47012234D6D6805F4803402258C
:102BE00005EB92421CB9214D554305600BE01D4D8C
:102BF0006D6805F400351DB11C4D5543056002E0BC
:102C0000194D5543056002E0174D056000BF00BF38
:102C1000144D6D6805F0F0010909154D6B5C0568F0
:102C2000DD4045600F4D6D6805F4E061090A104D07
:102C30006B5C4568DD4085600A4D6D6805F4605148
:102C4000C90A0B4D6B5C4568DD40C560054D6D687C
:102C500005F44041890B074D6B5CC568B5FBF3F586
:102C6000056130BD0010024000127A0000093D00ED
:102C7000300000204000002000B587B00121042072
:102C8000FFF770FF01214804FFF74CFF384800F0C0
:102C90005DFB0820ADF8180004208DF81B0006A984
:102CA0003448FEF78FFB344802900020ADF80C004A
:102CB000ADF80E004FF48060ADF810000020ADF8C4
:102CC00014000C20ADF8120002A9294800F0B2FB54
:102CD0000121274800F024FB01210846FFF712FFDD
:102CE00000224021224800F027FB2448FEF786FA04
:102CF0001F48001D22490860224848600020886063
:102D00001220C8600020086180204861002088618E
:102D1000C861202008624FF4405048620020886259
:102D20001648FEF730FB4FF40010FEF73FFA012281
:102D300002211248FEF71EFB012240210C4800F040
:102D4000FBFA10208DF8040002208DF805008DF8A4
:102D5000060001208DF8070001A8FFF7D3F8012134
:102D60000648FEF73FFA01200749087007B000BD8A
:102D70000044004000080140A08601006C000240B1
:102D800094040020780400205C00002070B5044604
:102D900000203A4A1060506001203949087014B18F
:102DA000012C2ED116E03748374900F09DFE81F006
:102DB0000041054602F02EF800B2344948803148FF
:102DC000314900F091FE054602F024F800B2304986
:102DD000488016E02B482C4900F086FE054602F09C
:102DE00019F800B2294948802648274900F07CFE9E
:102DF00081F00041054602F00DF800B224494880F8
:102E000000BF00BF40F2622000F048FE14B1012C68
:102E10001BD10CE01F48007828B11E480078401EE6
:102E20001C49087002E003201A4908700DE0194897
:102E30000078032805D017480078401C1549087011
:102E400002E000201349087000BF00BF0B4903C90E
:102E500000F04AFE054601F0DDFF00B20B49488054
:102E6000064903C900F040FE054601F0D3FF00B259
:102E70000749488000200249087070BD000000200A
:102E8000110400209A9999999999C93F440000200A
:102E9000480000200D00002000B9704701784278FA
:102EA00041EA0221C1F30A01144A11804178C91094
:102EB000827841EA4211C1F30A01104A51808178B7
:102EC0008911C27841EA8201027941EA8221C1F383
:102ED0000A010A4A918001794910427941EAC211F6
:102EE000C1F30A01054AD18041790911890811729B
:102EF0004179C1F30111517200BFCEE78A0400206D
:102F0000704710B500F002F810BD00000CB50020AD
:102F1000019000903348006840F4803031490860E7
:102F200000BF3048006800F4003000900198401C59
:102F30000190009818B90198B0F5A06FF1D1294817
:102F4000006800F4003010B10120009001E0002082
:102F500000900098012843D12348006840F01000F9
:102F6000214908600846006820F003000860084610
:102F7000006840F0020008601A484068194948603B
:102F80000846406848600846406840F480604860F1
:102F90000846406820F47C1048600846406840F4C9
:102FA000E81048600846006840F08070086000BF84
:102FB0000C48006800F000700028F9D0094840680B
:102FC00020F00300074948600846406840F00200CE
:102FD000486000BF0348406800F00C000828F9D1A1
:102FE0000CBD0000001002400020024070B586B009
:102FF00006460C4615464FF40070019000208DF8EF
:103000000C008DF80D0008208DF80E006042000ABB
:103010008DF80F006042C1B28DF810106842010AAD
:103020008DF811106842C1B28DF8121001A9304616
:10303000FDF72AFE06B070BD02480068401C014939
:10304000086070472C00002010B51348006840F05D
:1030500001001149086008464068104908400E49BF
:103060004860084600680E4908400B490860084659
:10307000006820F4802008600846406820F4FE00C4
:1030800048604FF41F008860FFF73BFF4FF000607F
:103090000449086010BD0000001002400000FFF865
:1030A000FFFFF6FE08ED00E010B50121054800F035
:1030B000CAF828B10121034800F0B6F8FDF774FF03
:1030C00010BD0000000C00407FB505460C460121F4
:1030D0000820FFF727FDADF80850ADF804400020A8
:1030E000ADF80A00ADF8060001A90E4800F0C6F8D8
:1030F000012211460B4800F0B7F832208DF800008D
:1031000001208DF8010003208DF8020001208DF8C8
:1031100003006846FEF7F6FE0121024800F087F83A
:103120007FBD0000000C004010B50121064800F0F2
:103130008AF838B10121044800F076F8FDF74AFF1B
:1031400000F0A8FE10BD0000001000407FB505464D
:103150000C4601211020FFF7E5FCADF80850ADF852
:1031600004400020ADF80A00ADF8060001A90E48A1
:1031700000F084F8012211460B4800F075F8362063
:103180008DF8000001208DF8010002208DF802006A
:1031900001208DF803006846FEF7B4FE01210248C5
:1031A00000F045F87FBD00000010004010B501217F
:1031B000054800F048F828B10121034800F034F830
:1031C00000F0F6FB10BD0000001400407FB505467E
:1031D0000C4601212020FFF7A5FCADF80850ADF802
:1031E00004400020ADF80A00ADF8060001A90D4822
:1031F00000F044F8012211460A4800F035F8372063
:103200008DF8000002208DF8010001208DF80200E9
:103210008DF803006846FEF775FE0121014800F0B5
:1032200006F87FBD00140040CA430282704721B1F6
:10323000028842F00102028004E002884FF6FE7329
:103240001A400280704730B5024600200023002457
:10325000158A05EA0103958905EA010413B10CB149
:10326000012000E0002030BD1AB183890B43838127
:1032700002E083898B43838170470000002202882B
:103280001D4B98420ED01D4B98420BD0B0F1804F91
:1032900008D01B4B984205D01A4B984202D01A4BCB
:1032A000984204D14FF68F731A404B881A43174B3C
:1032B000984207D0164B984204D04FF6FF431A406D
:1032C000CB881A4302808B8883850B8803850A4B41
:1032D00098420BD0094B984208D00E4B984205D02B
:1032E0000D4B984202D00D4B984201D10B7A0386C8
:1032F0000123838270470000002C0140003401400C
:103300000004004000080040000C00400010004095
:1033100000140040004001400044014000480140CA
:1033200021B1828942F40052828104E082894DF603
:10333000FF731A40828170471AB1838A0B438382DC
:1033400002E0838A8B4383827047000010B50446F5
:103350002048844209D101218803FFF713FC002192
:103360004FF48040FFF70EFC32E01B48844209D145
:1033700001214804FFF7E6FB00214FF40030FFF77E
:10338000E1FB25E01548844209D101218804FFF7BB
:10339000D9FB00214FF48020FFF7D4FB18E0104840
:1033A000844209D10121C804FFF7CCFB00214FF46E
:1033B0000020FFF7C7FB0BE00A48844208D1012137
:1033C0000805FFF7BFFB00214FF48010FFF7BAFBA1
:1033D00010BD00000038014000440040004800409B
:1033E000004C004000500040F0B503460024002689
:1033F0000025002040F66A17B94200D100BF1846E8
:10340000C1F3421401F01F06012707FA06F5012C4B
:1034100001D10C3004E0022C01D1103000E0143056
:103420001AB107682F43076002E00768AF430760DF
:10343000F0BD00002DE9F04786B005460E46002499
:10344000A24600BFA1460027B08900B100BF2F46A9
:103450002C8A4CF6FF700440F08804432C82AC891F
:103460004EF6F3100440B08831890843718908434F
:103470000443AC81AC8A4FF6FF400440B08904435A
:10348000AC8201A8FFF78EFB1F48874202D1DDF80E
:1034900010A001E0DDF80CA0A88900F4004040B1C4
:1034A0000AEBCA0000EB0A1031684900B0FBF1F8E2
:1034B00007E00AEBCA0000EB0A1031688900B0FB94
:1034C000F1F86420B8FBF0F004012009642101FB4D
:1034D0001089A88900F4004040B1322000EBC900F7
:1034E000B0FBF1F000F00700044308E0322000EBED
:1034F00009106421B0FBF1F000F00F0004432C81AF
:1035000006B0BDE8F08700000038014010B5012189
:103510000448FDF795F918B101210248FDF7B8F804
:1035200010BD00000064004000B585B002211648BF
:10353000FDF786F928B302211348FDF7A9F86A467A
:1035400000211148FDF728FB0098A0F2012010B1DE
:10355000012815D109E09DF80E109DF80D0041EAF3
:10356000002000B2094908800AE09DF80E109DF87D
:103570000D0041EA0020404200B20549088000BF2A
:1035800000BF05B000BD0000006400404400002002
:103590004800002000BFFEE72DE9F04105462C461B
:1035A00040211148FDF7EBFF002619E0274607F000
:1035B0008007802F04D180210B48FDF7E2FF03E054
:1035C00080210948FDF7DBFF6006040E4021064814
:1035D000FDF7D7FF40210448FDF7D1FF701CC6B2AC
:1035E000082EE3DBBDE8F0810014014010B504466D
:1035F000FEF748F87820FFF7CFFFFEF767F80020C6
:10360000FFF7CAFFFEF762F82046FFF7C5FFFEF797
:103610005DF8FEF74BF810BD10B50446FEF732F822
:103620007820FFF7B9FFFEF751F84020FFF7B4FF0D
:10363000FEF74CF82046FFF7AFFFFEF747F8FEF71E
:1036400035F810BD2DE9FC4700250026A946AA46FD
:1036500013243BE0012C17D147480088474921F843
:103660001400454841884548283020F81410424845
:1036700081884248503020F814103F48C1883F48A4
:10368000783020F814101FE0601E3C4931F810001B
:1036900021F81400601E283131F810103748283006
:1036A00020F81410601E3549503131F8101033489D
:1036B000503020F81410601E3049783131F8101065
:1036C0002E48783020F81410601EC4B2002CC1DCE3
:1036D000012414E0294830F8140005442748283014
:1036E00030F8140006442548503030F81400814466
:1036F0002248783030F814008244601CC4B2142C84
:10370000E8DB284601F0FAFB074600221C4B01F0DB
:10371000EDF9CDE9000101F0ADFB1A490880304612
:1037200001F0ECFB07460022154B01F0DFF9CDE973
:10373000000101F09FFB13494880484601F0DEFB81
:10374000074600220E4B01F0D1F9CDE9000101F04E
:1037500091FB0C498880504601F0D0FB07460022BF
:10376000074B01F0C3F9CDE9000101F083FB0549E6
:10377000C880BDE8FC87000000040020C0040020D1
:10378000000033400804002010B54FF033312048CA
:10379000204AC2E9001000BF01211F48FDF7E6FEE4
:1037A0000028F9D002211C48FDF7E0FE0028F3D0E4
:1037B00004211948FDF7DAFE0028EDD0082116484B
:1037C000FDF7D4FE0028E7D00021124A11605160B5
:1037D0000120124908700020114908701149087031
:1037E0000220114908700120104908700220104978
:1037F00008700E4800780B490978884205D10C48BA
:10380000007809490978884201D000F0DBFD10BD3D
:103810003333D33F00000020000C01401000002093
:103820000D0000200B0000200C0000200E000020E6
:103830000F0000202DE9F0410026344890F90010D7
:10384000334800F037F9334890F90010324800F05F
:1038500031F94DE02E480168083047562E4801687E
:10386000083010F901802A4800F098F82A4800F042
:1038700095F8002639E029488057C4192848805710
:1038800000EB08052946204600F054F858B3012003
:1038900004EB440101EBC401224A1144485578B2BB
:1038A00004EB440101EBC4011F4A114448554FFA8F
:1038B00088F004EB440101EBC4011C4A1144485553
:1038C00004EB440000EBC40019490844405D54284F
:1038D00001D1BDE8F08161B20D4800F0EBF869B2AA
:1038E0000D4800F0E7F8701C46B2042EC3DB00BFA1
:1038F0000748006806494968884205D006480068BC
:10390000054949688842A5D100BFE2E715040020B7
:10391000CC06002016040020BC0A00201B04002056
:103920001F040020A2160020D90500205206002006
:10393000600500200246002A26DB144890F90000AA
:10394000824221DA00291FDB114890F900008142F0
:103950001ADA02EB420000EBC2000E4B1844405C46
:1039600090B902EB420000EBC2000B4B1844405CE4
:103970002A2807D002EB420000EBC2001844405C4A
:10398000542801D1012070470020FCE713040020D7
:1039900014040020A216002060050020D0E90012C7
:1039A000914200D170470168491C016000BFF9E7EE
:1039B00070B5002213462E4903C901F0EFF904D176
:1039C00000202C4948822C4948822C4A2C4B2849FB
:1039D00003C901F0E1FB05D828492948244AC2E976
:1039E00000100BE0254A274B214903C901F09AFA40
:1039F00004D8224923481E4AC2E900102248007810
:103A000098B91B4903C900F06FF8044601F002FAA7
:103A100000B21E494880164903C900F065F8044603
:103A200001F0F8F900B21A4948801A480078E8B164
:103A300015480078D0B9FFF705FEFDF7A7FD002275
:103A400013460B4903C901F0A9F90FD00F4840886C
:103A50001149898A084400B20C4948800C484088C2
:103A60000D49898A401A00B20949488070BD00009A
:103A7000000000202404002040040020CDCCCCCC49
:103A8000CCCCE43FCCCCE4BF1104002044000020A7
:103A900048000020100000205C040020044A126846
:103AA000111800BF024A12688A42FBD37047000017
:103AB0002C00002000B502460B465068B0F57A7F16
:103AC0000EDAD2E90001884202D1104600F076F801
:103AD00002F10800516843545068401C506000E0F7
:103AE00000BD00BFFCE700002DE9F05F04460D4675
:103AF000DFF838A000220E4B2046294601F04EFA8E
:103B0000804600F00DFF83460A49584601F06AFDE1
:103B10008146514601F08CFC804601F05DFC064672
:103B20000F4630463946BDE8F09F00003BEF303E7F
:103B300000004E400000104210B5FCF74DFCFCF7B1
:103B40000BFD10BD08B501210820FFF70BF801207F
:103B5000ADF8000048208DF8030069461648FDF7CF
:103B600031FC01210820FEF7FDFF0220ADF8000026
:103B700048208DF8030069460F48FDF723FC01211A
:103B80000820FEF7EFFF0420ADF8000048208DF874
:103B9000030069460848FDF715FC01210820FEF7DF
:103BA000E1FF0820ADF8000048208DF803006946C9
:103BB0000148FDF707FC08BD000C014000214160F1
:103BC0000160704730B5002015490860154800684D
:103BD0004FF47A72B0FBF2F1B1F1807F00D31DE0B7
:103BE00021F07F40401E4FF0E022506150170F221D
:103BF000002807DA13071D0E0B4B00F00F04241FDB
:103C00001D5503E013071C0E084B1C5400BF002079
:103C10004FF0E02290610720106100BF30BD00002E
:103C20002C0000201800002018ED00E000E400E067
:103C300000B591B001210820FEF794FF012188040E
:103C4000FEF770FF3D48FFF781FB4FF40060ADF8D1
:103C50002C0004208DF82F000BA93948FDF7B2FB8A
:103C60004FF48060ADF82C0003208DF82E00182052
:103C70008DF82F000BA93248FDF7A4FB4FF4E1307B
:103C80000D900020ADF83800ADF83A00ADF83C00DA
:103C9000ADF840000420ADF83E000DA92748FFF71D
:103CA000C9FB01212548FFF73BFB01210846FEF730
:103CB00029FF002240212148FFF73EFB2148FDF764
:103CC0009DFA1E48001D00901F48019000200290A0
:103CD000082003900020049080200590002006908A
:103CE000079020200890C001099000200A906946A2
:103CF0001448FDF748FB4FF40070FDF757FA012216
:103D000002211048FDF736FB012240210B48FFF746
:103D100013FB0D208DF8300002208DF831000320B8
:103D20008DF8320001208DF833000CA8FEF7EAF878
:103D300001210448FDF756FA11B000BD00480040CB
:103D4000000C0140300002406C00002000211D4AA0
:103D500011808178128811431A4A1180C1784FF47A
:103D60007F4202EA0121174A12881143154A118045
:103D70000021154A1180017912881143124A1180DD
:103D800041794FF47F4202EA01210F4A1288114320
:103D90000D4A118011460988142911DD1146098840
:103DA000B1F5FA6F0CDA074909881E2908DB0549C5
:103DB0000988B1F5966F03DC02490988034A11802E
:103DC00070470000760000207800002012000020DC
:103DD00001210846FEF7C6FE01212848FDF77EFBBB
:103DE000FFF732F9FFF7EEFE4FF4A060FEF7C2F8DE
:103DF0004FF4E13000F01EFDFCF746FEFDF72EFD0E
:103E0000FEF73AFFFEF7E0F8FFF712FFFEF756FE67
:103E1000FFF792FEFFF796FEFDF764FCFEF7B4F89D
:103E200000F020FA00F0CEFA40F2E7312320FFF74D
:103E30004BF940F2E7312320FFF7C8F9FFF7A4FC64
:103E4000FEF74AF942F20F7140F26710FFF77EF970
:103E500013E000F03FFD0A480078132801D000F07D
:103E600099FB0848007840B90748007828B9074A04
:103E70001178074A1078FDF73FFDEAE700023000AD
:103E800012040020140000205C0000201A0400200E
:103E900019040020E44890F90000401C00B3E348F6
:103EA00090F90000401CD8B1DF480078E049087064
:103EB000DE480078DF490870DB4890F90000DE49F1
:103EC000097888420BD1D94890F90000DB4909787C
:103ED0008842F7D1FF20D4490870D449087085E1A1
:103EE000D14890F90100401C00B3D04890F901007E
:103EF000401CD8B1CC484078CD490870CB484078B8
:103F0000CC490870C84890F90100CB49097888422B
:103F1000E5D1C64890F90100C84909788842DED148
:103F2000FF20C1494870C14948705FE1BE4890F91F
:103F30000200401C00B3BD4890F90200401CD8B1FB
:103F4000B9488078BA490870B8488078B94908708B
:103F5000B54890F90200B84909788842BFD1B34802
:103F600090F90200B54909788842B8D1FF20AE49DE
:103F70008870AE49887039E1AB4890F90300401C65
:103F800000B3AA4890F90300401CD8B1A648C078F5
:103F9000A7490870A548C078A6490870A24890F9BA
:103FA0000300A5490978884299D1A04890F90300F7
:103FB000A2490978884292D1FF209B49C8709B4949
:103FC000C87013E1984890F90400401C00B397486A
:103FD00090F90400401CD8B19348007994490870C6
:103FE00092480079934908708F4890F904009249EB
:103FF0000978884299D18D4890F904008F49097851
:10400000884292D1FF208849087188490871EDE003
:10401000854890F90500401C00B3844890F90500DC
:10402000401CD8B180484079814908707F48407968
:10403000804908707C4890F905007F4909788842DA
:1040400099D17A4890F905007C490978884292D143
:10405000FF207549487175494871C7E0724890F969
:104060000600401C00B3714890F90600401CD8B10E
:104070006D4880796E4908706C4880796D49087088
:10408000694890F906006C490978884299D16748D7
:1040900090F9060069490978884292D1FF20624967
:1040A000887162498871A1E05F4890F90700401C5F
:1040B00000B35E4890F90700401CD8B15A48C07957
:1040C0005B4908705948C0795A490870564890F9B8
:1040D00007005949097888420BD1544890F90700E4
:1040E00056490978884204D1FF204F49C8714F4989
:1040F000C8717BE04C4890F90800401C00B34B4865
:1041000090F90800401CD8B14748007A4849087027
:104110004648007A47490870434890F908004649E4
:104120000978884262D1414890F9080043490978EA
:1041300088425BD1FF203C4908723C49087255E037
:10414000394890F90900401C00B3384890F909003B
:10415000401CD8B13448407A354908703348407A19
:1041600034490870304890F9090033490978884289
:104170003CD12E4890F9090030490978884235D160
:10418000FF2029494872294948722FE0264890F9B2
:104190000A00401C00B3254890F90A00401CD8B121
:1041A0002148807A224908702048807A2149087085
:1041B0001D4890F90A0020490978884216D11B4809
:1041C00090F90A001D49097888420FD1FF2016494D
:1041D00088721649887209E01948007840B214497B
:1041E00008701848007840B21249087012480078E8
:1041F00013490978884213D1104800781149097889
:1042000088420DD10120104908700D48007840B255
:10421000074908700B48007840B20649087002E070
:1042200000200949087070478C160020971600205E
:10423000190400201A0400200B0000200C000020AC
:104240000E0000200F0000201004002010B50246D0
:10425000012000E050430B00A1F10104E1B2F9D1CB
:1042600010BD000010B54FF0FF3279214148FCF736
:1042700011F84FF0FF3279213F48FCF70BF84FF06F
:10428000FF320B213D48FCF705F84FF0FF320B21C0
:104290003B48FBF7FFFF3B48007840B23A490870C3
:1042A0003A48007840B23A4908703A48FFF786FC2D
:1042B0003948FFF783FC3948FFF780FC3848FFF79F
:1042C0007DFC38A13A48FBF7C1FF36A138480B30D6
:1042D000FBF7BCFF33A136481630FBF7B7FF35A11B
:1042E00033482130FBF7B2FF32A131482C30FBF7C5
:1042F000ADFF30A12E483730FBF7A8FF2DA12C4889
:104300004230FBF7A3FF27A129484D30FBF79EFF62
:1043100024A127485830FBF799FF22A12448633095
:10432000FBF794FF26480078072821D2DFE800F049
:104330002004090E13181C0023211D4880F8591071
:1043400016E023211A4880F85C1011E02321184858
:1043500080F860100CE02321154880F83F1007E03A
:1043600023211348C17403E023211148017400BFC5
:1043700000BF10BDD9050020520600208C16002079
:10438000971600200B000020190400200C000020CC
:104390001A040020CC060020BC0A0020AC0E00202D
:1043A0009C1200202A2A2A2A2A2A2A2A2A2A00009B
:1043B000600500202A2A2A232323232A2A2A0000F0
:1043C000110000202DE9F0414FF0FF363746002460
:1043D0000025FFF747FF53205E49097801EB4102B2
:1043E00002EBC1015C4A11445C4A127888545421A2
:1043F0005B48007800EB400202EBC000564A1044D4
:10440000584A127881545348007840B2564908708F
:104410005248007840B2554908705148007840B27F
:10442000534908704F48007840B2524908704948D3
:1044300000784B490978884205D1484800784949B5
:10444000097888427ED0FFF7F5F9494A92F90020B1
:1044500002EB420303EBC202474B1A44454B93F96C
:104460000030D156424A92F9002002EB420303EB9E
:10447000C202424B1A443F4B93F90030D05600F031
:10448000B1F93B4890F900103D48FFF713FB39485C
:1044900090F900103B48FFF70DFB3948046831E004
:1044A000374637480830611C41560057081AB0F1AA
:1044B000FF3F16D010B1012815D110E03148083067
:1044C000611C41560057081AB0F1FF3F03D0012884
:1044D00003D1002601E0012600BF00BF03E0032650
:1044E00001E0022600BF00BFB7420AD024480830CE
:1044F000005D2549485523480830005D234948554B
:104500006D1C641C1E484068A042C9DCFF201E4987
:1045100048551E4948552A200E49097801EB4102A9
:1045200002EBC1010C4A11440C4A127888542A212A
:104530000B48007800EB400202EBC000064A104432
:10454000084A00E004E01278815400201049087005
:10455000BDE8F0810B000020600500200C00002069
:104560000E0000200F00002015040020160400207B
:10457000170400201804002052060020D90500204E
:10458000AC0E00209C1200208C16002097160020F4
:104590001004002010B58C480078132816D2DFE8EC
:1045A00000F0150A16505C89959CA8AFBBC2CED509
:1045B000E1E8F7FEF40001208449087003208449F3
:1045C0000870FFF7FFFE02207F490870F9E081487C
:1045D000007838B180480078032803D00120FEF726
:1045E000D5FB2DE07D48008864280FDC79480078F1
:1045F00060B179480078032808D10620784908700E
:10460000FFF730FE03207049087019E073480088F6
:10461000DC280FDC6F48007860B16F480078032811
:1046200008D105206E490870FFF71CFE032066497B
:10463000087005E06748007810B1032062490870EF
:10464000BFE0032061490870082061490870FFF746
:10465000B9FE04205C490870B3E060480088642813
:104660000EDC5C48007858B15B48007840B9042003
:104670005B490870FFF7F6FD05205349087018E004
:1046800056480088DC280EDC5248007858B1524861
:10469000007840B9032052490870FFF7E3FD052078
:1046A0004949087005E04B48007810B1052046499B
:1046B000087086E0032045490870092044490870C5
:1046C000FFF780FE0620404908707AE041480078F4
:1046D00010B107203C49087073E004203B49087082
:1046E00009203B490870FFF76DFE08203649087025
:1046F00067E03848007810B109203349087060E05D
:10470000052032490870092031490870FFF75AFE28
:104710000A202D49087054E02E48007810B10B2073
:10472000294908704DE006202849087009202849C9
:104730000870FFF747FE0C202349087041E0254828
:10474000007810B10D20204908703AE007201F4979
:10475000087009201E490870FFF734FE0E201A4920
:1047600008702EE01B48007810B10F201649087021
:1047700027E0082015490870092015490870FFF73F
:1047800021FE1020104908701BE013E007E0FFE74E
:104790001048007810B109200B49087011E0092079
:1047A0000A4908700A490870FFF70CFE12200649F2
:1047B000087006E00748007810B11320024908701D
:1047C00000BF00BF10BD0000120400200E0000203A
:1047D0000F000020100400200D0000201200002017
:1047E0001100002070B504460D46601C00B970BD74
:1047F00004EB440202EBC4020A4B1A44515704EB87
:10480000440202EBC402084B1A445057FFF7EAFF78
:1048100021460648FFF74EF929460548FFF74AF9B1
:1048200000BFE4E752060020D9050020AC0E0020AE
:104830009C12002010B586B00446012144F2040009
:10484000FEF790F94FF40070ADF8140003208DF8D6
:10485000160018208DF8170005A91C48FCF7B2FDBA
:104860004FF40060ADF8140004208DF8170005A97E
:104870001648FCF7A7FD01940020ADF80800ADF83C
:104880000A00ADF80C00ADF810000C20ADF80E00D9
:1048900001A90F48FEF7CEFD25208DF8000000206D
:1048A0008DF8010001208DF802008DF803006846A4
:1048B000FDF728FB012240F225510548FEF794FD43
:1048C00001210348FEF72CFD06B010BD0008014091
:1048D0000038014010B50F48007830B1002213466F
:1048E0000D4903C900F05AFA01D1FDF7F5FB0B4859
:1048F000007838B10021084A116051600120054953
:10490000087005E00348007810B1002001490870E4
:1049100010BD00001400002000000020090000204D
:1049200021F00042A2F16052B2F5801F01F0004375
:1049300028BFD2F17F6C0BD95FEA001C43EAC202A8
:1049400042EB507018BF704728BF20F0010070473D
:10495000B2F5801FBCBF184670474FEA410C1CF5EA
:10496000001F02D2084600F004BF70B500F0C0FB83
:1049700000000089FFF7F6BF4FF00040A0F580006F
:104980007047000010B591EA030F48BF83F0004361
:1049900000F14084841A71EB030C05D2121943EB29
:1049A0000C03001B61EB0C01DFF824E14FEA11540A
:1049B000A4EB135C1EEA430F18BF9EEA445F73D05A
:1049C00023EA0E03DCF1200E21EA045143F48013A4
:1049D00032D322FA0CFE10EB0E0023FA0CFE41EB50
:1049E0000E01CCF1200E03FA0EFE10EB0E0051F179
:1049F0000001B1F5801FCCF1200E32D201EB045141
:104A000012FA0EF2BDE8104058BF7047401C38BF84
:104A10005FEA420218BF7047002814BF20F001006F
:104A200041F100014FEA410313F5001F38BF704701
:104A3000A1F1C04100F0AABB012A43EB0302ACF193
:104A4000200CDCF11F0E32BF4FF0000E23FA0CF3E6
:104A500010EB030041EB0451B4EB115FD0D0A1EB9C
:104A6000045101F5801149085FEA300001EB04515F
:104A70000ED350F1000038BF12FA0EFE08D1BDE887
:104A80001040C9E7401C38BF5FEA4202CAD1C3E701
:104A9000BDE810404FEA410313F5001F38BF7047CF
:104AA000A1F1C04100F072BB9EEA445F08D011EA58
:104AB0005E0FBDE8104004BF01F0004100207047C8
:104AC000BDE8104070B500F013FB00BF64FBBE3EB4
:104AD0000000E0FF491058BFC1F140415B1058BFD2
:104AE000C3F140438B42EFF3008070472DE9C04192
:104AF00030B4DFF8A0C23CEA111418BF3CEA13142A
:104B000000F0EC8081EA03051CEA111444EAD57434
:104B100018BF1CEA131500F0C780A4EB05044FF082
:104B2000004545EAC12145EAC32341EA505143EA21
:104B3000525304F17F74994204F500344FEAC020C7
:104B40004FEAC22208BF904200F09C804FEA1365F2
:104B50000FF24016765D4FEA134506FB05F7C7F1E5
:104B6000807706FB07F74FEAD737A7FB0368764243
:104B7000C8F58038A7FB06CE38BFA8F1010807FBAF
:104B800008E64FF0000EA6FB028CE6FB03CEDCF13C
:104B9000000CCEF1004E38BFAEF1010EA6FB0C5852
:104BA0004FF000074FF00005E6FB0E87A1FB08C69B
:104BB000A0FB07CE16EB0E0645F10005E1FB0765ED
:104BC00015F1E04E7EBFA4F580345FEA46066D41E4
:104BD00016F1800745F100054FEA17274FEA0666F0
:104BE00047EA0567A6F1DE46B6F1805F4FEA152574
:104BF0001FD9384624F0010C05EBC471BCF1FE6FDF
:104C000001EB0C1102D8F0BCBDE8008124425CBF6E
:104C100001F5801E9EEAC47F02D4F0BCBDE800818D
:104C2000244238D4F0BCA1F1C041BDE8004100F0FD
:104C3000ADBA4FEAD22242EA43524FEAD323A7FB4E
:104C400002864FEAD02040EA415007FB03661EEA85
:104C50000E0F4FEAD12105FB026658BFA6EB0056A6
:104C6000B6EB00564FEA520E4EEAC37E18EB0E0E1C
:104C700056EB530EBDD518EB02085E417F1C55F173
:104C80000005B6E74FF480154FF000074FF000061F
:104C90004FF00008ADE7F0BC4FF0000001F1C0415B
:104CA00001F00041BDE8008111EA0C1F0CEA131568
:104CB00000D00CE013EA0C1F00F025804FF000003C
:104CC000F0BC81EA030101F00041BDE80081F0BCC5
:104CD000BDE8004181EA030100F058BAF0BCBDE82C
:104CE000004170B500F004FA097EFC3E00F007B800
:104CF00081EA03014FF0000001F00041704781EAB2
:104D0000030100F043BAF0BCBDE800414FF00000E1
:104D100021497047FFFDFBF9F7F5F4F2F0EEEDEBFA
:104D2000E9E8E6E4E3E1E0DEDDDBDAD8D7D5D4D3A9
:104D3000D1D0CFCDCCCBCAC8C7C6C5C4C2C1C0BFF5
:104D4000BEBDBCBBBAB9B8B7B6B5B4B3B2B1B0AFFB
:104D5000AEADACABAAA9A8A8A7A6A5A4A3A3A2A1DF
:104D6000A09F9F9E9D9C9C9B9A999998979796959A
:104D700095949393929191908F8F8E8E8D8C8C8B36
:104D80008B8A8989888887878685858484838382BE
:104D9000828181800000FF070000F87F51EA030C48
:104DA00017D41CF5801F58BFBCF5801F00F106808A
:104DB000994218BF704708BF9042704707D711F556
:104DC000801F58BF13F5801F19D49942704789423C
:104DD00070471CF5801F08D5BCF5801FF7D58B42A6
:104DE00018BF704708BF824270474FF4001C1CEB8D
:104DF000410F38BF1CEB430F01D28B42704770B597
:104E000000F076F9922449004FF000514FF08053A2
:104E1000FFF760BE4FEA41034FEA5353A3F58063A7
:104E2000D3F11E03C8BFD3F1210C0CDD4FF00042BB
:104E300042EAC12242EA505232FA03FC8CEAE17C97
:104E4000ACEBE1707047102BC4BF0020704703F536
:104E5000787CBCF1FF3F04D06FF0004282EA210071
:104E6000704770B500F044F94992248000207047E3
:104E7000F2E700004FEA1153A3F58063D3F11E035C
:104E8000A8BFD3F1200C08DB4FF0004242EAC12258
:104E900052EA505232FA03F0704709420BD4102BF9
:104EA000C4BF0020704703F5787CBCF1FF3F05D0FC
:104EB0004FF0FF3070474FF00000704770B500F0C2
:104EC00017F900BF4992248000207047F0E710F0E6
:104ED000004248BF4042B0FA80F310FA03F10AD012
:104EE000C3F11D0303F580634FEA415002EB035207
:104EF00002EBD12170474FF000007047B0FA80F309
:104F000010FA03F10AD0C3F11D0303F580634FEAE1
:104F100041504FEA035202EBD12170474FF000009D
:104F20007047000051EA030C17D41CF5801F58BFCE
:104F3000BCF5801F00F10680994218BF704708BF7A
:104F40009042704707D711F5801F58BF13F5801F97
:104F500019D499427047894270471CF5801F08D5C3
:104F6000BCF5801FF7D58B4218BF704708BF82423F
:104F700070474FF4001C1CEB410F38BF1CEB430F74
:104F800001D28B42704770B500F0B2F8922449000C
:104F90004FF000514FF08053FFF79CBDDFF848C140
:104FA00070B51CEA111E1EBF1CEA13159EEA0C0FF9
:104FB00095EA0C0F00F06F8081EA030423EA4C139A
:104FC0004EEAD47E21EA4C1141F4801143F480135F
:104FD000AE44A1FB024CA0FB0365AEF17F7E361907
:104FE00055EB0C05A1FB034C4CF10003A0FB021C8C
:104FF00016EB0C06654153F10003094218BF46F059
:10500000010613F4007F0BD14FEA03314FEA05305C
:10501000340341EA155140EA16506FF003020AE0EA
:105020004FEAC3214FEAC520F40241EA555140EA54
:1050300056506FF0020202EB2E4201EB025585EA58
:10504000CE710AD05FEA440C18BF24F0004450F13E
:10505000000041F1000120EAD47040F2FE7C62457C
:1050600000D270BDA84214BF4FF080444FF04044BE
:10507000002E08BF0024BEF1806FA8BFA1F1C0417F
:10508000BDE8704080F282804FF0000001F1C04125
:1050900001F0004170479EEA0C0F0CEA131518BF8F
:1050A00095EA0C0F06D04FF0000081EA030E0EF0D7
:1050B000004170BD00F01CF88900013E00F007B807
:1050C00000F009B84FEA430C5FEA5C5C08D081EA63
:1050D000030100F05BB84FEA410C5FEA5C5CF6D17B
:1050E0004FF00000014970470000FF070000F87F03
:1050F0000EF1020E2EF0030E5EF8046B364205D45C
:10510000012A43EB030515F5001F12D8012841EBD6
:10511000010C1CF5001F0CD80ED14FEAD17C15F5FF
:10512000001F0CEB4C0C0CF1020C08BF4CEBD37CB9
:1051300004E04FF0080C01E04FEAD37C0CEB4C0587
:1051400026FA05F606F00706B6F1040C06D20EEBB9
:10515000860CBDE870404CF0010C6047DFE80CF0B5
:10516000090B02024FF000414FF00000A1F50021B1
:1051700070BD19461046012851EB010418BFD4F543
:10518000001484BF002001F0004170BD0808A0F5A4
:1051900000114FEA3101704753EA010C17D41CF596
:1051A000801F58BFBCF5801F00F106808B4218BFDE
:1051B000704708BF8242704707D713F5801F58BF5A
:1051C00011F5801F19D48B4270479B4270471CF524
:1051D000801F08D5BCF5801FF7D5994218BF7047CE
:1051E00008BF904270474FF4001C1CEB430F38BFC0
:1051F0001CEB410F01D2994270470FB40CBC03BCA9
:10520000FFF7C1BE10B591EA030F48BF83F000431A
:105210003FF5C0AB841A71EB030C07D212198CF066
:10522000004C43EB0C03001B61EB0C01DFF8A4E125
:105230004FEA1154A4EB135C1EEA430F18BF9EEA19
:10524000445F00F0B08023EA6E03524221EA045129
:10525000C3EB6E0338BF5B1EDCF1200E25D322FAB0
:105260000CFE10EB0E0043FA0CFE41EB0E01CCF1EC
:10527000200E03FA0EFE10EB0E0051F10001CCF1EE
:10528000200E29D412FA0EF201EB0451BDE81040B1
:1052900058BF7047401C1CBFB2F1004F7047002838
:1052A0000CBF491C20F00100704712EB020E43EBCB
:1052B000030218BF4FF0010E4EEA4202ACF1200C7F
:1052C000DCF11E0E54D943FA0CFE10EB0E0051F126
:1052D000FF31CCF11E0ED5D50EF1010E12FA0EFEE5
:1052E000404141EB010101EB445C5FEA5C5C10D999
:1052F00010EBDE7001EB045138BFBEF1004FBDE88A
:10530000104018BF704700280CBF491C20F0010056
:10531000704730D24FEAD42C11F5001124F4006408
:105320001BD0B1FA81F20B3AA41AA41ED2F12003C9
:10533000914030FA03F31943904001EBCC71002CFB
:1053400001EB0451BDE81040A8BF704701F1C04116
:105350004FF0000001F000417047B0FA80F310FAFE
:1053600003F100D110BDE41A173C4805C90AE4E76F
:1053700001EB045110BD491001EB0451BDE8104090
:105380004FEA300002E04FF0000170474A0008BFCA
:105390000042F8D0B2F5001F28BF704701F000416D
:1053A0004FF0000070479EEA445F07D011EA5E0F9D
:1053B000BDE8104004BF002100207047BDE8104048
:1053C00070B5FFF795FE00BF40DFF63E83F0004169
:1053D000104670470000E0FF43004FEAD30C4FEA4D
:1053E0003C0C43401FBF40070CF1605113F0FE4FCF
:1053F00070471CF0006F03D100200CF00041704793
:105400000CF0004343EA507010B540EACC0000F0C5
:105410006AF900BF000000924FEA0001FFF7B6BE34
:105420004FF000414FF00000A1F50021704700004F
:105430004FF47F0C1CEAD0121EBF1CEAD11392EA73
:105440000C0F93EA0C0F00F0858090EA010F48BF23
:1054500042F4807240F4000C41F400002CF07F41D3
:1054600020F07F4000B58142A2EB03020FF2081C3E
:10547000ACEB504EC0F100009EF800E04FEA4E0E3B
:1054800000FB0EFC38BF49004FEA2C1C02F5FA0263
:105490000CFB0EF34FEACE1E4FEA112C4FEAC1214E
:1054A0000EEB635E42EB22420EFB0CFC4FEA1C53F8
:1054B00000FB03114FEA112C4FEA01310EFB0CFCEB
:1054C0004FEADC4C00FB0C11C14228BF09184CEB21
:1054D00003335DF804EB10EB410143EBC250B2F52E
:1054E0007C0F38BF704729D512F0F00F1CBF00F1B8
:1054F000C04000F000407047008182838485868729
:1055000088898B8C8D8E8F919293959697999A9C82
:105510009D9FA0A2A3A5A7A8AAACAEB0B2B3B5B7F1
:10552000B9BCBEC0C2C5C7C9CCCED1D4D7D9DCDFC7
:10553000E2E6E9ECF0F3F7FAFE0000004FEA400C77
:105540000CF1807CBCF17E4F28BF7047B0F1C040A9
:1055500000F00FB990EA010F0CEAD11348BF42F4F2
:105560008072624538BF634507D213F47F0F16D0AF
:1055700080EA010000F00040704710B500F0B3F879
:10558000097EFC3E00F005B880EA010000F0004012
:10559000704780EA010000F0004000F0EAB812F421
:1055A0007F0F04BF0248704780EA010000F0E1B8B5
:1055B0000000C07F10F0004148BF4042B0FA80F3C5
:1055C00010FA03F2C3F19D030BD051EAC35101EB72
:1055D0001220530638BF704700F1010008BF20F0C9
:1055E000010070474FF47F0C1CEAD0121EBF1CEA6A
:1055F000D11392EA0C0F93EA0C0F00F0478090EA67
:10560000010F48BF42F480724FF0004C4CEA00207A
:105610004CEA012102EB0302A0FB0113A2F50002F8
:10562000002918BF43F001035B0028BF4FEA330392
:1056300042EB22425FEA132C4CEBC2502EBFBCEB74
:10564000436FB2F57C0F70474FEA036CBCF1004F1B
:1056500008BF20F00100B2F57C0F38BF70470BD5B2
:1056600082F0FF0212F5803FC8BF704700F1C040D2
:10567000D8BF00F00040704700F5000C5FEA4C0C0A
:1056800048BF7047B0F1C04000F073B890EA010F16
:105690000CEAD11348BF42F48072624538BF6345BB
:1056A00004D280EA010000F00040704710B500F01D
:1056B0001AF800BF8900013E00F007B800F009B8F1
:1056C0005FEA410C5FEA1C6C08D080EA010000F040
:1056D00050B85FEA400C5FEA1C6CF6D14FF0004016
:1056E000A0F5800070470EF1020E2EF0030E5EF85A
:1056F000044B244204D44FEA4102B2F17F4F11D847
:105700004FEA4003B3F17F4F0CD80ED14FEAD07C63
:10571000B2F17F4F0CEB4C0C0CF1020C08BF4CEBC0
:10572000D17C04E04FF0080C01E04FEAD17C0CEB97
:105730004C0324FA03F404F00704B4F1040C06D279
:105740000EEB840CBDE810404CF0010C6047DFE824
:105750000CF0070802024FF00040A0F5800010BDD9
:105760000846420018BFD2F1807288BF00F00040A6
:1057700010BDFF2141EAD050C00570470000000075
:1057800000000000002F00000000070007000014C8
:105790007F147F1400242A7F2A12006264081323D6
:1057A00000364955225000000503000000001C226D
:1057B0004100000041221C000014083E08140008AB
:1057C000083E0808000000A060000008080808085B
:1057D000000060600000002010080402003E5149F3
:1057E000453E0000427F4000004261514946002191
:1057F00041454B31001814127F10002745454539AB
:10580000003C4A4949300001710905030036494905
:10581000493600064949291E0000363600000000BE
:105820005636000000081422410000141414141409
:1058300000004122140800020151090600324959B2
:10584000513E007C1211127C007F49494936003ECE
:1058500041414122007F4141221C007F4949494189
:10586000007F09090901003E4149497A007F080883
:10587000087F0000417F4100002040413F01007F40
:1058800008142241007F40404040007F020C027F0C
:10589000007F0408107F003E4141413E007F09091E
:1058A0000906003E4151215E007F09192946004644
:1058B000494949310001017F0101003F4040403F1B
:1058C000001F2040201F003F4038403F0063140865
:1058D0001463000708700807006151494543000040
:1058E0007F41410000552A552A55000041417F0063
:1058F0000004020102040040404040400000010258
:105900000400002054545478007F48444438003840
:105910004444442000384444487F003854545418C8
:1059200000087E0901020018A4A4A47C007F0804DA
:1059300004780000447D4000004080847D00007FAA
:10594000102844000000417F4000007C04180478C7
:10595000007C0804047800384444443800FC2424C3
:1059600024180018242418FC007C080404080048AB
:105970005454542000043F444020003C4040207CCC
:10598000001C2040201C003C4030403C00442810BB
:105990002844001CA0A0A07C004464544C4414146F
:1059A00014141414000000000000000000000000A7
:1059B00000000000000000F80000000000000033BC
:1059C0003000000000100C06100C06000000000063
:1059D0000000000040C07840C0784000043F04044C
:1059E0003F040400007088FC08300000001820FF0D
:1059F000211E0000F008F000E018000000211C0348
:105A00001E211E0000F00888700000001E212324C3
:105A10001927211010160E000000000000000000E1
:105A200000000000000000E0180402000000000771
:105A30001820400000020418E00000000040201878
:105A400007000000404080F0804040000202010F4B
:105A500001020200000000F0000000000101011F2F
:105A600001010100000000000000000080B0700093
:105A70000000000000000000000000000001010123
:105A800001010101000000000000000000303000B2
:105A9000000000000000000080601804006018068C
:105AA0000100000000E010080810E000000F1020C6
:105AB00020100F00001010F8000000000020203F10
:105AC000202000000070080808887000003028249A
:105AD000222130000030088888483000001820203B
