:020000040800F2
:10000000E8070020CD010008E5130008B112000840
:10001000E1130008210500084D2000080000000041
:10002000000000000000000000000000411900086E
:10003000FF10000800000000191600086D1A0008E3
:10004000E7010008E7010008E7010008E7010008F0
:10005000E7010008E7010008E7010008E7010008E0
:10006000E7010008E7010008E7010008E7010008D0
:10007000E7010008E7010008E7010008E7010008C0
:10008000C90E0008E7010008E7010008CD1F0008BD
:10009000E91F0008E7010008E7010008E701000880
:1000A000E7010008E7010008E7010008E701000890
:1000B000E7010008E7010008E7010008E701000880
:1000C000E7010008E7010008E7010008E701000870
:1000D000E7010008E7010008E7010008D11C00085B
:1000E000E7010008E7010008E7010008E701000850
:1000F000E7010008E7010008E7010008E701000840
:10010000E7010008E7010008DD1A0008E701000820
:10011000E7010008E70100085D1B0008E70100088F
:10012000E7010008E7010008E7010008E70100080F
:1001300000F002F800F03AF80AA090E8000C8244BF
:100140008344AAF10107DA4501D100F02FF8AFF29C
:10015000090EBAE80F0013F0010F18BFFB1A43F0A5
:10016000010318472832000048320000103A24BF2B
:1001700078C878C1FAD8520724BF30C830C144BF0C
:1001800004680C607047000000230024002500264E
:10019000103A28BF78C1FBD8520728BF30C148BFEA
:1001A0000B6070471FB51FBD10B510BD00F031F8D2
:1001B0001146FFF7F7FF02F087F800F04FF803B49D
:1001C000FFF7F2FF03BC00F055F800000948804734
:1001D00009480047FEE7FEE7FEE7FEE7FEE7FEE729
:1001E000FEE7FEE7FEE7FEE704480549054A064B41
:1001F000704700007D1A000831010008E801002066
:10020000E8070020E8030020E8030020704770475B
:100210007047754600F028F8AE460500694653461B
:1002200020F00700854618B020B5FFF7DDFFBDE8D8
:1002300020404FF000064FF000074FF000084FF04D
:10024000000B21F00701AC46ACE8C009ACE8C009DE
:10025000ACE8C009ACE8C0098D4670470446AFF36E
:1002600000802046FFF7ABFF004870478801002060
:100270007047000001491820ABBEFEE726000200CF
:1002800021B1826842F00102826003E0826822F0BC
:1002900001028260704721B1826842F480728260FC
:1002A00003E0826822F480728260704708B5012101
:1002B000102001F0E3F90320ADF8000000208DF8D4
:1002C00003006946014800F01BFF08BD000C014017
:1002D000014600208A6802F004020AB1012000E011
:1002E00000207047014600208A6802F008020AB127
:1002F000012000E00020704730B5024600200023B6
:1003000050680F4C20400D790C6844EA05242043C6
:10031000506090680B4C2040D1E902542C434D7939
:1003200044EA450420439060D06A20F470000C7CBD
:10033000641EE4B2234340EA0350D06230BD0000A3
:10034000FFFEF0FFFDF7F1FFF0B504460D4600207B
:100350000021092D11DDE068A5F10A0606EB46072C
:10036000072606FA07F18843A5F10A0606EB4606BA
:1003700003FA06F10843E0600CE0206905EB45074D
:10038000072606FA07F1884305EB450603FA06F14E
:1003900008432061072A0FDA606B561E06EB8607BA
:1003A0001F2606FA07F18843561E06EB860605FA55
:1003B00006F10843606322E00D2A0FDA206BD61F96
:1003C00006EB86071F2606FA07F18843D61F06EBC1
:1003D000860605FA06F10843206310E0E06AA2F100
:1003E0000D0606EB86071F2606FA07F18843A2F1E1
:1003F0000D0606EB860605FA06F10843E062F0BD3D
:10040000816841F008018160704721B1826842F43F
:10041000A002826003E0826822F4A002826070473A
:10042000816841F0040181607047000000B591B01F
:100430000121084601F0F2F80121480201F01EF9FD
:10044000344800F079FD3448069034480790002085
:1004500008900220099000200A9080200B90400014
:100460000C9080000D9020200E9000020F90002034
:10047000109006A9274800F024FE0121254800F02D
:100480004FFD0020019001208DF808008DF8090033
:100490004FF4602003900020049002208DF8140097
:1004A00001A91D484C38FFF727FF062301220A2126
:1004B00019484C38FFF748FF062302220B21164843
:1004C0004C38FFF741FF012113484C38FFF7E3FE9A
:1004D000012111484C38FFF7D3FE0F484C38FFF785
:1004E0008FFF00BF0C484C38FFF7FCFE0028F9D105
:1004F00009484C38FFF794FF00BF07484C38FFF716
:10050000E7FE0028F9D1012103484C38FFF77DFFB1
:1005100011B000BD080002404C24014084000020BE
:1005200000BFFEE7B1F5007F3AD00FDC202928D0CC
:1005300006DC01291CD004291DD0082940D11DE06A
:10054000402921D0B1F5807F3AD126E0B1F5004FA6
:1005500031D006DCB1F5806F25D0B1F5006F2FD119
:1005600024E0B1F5803F12D0B1F5003F28D111E071
:10057000154A826025E00822C26022E01022C26093
:100580001FE0082202611CE01022026119E008222B
:10059000426016E01022426013E00422426010E044
:1005A000042242600DE0042242600AE000228261DF
:1005B0000422426005E0002282610422426000E0E1
:1005C00000BF00BF704700000101010010B500210D
:1005D000837A012202FA03F13D4A126842F00102D5
:1005E0003B4B1A603A4A1C3212688A43384B1C3320
:1005F0001A60027BCAB9364A0C3212688A43344BFD
:100600000C331A604288C38842EA0343304A4032BE
:10061000847A42F834300288838842EA03432C4AC1
:100620004032847A02EBC4025360027B012A19D162
:10063000274A0C3212680A43254B0C331A60428851
:10064000038842EA0343224A4032847A42F8343033
:10065000C288838842EA03431D4A4032847A02EB0F
:10066000C4025360C27A3AB9194A121D12688A4309
:10067000174B1B1D1A6006E0154A121D12680A432B
:10068000134B1B1D1A60028932B9114A14321268C9
:100690008A430F4B14331A600289012A06D10C4A8F
:1006A000143212680A430A4B14331A60427B012A3F
:1006B00006D1074A1C3212680A43054B1C331A60E4
:1006C000034A126822F00102014B1A6010BD0000BB
:1006D0000066004070B504460D460026606928405B
:1006E000002871D0B5F5807F5CD010DC082D35D0A6
:1006F00006DC012D20D0022D24D0042D72D127E05C
:10070000102D31D0202D35D0402D6BD138E0B5F5EE
:10071000004F60D009DCB5F5007F49D0B5F5806F9A
:100720004CD0B5F5006F5DD14FE0B5F5803F2DD0D1
:10073000B5F5003F56D12FE0A0682D4900F0BAFB77
:10074000064651E0E068032100F0B4FB06464BE0AA
:10075000E068082100F0AEFB064645E0E0681021A5
:1007600000F0A8FB06463FE02069032100F0A2FB51
:10077000064639E02069082100F09CFB064633E07C
:100780002069102100F096FB06462DE060680821E4
:1007900000F090FB064627E06068102100F08AFB1D
:1007A000064621E0A069012100F084FB06461BE01B
:1007B000A069022100F07EFB064615E0A069042135
:1007C00000F078FB06460FE00FE0A069702100F012
:1007D00071FB064608E06068042100F06BFB0646EA
:1007E00002E0FFE7002600BF00E00026304670BDB3
:1007F000010101001AB143690B43436102E04369FF
:100800008B434361704730B50246002000231468D3
:1008100024F002041460146844F00104146000E041
:100820005B1C546804F001041CB94FF6FF74A3422A
:10083000F6D1546804F001040CB900206CE08C7906
:10084000012C04D1146844F08004146003E014689F
:1008500024F080041460CC79012C04D1146844F095
:100860004004146003E0146824F0400414600C7A1F
:10087000012C04D1146844F02004146003E01468CF
:1008800024F0200414604C7A012C04D1146844F044
:100890001004146003E0146824F0100414608C7ACF
:1008A000012C04D1146844F00804146003E01468B7
:1008B00024F008041460CC7A012C04D1146844F0AC
:1008C0000404146003E0146824F0040414608C78B9
:1008D000A407CD7844EA05640D7944EA05444D79CE
:1008E00044EA05540D886D1E2C43D461146824F02D
:1008F00001041460002300E05B1C546804F0010450
:100900001CB14FF6FF74A342F6D1546804F0010401
:100910000CB1002000E0012030BD000000B589B01E
:100920000121042000F0AAFE0121480600F086FE05
:100930004FF48050ADF8200003208DF822001820DD
:100940008DF8230008A9374800F0DAFB4FF4006067
:10095000ADF8200048208DF8230008A9314800F0A8
:10096000CFFB00208DF81A008DF81B008DF81C00BD
:100970008DF81D008DF81E0001208DF81F0000204D
:100980008DF816008DF8170008208DF81800072044
:100990008DF819000220ADF8140005A92248FFF7D0
:1009A00032FF00208DF80E008DF80F0001208DF829
:1009B00010000020ADF80400ADF80600ADF8080006
:1009C000ADF80A00ADF80C0001208DF8110001A867
:1009D000FFF7FCFD012202211348FFF70BFF012264
:1009E00011461148FFF706FF14208DF80000012082
:1009F0008DF801008DF802008DF80300684600F0C4
:100A0000F3FC13208DF8000000208DF80100012078
:100A10008DF802008DF80300684600F0E5FC09B08F
:100A200000BD0000000801400064004010B500F562
:100A3000D87303EB01131B6803F004031372137ADA
:100A400053B900F5D87303EB01131B6840F2FF7430
:100A500004EA5353136009E000F5D87303EB011364
:100A60001B686FF0604404EAD303536000F5D87349
:100A700003EB01131B6803F00203537200F5D873F4
:100A800003EB01135B6803F00F03937200F5D87357
:100A900003EB01135B681B0AD37400F5D87303EBF7
:100AA00001139B68D37200F5D87303EB01139B68A5
:100AB0001C0A147300F5D87303EB01139B681C0C1C
:100AC000547300F5D87303EB01139B681B0E9373EB
:100AD00000F5D87303EB0113DB68D37300F5D8730B
:100AE00003EB0113DB681C0A147400F5D87303EBE5
:100AF0000113DB681C0C547400F5D87303EB01136D
:100B0000DB681B0E937421B9C36843F02003C360F4
:100B100003E0036943F02003036110BD10B50246F2
:100B20000020936803F08063B3F1806F00D110E080
:100B3000936803F00063B3F1006F01D1012008E076
:100B4000936803F08053B3F1805F01D1022000E08D
:100B50000420042874D002F5C07303EB00131B6853
:100B600003F0010402F5C07303EB00131C600B7A61
:100B70007BB94B7A0C8843EA445302F5C07404EB0A
:100B800000142468234302F5C07404EB00142360AE
:100B900010E00B7A4C6843EAC4034C7A234302F515
:100BA000C07404EB00142468234302F5C07404EB02
:100BB000001423608B7A03F00F038B7202F5C0736D
:100BC00003EB00135B6823F00F0402F5C07303EB23
:100BD00000135C6002F5C07303EB00135B688C7A52
:100BE000234302F5C07404EB001463608B7B1C0686
:100BF0004B7B44EA03440B7B44EA0323CC7A234334
:100C000002F5C07404EB0014A3608B7C1C064B7CC3
:100C100044EA03440B7C44EA0323CC7B234302F5E0
:100C2000C07404EB0014E36002F5C07303EB00131F
:100C30001B6843F0010402F5C07303EB00131C6052
:100C400010BD00002DE9F05F2F4880882E490988EB
:100C5000401A00B22D4988810846408A8989084493
:100C600000B22A4948820846B0F91250C089098A60
:100C7000401A04B22548C089244908820846808960
:100C8000C881204602F028FA8146204881684846FB
:100C900002F03AFA0746284602F01EFA83461B483D
:100CA0004168584602F030FA81461849B1F90C0003
:100CB00002F012FA834615480168584602F024FAF9
:100CC0008246494602F0C8F88046394602F0C4F828
:100CD000064602F0E5F900B20C4988820846B0F9F0
:100CE000140010F5FA5F02DA4EF2C000888207485D
:100CF000B0F91400B0F5FA5F03DD4FF4FA50034980
:100D00008882BDE8F09F0000400000209000002095
:100D10002DE9F05F2F4880882E490988401A00B2DB
:100D20002D4988810846408A8989084400B22A49A9
:100D300048820846B0F91250C089098A401A04B2A4
:100D40002548C0892449088208468089C8812046F0
:100D500002F0C2F9814620488168484602F0D4F981
:100D60000746284602F0B8F983461B4841685846B2
:100D700002F0CAF981461849B1F90C0002F0ACF949
:100D8000834615480168584602F0BEF98246494636
:100D900002F062F88046394602F05EF8064602F03C
:100DA0007FF900B20C4988820846B0F9140010F5AA
:100DB000FA5F02DA4EF2C00088820748B0F91400E8
:100DC000B0F5FA5F03DD4FF4FA5003498882BDE8BD
:100DD000F09F000048000020B00000202DE9F047FF
:100DE0002B480078002843D12A48007870B301F0DE
:100DF00085F900F05FFA2849B1F9140001F0B1FD5E
:100E000006460F46254903C901F0DEF98046324601
:100E10003B4601F03DFB044601F046FD2049486099
:100E20001D49B1F9140001F09CFD04460D461B4913
:100E300003C901F0C9F9064622462B4601F0F6FE29
:100E4000804601F031FD1749486011E0134903C99C
:100E500001F0BAF9044601F027FD114948600F4935
:100E600003C901F0B1F9044601F01EFD0D494860C7
:100E7000FFF74EFFFFF7E6FE0B48B0F914200B48D2
:100E8000B0F914100A4800F0D1FDBDE8F087000069
:100E90008D00002011000020D00000200000002064
:100EA0004000002048000020B000002090000020FA
:100EB000006400400246002002EA01030BB1012059
:100EC00000E000207047000010B54FF4001000F063
:100ED000D9F830B14FF4801000F014F8014800F058
:100EE000DDFC10BDF000002000F0805111B103497D
:100EF000086001E0024948607047000004040240B5
:100F00000000024000F0805111B10349086001E087
:100F1000024948607047000004040240000002409B
:100F200021B1026842F00102026004E002684FF65B
:100F3000FE731A400260704701684FF6FE7211405E
:100F400001600021016041608160C1604B498842BD
:100F500008D14A490839496841F00F01474A083A1F
:100F600051608AE045491431884208D14349083923
:100F7000496841F0F001414A083A51607DE03F493B
:100F80002831884208D13D490839496841F47061E7
:100F90003A4A083A516070E038493C31884208D1F9
:100FA00036490839496841F47041344A083A516079
:100FB00063E032495031884208D1304908394968E4
:100FC00041F470212D4A083A516056E02B496431B2
:100FD000884208D129490839496841F47001274AF3
:100FE000083A516049E025497831884208D12349BF
:100FF0000839496841F07061204A083A51603CE084
:101000001F49884206D1011F096841F00F01021FE4
:10101000116032E01A491431884208D11849091F79
:10102000096841F0F001164A121F116025E01449C9
:101030002831884208D11249091F096841F47061BA
:101040000F4A121F116018E00D493C31884208D147
:101050000B49091F096841F47041094A121F1160C8
:101060000BE007495031884207D10549091F09683B
:1010700041F47021024A121F1160704708000240BB
:101080000804024001460020002201F0805313B101
:10109000054B1A6801E0054B1A6802EA01030BB11F
:1010A000012000E0002070470004024000000240E0
:1010B0001AB103680B43036002E003688B430360CB
:1010C000704710B50022026847F6F0739A430C6A25
:1010D0008B6823430C6923434C6923438C69234366
:1010E000CC6923434C6A23438C6A23431A4302602E
:1010F000CB6843600B6883604B68C36010BD70476A
:101100002DE9F0410246002500260020002300249E
:10111000002791F803C00CF00F0591F803C00CF004
:10112000100CBCF1000F03D091F802C04CEA050589
:1011300091F800C0BCF1000F31D0146800202BE002
:101140004FF0010C0CFA00F3B1F800C00CEA0306F2
:101150009E4220D183004FF00F0C0CFA03F7BC43E2
:1011600005FA03FC4CEA040491F803C0BCF1280F13
:1011700006D14FF0010C0CFA00FCC2F814C00AE0D2
:1011800091F803C0BCF1480F05D14FF0010C0CFAE7
:1011900000FCC2F810C0401C0828D1D31460B1F87C
:1011A00000C0BCF1FF0F34DD546800202EE000F1D8
:1011B000080C4FF0010808FA0CF3B1F800C00CEA73
:1011C00003069E4221D183004FF00F0C0CFA03F767
:1011D000BC4305FA03FC4CEA040491F803C0BCF1DB
:1011E000280F05D100F1080C08FA0CF8C2F8148099
:1011F00091F803C0BCF1480F07D100F1080C4FF083
:10120000010808FA0CF8C2F81080401C0828CED358
:101210005460BDE8F0810000F0B50A4600230024C8
:101220000021002500F00046B6F1004F02D11D4E0E
:10123000F16901E01B4E7168C0F3034583B200F40D
:101240004016B6F5401F08D121F07061154E766842
:1012500026F07066134F7E6012E000F48016B6F53B
:10126000801F06D1032606FA05F4A14341F0706100
:1012700006E0460D360103FA06F6B14341F070610F
:1012800022B1460D360103FA06F6314300F000465E
:10129000B6F1004F02D1034EF16101E0014E7160E1
:1012A000F0BD0000000001404161704701617047DE
:1012B00000BFFEE72DE9F05F2F4800882E494988DE
:1012C000401A00B22D4988810846408A898908441D
:1012D00000B22A4948820846B0F91250C089098AEA
:1012E000401A04B22548C0892449088208468089EA
:1012F000C881204601F0F0FE8146204881684846BA
:1013000001F002FF0746284601F0E6FE83461B482F
:101310004168584601F0F8FE81461849B1F90C00C1
:1013200001F0DAFE834615480168584601F0ECFEEC
:101330008246494601F090FD8046394601F08CFD19
:10134000064601F0ADFE00B20C4988820846B0F9AD
:10135000140010F57A7F02DA4FF6184088820748A9
:10136000B0F91400B0F57A7F03DD4FF47A700349C9
:101370008882BDE8F09F000088000020D000002097
:1013800010B540210748FFF791FF80210548FFF77E
:101390008DFF80210348FFF787FF40210148FFF7B9
:1013A00083FF10BD0014014010B540210548FFF730
:1013B0007DFF80210348FFF777FF80210148FFF779
:1013C00075FF10BD0014014010B540210348FFF720
:1013D0006DFF40210148FFF767FF10BD0014014079
:1013E00000BFFEE77047000070B5002100230F2208
:1013F000C47804B3154C246804F4E064C4F5E064D4
:10140000210AC1F10403CA40447804FA03F1847844
:101410001440214309010E4C0678A155047804F0CC
:101420001F050124AC4005786D11AD0005F1E025E4
:10143000C5F8004109E0047804F01F050124AC4020
:10144000044D0678761145F8264070BD0CED00E09D
:1014500000E400E080E100E002490143024A11603B
:10146000704700000000FA050CED00E070B50024A4
:1014700018E004F1B000002100F0A0F800210846B7
:1014800000F09CF80021102000F098F8002505E0FD
:101490000121002000F092F8681CC5B2802DF7DB16
:1014A000601CC4B2082CE4DB70BD000008B501214B
:1014B000202000F0E3F8C020ADF8000010208DF8E7
:1014C000030003208DF8020069463B48FFF718FE31
:1014D000C0213948FFF7EAFEC82000F069FE00216C
:1014E000AE2000F06BF80021084600F067F80021FC
:1014F000102000F063F80021402000F05FF8002188
:10150000B02000F05BF80021812000F057F80021A6
:10151000FF2000F053F80021A12000F04FF8002137
:10152000A62000F04BF80021A82000F047F8002189
:101530003F2000F043F80021C82000F03FF80021D0
:10154000D32000F03BF80021084600F037F80021D6
:10155000D52000F033F80021802000F02FF8002182
:10156000D82000F02BF80021052000F027F80021FA
:10157000D92000F023F80021F12000F01FF800210D
:10158000DA2000F01BF80021122000F017F80021EB
:10159000DB2000F013F80021302000F00FF80021CC
:1015A0008D2000F00BF80021142000F007F8002136
:1015B000AF2000F003F808BD0014014070B50446E8
:1015C0000D461DB1E0B200F083FD02E0E0B200F094
:1015D00069FD70BD0A480B4908600B4848600B481C
:1015E000886007480A4908600748486007488860DB
:1015F0000348084908600448486004488860704708
:1016000000002040900000200AD7A33DCDCCCC3D67
:10161000B0000020D00000207047000029B1064A29
:1016200052690243044B5A6104E0034A52698243FF
:10163000014B5A61704700000010024029B1064A70
:10164000D2690243044BDA6104E0034AD26982435F
:10165000014BDA61704700000010024029B1064AD0
:1016600012690243044B1A6104E0034A126982437F
:10167000014B1A61704700000010024029B1064A70
:1016800092690243044B9A6104E0034A92698243DF
:10169000014B9A61704700000010024029B1064AD0
:1016A000D2680243044BDA6004E0034AD268824302
:1016B000014BDA60704700000010024030B5002195
:1016C0000022002400232D4D6D6805F00C0121B18E
:1016D000042905D0082923D105E0294D056022E021
:1016E000274D05601FE0254D6D6805F47012234DF0
:1016F0006D6805F48034022505EB92421CB9214D3A
:10170000554305600BE01D4D6D6805F400351DB1B6
:101710001C4D5543056002E0194D5543056002E03C
:10172000174D056000BF00BF144D6D6805F0F00156
:101730000909154D6B5C0568DD4045600F4D6D680E
:1017400005F4E061090A104D6B5C4568DD40856079
:101750000A4D6D6805F46051C90A0B4D6B5C456814
:10176000DD40C560054D6D6805F44041890B074DAE
:101770006B5CC568B5FBF3F5056130BD0010024038
:1017800000127A0000093D002C0000203C000020DF
:1017900000B587B001210420FFF770FF0121480444
:1017A000FFF74CFF374800F001FB0820ADF81800A8
:1017B00004208DF81B0006A93348FFF7A1FC33482D
:1017C00002900020ADF80C00ADF80E004FF48060E0
:1017D000ADF810000020ADF814000C20ADF8120098
:1017E00002A9284800F080FB0121264800F0C9FA30
:1017F00001210846FFF712FF00224021214800F096
:10180000CCFA2348FFF798FB1E48001D21490860C9
:1018100021484860002088601220C86000200861CC
:101820008020486100208861C861202008624FF450
:1018300040504862002088621548FFF742FC4FF490
:101840000030FFF751FB012202211148FFF730FC65
:10185000012240210B4800F0A0FA10208DF804006E
:1018600002208DF805008DF8060001208DF8070094
:1018700001A8FFF7B9FD01210548FFF751FB07B0AB
:1018800000BD00000044004000080140A0860100A7
:101890006C0002400C010020F000002070B50446EE
:1018A00004B970BD2078617840EA0120C0F30A00D5
:1018B0001F4908806078C010A17840EA4110C0F349
:1018C0000A001B494880A0788011E17840EA810035
:1018D000217940EA8120C0F30A00154988802079E7
:1018E0004010617940EAC110C0F30A001049C88075
:1018F00060790011800808726079C0F301104872A5
:1019000008460088B0F5AF6F10DA08460088B0F5D9
:10191000167F0BDD0988A1F5806001F022F80546ED
:10192000044A054B01F084F8044A03C200BFB8E73B
:10193000020100207B14AE47E17A643F00000020E2
:10194000704710B500F002F810BD00000CB5002083
:10195000019000903348006840F4803031490860BD
:1019600000BF3048006800F4003000900198401C2F
:101970000190009818B90198B0F5A06FF1D12948ED
:10198000006800F4003010B10120009001E0002058
:1019900000900098012843D12348006840F01000CF
:1019A000214908600846006820F0030008600846E6
:1019B000006840F0020008601A4840681949486011
:1019C0000846406848600846406840F480604860C7
:1019D0000846406820F47C1048600846406840F49F
:1019E000E81048600846006840F08070086000BF5A
:1019F0000C48006800F000700028F9D009484068E1
:101A000020F00300074948600846406840F00200A3
:101A1000486000BF0348406800F00C000828F9D176
:101A20000CBD0000001002400020024070B586B0DE
:101A300006460C4615464FF40070019000208DF8C4
:101A40000C008DF80D0008208DF80E00200A8DF88E
:101A50000F008DF81040290A8DF811108DF81250E2
:101A600001A93046FFF75AF806B070BD0248006879
:101A7000401C0149086070472800002010B5134839
:101A8000006840F0010011490860084640681049AC
:101A900008400E494860084600680E4908400B4956
:101AA00008600846006820F4802008600846406806
:101AB00020F4FE0048604FF41F008860FFF741FFEC
:101AC0004FF000600449086010BD000000100240A3
:101AD0000000FFF8FFFFF6FE08ED00E010B5012161
:101AE000054800F088F828B10121034800F074F897
:101AF000FFF774F910BD0000000C00407FB50546EB
:101B00000C4601210820FFF799FDADF80850ADF80B
:101B100004400020ADF80A00ADF8060001A90E4807
:101B200000F084F8012211460B4800F075F83220CD
:101B30008DF8000001208DF8010003208DF80200CF
:101B400001208DF803006846FFF74EFC0121024892
:101B500000F045F87FBD0000000C004010B50121E9
:101B6000044800F048F818B10121024800F034F8A8
:101B700010BD0000001000407FB505460C46012155
:101B80001020FFF75BFDADF80850ADF804400020D1
:101B9000ADF80A00ADF8060001A90E4800F046F8BD
:101BA000012211460B4800F037F836208DF800006E
:101BB00000208DF8010002208DF8020001208DF830
:101BC00003006846FFF710FC0121024800F007F807
:101BD0007FBD000000100040CA430282704721B15F
:101BE000028842F00102028004E002884FF6FE7390
:101BF0001A400280704730B50246002000230024BE
:101C0000158A05EA0103958905EA010413B10CB1AF
:101C1000012000E0002030BD1AB183890B4383818D
:101C200002E083898B438381704700000022028891
:101C30001D4B98420ED01D4B98420BD0B0F1804FF7
:101C400008D01B4B984205D01A4B984202D01A4B31
:101C5000984204D14FF68F731A404B881A43174BA2
:101C6000984207D0164B984204D04FF6FF431A40D3
:101C7000CB881A4302808B8883850B8803850A4BA7
:101C800098420BD0094B984208D00E4B984205D091
:101C90000D4B984202D00D4B984201D10B7A03862E
:101CA0000123838270470000002C01400034014072
:101CB0000004004000080040000C004000100040FC
:101CC0000014004000400140004401400048014031
:101CD00010B540F225511F4800F0B6F838B31D4842
:101CE00000F06EF9C4B21C48008800F4005088B1BE
:101CF0001A4801880088401C184A1080184844542B
:101D00001046008805281FD100201146088012497E
:101D1000088019E01048008800F4805060B1592C08
:101D200006D10D48008840F400500B4908800BE0B4
:101D300000200949088007E0592C05D10648008891
:101D400040F480500449088040F22551014800F0D9
:101D500009F810BD0048004070000020720000200B
:101D60007C00002010B50022002340F66A14A14236
:101D700000D100BF0A1201249440A3B2DC430480C6
:101D800010BD21B1828942F40052828104E082892F
:101D90004DF6FF731A40828170471AB1838A0B4354
:101DA000838202E0838A8B438382704710B50446A6
:101DB0002048844209D101218803FFF76FFC0021EC
:101DC0004FF48040FFF76AFC32E01B48844209D19F
:101DD00001214804FFF742FC00214FF40030FFF7D7
:101DE0003DFC25E01548844209D101218804FFF714
:101DF00035FC00214FF48020FFF730FC18E010483C
:101E0000844209D10121C804FFF728FC00214FF4C6
:101E10000020FFF723FC0BE00A48844208D101218F
:101E20000805FFF71BFC00214FF48010FFF716FC9C
:101E300010BD000000380140004400400048004050
:101E4000004C00400050004070B5024600240023C2
:101E50000025002040F66A16B14200D100BFC1F350
:101E6000421501F01F03012606FA03F3012D02D1EA
:101E70009689334006E0022D02D1168A334001E0F4
:101E8000968A33400C12012606FA04F41688344070
:101E900013B10CB1012000E0002070BDF0B5034685
:101EA000002400260025002040F66A17B94200D120
:101EB00000BF1846C1F3421401F01F06012707FABC
:101EC00006F5012C01D10C3004E0022C01D11030B8
:101ED00000E014301AB107682F43076002E007687A
:101EE000AF430760F0BD00002DE9F04786B005461E
:101EF0000E460024A24600BFA1460027B08900B1CB
:101F000000BF2F462C8A4CF6FF700440F088044333
:101F10002C82AC894EF6F3100440B0883189084316
:101F2000718908430443AC81AC8A4FF6FF400440FA
:101F3000B0890443AC8201A8FFF7C0FB1F48874269
:101F400002D1DDF810A001E0DDF80CA0A88900F4B2
:101F5000004040B10AEBCA0000EB0A1031684900AA
:101F6000B0FBF1F807E00AEBCA0000EB0A10316899
:101F70008900B0FBF1F86420B8FBF0F004012009FF
:101F8000642101FB1089A88900F4004040B132208F
:101F900000EBC900B0FBF1F000F00700044308E0DB
:101FA000322000EB09106421B0FBF1F000F00F00CB
:101FB00004432C8106B0BDE8F087000000380140E2
:101FC00001468888C0F308007047000010B5012161
:101FD0000448FEF77FFB18B101210248FEF7A2FA80
:101FE00010BD00000064004000B585B00221144817
:101FF000FEF770FB10B302211148FEF793FA6A4610
:1020000000210F48FEF712FD0098A0F2012010B148
:10201000012812D108E09DF80E109DF80D0041EA4C
:1020200000200849088008E09DF80E109DF80D007A
:1020300041EA00200449088000BF00BF05B000BD90
:1020400000640040400000204800002000BFFEE780
:102050002DE9F04105462C4640211148FFF724F9AF
:10206000002619E0274607F08007802F04D1802141
:102070000B48FFF71BF903E080210948FFF714F92B
:102080006006040E40210648FFF710F9402104487D
:10209000FFF70AF9701CC6B2082EE3DBBDE8F08139
:1020A0000014014010B50446FFF76AF97820FFF7E5
:1020B000CFFFFFF789F90020FFF7CAFFFFF784F988
:1020C0002046FFF7C5FFFFF77FF9FFF76DF910BD59
:1020D00010B50446FFF754F97820FFF7B9FFFFF772
:1020E00073F94020FFF7B4FFFFF76EF92046FFF7C2
:1020F000AFFFFFF769F9FFF757F910BD2DE9F0477A
:102100004FF00009CA4613241DE0012C0BD12448CE
:102110000088244921F814002148418821482830AA
:1021200020F814100DE0601E1E4931F8100021F84F
:102130001400601E283131F810101A48283020F899
:102140001410601EC4B2002CDFDC01240AE0154824
:1021500030F8140081441348283030F814008244C9
:10216000601CC4B2142CF2DB484600F011FC074698
:1021700000220D4B00F040FA054600F0C5FB0B496C
:102180000880504600F004FC05460022064B00F093
:1021900033FA074600F0B8FB04494880BDE8F087F1
:1021A0008400002038010020000033408800002017
:1021B000044A1268111800BF024A12688A42FBD30F
:1021C00070470000280000202DE9F05F04460D460E
:1021D000DFF838A000220E4B2046294600F028FCEC
:1021E000804600F023F983460A49584600F08CFFE8
:1021F0008146514600F092FE804600F001FE064600
:102200000F4630463946BDE8F09F00003BEF303EB8
:1022100000004E400000984108B501211020FFF752
:102220002DFA48208DF803000420ADF8000069461F
:102230000548FEF765FF0820ADF800006946024832
:10224000FEF75EFF08BD00000010014010B5FFF76B
:10225000E3FFFEF72BF8FEF7E9F810BD30B50020DC
:1022600015490860154800684FF47A72B0FBF2F126
:10227000B1F1807F00D31DE021F07F40401E4FF080
:10228000E022506150170F22002807DA13071D0EB5
:102290000B4B00F00F04241F1D5503E013071C0E09
:1022A000084B1C5400BF00204FF0E0229061072033
:1022B000106100BF30BD0000280000201400002085
:1022C00018ED00E000E400E001210520FFF7D6F959
:1022D00001212748FEF7A0FFFFF7D0FBFFF7BEFF65
:1022E0004FF4A060FFF7B8F8FEF718FB42F20F7149
:1022F0004720FFF703FC40F2E7314720FFF73CFCA3
:10230000FFF746FAFFF7D2F8FFF7B0F84FF4E130E5
:1023100000F03CF8FFF75EF9FFF798FF27E015485B
:102320000078D0B100211448FFF759FC134A144B30
:10233000144903C900F07AFC124A03C20022134672
:10234000104903C900F038FB03D800210D4A116081
:10235000516001200C49087009E00B48007830B149
:1023600001210548FFF73BFC002007490870D6E72C
:102370000002300009000020001000407B14AE472E
:10238000E17A743F000000201000002010B586B0F4
:102390000446012144F20400FFF770F94FF4007085
:1023A000ADF8140003208DF8160018208DF81700E2
:1023B00005A91C48FEF7A4FE4FF40060ADF8140018
:1023C00004208DF8170005A91648FEF799FE019420
:1023D0000020ADF80800ADF80A00ADF80C00ADF82B
:1023E00010000C20ADF80E0001A90F48FFF77CFD8E
:1023F00025208DF8000000208DF8010001208DF8C7
:1024000002008DF803006846FEF7EEFF012240F25D
:1024100025510548FFF742FD01210348FFF7B1FCB4
:1024200006B010BD000801400038014021F0004214
:10243000A2F16052B2F5801F01F0004328BFD2F133
:102440007F6C0BD95FEA001C43EAC20242EB50707A
:1024500018BF704728BF20F001007047B2F5801FF9
:10246000BCBF184670474FEA410C1CF5001F02D252
:10247000084600F010BF70B500F084FB0000008932
:10248000FFF7F6BF4FF00040A0F580007047000056
:1024900010B591EA030F48BF83F0004300F1CE83EB
:1024A000841A71EB030C05D2121943EB0C03001BC9
:1024B00061EB0C01DFF824E14FEA1154A4EB135C4B
:1024C0001EEA430F18BF9EEA445F73D023EA0E034F
:1024D000DCF1200E21EA045143F4801332D322FAB6
:1024E0000CFE10EB0E0023FA0CFE41EB0E01CCF1BA
:1024F000200E03FA0EFE10EB0E0051F10001B1F5B3
:10250000801FCCF1200E32D201EB045112FA0EF2F0
:10251000BDE8104058BF7047401C38BF5FEA420218
:1025200018BF7047002814BF20F0010041F10001DE
:102530004FEA410313F5001F38BF7047A1F1C041B6
:1025400000F06EBB012A43EB0302ACF1200CDCF17E
:102550001F0E32BF4FF0000E23FA0CF310EB0300F6
:1025600041EB0451B4EB115FD0D0A1EB045101F564
:10257000801149085FEA300001EB04510ED350F19D
:10258000000038BF12FA0EFE08D1BDE81040C9E7BE
:10259000401C38BF5FEA4202CAD1C3E7BDE8104021
:1025A0004FEA410313F5001F38BF7047A1F1C04146
:1025B00000F036BB9EEA445F08D011EA5E0FBDE82A
:1025C000104004BF01F0004100207047BDE81040FA
:1025D00070B500F0D7FA00BF64FBBE3E0000E0FF1C
:1025E000491058BFC1F140415B1058BFC3F140438F
:1025F0008B42EFF3008070472DE9C04130B4DFF823
:10260000A0C23CEA111418BF3CEA131400F0EC809D
:1026100081EA03051CEA111444EAD57418BF1CEAC8
:10262000131500F0C780A4EB05044FF0004545EA00
:10263000C12145EAC32341EA505143EA525304F110
:102640007F74994204F500344FEAC0204FEAC22259
:1026500008BF904200F09C804FEA13650FF24016CD
:10266000765D4FEA134506FB05F7C7F1807706FB59
:1026700007F74FEAD737A7FB03687642C8F58038DB
:10268000A7FB06CE38BFA8F1010807FB08E64FF00C
:10269000000EA6FB028CE6FB03CEDCF1000CCEF1B3
:1026A000004E38BFAEF1010EA6FB0C584FF00007EC
:1026B0004FF00005E6FB0E87A1FB08C6A0FB07CE86
:1026C00016EB0E0645F10005E1FB076515F1E04E3E
:1026D0007EBFA4F580345FEA46066D4116F180079F
:1026E00045F100054FEA17274FEA066647EA0567F6
:1026F000A6F1DE46B6F1805F4FEA15251FD93846B0
:1027000024F0010C05EBC471BCF1FE6F01EB0C1160
:1027100002D8F0BCBDE8008124425CBF01F5801EF8
:102720009EEAC47F02D4F0BCBDE80081244238D4C4
:10273000F0BCA1F1C041BDE8004100F071BA4FEA20
:10274000D22242EA43524FEAD323A7FB02864FEA42
:10275000D02040EA415007FB03661EEA0E0F4FEA05
:10276000D12105FB026658BFA6EB0056B6EB00561A
:102770004FEA520E4EEAC37E18EB0E0E56EB530E86
:10278000BDD518EB02085E417F1C55F10005B6E788
:102790004FF480154FF000074FF000064FF000088F
:1027A000ADE7F0BC4FF0000001F1C04101F0004185
:1027B000BDE8008111EA0C1F0CEA131500D00CE0F3
:1027C00013EA0C1F00F025804FF00000F0BC81EAF6
:1027D000030101F00041BDE80081F0BCBDE800410B
:1027E00081EA030100F01CBAF0BCBDE8004170B5FD
:1027F00000F0C8F9097EFC3E00F007B881EA030149
:102800004FF0000001F00041704781EA030100F041
:1028100007BAF0BCBDE800414FF000002149704705
:10282000FFFDFBF9F7F5F4F2F0EEEDEBE9E8E6E495
:10283000E3E1E0DEDDDBDAD8D7D5D4D3D1D0CFCD1C
:10284000CCCBCAC8C7C6C5C4C2C1C0BFBEBDBCBB55
:10285000BAB9B8B7B6B5B4B3B2B1B0AFAEADACAB50
:10286000AAA9A8A8A7A6A5A4A3A3A2A1A09F9F9E2A
:102870009D9C9C9B9A9999989797969595949393DC
:10288000929191908F8F8E8E8D8C8C8B8B8A898973
:1028900088888787868585848483838282818180F6
:1028A0000000FF070000F87F4FEA41034FEA53534F
:1028B000A3F58063D3F11E03C8BFD3F1210C0CDD57
:1028C0004FF0004242EAC12242EA505232FA03FC7F
:1028D0008CEAE17CACEBE1707047102BC4BF0020A8
:1028E000704703F5787CBCF1FF3F04D06FF00042E5
:1028F00082EA2100704770B500F044F949922480C3
:1029000000207047F2E700004FEA1153A3F58063FF
:10291000D3F11E03A8BFD3F1200C08DB4FF0004217
:1029200042EAC12252EA505232FA03F07047094299
:102930000BD4102BC4BF0020704703F5787CBCF18A
:10294000FF3F05D04FF0FF3070474FF00000704759
:1029500070B500F017F900BF49922480002070473D
:10296000F0E710F0004248BF4042B0FA80F310FA9E
:1029700003F10AD0C3F11D0303F580634FEA415010
:1029800002EB035202EBD12170474FF00000704779
:10299000B0FA80F310FA03F10AD0C3F11D0303F576
:1029A00080634FEA41504FEA035202EBD121704756
:1029B0004FF000007047000051EA030C17D41CF5DB
:1029C000801F58BFBCF5801F00F10680994218BFD8
:1029D000704708BF9042704707D711F5801F58BF56
:1029E00013F5801F19D499427047894270471CF52E
:1029F000801F08D5BCF5801FF7D58B4218BF7047E4
:102A000008BF824270474FF4001C1CEB410F38BFD7
:102A10001CEB430F01D28B42704770B500F0B2F847
:102A2000922449004FF000514FF08053FFF7D8BD7A
:102A3000DFF848C170B51CEA111E1EBF1CEA131551
:102A40009EEA0C0F95EA0C0F00F06F8081EA0304F8
:102A500023EA4C134EEAD47E21EA4C1141F4801152
:102A600043F48013AE44A1FB024CA0FB0365AEF11E
:102A70007F7E361955EB0C05A1FB034C4CF100038E
:102A8000A0FB021C16EB0C06654153F10003094242
:102A900018BF46F0010613F4007F0BD14FEA033153
:102AA0004FEA0530340341EA155140EA16506FF001
:102AB00003020AE04FEAC3214FEAC520F40241EACB
:102AC000555140EA56506FF0020202EB2E4201EBE4
:102AD000025585EACE710AD05FEA440C18BF24F093
:102AE000004450F1000041F1000120EAD47040F2AE
:102AF000FE7C624500D270BDA84214BF4FF08044F6
:102B00004FF04044002E08BF0024BEF1806FA8BFE4
:102B1000A1F1C041BDE8704080F282804FF000001A
:102B200001F1C04101F0004170479EEA0C0F0CEA30
:102B3000131518BF95EA0C0F06D04FF0000081EA7C
:102B4000030E0EF0004170BD00F01CF88900013E3C
:102B500000F007B800F009B84FEA430C5FEA5C5C8C
:102B600008D081EA030100F05BB84FEA410C5FEA4C
:102B70005C5CF6D14FF00000014970470000FF0790
:102B80000000F87F0EF1020E2EF0030E5EF8046BCB
:102B9000364205D4012A43EB030515F5001F12D870
:102BA000012841EB010C1CF5001F0CD80ED14FEA97
:102BB000D17C15F5001F0CEB4C0C0CF1020C08BF7E
:102BC0004CEBD37C04E04FF0080C01E04FEAD37CDF
:102BD0000CEB4C0526FA05F606F00706B6F1040CD8
:102BE00006D20EEB860CBDE870404CF0010C60473D
:102BF000DFE80CF0090B02024FF000414FF000003B
:102C0000A1F5002170BD19461046012851EB0104C1
:102C100018BFD4F5001484BF002001F0004170BD3E
:102C20000808A0F500114FEA3101704710B591EA8C
:102C3000030F48BF83F000433FF532AC841A71EBB9
:102C4000030C07D212198CF0004C43EB0C03001B51
:102C500061EB0C01DFF8A4E14FEA1154A4EB135C23
:102C60001EEA430F18BF9EEA445F00F0B08023EADB
:102C70006E03524221EA0451C3EB6E0338BF5B1E60
:102C8000DCF1200E25D322FA0CFE10EB0E0043FAE5
:102C90000CFE41EB0E01CCF1200E03FA0EFE10EB00
:102CA0000E0051F10001CCF1200E29D412FA0EF2DF
:102CB00001EB0451BDE8104058BF7047401C1CBFD9
:102CC000B2F1004F704700280CBF491C20F00100F2
:102CD000704712EB020E43EB030218BF4FF0010ED8
:102CE0004EEA4202ACF1200CDCF11E0E54D943FA3C
:102CF0000CFE10EB0E0051F1FF31CCF11E0ED5D5BC
:102D00000EF1010E12FA0EFE404141EB010101EB02
:102D1000445C5FEA5C5C10D910EBDE7001EB04519F
:102D200038BFBEF1004FBDE8104018BF7047002803
:102D30000CBF491C20F00100704730D24FEAD42C60
:102D400011F5001124F400641BD0B1FA81F20B3AA2
:102D5000A41AA41ED2F12003914030FA03F31943C0
:102D6000904001EBCC71002C01EB0451BDE8104008
:102D7000A8BF704701F1C0414FF0000001F00041D1
:102D80007047B0FA80F310FA03F100D110BDE41AD5
:102D9000173C4805C90AE4E701EB045110BD49108E
:102DA00001EB0451BDE810404FEA300002E04FF063
:102DB000000170474A0008BF0042F8D0B2F5001F7A
:102DC00028BF704701F000414FF0000070479EEAB5
:102DD000445F07D011EA5E0FBDE8104004BF002138
:102DE00000207047BDE8104070B5FFF7CBFE00BF74
:102DF00040DFF63E83F00041104670470000E0FFE0
:102E000043004FEAD30C4FEA3C0C43401FBF40073E
:102E10000CF1605113F0FE4F70471CF0006F03D1AE
:102E200000200CF0004170470CF0004343EA507062
:102E300010B540EACC0000F0E8F900BF00000092B5
:102E40004FEA0001FFF7ECBE4FF000414FF00000E9
:102E5000A1F500217047000090EA010F48BF81F002
:102E6000004100F12482421A3CBF801A89184FEABF
:102E7000D0524FF07F4C1CEA410FA2EBD15318BF48
:102E80009CEA026F00F03B804FF0004C4CEA0020BF
:102E90004CEA012121FA03FC10EB0C0C1ED202F1CA
:102EA000FF325FEA1C2040EBC25038BF70471CF075
:102EB0007F0F4FEA400C18BFBCF17F4F38BF7047FF
:102EC000C3F12003994008BF20F00100BCF17F4FFF
:102ED00038BF7047A0F1C04000F0DDB94FEA3C00B8
:102EE000000A40EBC25028BF1CF0FF0F4FEA400C15
:102EF000E6D018BFBCF17F4F38BF7047EAE79CEAC5
:102F0000026F05D010EA5C0F08BF00F00040704768
:102F100010B500F07AF900BF64FBBE3E4FF47F0CA1
:102F20001CEAD0121EBF1CEAD11392EA0C0F93EADE
:102F30000C0F00F0858090EA010F48BF42F48072C8
:102F400040F4000C41F400002CF07F4120F07F4061
:102F500000B58142A2EB03020FF2081CACEB504E0D
:102F6000C0F100009EF800E04FEA4E0E00FB0EFCA0
:102F700038BF49004FEA2C1C02F5FA020CFB0EF395
:102F80004FEACE1E4FEA112C4FEAC1210EEB635ED1
:102F900042EB22420EFB0CFC4FEA1C5300FB0311D8
:102FA0004FEA112C4FEA01310EFB0CFC4FEADC4CCE
:102FB00000FB0C11C14228BF09184CEB03335DF82C
:102FC00004EB10EB410143EBC250B2F57C0F38BF6C
:102FD000704729D512F0F00F1CBF00F1C04000F07F
:102FE00000407047008182838485868788898B8C26
:102FF0008D8E8F919293959697999A9C9D9FA0A262
:10300000A3A5A7A8AAACAEB0B2B3B5B7B9BCBEC0B1
:10301000C2C5C7C9CCCED1D4D7D9DCDFE2E6E9EC52
:10302000F0F3F7FAFE0000004FEA400C0CF1807C50
:10303000BCF17E4F28BF7047B0F1C04000F02BB903
:1030400090EA010F0CEAD11348BF42F48072624546
:1030500038BF634507D213F47F0F16D080EA010012
:1030600000F00040704710B500F0CFF8097EFC3E3C
:1030700000F005B880EA010000F00040704780EAE7
:10308000010000F0004000F006B912F47F0F04BF09
:103090000248704780EA010000F0FDB80000C07FE0
:1030A00041000B0ED3F19E0208D950F400034FEA01
:1030B000032323FA02F048BF4042704710B500F0E6
:1030C000A4F800BF49922480002070476FF00042AE
:1030D00082EA20007047000010F0004148BF4042E3
:1030E000B0FA80F310FA03F2C3F19D030BD051EA5A
:1030F000C35101EB1220530638BF704700F10100A5
:1031000008BF20F0010070474FF47F0C1CEAD0127A
:103110001EBF1CEAD11392EA0C0F93EA0C0F00F0C9
:10312000478090EA010F48BF42F480724FF0004C94
:103130004CEA00204CEA012102EB0302A0FB011340
:10314000A2F50002002918BF43F001035B0028BF6D
:103150004FEA330342EB22425FEA132C4CEBC2509E
:103160002EBFBCEB436FB2F57C0F70474FEA036C88
:10317000BCF1004F08BF20F00100B2F57C0F38BF52
:1031800070470BD582F0FF0212F5803FC8BF704731
:1031900000F1C040D8BF00F00040704700F5000CBF
:1031A0005FEA4C0C48BF7047B0F1C04000F073B804
:1031B00090EA010F0CEAD11348BF42F480726245D5
:1031C00038BF634504D280EA010000F00040704738
:1031D00010B500F01AF800BF8900013E00F007B8F2
:1031E00000F009B85FEA410C5FEA1C6C08D080EA85
:1031F000010000F050B85FEA400C5FEA1C6CF6D1A9
:103200004FF00040A0F5800070470EF1020E2EF046
:10321000030E5EF8044B244204D44FEA4102B2F19B
:103220007F4F11D84FEA4003B3F17F4F0CD80ED136
:103230004FEAD07CB2F17F4F0CEB4C0C0CF1020C3E
:1032400008BF4CEBD17C04E04FF0080C01E04FEAE2
:10325000D17C0CEB4C0324FA03F404F00704B4F122
:10326000040C06D20EEB840CBDE810404CF0010CAF
:103270006047DFE80CF0070802024FF00040A0F5BD
:10328000800010BD0846420018BFD2F1807288BF8E
:1032900000F0004010BDFF2141EAD050C00570474A
:1032A00090EA010F48BF81F000413FF5DCAD421AC2
:1032B00004D882F00042A0EB020011444FEAD05241
:1032C0004FF07F4C1CEA410FA2EBD15318BF9CEA90
:1032D000026F4AD04FF0004C4CEA00204CEA01212A
:1032E00021FA03FCB0EB0C0C0FD412F0FE0F36D019
:1032F0005FEA4C001DD5001240EBC25038BF70474A
:103300001CF03F0F18BF70470BE0A2F101025FEA0B
:103310001C2040EBC25038BF70471CF07F0F18BF15
:103320007047C3F12003994014BF401E20F00100F4
:10333000704780084FEA122308BF7047B0FA80FC3C
:10334000A2EB0C02CCF1280C60FA0CF093EA122FDD
:1033500004BF00EBC25070474FEAC3707047130AB6
:103360005FEADC1008BF7047F6E79CEA026F04D002
:1033700010EA5C0F08BF0020704710B5FFF745FF4B
:1033800040DFF63E81F0004070470000AC3300089B
:1033900000000020900000006C0100083C34000890
:1033A000900000205807000088010008000000007D
:1033B0000000000000000000020000030001000007
:1033C00000A24A0400000000000000000102030403
:1033D00006070809000000000000000001020304C5
:1033E00001020304060708090204060800000000A1
:1033F00000000000000000000000000000000000CD
:1034000000000000000000000000000000000000BC
:1034100000000000000000000000000000000000AC
:10342000000000000000000000000000000000009C
:0C34300000000000000000000000000090
:04000005080001CD21
:00000001FF
