:020000040800F2
:10000000E0190020CD0100083D1C00087B14000809
:10001000391C00083D0500085528000800000000B4
:100020000000000000000000000000003D22000869
:10003000B9120008000000000D200008712300081C
:10004000E7010008E7010008E7010008E7010008F0
:10005000E7010008E7010008E7010008E7010008E0
:10006000E7010008E7010008E7010008E7010008D0
:10007000E7010008E7010008E7010008E7010008C0
:10008000B1100008E7010008E7010008CD270008CB
:10009000E9270008E7010008E7010008E701000878
:1000A000E7010008E7010008E7010008E701000890
:1000B000E7010008E7010008E7010008E701000880
:1000C000E7010008E7010008E7010008E701000870
:1000D000E7010008E7010008E701000881250008A2
:1000E000E7010008E7010008E7010008E701000850
:1000F000E7010008E7010008E7010008E701000840
:10010000E7010008E7010008E1230008E701000813
:10011000E7010008E701000869240008E70100087A
:10012000E7010008E7010008E7010008E70100080F
:1001300000F002F800F03AF80AA090E8000C8244BF
:100140008344AAF10107DA4501D100F02FF8AFF29C
:10015000090EBAE80F0013F0010F18BFFB1A43F0A5
:100160000103184784480000A4480000103A24BF47
:1001700078C878C1FAD8520724BF30C830C144BF0C
:1001800004680C607047000000230024002500264E
:10019000103A28BF78C1FBD8520728BF30C148BFEA
:1001A0000B6070471FB51FBD10B510BD00F031F8D2
:1001B0001146FFF7F7FF02F0B7FC00F04FF803B469
:1001C000FFF7F2FF03BC00F055F800000948804734
:1001D00009480047FEE7FEE7FEE7FEE7FEE7FEE729
:1001E000FEE7FEE7FEE7FEE704480549054A064B41
:1001F000704700008123000831010008E01300204F
:10020000E0190020E0150020E0150020704770473D
:100210007047754600F028F8AE460500694653461B
:1002200020F00700854618B020B5FFF7DDFFBDE8D8
:1002300020404FF000064FF000074FF000084FF04D
:10024000000B21F00701AC46ACE8C009ACE8C009DE
:10025000ACE8C009ACE8C0098D4670470446AFF36E
:1002600000802046FFF7ABFF004870478013002056
:100270007047000001491820ABBEFEE726000200CF
:1002800021B1826842F00102826003E0826822F0BC
:1002900001028260704721B1826842F480728260FC
:1002A00003E0826822F480728260704708B5012101
:1002B000102001F0CDFE3C20ADF8000000208DF8AC
:1002C00003006946014800F0F8FF08BD0010014036
:1002D000014600208A6802F004020AB1012000E011
:1002E00000207047014600208A6802F008020AB127
:1002F000012000E00020704730B5024600200023B6
:1003000050680F4C20400D790C6844EA05242043C6
:10031000506090680B4C2040D1E902542C434D7939
:1003200044EA450420439060D06A20F470000C7CBD
:10033000641EE4B2234340EA0350D06230BD0000A3
:10034000FFFEF0FFFDF7F1FFF0B504460D4600207B
:100350000021092D11DDE068A5F10A0606EB46072C
:10036000072606FA07F18843A5F10A0606EB4606BA
:1003700003FA06F10843E0600CE0206905EB45074D
:10038000072606FA07F1884305EB450603FA06F14E
:1003900008432061072A0FDA606B561E06EB8607BA
:1003A0001F2606FA07F18843561E06EB860605FA55
:1003B00006F10843606322E00D2A0FDA206BD61F96
:1003C00006EB86071F2606FA07F18843D61F06EBC1
:1003D000860605FA06F10843206310E0E06AA2F100
:1003E0000D0606EB86071F2606FA07F18843A2F1E1
:1003F0000D0606EB860605FA06F10843E062F0BD3D
:10040000816841F008018160704721B1826842F43F
:10041000A002826003E0826822F4A002826070473A
:10042000816841F0040181607047000000B591B01F
:100430000121084601F0ECFD0121480201F008FE0F
:100440003B4800F05FFE3B4806903B480790002089
:1004500008900420099000200A9080200B90400012
:100460000C9080000D9020200E9000020F90002034
:10047000109006A92E4800F001FF01212C4800F041
:1004800035FE0020019001208DF808008DF809004C
:100490004FF4602003900020049004208DF8140095
:1004A00001A924484C38FFF727FF062301220C211D
:1004B00020484C38FFF748FF062302220D211D4833
:1004C0004C38FFF741FF062303220E2119484C3810
:1004D000FFF73AFF062304220F2116484C38FFF796
:1004E00033FF012113484C38FFF7D5FE0121114895
:1004F0004C38FFF7C5FE0F484C38FFF781FF00BFAF
:100500000C484C38FFF7EEFE0028F9D109484C386A
:10051000FFF786FF00BF07484C38FFF7D9FE0028D9
:10052000F9D1012103484C38FFF76FFF11B000BD2E
:10053000080002404C2401406400002000BFFEE798
:10054000B1F5007F3AD00FDC202928D006DC012944
:100550001CD004291DD0082940D11DE0402921D0FC
:10056000B1F5807F3AD126E0B1F5004F31D006DCFD
:10057000B1F5806F25D0B1F5006F2FD124E0B1F532
:10058000803F12D0B1F5003F28D111E0154A8260BA
:1005900025E00822C26022E01022C2601FE008228B
:1005A00002611CE01022026119E00822426016E09C
:1005B0001022426013E00422426010E004224260F4
:1005C0000DE0042242600AE00022826104224260BF
:1005D00005E0002282610422426000E000BF00BF0B
:1005E000704700000101010010B50021837A01224B
:1005F00002FA03F13D4A126842F001023B4B1A60D5
:100600003A4A1C3212688A43384B1C331A60027B08
:10061000CAB9364A0C3212688A43344B0C331A601A
:100620004288C38842EA0343304A4032847A42F81F
:1006300034300288838842EA03432C4A4032847A69
:1006400002EBC4025360027B012A19D1274A0C3203
:1006500012680A43254B0C331A604288038842EA29
:100660000343224A4032847A42F83430C288838875
:1006700042EA03431D4A4032847A02EBC4025360CB
:10068000C27A3AB9194A121D12688A43174B1B1DC8
:100690001A6006E0154A121D12680A43134B1B1D0F
:1006A0001A60028932B9114A143212688A430F4B18
:1006B00014331A600289012A06D10C4A14321268D6
:1006C0000A430A4B14331A60427B012A06D1074AB7
:1006D0001C3212680A43054B1C331A60034A126825
:1006E00022F00102014B1A6010BD000000660040BC
:1006F00070B504460D46002660692840002871D078
:10070000B5F5807F5CD010DC082D35D006DC012DDE
:1007100020D0022D24D0042D72D127E0102D31D00D
:10072000202D35D0402D6BD138E0B5F5004F60D08D
:1007300009DCB5F5007F49D0B5F5806F4CD0B5F533
:10074000006F5DD14FE0B5F5803F2DD0B5F5003F8E
:1007500056D12FE0A0682D4900F0A0FC064651E0DC
:10076000E068032100F09AFC06464BE0E0680821AF
:1007700000F094FC064645E0E068102100F08EFC95
:1007800006463FE02069032100F088FC064639E078
:100790002069082100F082FC064633E02069102120
:1007A00000F07CFC06462DE06068082100F076FC35
:1007B000064627E06068102100F070FC064621E044
:1007C000A069012100F06AFC06461BE0A069022135
:1007D00000F064FC064615E0A069042100F05EFC10
:1007E00006460FE00FE0A069702100F057FC0646B6
:1007F00008E06068042100F051FC064602E0FFE7D3
:10080000002600BF00E00026304670BD0101010057
:100810001AB143690B43436102E043698B4343616F
:10082000704730B5024600200023146824F002040B
:100830001460146844F00104146000E05B1C546808
:1008400004F001041CB94FF6FF74A342F6D15468BA
:1008500004F001040CB900206CE08C79012C04D167
:10086000146844F08004146003E0146824F08004E9
:100870001460CC79012C04D1146844F04004146055
:1008800003E0146824F0400414600C7A012C04D1B5
:10089000146844F02004146003E0146824F0200479
:1008A00014604C7A012C04D1146844F010041460D4
:1008B00003E0146824F0100414608C7A012C04D135
:1008C000146844F00804146003E0146824F0080479
:1008D0001460CC7A012C04D1146844F00404146030
:1008E00003E0146824F0040414608C78A407CD7825
:1008F00044EA05640D7944EA05444D7944EA055417
:100900000D886D1E2C43D461146824F0010414601A
:10091000002300E05B1C546804F001041CB14FF696
:10092000FF74A342F6D1546804F001040CB1002016
:1009300000E0012030BD000000B589B00121042095
:1009400001F086FB0121480601F072FB4FF4805054
:10095000ADF8200003208DF8220018208DF8230028
:1009600008A9374800F0A9FC4FF40060ADF820005A
:1009700048208DF8230008A9314800F09EFC002093
:100980008DF81A008DF81B008DF81C008DF81D00E5
:100990008DF81E0001208DF81F0000208DF8160034
:1009A0008DF8170008208DF8180007208DF8190021
:1009B0000220ADF8140005A92248FFF732FF0020FD
:1009C0008DF80E008DF80F0001208DF8100000202A
:1009D000ADF80400ADF80600ADF80800ADF80A0067
:1009E000ADF80C0001208DF8110001A8FFF7FCFD07
:1009F000012202211348FFF70BFF01221146114883
:100A0000FFF706FF14208DF8000001208DF801008B
:100A10008DF802008DF80300684601F011F91320EB
:100A20008DF8000000208DF8010001208DF80200F3
:100A30008DF80300684601F003F909B000BD00001D
:100A4000000801400064004010B500F5D87303EBC6
:100A500001131B6803F004031372137A53B900F5F2
:100A6000D87303EB01131B6840F2FF7404EA53537D
:100A7000136009E000F5D87303EB01131B686FF0F6
:100A8000604404EAD303536000F5D87303EB011309
:100A90001B6803F00203537200F5D87303EB0113D4
:100AA0005B6803F00F03937200F5D87303EB011337
:100AB0005B681B0AD37400F5D87303EB01139B68C2
:100AC000D37200F5D87303EB01139B681C0A1473EF
:100AD00000F5D87303EB01139B681C0C547300F5ED
:100AE000D87303EB01139B681B0E937300F5D87347
:100AF00003EB0113DB68D37300F5D87303EB011329
:100B0000DB681C0A147400F5D87303EB0113DB686F
:100B10001C0C547400F5D87303EB0113DB681B0E37
:100B2000937421B9C36843F02003C36003E00369F1
:100B300043F02003036110BD10B502460020936806
:100B400003F08063B3F1806F00D110E0936803F08D
:100B50000063B3F1006F01D1012008E0936803F056
:100B60008053B3F1805F01D1022000E0042004280B
:100B700074D002F5C07303EB00131B6803F001048B
:100B800002F5C07303EB00131C600B7A7BB94B7A40
:100B90000C8843EA445302F5C07404EB0014246843
:100BA000234302F5C07404EB0014236010E00B7AB9
:100BB0004C6843EAC4034C7A234302F5C07404EB47
:100BC00000142468234302F5C07404EB001423606E
:100BD0008B7A03F00F038B7202F5C07303EB0013E3
:100BE0005B6823F00F0402F5C07303EB00135C6035
:100BF00002F5C07303EB00135B688C7A234302F5A4
:100C0000C07404EB001463608B7B1C064B7B44EACE
:100C100003440B7B44EA0323CC7A234302F5C074DC
:100C200004EB0014A3608B7C1C064B7C44EA034459
:100C30000B7C44EA0323CC7B234302F5C07404EB12
:100C40000014E36002F5C07303EB00131B6843F06C
:100C5000010402F5C07303EB00131C6010BD00001B
:100C60002DE9F04F89B03A48408839490988401A3F
:100C700000B2384988810846408A8989084400B210
:100C8000344948820846B0F9120006900846C089E7
:100C9000098A401A00B207902E48C0892D4908825F
:100CA00008468089C881079803F038F90546294825
:100CB0008168284603F04AF9044602F0C3FFCDE9F3
:100CC0000401069803F02AF907462248416838468D
:100CD00003F03CF9064602F0B5FF04460D461D49F7
:100CE000086802F0AFFF06460F461A49B1F90C003A
:100CF00002F023FD804632463B4602F085FD224647
:100D00002B46CDE9000102F073FACDE90201DDE9DD
:100D1000042302F06DFA824602F0B2FC00B20D49E3
:100D200088820846B0F914000B49884203DA4FF66E
:100D30002420084988820748B0F9140040F2DC51A9
:100D4000884202DD08460349888209B0BDE8F08F79
:100D5000400000208800002024FAFFFF2DE9F04F1A
:100D600089B03A48408839490988401A00B2384960
:100D700088810846408A8989084400B234494882FB
:100D80000846B0F9120006900846C089098A401A40
:100D900000B207902E48C0892D49088208468089F4
:100DA000C881079803F0BAF80546294881682846A3
:100DB00003F0CCF8044602F045FFCDE904010698A3
:100DC00003F0ACF8074622484168384603F0BEF805
:100DD000064602F037FF04460D461D49086802F03A
:100DE00031FF06460F461A49B1F90C0002F0A5FC86
:100DF000804632463B4602F007FD22462B46CDE9AF
:100E0000000102F0F5F9CDE90201DDE9042302F069
:100E1000EFF9824602F034FC00B20D4988820846A0
:100E2000B0F914000B49884203DA4FF62420084930
:100E300088820748B0F9140040F2DC51884202DD94
:100E400008460349888209B0BDE8F08F44000020BD
:100E5000A400002024FAFFFF70B500221346354994
:100E600003C902F0D1FB04D1002033494882334941
:100E700048824FF03332324B2E4903C902F0C2FD93
:100E800006D84FF033312E482A4AC2E900100DE04F
:100E90004FF033322B4B274903C902F079FC05D8B8
:100EA0004FF033312748234AC2E900102648007822
:100EB00088BB204903C901F0D3FD044602F0E0FBE2
:100EC00000B2224948801B4903C901F0C9FD04460C
:100ED00002F0D6FB00B21E49488001F013FD1D4808
:100EE0000078C0B100F0CCFA00221346114903C9C2
:100EF00002F08AFB0FD0154840881749898A0844B8
:100F000000B212494880124840881349898A401A21
:100F100000B20F494880FFF7A3FEFFF71FFF074805
:100F2000B0F914200448B0F914100C4801F0FCF991
:100F300070BD00000000002088000020A4000020F8
:100F40003333F33F3333F3BF7500002040000020FC
:100F50004400002012000020C00000200064004077
:100F600010B548480078B0B90121474800F078FA38
:100F700088B90221444800F073FA60B9042142485C
:100F800000F06EFA38B908213F4800F069FA10B94C
:100F900001203C4908703B480078012871D10121AB
:100FA000394800F05DFA012811D00221364800F0DE
:100FB00057FA01280BD00421334800F051FA0128D8
:100FC00005D00821304800F04BFA012859D12F48AC
:100FD000007830B1012817D0022828D003284CD13E
:100FE00038E0002213462A4903C902F00BFD05D25E
:100FF00028480078401C2749087004E025480078FC
:10100000401E2449087038E000221346204903C9D5
:1010100002F0F8FC05D220480078401C1E490870F8
:1010200004E01D480078401E1B49087025E000229E
:101030001346174903C902F0E5FC05D215480078AC
:10104000401E1449087004E012480078401C114901
:10105000087012E0002213460D4903C902F0D2FCC9
:1010600005D20D480078401E0B49087004E00A487C
:101070000078401C0849087000BF00BF00200149EB
:10108000087010BD61000020000C01400D00002020
:10109000000000200B0000200C0000200246002071
:1010A00002EA01030BB1012000E0002070470000BC
:1010B00010B54FF4001000F0CBF830B14FF48010B1
:1010C00000F006F8014801F085F810BDDC000020B2
:1010D00000F0805111B10349086001E00249486005
:1010E00070470000040402400000024021B1026881
:1010F00042F00102026004E002684FF6FE731A40FB
:101100000260704701684FF6FE72114001600021D5
:10111000016041608160C1604B49884208D14A4901
:101120000839496841F00F01474A083A51608AE09E
:1011300045491431884208D143490839496841F08A
:10114000F001414A083A51607DE03F492831884228
:1011500008D13D490839496841F470613A4A083A72
:10116000516070E038493C31884208D1364908392D
:10117000496841F47041344A083A516063E03249A9
:101180005031884208D130490839496841F470210A
:101190002D4A083A516056E02B496431884208D103
:1011A00029490839496841F47001274A083A5160D1
:1011B00049E025497831884208D1234908394968EE
:1011C00041F07061204A083A51603CE01F49884272
:1011D00006D1011F096841F00F01021F116032E0C2
:1011E0001A491431884208D11849091F096841F089
:1011F000F001164A121F116025E014492831884277
:1012000008D11249091F096841F470610F4A121F81
:10121000116018E00D493C31884208D10B49091F83
:10122000096841F47041094A121F11600BE0074937
:101230005031884207D10549091F096841F47021DE
:10124000024A121F11607047080002400804024061
:1012500001460020002201F0805313B1054B1A68AB
:1012600001E0054B1A6802EA01030BB1012000E01E
:1012700000207047000402400000024010B5002228
:10128000026847F6F0739A430C6A8B6823430C6933
:1012900023434C6923438C692343CC6923434C6A21
:1012A00023438C6A23431A430260CB6843600B6874
:1012B00083604B68C36010BD70472DE9F041024662
:1012C00000250026002000230024002791F803C0F9
:1012D0000CF00F0591F803C00CF0100CBCF1000FDE
:1012E00003D091F802C04CEA050591F800C0BCF1AA
:1012F000000F31D0146800202BE04FF0010C0CFAE5
:1013000000F3B1F800C00CEA03069E4220D183002E
:101310004FF00F0C0CFA03F7BC4305FA03FC4CEA40
:10132000040491F803C0BCF1280F06D14FF0010C62
:101330000CFA00FCC2F814C00AE091F803C0BCF13A
:10134000480F05D14FF0010C0CFA00FCC2F810C098
:10135000401C0828D1D31460B1F800C0BCF1FF0FC5
:1013600034DD546800202EE000F1080C4FF0010835
:1013700008FA0CF3B1F800C00CEA03069E4221D132
:1013800083004FF00F0C0CFA03F7BC4305FA03FC83
:101390004CEA040491F803C0BCF1280F05D100F118
:1013A000080C08FA0CF8C2F8148091F803C0BCF1DC
:1013B000480F07D100F1080C4FF0010808FA0CF8AB
:1013C000C2F81080401C0828CED35460BDE8F081DC
:1013D000F0B50A46002300240021002500F0004655
:1013E000B6F1004F02D11D4EF16901E01B4E71684C
:1013F000C0F3034583B200F44016B6F5401F08D190
:1014000021F07061154E766826F07066134F7E608D
:1014100012E000F48016B6F5801F06D1032606FA06
:1014200005F4A14341F0706106E0460D360103FA70
:1014300006F6B14341F0706122B1460D360103FA60
:1014400006F6314300F00046B6F1004F02D1034EDC
:10145000F16101E0014E7160F0BD0000000001404B
:101460000246002093680B400BB1012000E00020F1
:101470007047416170470161704700BFFEE700009F
:101480002DE9F05F00221346364903C902F080F9C6
:1014900008D23548008834494988401A00B2334997
:1014A000888107E0304880882F49C988401A00B2F7
:1014B0002E4988812D48408A2C498989084400B2E8
:1014C0002A4948820846B0F91250C089098A401A50
:1014D00004B22648C0892549088208468089C88107
:1014E000204602F01BFD814620488168484602F0F4
:1014F0002DFD0746284602F011FD83461B48416832
:10150000584602F023FD81461849B1F90C0002F05B
:1015100005FD834615480168584602F017FD8246CE
:10152000494602F0BBFB8046394602F0B7FB06464F
:1015300002F0D8FC00B20D4988820846B0F91400C8
:1015400010F52F7F02DA4FF6445088820748B0F931
:101550001400B0F52F7F03DD4FF42F70034988820C
:10156000BDE8F09F000000206C000020C0000020BB
:1015700010B540210748FFF77EFF80210548FFF79F
:101580007AFF80210348FFF774FF40210148FFF7ED
:1015900070FF10BD0014014010B540210548FFF751
:1015A0006AFF80210348FFF764FF80210148FFF7AD
:1015B00062FF10BD0014014010B540210348FFF741
:1015C0005AFF40210148FFF754FF10BD00140140AD
:1015D00008B50121402000F03BFD4FF4F970ADF853
:1015E000000048208DF8030069460248FFF765FEB9
:1015F00008BD00000018014010B5044614B10120D8
:101600003F4908703E480078002850D010213D48DE
:10161000FFF726FFC8B120213A48FFF721FFA0B10C
:1016200040213848FFF71CFF78B180213548FFF78B
:1016300017FF50B14FF480713248FFF711FF20B10E
:1016400002213048FFF70CFF80BB0A2001F0FCF9B3
:1016500000202B49087010212A48FFF701FF08B924
:10166000012010BD20212748FFF7FAFE08B902200B
:10167000F7E740212348FFF7F3FE08B90320F0E71E
:1016800080212048FFF7ECFE08B90420E9E74FF479
:1016900080711C48FFF7E4FE08B90520E1E702214C
:1016A0001848FFF7DDFE40BB0620DAE7FFE7102110
:1016B0001448FFF7D5FE01281FD120211148FFF75C
:1016C000CFFE012819D140210E48FFF7C9FE01289D
:1016D00013D180210B48FFF7C3FE01280DD1010271
:1016E0000848FFF7BDFE012807D102210548FFF792
:1016F000B7FE012801D1024908700020B1E70000BF
:10170000840000200018014070B504460D46F948D9
:10171000007884427CDDF848007830B1012844D05C
:10172000022823D0032820D163E0F2480078201A51
:10173000012806DD4FF06631F048F14AC2E9001099
:1017400013E0F04AF04BEE4903C902F091F9EC4A7C
:1017500003C2EC4AED4BEA4903C902F019F804D878
:10176000E849EA48E64AC2E9001067E0E148007843
:10177000201A012805DD4FF06630E549E04A03C232
:1017800012E0E04AE04BDE4903C901F031FDDC4ADA
:1017900003C2DC4ADF4BDA4903C902F033F903D84C
:1017A000D848DC49D64A03C248E0012000F0CAFC10
:1017B000D0480078201A012806DD4FF06631CF4866
:1017C000CF4AC2E9001013E0CE4ACF4BCC4903C93F
:1017D00002F04EF9CA4A03C2CA4ACC4BC84903C9EF
:1017E00001F0D6FF04D8C749C848C54AC2E900106D
:1017F00024E0002000F0A6FCBE480078201A012852
:1018000007DD4FF06631BD48BD4AC2E9001014E063
:1018100015E0BC4ABC4BBA4903C902F029F9B84AE1
:1018200003C2B84AB94BB64903C901F0B1FF04D8A5
:10183000B449B648B24AC2E9001000BFE5E1AD487C
:101840000078844279DAAC48007830B1012843D07E
:10185000022822D003281FD160E0A6480078001B90
:10186000012806DD4FF06631A948A54AC2E90010FB
:1018700012E0A44AA44BA24903C901F0B9FCA04A52
:1018800003C2A04AA34B9E4903C902F0BBF803D888
:101890009C48A0499A4A03C265E096480078001B1C
:1018A000012805DD4FF066309449954A03C212E0E5
:1018B000944A954B924903C902F0DAF8904A03C260
:1018C000904A924B8E4903C901F062FF03D88D48BC
:1018D0008E498B4A03C246E0002000F033FC854865
:1018E0000078001B012805DD4FF066308349844AEB
:1018F00003C212E0834A844B814903C902F0B8F85D
:101900007F4A03C27F4A814B7D4903C901F040FFF2
:1019100003D87C487D497A4A03C224E0012000F0C4
:1019200011FC74480078001B012807DD4FF0663178
:101930007248734AC2E9001014E015E0714A724B14
:101940006F4903C902F094F86D4A03C26D4A6F4BA8
:101950006B4903C901F01CFF04D86A496B48684A07
:10196000C2E9001000BF50E16B48007885426FDD8E
:101970006148007830B101284AD0022825D00328D8
:1019800022D166E0002000F0DDFB63480078281AD1
:10199000012806DD4FF066315848594AC2E9001067
:1019A00012E0584A584B564903C902F061F8544AAC
:1019B00003C2544A554B524903C901F0E9FE03D80A
:1019C000504852494E4A03C262E0012000F0BAFB7F
:1019D00051480078281A012806DD4FF06631474843
:1019E000474AC2E9001012E0464A474B444903C93E
:1019F00002F03EF8424A03C2424A444B404903C9FE
:101A000001F0C6FE03D83F4840493D4A03C23FE0CB
:101A100041480078281A012805DD4FF06630374923
:101A2000374A03C213E0374A374B354903C902F03E
:101A30001FF8334A03C2334A344B314903C901F01A
:101A4000A7FE04D82F4931482D4AC2E900101FE0F3
:101A50001FE031480078281A012805DD4FF0663074
:101A60002B49274A03C212E0264A274B244903C9BF
:101A700001F0BEFB224A03C2224A264B204903C979
:101A800001F0C0FF03D81F4822491D4A03C200BF0E
:101A9000BBE02148007885426FDA1748007830B102
:101AA00001285FD0022839D0032822D17BE0012011
:101AB00000F048FB18480078401B012806DD4FF075
:101AC00066310E480E4AC2E9001012E00D4A0E4B74
:101AD0000B4903C901F0CCFF094A03C2094A0B4B69
:101AE000074903C901F054FE03D806480749044AD0
:101AF00003C279E00B0000200D0000206666E63F7F
:101B0000000000209A9999999999A93F9999C93FFC
:101B10006666E6BF9999C9BF0C000020002000F05E
:101B200011FB3A480078401B012806DD4FF0663172
:101B30003748384AC2E9001013E0374A374B354975
:101B400003C901F095FF334A03C2334A344B31498C
:101B500003C901F01DFE04D82F4931482D4AC2E9BE
:101B6000001041E029480078401B012806DD4FF0B5
:101B700066302C49274A03C214E036E0264A274B38
:101B8000244903C901F034FB224A03C2224A264BEE
:101B9000204903C901F036FF04D81F4922481D4AD5
:101BA000C2E9001020E019480078401B012806DD3A
:101BB0004FF066311648174AC2E9001013E0164A82
:101BC000164B144903C901F053FF124A03C2124ACB
:101BD000134B104903C901F0DBFD04D80E4910482E
:101BE0000C4AC2E9001000BF0FE01048007810490D
:101BF0000978884209D1054800780E490978884259
:101C000003D10020034A1060506070BD0C0000201A
:101C10006666E63F000000209A9999999999A93F34
:101C20009999C93F6666E6BF9999C9BF0B00002024
:101C30000E0000200F00002000BFFEE770470000EC
:101C400070B5002100230F22C47804B3154C24681A
:101C500004F4E064C4F5E064210AC1F10403CA405D
:101C6000447804FA03F184781440214309010E4CAE
:101C70000678A155047804F01F050124AC400578CE
:101C80006D11AD0005F1E025C5F8004109E00478CB
:101C900004F01F050124AC40044D0678761145F888
:101CA000264070BD0CED00E000E400E080E100E0C3
:101CB00002490143024A1160704700000000FA0522
:101CC0000CED00E070B5002418E004F1B000002134
:101CD00000F067F90021084600F063F900211020A8
:101CE00000F05FF9002505E00121002000F059F91E
:101CF000681CC5B2802DF7DB601CC4B2082CE4DB85
:101D000070BD000008B50121202000F0A1F9C0201D
:101D1000ADF8000010208DF8030003208DF80200BC
:101D200069463B48FFF7C9FAC0213948FFF7A3FBD2
:101D3000C82000F089FE0021AE2000F032F9002119
:101D4000084600F02EF90021102000F02AF90021A9
:101D5000402000F026F90021B02000F022F90021F7
:101D6000812000F01EF90021FF2000F01AF9002167
:101D7000A12000F016F90021A62000F012F90021A0
:101D8000A82000F00EF900213F2000F00AF9002100
:101D9000C82000F006F90021D32000F002F900214C
:101DA000084600F0FEF80021D52000F0FAF80021E6
:101DB000802000F0F6F80021D82000F0F2F8002191
:101DC000052000F0EEF80021D92000F0EAF800210B
:101DD000F12000F0E6F80021DA2000F0E2F800211E
:101DE000122000F0DEF80021DB2000F0DAF80021FC
:101DF000302000F0D6F800218D2000F0D2F800212C
:101E0000142000F0CEF80021AF2000F0CAF808BD81
:101E10000014014070B504460D4605F1B0000021E4
:101E200000F0BFF8102141EA1410002100F0B9F8C9
:101E300004F00F00002100F0B4F870BD2DE9F04768
:101E400007460E469046994600250024A8F120003A
:101E5000C5B27F2F02DD0027B01CC6B2B9F1100F4A
:101E600024D131463846FFF7D5FF002408E004EBC3
:101E70000511194A505C012100F093F8601CC4B2AE
:101E8000082CF4DB701CC1B23846FFF7C3FF0024F6
:101E900009E004EB051108310F4A505C012100F004
:101EA00080F8601CC4B2082CF3DB12E031463846DF
:101EB000FFF7B0FF00240AE005EB4501074A02EBFB
:101EC0004101085D012100F06CF8601CC4B2062CD1
:101ED000F2DBBDE8F0870000F6430008CE410008C1
:101EE0002DE9FF5F074691461E460E9D4FF0000A02
:101EF000002435E0301B401EC1B20A2001F0EAF890
:101F0000B9FBF0F00A21B0FBF1F201FB1208BAF1C3
:101F1000000F14D1701EA04211DDB8F1000F0CD1DA
:101F2000AB4605EBDB71491001FB0471C8B22B46CF
:101F300020220199FFF782FF10E04FF0010AAB4623
:101F400005EBDB71491001FB0471C8B208F13001E7
:101F5000CAB22B460199FFF771FF00BF601CC4B2E3
:101F6000B442C7DBBDE8FF9F2DE9F04104460F46B0
:101F70001546984600260FE0AA5D4346394620469E
:101F8000FFF75CFF04F10800C4B2782C02DD0024E6
:101F9000B81CC7B2701CC6B2A85D0028ECD1BDE861
:101FA000F08170B504460D461DB1E0B200F094FC1E
:101FB00002E0E0B200F07AFC70BD00000A480B4974
:101FC00008600B4848600B48886007480A49086069
:101FD0000748486007488860084809490860094878
:101FE000486009488860704766661E408800002087
:101FF0006891ED3C0AD7A33CA4000020CDCCCC3E98
:10200000C0000020CDCCCC3D0AD7233C7047000057
:1020100029B1064A52690243044B5A6104E0034A5B
:1020200052698243014B5A61704700000010024020
:1020300029B1064AD2690243044BDA6104E0034A3B
:10204000D2698243014BDA61704700000010024000
:1020500029B1064A92690243044B9A6104E0034A9B
:1020600092698243014B9A61704700000010024060
:1020700030B500210022002400232D4D6D6805F0AD
:102080000C0121B1042905D0082923D105E0294DEF
:10209000056022E0274D05601FE0254D6D6805F4C1
:1020A0007012234D6D6805F48034022505EB9242D1
:1020B0001CB9214D554305600BE01D4D6D6805F4BD
:1020C00000351DB11C4D5543056002E0194D5543C7
:1020D000056002E0174D056000BF00BF144D6D683C
:1020E00005F0F0010909154D6B5C0568DD404560A0
:1020F0000F4D6D6805F4E061090A104D6B5C456891
:10210000DD4085600A4D6D6805F46051C90A0B4DCC
:102110006B5C4568DD40C560054D6D6805F4404168
:10212000890B074D6B5CC568B5FBF3F5056130BDE8
:102130000010024000127A0000093D002C0000202F
:102140003C00002010B5044600211D4A116051607A
:1021500001201C49087014B1012C12D108E04FF481
:102160007A70194948804FF618401849488008E0AD
:102170004FF61840144948804FF47A70134948804C
:1021800000BF00BF1E2000F05FFC00BF012110480F
:10219000FFF766F978B902210D48FFF761F950B9E8
:1021A00004210B48FFF75CF928B908210848FFF71C
:1021B00057F90028EAD000200249087010BD00003D
:1021C0000000002075000020400000204400002096
:1021D000000C014000B970470178427841EA0221C1
:1021E000C1F30A01144A11804178C910827841EA8A
:1021F0004211C1F30A01104A518081788911C278D5
:1022000041EA8201027941EA8221C1F30A010A4AC4
:10221000918001794910427941EAC211C1F30A0162
:10222000054AD18041790911890811724179C1F3B8
:102230000111517200BFCEE7EE000020704710B5CB
:1022400000F002F810BD00000CB5002001900090D5
:102250003348006840F480303149086000BF30489E
:10226000006800F4003000900198401C0190009834
:1022700018B90198B0F5A06FF1D12948006800F4B1
:10228000003010B10120009001E000200090009883
:10229000012843D12348006840F01000214908601C
:1022A0000846006820F0030008600846006840F017
:1022B000020008601A4840681949486008464068AA
:1022C00048600846406840F48060486008464068BE
:1022D00020F47C1048600846406840F4E8104860EC
:1022E0000846006840F08070086000BF0C48006835
:1022F00000F000700028F9D00948406820F0030081
:10230000074948600846406840F00200486000BF46
:102310000348406800F00C000828F9D10CBD00000B
:10232000001002400020024070B586B006460C4600
:1023300015464FF40070019000208DF80C008DF8C8
:102340000D0008208DF80E006042000A8DF80F0085
:102350006042C1B28DF81010290A8DF811108DF865
:10236000125001A93046FEF7E7FB06B070BD000031
:1023700002480068401C014908607047280000209E
:1023800010B51348006840F0010011490860084684
:102390004068104908400E494860084600680E49E8
:1023A00008400B4908600846006820F48020086057
:1023B0000846406820F4FE0048604FF41F00886023
:1023C000FFF73DFF4FF000600449086010BD0000BA
:1023D000001002400000FFF8FFFFF6FE08ED00E0ED
:1023E00010B50121074800F05EF848B10121054809
:1023F00000F04AF800F086FAFEF72EFDFEF7B0FD79
:1024000010BD0000000C00407FB505460C460121C0
:102410000820FFF70DFEADF80850ADF8044000208D
:10242000ADF80A00ADF8060001A90E4800F056F814
:10243000012211460B4800F047F832208DF80000C9
:1024400001208DF8010003208DF8020001208DF895
:1024500003006846FFF7F4FB0121024800F017F87B
:102460007FBD0000000C004010B50121054800F0C0
:102470001AF828B10121034800F006F800F094FC96
:1024800010BD000000100040CA430282704721B115
:10249000028842F00102028004E002884FF6FE73D7
:1024A0001A400280704730B5024600200023002405
:1024B000158A05EA0103958905EA010413B10CB1F7
:1024C000012000E0002030BD1AB183890B438381D5
:1024D00002E083898B4383817047000000220288D9
:1024E0001D4B98420ED01D4B98420BD0B0F1804F3F
:1024F00008D01B4B984205D01A4B984202D01A4B79
:10250000984204D14FF68F731A404B881A43174BE9
:10251000984207D0164B984204D04FF6FF431A401A
:10252000CB881A4302808B8883850B8803850A4BEE
:1025300098420BD0094B984208D00E4B984205D0D8
:102540000D4B984202D00D4B984201D10B7A038675
:102550000123838270470000002C014000340140B9
:102560000004004000080040000C00400010004043
:102570000014004000400140004401400048014078
:1025800010B540F225511F4800F05FF838B31D48E0
:1025900000F016F9C4B21C48008800F4005088B15D
:1025A0001A4801880088401C184A10801848445472
:1025B0001046008805281FD10020114608801249C6
:1025C000088019E01048008800F4805060B1592C50
:1025D00006D10D48008840F400500B4908800BE0FC
:1025E00000200949088007E0592C05D106480088D9
:1025F00040F480500449088040F22551014800F021
:1026000009F810BD00480040580000205A00002082
:102610005C00002010B50022002340F66A14A1429D
:1026200000D100BF0A1201249440A3B2DC4304800D
:1026300010BD21B1828942F40052828104E0828976
:102640004DF6FF731A408281704770B50246002430
:1026500000230025002040F66A16B14200D100BFD9
:10266000C1F3421501F01F03012606FA03F3012D01
:1026700002D19689334006E0022D02D1168A3340FA
:1026800001E0968A33400C12012606FA04F41688FB
:10269000344013B10CB1012000E0002070BDF0B552
:1026A0000346002400260025002040F66A17B942A0
:1026B00000D100BF1846C1F3421401F01F060127E4
:1026C00007FA06F5012C01D10C3004E0022C01D1EF
:1026D000103000E014301AB107682F43076002E0A1
:1026E0000768AF430760F0BD2DE9F04786B00546A7
:1026F0000E460024A24600BFA1460027B08900B1C3
:1027000000BF2F462C8A4CF6FF700440F08804432B
:102710002C82AC894EF6F3100440B088318908430E
:10272000718908430443AC81AC8A4FF6FF400440F2
:10273000B0890443AC8201A8FFF79AFC1F48874286
:1027400002D1DDF810A001E0DDF80CA0A88900F4AA
:10275000004040B10AEBCA0000EB0A1031684900A2
:10276000B0FBF1F807E00AEBCA0000EB0A10316891
:102770008900B0FBF1F86420B8FBF0F004012009F7
:10278000642101FB1089A88900F4004040B1322087
:1027900000EBC900B0FBF1F000F00700044308E0D3
:1027A000322000EB09106421B0FBF1F000F00F00C3
:1027B00004432C8106B0BDE8F087000000380140DA
:1027C00001468888C0F308007047000010B5012159
:1027D0000448FDF78DFF18B101210248FDF7B0FE56
:1027E00010BD00000064004000B585B0022116480D
:1027F000FDF77EFF28B302211348FDF7A1FE6A46CC
:1028000000211148FEF720F90098A0F2012010B134
:10281000012815D10AE09DF80E109DF80D0041EA3F
:102820000020404200B20949088009E09DF80E10DE
:102830009DF80D0041EA002000B20549088000BF64
:1028400000BF05B000BD0000006400404000002053
:102850004400002000BFFEE72DE9F04105462C466C
:1028600040211148FEF705FE002619E0274607F033
:102870008007802F04D180210B48FEF7FCFD03E088
:1028800080210948FEF7F5FD6006040E4021064848
:10289000FEF7F1FD40210448FEF7EBFD701CC6B2C7
:1028A000082EE3DBBDE8F0810014014010B50446BA
:1028B000FEF75EFE7820FFF7CFFFFEF77DFE0020DB
:1028C000FFF7CAFFFEF778FE2046FFF7C5FFFEF7C9
:1028D00073FEFEF761FE10BD10B50446FEF748FE1C
:1028E0007820FFF7B9FFFEF767FE4020FFF7B4FF3F
:1028F000FEF762FE2046FFF7AFFFFEF75DFEFEF734
:102900004BFE10BD2DE9FC4700250026A946AA462E
:1029100013243BE0012C17D147480088474921F890
:102920001400454841884548283020F81410424892
:1029300081884248503020F814103F48C1883F48F1
:10294000783020F814101FE0601E3C4931F8100068
:1029500021F81400601E283131F810103748283053
:1029600020F81410601E3549503131F810103348EA
:10297000503020F81410601E3049783131F81010B2
:102980002E48783020F81410601EC4B2002CC1DC30
:10299000012414E0294830F8140005442748283061
:1029A00030F8140006442548503030F814008144B3
:1029B0002248783030F814008244601CC4B2142CD1
:1029C000E8DB284600F0D0FE074600221C4B00F052
:1029D000C3FCCDE9000100F083FE1A4908803046AF
:1029E00000F0C2FE07460022154B00F0B5FCCDE911
:1029F000000100F075FE13494880484600F0B4FE1F
:102A0000074600220E4B00F0A7FCCDE9000100F0C4
:102A100067FE0C498880504600F0A6FE074600225B
:102A2000074B00F099FCCDE9000100F059FE054983
:102A3000C880BDE8FC87000064000020240100205D
:102A4000000033406C000020044A1268111800BFD7
:102A5000024A12688A42FBD3704700002800002017
:102A60002DE9F05F04460D46DFF838A000220E4B3A
:102A70002046294600F0C8FE804600F087FB8346CA
:102A80000A49584601F062FA8146514601F068F958
:102A9000804601F0D7F806460F4630463946BDE875
:102AA000F09F00003BEF303E00004E400000984198
:102AB00010B5FDF7FBFBFDF7B9FC10BD30B50020EC
:102AC00015490860154800684FF47A72B0FBF2F1BE
:102AD000B1F1807F00D31DE021F07F40401E4FF018
:102AE000E022506150170F22002807DA13071D0E4D
:102AF0000B4B00F00F04241F1D5503E013071C0EA1
:102B0000084B1C5400BF00204FF0E02290610720CA
:102B1000106100BF30BD000028000020140000201C
:102B200018ED00E000E400E008B501210520FFF702
:102B30008FFA01218648FEF74BFCFFF721FCFFF7D7
:102B4000BDFF4FF4A060FFF7B3F84FF4E13000F0A1
:102B5000CDFAFDF7F1FEFFF7D5F8FFF72FFAFFF7F3
:102B6000A7FFFEF735FDFFF7ADF840F2E731232070
:102B7000FFF74AFCEBE07748007830B100221346BB
:102B8000754903C900F040FD7ED1102373A20021D6
:102B90000846FFF7E9F910200323009070480278F7
:102BA00000211020FFF79CF910236EA202210020C3
:102BB000FFF7DAF91020032300906B480278022116
:102BC0001020FFF78DF9102368A204210020FFF7E1
:102BD000CBF90022664B604903C900F015FE05469B
:102BE00000F04EFD041E4FF01000009001DB204667
:102BF00000E060420246032304211020FFF770F931
:102C000010235CA200213220FFF7AEF95A48B0F938
:102C1000004010200090002C01DB204600E06042C4
:102C20000246042300214C20FFF75AF9102353A237
:102C300002213220FFF798F95148B0F900401020E6
:102C40000090002C01DB204600E060420246042395
:102C500002214C20FFF744F910234AA2042132201C
:102C6000FFF782F910200090474802880423194694
:102C70004C20FFF735F9102344A206213220FFF73C
:102C800073F91020009000E02DE03F4842880423B3
:102C900006214C20FFF724F90020FEF7ADFC3C494B
:102CA000087008460078012804D100202A4A1060E4
:102CB000506018E036480078022808D1354A364B73
:102CC000254903C900F094FA234A03C20BE03048B7
:102CD0000078032807D12F4A2F4B1F4903C900F062
:102CE000C7FE1D4A03C22D48007830B300212C488E
:102CF000FFF7CDFB00221346174903C900F082FEFF
:102D000008D2244A274B144903C900F0B1FE124AE5
:102D100003C20EE0002213460F4903C900F038FD3C
:102D200007D21C4A1F4B0C4903C900F061FA0A4A3A
:102D300003C201200749087009E00648007830B155
:102D400001211748FFF7A3FB00200249087012E792
:102D50000002300010000020000000205800000099
:102D60000B000020590000000C000020560000005D
:102D7000000059404D310000400000204D3200005D
:102D800044000020483100006C0000204832000060
:102D9000110000209A9999999999B93F090000204A
:102DA000001000409999A93F10B5C64890F900005D
:102DB000401CF0B1C44890F90000401CC8B1C24AA0
:102DC0001178C04A1078FEF79FFCBE4890F90000C9
:102DD000BE49097888420BD1BB4890F90000BC4934
:102DE00009788842F7D1FF20B6490870B6490870C3
:102DF00066E1B44890F90100401CF0B1B24890F986
:102E00000100401CC8B1B04A5178AE4A5078FEF774
:102E10007BFCAC4890F90100AC4909788842E7D1C5
:102E2000A94890F90100AA4909788842E0D1FF2019
:102E3000A4494870A449487042E1A24890F90200B0
:102E4000401CF0B1A04890F90200401CC8B19E4A55
:102E500091789C4A9078FEF757FC9A4890F90200C6
:102E60009A4909788842C3D1974890F90200984955
:102E700009788842BCD1FF209249887092498870B5
:102E80001EE1904890F90300401CF0B18E4890F983
:102E90000300401CC8B18C4AD1788A4AD078FEF72A
:102EA00033FC884890F903008849097888429FD10B
:102EB000854890F9030086490978884298D1FF2017
:102EC0008049C8708049C870FAE07E4890F90400D3
:102ED000401CF0B17C4890F90400401CC8B17A4A0B
:102EE0001179784A1079FEF70FFC764890F90400C2
:102EF0007649097888429FD1734890F90400744953
:102F00000978884298D1FF206E4908716E4908718E
:102F1000D6E06C4890F90500401CF0B16A4890F981
:102F20000500401CC8B1684A5179664A5079FEF7DD
:102F3000EBFB644890F905006449097888429FD109
:102F4000614890F9050062490978884298D1FF20CC
:102F50005C4948715C494871B2E05A4890F90600F2
:102F6000401CF0B1584890F90600401CC8B1564AC0
:102F70009179544A9079FEF7C7FB524890F90600C0
:102F80005249097888429FD14F4890F9060050492C
:102F90000978884298D1FF204A4988714A49887146
:102FA0008EE0484890F90700401CF0B1464890F97F
:102FB0000700401CC8B1444AD179424AD079FEF793
:102FC000A3FB404890F9070040490978884277D12F
:102FD0003D4890F907003E490978884270D1FF20AA
:102FE0003849C8713849C8716AE0364890F9080014
:102FF000401CF0B1344890F90800401CC8B1324A76
:10300000117A304A107AFEF77FFB2E4890F90800BB
:103010002E490978884253D12B4890F908002C4951
:10302000097888424CD1FF20264908722649087247
:1030300046E0244890F90900401CF0B1224890F97C
:103040000900401CC8B1204A517A1E4A507AFEF746
:103050005BFB1C4890F909001C49097888422FD174
:10306000194890F909001A490978884228D1FF20A7
:10307000144948721449487222E0124890F90A0033
:10308000401CE8B1104890F90A00401CC0B10E4A3B
:10309000917A0C4A907AFEF737FB0A4890F90A00B9
:1030A0000A49097888420BD1074890F90A00084973
:1030B0000978884204D1FF20024988720249887247
:1030C00010BD0000F0120020FB1200200B000020B9
:1030D0000C00002010B50246012000E050430B0018
:1030E000A1F10104E1B2F9D110BD000010B586B024
:1030F0000446012144F20400FEF7AAFF4FF40070D9
:10310000ADF8140003208DF8160018208DF8170074
:1031100005A91C48FEF7D1F84FF40060ADF8140083
:1031200004208DF8170005A91648FEF7C6F801948B
:103130000020ADF80800ADF80A00ADF80C00ADF8BD
:1031400010000C20ADF80E0001A90F48FFF7CCFAD3
:1031500025208DF8000000208DF8010001208DF859
:1031600002008DF803006846FEF76AFD012240F276
:1031700025510548FFF793FA01210348FFF759FA53
:1031800006B010BD000801400038014021F00042A7
:10319000A2F16052B2F5801F01F0004328BFD2F1C6
:1031A0007F6C0BD95FEA001C43EAC20242EB50700D
:1031B00018BF704728BF20F001007047B2F5801F8C
:1031C000BCBF184670474FEA410C1CF5001F02D2E5
:1031D000084600F082BF70B500F0C0FB0000008917
:1031E000FFF7F6BF4FF00040A0F5800070470000E9
:1031F00010B591EA030F48BF83F0004300F140840B
:10320000841A71EB030C05D2121943EB0C03001B5B
:1032100061EB0C01DFF824E14FEA1154A4EB135CDD
:103220001EEA430F18BF9EEA445F73D023EA0E03E1
:10323000DCF1200E21EA045143F4801332D322FA48
:103240000CFE10EB0E0023FA0CFE41EB0E01CCF14C
:10325000200E03FA0EFE10EB0E0051F10001B1F545
:10326000801FCCF1200E32D201EB045112FA0EF283
:10327000BDE8104058BF7047401C38BF5FEA4202AB
:1032800018BF7047002814BF20F0010041F1000171
:103290004FEA410313F5001F38BF7047A1F1C04149
:1032A00000F0AABB012A43EB0302ACF1200CDCF1D5
:1032B0001F0E32BF4FF0000E23FA0CF310EB030089
:1032C00041EB0451B4EB115FD0D0A1EB045101F5F7
:1032D000801149085FEA300001EB04510ED350F130
:1032E000000038BF12FA0EFE08D1BDE81040C9E751
:1032F000401C38BF5FEA4202CAD1C3E7BDE81040B4
:103300004FEA410313F5001F38BF7047A1F1C041D8
:1033100000F072BB9EEA445F08D011EA5E0FBDE880
:10332000104004BF01F0004100207047BDE810408C
:1033300070B500F013FB00BF64FBBE3E0000E0FF71
:10334000491058BFC1F140415B1058BFC3F1404321
:103350008B42EFF3008070472DE9C04130B4DFF8B5
:10336000A0C23CEA111418BF3CEA131400F0EC8030
:1033700081EA03051CEA111444EAD57418BF1CEA5B
:10338000131500F0C780A4EB05044FF0004545EA93
:10339000C12145EAC32341EA505143EA525304F1A3
:1033A0007F74994204F500344FEAC0204FEAC222EC
:1033B00008BF904200F09C804FEA13650FF2401660
:1033C000765D4FEA134506FB05F7C7F1807706FBEC
:1033D00007F74FEAD737A7FB03687642C8F580386E
:1033E000A7FB06CE38BFA8F1010807FB08E64FF09F
:1033F000000EA6FB028CE6FB03CEDCF1000CCEF146
:10340000004E38BFAEF1010EA6FB0C584FF000077E
:103410004FF00005E6FB0E87A1FB08C6A0FB07CE18
:1034200016EB0E0645F10005E1FB076515F1E04ED0
:103430007EBFA4F580345FEA46066D4116F1800731
:1034400045F100054FEA17274FEA066647EA056788
:10345000A6F1DE46B6F1805F4FEA15251FD9384642
:1034600024F0010C05EBC471BCF1FE6F01EB0C11F3
:1034700002D8F0BCBDE8008124425CBF01F5801E8B
:103480009EEAC47F02D4F0BCBDE80081244238D457
:10349000F0BCA1F1C041BDE8004100F0ADBA4FEA77
:1034A000D22242EA43524FEAD323A7FB02864FEAD5
:1034B000D02040EA415007FB03661EEA0E0F4FEA98
:1034C000D12105FB026658BFA6EB0056B6EB0056AD
:1034D0004FEA520E4EEAC37E18EB0E0E56EB530E19
:1034E000BDD518EB02085E417F1C55F10005B6E71B
:1034F0004FF480154FF000074FF000064FF0000822
:10350000ADE7F0BC4FF0000001F1C04101F0004117
:10351000BDE8008111EA0C1F0CEA131500D00CE085
:1035200013EA0C1F00F025804FF00000F0BC81EA88
:10353000030101F00041BDE80081F0BCBDE800419D
:1035400081EA030100F058BAF0BCBDE8004170B553
:1035500000F004FA097EFC3E00F007B881EA03019E
:103560004FF0000001F00041704781EA030100F0D4
:1035700043BAF0BCBDE800414FF00000214970475C
:10358000FFFDFBF9F7F5F4F2F0EEEDEBE9E8E6E428
:10359000E3E1E0DEDDDBDAD8D7D5D4D3D1D0CFCDAF
:1035A000CCCBCAC8C7C6C5C4C2C1C0BFBEBDBCBBE8
:1035B000BAB9B8B7B6B5B4B3B2B1B0AFAEADACABE3
:1035C000AAA9A8A8A7A6A5A4A3A3A2A1A09F9F9EBD
:1035D0009D9C9C9B9A99999897979695959493936F
:1035E000929191908F8F8E8E8D8C8C8B8B8A898906
:1035F0008888878786858584848383828281818089
:103600000000FF070000F87F51EA030C17D41CF5F7
:10361000801F58BFBCF5801F00F10680994218BF7B
:10362000704708BF9042704707D711F5801F58BFF9
:1036300013F5801F19D499427047894270471CF5D1
:10364000801F08D5BCF5801FF7D58B4218BF704787
:1036500008BF824270474FF4001C1CEB410F38BF7B
:103660001CEB430F01D28B42704770B500F076F926
:10367000922449004FF000514FF08053FFF760BE95
:103680004FEA41034FEA5353A3F58063D3F11E037E
:10369000C8BFD3F1210C0CDD4FF0004242EAC12239
:1036A00042EA505232FA03FC8CEAE17CACEBE17066
:1036B0007047102BC4BF0020704703F5787CBCF125
:1036C000FF3F04D06FF0004282EA2100704770B5DE
:1036D00000F044F94992248000207047F2E700008E
:1036E0004FEA1153A3F58063D3F11E03A8BFD3F1B2
:1036F000200C08DB4FF0004242EAC12252EA50524D
:1037000032FA03F0704709420BD4102BC4BF0020DB
:10371000704703F5787CBCF1FF3F05D04FF0FF30D8
:1037200070474FF00000704770B500F017F900BF08
:103730004992248000207047F0E710F0004248BF13
:103740004042B0FA80F310FA03F10AD0C3F11D032E
:1037500003F580634FEA415002EB035202EBD121A3
:1037600070474FF000007047B0FA80F310FA03F191
:103770000AD0C3F11D0303F580634FEA41504FEABD
:10378000035202EBD12170474FF000007047000058
:1037900051EA030C17D41CF5801F58BFBCF5801FDD
:1037A00000F10680994218BF704708BF90427047E9
:1037B00007D711F5801F58BF13F5801F19D4994200
:1037C0007047894270471CF5801F08D5BCF5801FE3
:1037D000F7D58B4218BF704708BF824270474FF43D
:1037E000001C1CEB410F38BF1CEB430F01D28B4276
:1037F000704770B500F0B2F8922449004FF00051C4
:103800004FF08053FFF79CBDDFF848C170B51CEA4C
:10381000111E1EBF1CEA13159EEA0C0F95EA0C0F31
:1038200000F06F8081EA030423EA4C134EEAD47E51
:1038300021EA4C1141F4801143F48013AE44A1FB02
:10384000024CA0FB0365AEF17F7E361955EB0C05EB
:10385000A1FB034C4CF10003A0FB021C16EB0C0671
:10386000654153F10003094218BF46F0010613F405
:10387000007F0BD14FEA03314FEA0530340341EAB0
:10388000155140EA16506FF003020AE04FEAC321D7
:103890004FEAC520F40241EA555140EA56506FF014
:1038A000020202EB2E4201EB025585EACE710AD0EC
:1038B0005FEA440C18BF24F0004450F1000041F1CD
:1038C000000120EAD47040F2FE7C624500D270BD57
:1038D000A84214BF4FF080444FF04044002E08BF70
:1038E0000024BEF1806FA8BFA1F1C041BDE87040C7
:1038F00080F282804FF0000001F1C04101F00041F0
:1039000070479EEA0C0F0CEA131518BF95EA0C0FCE
:1039100006D04FF0000081EA030E0EF0004170BDAA
:1039200000F01CF88900013E00F007B800F009B86B
:103930004FEA430C5FEA5C5C08D081EA030100F0C7
:103940005BB84FEA410C5FEA5C5CF6D14FF00000D7
:10395000014970470000FF070000F87F0EF1020EDA
:103960002EF0030E5EF8046B364205D4012A43EBB9
:10397000030515F5001F12D8012841EB010C1CF5B9
:10398000001F0CD80ED14FEAD17C15F5001F0CEBAF
:103990004C0C0CF1020C08BF4CEBD37C04E04FF054
:1039A000080C01E04FEAD37C0CEB4C0526FA05F637
:1039B00006F00706B6F1040C06D20EEB860CBDE845
:1039C00070404CF0010C6047DFE80CF0090B02027C
:1039D0004FF000414FF00000A1F5002170BD1946E5
:1039E0001046012851EB010418BFD4F5001484BF20
:1039F000002001F0004170BD0808A0F500114FEA59
:103A00003101704753EA010C17D41CF5801F58BFD1
:103A1000BCF5801F00F106808B4218BF704708BFBD
:103A20008242704707D713F5801F58BF11F5801FDA
:103A300019D48B4270479B4270471CF5801F08D5F4
:103A4000BCF5801FF7D5994218BF704708BF904258
:103A500070474FF4001C1CEB430F38BF1CEB410FA9
:103A600001D2994270470FB40CBC03BCFFF7C1BE32
:103A700010B591EA030F48BF83F000433FF5C0AB98
:103A8000841A71EB030C07D212198CF0004C43EB33
:103A90000C03001B61EB0C01DFF8A4E14FEA1154A9
:103AA000A4EB135C1EEA430F18BF9EEA445F00F0CC
:103AB000B08023EA6E03524221EA0451C3EB6E0345
:103AC00038BF5B1EDCF1200E25D322FA0CFE10EB72
:103AD0000E0043FA0CFE41EB0E01CCF1200E03FA6E
:103AE0000EFE10EB0E0051F10001CCF1200E29D496
:103AF00012FA0EF201EB0451BDE8104058BF7047B6
:103B0000401C1CBFB2F1004F704700280CBF491C7D
:103B100020F00100704712EB020E43EB030218BFC6
:103B20004FF0010E4EEA4202ACF1200CDCF11E0E09
:103B300054D943FA0CFE10EB0E0051F1FF31CCF1D9
:103B40001E0ED5D50EF1010E12FA0EFE404141EBCC
:103B5000010101EB445C5FEA5C5C10D910EBDE70A4
:103B600001EB045138BFBEF1004FBDE8104018BF53
:103B7000704700280CBF491C20F00100704730D26C
:103B80004FEAD42C11F5001124F400641BD0B1FAD3
:103B900081F20B3AA41AA41ED2F12003914030FA0C
:103BA00003F31943904001EBCC71002C01EB04515D
:103BB000BDE81040A8BF704701F1C0414FF00000C0
:103BC00001F000417047B0FA80F310FA03F100D120
:103BD00010BDE41A173C4805C90AE4E701EB04519B
:103BE00010BD491001EB0451BDE810404FEA300010
:103BF00002E04FF0000170474A0008BF0042F8D0D1
:103C0000B2F5001F28BF704701F000414FF00000DF
:103C100070479EEA445F07D011EA5E0FBDE810408E
:103C200004BF002100207047BDE8104070B5FFF7C9
:103C300095FE00BF40DFF63E83F00041104670471E
:103C40000000E0FF43004FEAD30C4FEA3C0C434036
:103C50001FBF40070CF1605113F0FE4F70471CF07E
:103C6000006F03D100200CF0004170470CF00043BE
:103C700043EA507010B540EACC0000F0E8F900BF0C
:103C8000000000924FEA0001FFF7B6BE4FF000417E
:103C90004FF00000A1F500217047000090EA010FED
:103CA00048BF81F0004100F12482421A3CBF801AD3
:103CB00089184FEAD0524FF07F4C1CEA410FA2EB1B
:103CC000D15318BF9CEA026F00F03B804FF0004CCC
:103CD0004CEA00204CEA012121FA03FC10EB0C0C09
:103CE0001ED202F1FF325FEA1C2040EBC25038BF07
:103CF00070471CF07F0F4FEA400C18BFBCF17F4F9C
:103D000038BF7047C3F12003994008BF20F001007D
:103D1000BCF17F4F38BF7047A0F1C04000F0DDB963
:103D20004FEA3C00000A40EBC25028BF1CF0FF0FD6
:103D30004FEA400CE6D018BFBCF17F4F38BF704748
:103D4000EAE79CEA026F05D010EA5C0F08BF00F0BA
:103D50000040704710B500F07AF900BF64FBBE3E2A
:103D60004FF47F0C1CEAD0121EBF1CEAD11392EA5A
:103D70000C0F93EA0C0F00F0858090EA010F48BF0A
:103D800042F4807240F4000C41F400002CF07F41BA
:103D900020F07F4000B58142A2EB03020FF2081C25
:103DA000ACEB504EC0F100009EF800E04FEA4E0E22
:103DB00000FB0EFC38BF49004FEA2C1C02F5FA024A
:103DC0000CFB0EF34FEACE1E4FEA112C4FEAC12135
:103DD0000EEB635E42EB22420EFB0CFC4FEA1C53DF
:103DE00000FB03114FEA112C4FEA01310EFB0CFCD2
:103DF0004FEADC4C00FB0C11C14228BF09184CEB08
:103E000003335DF804EB10EB410143EBC250B2F514
:103E10007C0F38BF704729D512F0F00F1CBF00F19E
:103E2000C04000F00040704700818283848586870F
:103E300088898B8C8D8E8F919293959697999A9C69
:103E40009D9FA0A2A3A5A7A8AAACAEB0B2B3B5B7D8
:103E5000B9BCBEC0C2C5C7C9CCCED1D4D7D9DCDFAE
:103E6000E2E6E9ECF0F3F7FAFE0000004FEA400C5E
:103E70000CF1807CBCF17E4F28BF7047B0F1C04090
:103E800000F02BB990EA010F0CEAD11348BF42F4BD
:103E90008072624538BF634507D213F47F0F16D096
:103EA00080EA010000F00040704710B500F0CFF844
:103EB000097EFC3E00F005B880EA010000F00040F9
:103EC000704780EA010000F0004000F006B912F4EB
:103ED0007F0F04BF0248704780EA010000F0FDB880
:103EE0000000C07F41000B0ED3F19E0208D950F4B0
:103EF00000034FEA032323FA02F048BF4042704711
:103F000010B500F0A4F800BF49922480002070474B
:103F10006FF0004282EA20007047000010F000417C
:103F200048BF4042B0FA80F310FA03F2C3F19D0398
:103F30000BD051EAC35101EB1220530638BF704732
:103F400000F1010008BF20F0010070474FF47F0C22
:103F50001CEAD0121EBF1CEAD11392EA0C0F93EA9E
:103F60000C0F00F0478090EA010F48BF42F48072C6
:103F70004FF0004C4CEA00204CEA012102EB030216
:103F8000A0FB0113A2F50002002918BF43F00103B2
:103F90005B0028BF4FEA330342EB22425FEA132C57
:103FA0004CEBC2502EBFBCEB436FB2F57C0F704799
:103FB0004FEA036CBCF1004F08BF20F00100B2F5DE
:103FC0007C0F38BF70470BD582F0FF0212F5803F9F
:103FD000C8BF704700F1C040D8BF00F00040704734
:103FE00000F5000C5FEA4C0C48BF7047B0F1C040D0
:103FF00000F073B890EA010F0CEAD11348BF42F405
:104000008072624538BF634504D280EA010000F047
:104010000040704710B500F01AF800BF8900013E5B
:1040200000F007B800F009B85FEA410C5FEA1C6CC9
:1040300008D080EA010000F050B85FEA400C5FEA67
:104040001C6CF6D14FF00040A0F5800070470EF1D7
:10405000020E2EF0030E5EF8044B244204D44FEA05
:104060004102B2F17F4F11D84FEA4003B3F17F4FC5
:104070000CD80ED14FEAD07CB2F17F4F0CEB4C0C38
:104080000CF1020C08BF4CEBD17C04E04FF0080CA3
:1040900001E04FEAD17C0CEB4C0324FA03F404F06A
:1040A0000704B4F1040C06D20EEB840CBDE81040FA
:1040B0004CF0010C6047DFE80CF0070802024FF0FB
:1040C0000040A0F5800010BD0846420018BFD2F1A4
:1040D000807288BF00F0004010BDFF2141EAD0503F
:1040E000C005704790EA010F48BF81F000413FF5DD
:1040F000DCAD421A04D882F00042A0EB0200114469
:104100004FEAD0524FF07F4C1CEA410FA2EBD15343
:1041100018BF9CEA026F4AD04FF0004C4CEA0020D6
:104120004CEA012121FA03FCB0EB0C0C0FD412F085
:10413000FE0F36D05FEA4C001DD5001240EBC25096
:1041400038BF70471CF03F0F18BF70470BE0A2F15B
:1041500001025FEA1C2040EBC25038BF70471CF0E0
:104160007F0F18BF7047C3F12003994014BF401E52
:1041700020F00100704780084FEA122308BF704703
:10418000B0FA80FCA2EB0C02CCF1280C60FA0CF027
:1041900093EA122F04BF00EBC25070474FEAC3707E
:1041A0007047130A5FEADC1008BF7047F6E79CEA25
:1041B000026F04D010EA5C0F08BF0020704710B5F2
:1041C000FFF745FF40DFF63E81F0004070470000FA
:1041D000000000000000002F0000000007000700A2
:1041E00000147F147F1400242A7F2A1200626408BE
:1041F000132300364955225000000503000000003B
:104200001C224100000041221C000014083E08143A
:104210000008083E0808000000A060000008080828
:104220000808000060600000002010080402003E42
:104230005149453E0000427F4000004261514946DD
:10424000002141454B31001814127F1000274545CD
:104250004539003C4A4949300001710905030036DF
:104260004949493600064949291E000036360000F2
:1042700000005636000000081422410000141414F7
:1042800014140000412214080002015109060032F2
:104290004959513E007C1211127C007F4949493630
:1042A000003E41414122007F4141221C007F49499B
:1042B0004941007F09090901003E4149497A007FCF
:1042C0000808087F0000417F4100002040413F0175
:1042D000007F08142241007F40404040007F020CD4
:1042E000027F007F0408107F003E4141413E007F75
:1042F00009090906003E4151215E007F091929463E
:104300000046494949310001017F0101003F404019
:10431000403F001F2040201F003F4038403F0063C7
:1043200014081463000708700807006151494543E9
:1043300000007F41410000552A552A5500004141A7
:104340007F000004020102040040404040400000A1
:1043500001020400002054545478007F484444383B
:1043600000384444442000384444487F00385454C2
:10437000541800087E0901020018A4A4A47C007F40
:10438000080404780000447D4000004080847D00E3
:10439000007F102844000000417F4000007C04188A
:1043A0000478007C0804047800384444443800FC55
:1043B000242424180018242418FC007C0804040871
:1043C00000485454542000043F444020003C4040E6
:1043D000207C001C2040201C003C4030403C00441D
:1043E00028102844001CA0A0A07C004464544C4425
:1043F0001414141414140000000000000000000045
:10440000000000000000000000F8000000000000B4
:1044100000333000000000100C06100C06000000F5
:1044200000000000000040C07840C0784000043F19
:1044300004043F040400007088FC083000000018E9
:1044400020FF211E0000F008F000E018000000210D
:104450001C031E211E0000F00888700000001E21B1
:1044600023241927211010160E0000000000000060
:10447000000000000000000000E01804020000003E
:1044800000071820400000020418E000000000406F
:10449000201807000000404080F0804040000202E9
:1044A000010F01020200000000F000000000010105
:1044B000011F01010100000000000000000080B0A9
:1044C000700000000000000000000000000000017B
:1044D00001010101010100000000000000000030A6
:1044E0003000000000000000000080601804006040
:1044F00018060100000000E010080810E000000F9E
:10450000102020100F00001010F800000000002004
:10451000203F20200000007008080888700000304C
:1045200028242221300000300888884830000018F4
:10453000202020110E000000C02010F8000000070D
:104540000424243F240000F8088888080800001983
:10455000212020110E0000E0108888180000000FB4
:10456000112020110E0000380808C838080000008B
:10457000003F000000000070880808887000001CE0
:10458000222121221C0000E010080810E000000099
:10459000312222110F00000000C0C0000000000006
:1045A000003030000000000000800000000000002B
:1045B0008060000000000000804020100800000122
:1045C00002040810200040404040404040000404E5
:1045D00004040404040000081020408000000020AF
:1045E000100804020100007048080808F0000000EC
:1045F000003036010000C030C828E810E00007187D
:10460000272423140B000000C038E0000000203CE9
:1046100023020227382008F8888888700000203F8D
:10462000202020110E00C0300808080838000718A4
:1046300020202010080008F808080810E000203F9B
:10464000202020100F0008F88888E8081000203F7C
:1046500020202320180008F88888E8081000203F50
:10466000200003000000C0300808083800000718C8
:104670002020221E020008F808000008F808203F49
:10468000210101213F20000808F80808000000204F
:10469000203F2020000000000808F8080800C08023
:1046A00080807F00000008F888C028180800203F9C
:1046B00020012638200008F8080000000000203FF4
:1046C00020202020300008F8F800F8F80800203FEB
:1046D000003F003F200008F830C00008F808203FE5
:1046E000200007183F00E01008080810E0000F1035
:1046F000202020100F0008F808080808F000203FCC
:10470000210101010000E01008080810E0000F1866
:10471000242438504F0008F8888888887000203F8B
:104720002000030C3020007088080808380000388A
:10473000202121221C00180808F808081800000091
:10474000203F2000000008F808000008F808001FBB
:10475000202020201F000878880000C838080000AA
:1047600007380E010000F80800F80008F800033CC4
:104770000700073C0300081868808068180820308C
:104780002C03032C30200838C800C838080000006B
:10479000203F2000000010080808C8380800203812
:1047A000262120201800000000FE02020200000066
:1047B000007F40404000000C30C0000000000000BE
:1047C00000010638C00000020202FE0000000040A6
:1047D00040407F00000000000402020204000000CC
:1047E00000000000000000000000000000008080C9
:1047F00080808080808000020204000000000000B1
:10480000000000000000000080808080000000198F
:10481000242222223F2008F8008080000000003F70
:10482000112020110E000000008080800000000E8A
:10483000112020201100000000808088F800000E68
:10484000112020103F200000808080800000001F89
:10485000222222221300008080F0888888180020FD
:10486000203F202000000000808080808000006BBE
:1048700094949493600008F8008080800000203FAA
:10488000210000203F2000809898000000000020B8
:10489000203F20200000000000809898000000C009
:1048A0008080807F000008F8000080808000203F2A
:1048B00024022D302000000808F80000000000202D
:1048C000203F202000008080808080808000203F6A
:1048D00020003F20003F8080008080800000203F3B
:1048E000210000203F200000808080800000001F09
:1048F000202020201F00808000808000000080FF9A
:10490000A12020110E000000008080808000000E99
:10491000112020A0FF8080808000808080002020E7
:104920003F21200001000000808080808000003353
:10493000242424241900008080E0808000000000EE
:10494000001F202000008080000000808000001FE9
:10495000202020103F208080800000808080000187
:104960000E300806010080800080008080800F30BB
:104970000C030C300F00008080008080800000203D
:10498000312E0E3120008080800000808080808168
:104990008E701806010000808080808080000021D9
:1049A000302C2221300000000000807C0202000038
:1049B0000000003F404000000000FF000000000039
:1049C0000000FF0000000002027C800000000040A8
:1049D000403F000000000006010102020404000044
:1049E0000000000000000000084A0008000000204D
:1049F000880000006C010008904A00088800002030
:104A000058190000880100080000000000000000A4
:104A1000000001FFFF0000020000000000A24A04A5
:104A2000000000000000000001020304060708095E
:104A30000000000000000000010203040102030462
:104A40000607080902040608000000000000000034
:104A50000000000000000000000000000000000056
:104A60000000000000000000000000000000000046
:104A700000000000000000000000000000000A0A22
:104A800000000000000001FF01FF00000100000025
:04000005080001CD21
:00000001FF
