:020000040800F2
:10000000D0070020CD0100081D150008710F000861
:10001000191500088702000871210008000000007F
:10002000000000000000000000000000C11A0008ED
:10003000BF0D00080000000089170008ED1B000834
:10004000E7010008E7010008E7010008E7010008F0
:10005000E7010008E7010008E7010008E7010008E0
:10006000E7010008E7010008E7010008E7010008D0
:10007000E7010008E7010008E7010008E7010008C0
:10008000890B0008E7010008E7010008F1200008DB
:100090000D210008E7010008E7010008E70100085A
:1000A000E7010008E7010008E7010008E701000890
:1000B000E7010008E7010008E7010008E701000880
:1000C000E7010008E7010008E7010008E701000870
:1000D000E7010008E7010008E7010008F51D000836
:1000E000E7010008E7010008E7010008E701000850
:1000F000E7010008E7010008E7010008E701000840
:10010000E7010008E70100085D1C0008E70100089E
:10011000E7010008E7010008DD1C0008E70100080E
:10012000E7010008E7010008E7010008E70100080F
:1001300000F002F800F03AF80AA090E8000C8244BF
:100140008344AAF10107DA4501D100F02FF8AFF29C
:10015000090EBAE80F0013F0010F18BFFB1A43F0A5
:10016000010318471431000034310000103A24BF55
:1001700078C878C1FAD8520724BF30C830C144BF0C
:1001800004680C607047000000230024002500264E
:10019000103A28BF78C1FBD8520728BF30C148BFEA
:1001A0000B6070471FB51FBD10B510BD00F031F8D2
:1001B0001146FFF7F7FF02F0A1F800F04FF803B483
:1001C000FFF7F2FF03BC00F057F800000948804732
:1001D00009480047FEE7FEE7FEE7FEE7FEE7FEE729
:1001E000FEE7FEE7FEE7FEE704480549054A064B41
:1001F00070470000FD1B000831010008D0010020FD
:10020000D0070020D0030020D003002070477047A3
:100210007047754600F02CF8AE4605006946534617
:1002200020F00700854618B020B5FFF7DDFFBDE8D8
:1002300020404FF000064FF000074FF000084FF04D
:10024000000B21F00701AC46ACE8C009ACE8C009DE
:10025000ACE8C009ACE8C0098D46704710B504464B
:10026000AFF300802046BDE81040FFF7A8BF0000B4
:10027000004870476C01002001491820ABBEFEE722
:1002800026000200704700BFFEE70000B1F5007FC6
:100290003AD00FDC202928D006DC01291CD0042903
:1002A0001DD0082940D11DE0402921D0B1F5807F23
:1002B0003AD126E0B1F5004F31D006DCB1F5806FC0
:1002C00025D0B1F5006F2FD124E0B1F5803F12D0D9
:1002D000B1F5003F28D111E0154A826025E00822DF
:1002E000C26022E01022C2601FE0082202611CE00E
:1002F0001022026119E00822426016E010224260DA
:1003000013E00422426010E0042242600DE0042267
:1003100042600AE0002282610422426005E000227D
:1003200082610422426000E000BF00BF704700000D
:100330000101010010B50021837A012202FA03F1C4
:100340003D4A126842F001023B4B1A603A4A1C32A5
:1003500012688A43384B1C331A60027BCAB9364A8A
:100360000C3212688A43344B0C331A604288C388BB
:1003700042EA0343304A4032847A42F834300288F9
:10038000838842EA03432C4A4032847A02EBC40257
:100390005360027B012A19D1274A0C3212680A43A2
:1003A000254B0C331A604288038842EA0343224AF1
:1003B0004032847A42F83430C288838842EA034368
:1003C0001D4A4032847A02EBC4025360C27A3AB9C1
:1003D000194A121D12688A43174B1B1D1A6006E04A
:1003E000154A121D12680A43134B1B1D1A6002891D
:1003F00032B9114A143212688A430F4B14331A600F
:100400000289012A06D10C4A143212680A430A4BA7
:1004100014331A60427B012A06D1074A1C32126843
:100420000A43054B1C331A60034A126822F001028A
:10043000014B1A6010BD00000066004070B5044614
:100440000D46002660692840002871D0B5F5807FF0
:100450005CD010DC082D35D006DC012D20D0022D1B
:1004600024D0042D72D127E0102D31D0202D35D08D
:10047000402D6BD138E0B5F5004F60D009DCB5F503
:10048000007F49D0B5F5806F4CD0B5F5006F5DD1D8
:100490004FE0B5F5803F2DD0B5F5003F56D12FE0A8
:1004A000A0682D4900F066FB064651E0E068032194
:1004B00000F060FB06464BE0E068082100F05AFBC4
:1004C000064645E0E068102100F054FB06463FE098
:1004D0002069032100F04EFB064639E0206908211F
:1004E00000F048FB064633E02069102100F042FB93
:1004F00006462DE06068082100F03CFB064627E038
:100500006068102100F036FB064621E0A069012159
:1005100000F030FB06461BE0A069022100F02AFB38
:10052000064615E0A069042100F024FB06460FE012
:100530000FE0A069702100F01DFB064608E060682E
:10054000042100F017FB064602E0FFE7002600BF8B
:1005500000E00026304670BD010101001AB1436978
:100560000B43436102E043698B434361704730B5FD
:10057000024600200023146824F00204146014686A
:1005800044F00104146000E05B1C546804F00104B2
:100590001CB94FF6FF74A342F6D1546804F001046D
:1005A0000CB900206CE08C79012C04D1146844F063
:1005B0008004146003E0146824F080041460CC7993
:1005C000012C04D1146844F04004146003E0146862
:1005D00024F0400414600C7A012C04D1146844F017
:1005E0002004146003E0146824F0200414604C7AA2
:1005F000012C04D1146844F01004146003E0146862
:1006000024F0100414608C7A012C04D1146844F096
:100610000804146003E0146824F008041460CC7A21
:10062000012C04D1146844F00404146003E014683D
:1006300024F0040414608C78A407CD7844EA05649F
:100640000D7944EA05444D7944EA05540D886D1E40
:100650002C43D461146824F001041460002300E0EA
:100660005B1C546804F001041CB14FF6FF74A342F4
:10067000F6D1546804F001040CB1002000E0012020
:1006800030BD000000B589B00121042001F0AEF8B2
:100690000121480601F08AF84FF48050ADF820009F
:1006A00003208DF8220018208DF8230008A9374870
:1006B00000F086FB4FF40060ADF8200048208DF874
:1006C000230008A9314800F07BFB00208DF81A00B8
:1006D0008DF81B008DF81C008DF81D008DF81E0094
:1006E00001208DF81F0000208DF816008DF81700EE
:1006F00008208DF8180007208DF819000220ADF8A9
:10070000140005A92248FFF732FF00208DF80E00E3
:100710008DF80F0001208DF810000020ADF80400C6
:10072000ADF80600ADF80800ADF80A00ADF80C0011
:1007300001208DF8110001A8FFF7FCFD0122022124
:100740001348FFF70BFF012211461148FFF706FF80
:1007500014208DF8000001208DF801008DF80200B2
:100760008DF80300684600F0DBFE13208DF80000D2
:1007700000208DF8010001208DF802008DF80300A3
:10078000684600F0CDFE09B000BD00000008014041
:100790000064004010B500F5D87303EB01131B682B
:1007A00003F004031372137A53B900F5D87303EB03
:1007B00001131B6840F2FF7404EA5353136009E00D
:1007C00000F5D87303EB01131B686FF0604404EA73
:1007D000D303536000F5D87303EB01131B6803F0D8
:1007E0000203537200F5D87303EB01135B6803F047
:1007F0000F03937200F5D87303EB01135B681B0AB8
:10080000D37400F5D87303EB01139B68D37200F522
:10081000D87303EB01139B681C0A147300F5D8739B
:1008200003EB01139B681C0C547300F5D87303EBA6
:1008300001139B681B0E937300F5D87303EB011330
:10084000DB68D37300F5D87303EB0113DB681C0A74
:10085000147400F5D87303EB0113DB681C0C54749B
:1008600000F5D87303EB0113DB681B0E937421B9F9
:10087000C36843F02003C36003E0036943F020032F
:10088000036110BD10B502460020936803F0806339
:10089000B3F1806F00D110E0936803F00063B3F10F
:1008A000006F01D1012008E0936803F08053B3F199
:1008B000805F01D1022000E00420042874D002F5FA
:1008C000C07303EB00131B6803F0010402F5C0734F
:1008D00003EB00131C600B7A7BB94B7A0C8843EA5C
:1008E000445302F5C07404EB00142468234302F55A
:1008F000C07404EB0014236010E00B7A4C6843EAE8
:10090000C4034C7A234302F5C07404EB001424683A
:10091000234302F5C07404EB001423608B7A03F0C8
:100920000F038B7202F5C07303EB00135B6823F0B7
:100930000F0402F5C07303EB00135C6002F5C07393
:1009400003EB00135B688C7A234302F5C07404EB5D
:10095000001463608B7B1C064B7B44EA03440B7BD7
:1009600044EA0323CC7A234302F5C07404EB001459
:10097000A3608B7C1C064B7C44EA03440B7C44EA5A
:100980000323CC7B234302F5C07404EB0014E36023
:1009900002F5C07303EB00131B6843F0010402F57A
:1009A000C07303EB00131C6010BD00002DE9F05F65
:1009B0002F4880882E490988401A00B22D49888125
:1009C0000846408A8989084400B22A494882084674
:1009D000B0F91250C089098A401A04B22548C0896A
:1009E0002449088208468089C881204602F0EAFA34
:1009F000814620488168484602F0FCFA07462846AE
:100A000002F0E0FA83461B484168584602F0F2FAC9
:100A100081461849B1F90C0002F0D4FA8346154812
:100A20000168584602F0E6FA8246494602F08AF921
:100A30008046394602F086F9064602F0A7FA00B26F
:100A40000C4988820846B0F9140010F5FA5F02DA02
:100A50004EF2C00088820748B0F91400B0F5FA5F82
:100A600003DD4FF4FA5003498882BDE8F09F00008F
:100A700040000020640000202DE9F05F2F488088AE
:100A80002E490988401A00B22D4988810846408ABB
:100A90008989084400B22A4948820846B0F91250B0
:100AA000C089098A401A04B22548C08924490882AD
:100AB00008468089C881204602F084FA8146204891
:100AC0008168484602F096FA0746284602F07AFA0C
:100AD00083461B484168584602F08CFA8146184903
:100AE000B1F90C0002F06EFA8346154801685846C9
:100AF00002F080FA8246494602F024F980463946DF
:100B000002F020F9064602F041FA00B20C49888250
:100B10000846B0F9140010F5FA5F02DA4EF2C00090
:100B200088820748B0F91400B0F5FA5F03DD4FF48E
:100B3000FA5003498882BDE8F09F00004800002079
:100B40008400002010B501F077FBFFF795FFFFF759
:100B50002DFF0548B0F914200448B0F914100448DA
:100B600001F024F810BD0000840000206400002083
:100B7000006400400246002002EA01030BB101209C
:100B800000E000207047000010B54FF4001000F0A6
:100B9000D9F830B14FF4801000F014F8014800F09B
:100BA0003DFF10BD2401002000F0805111B1034928
:100BB000086001E0024948607047000004040240F8
:100BC0000000024000F0805111B10349086001E0CB
:100BD00002494860704700000404024000000240DF
:100BE00021B1026842F00102026004E002684FF69F
:100BF000FE731A400260704701684FF6FE721140A2
:100C000001600021016041608160C1604B49884200
:100C100008D14A490839496841F00F01474A083A62
:100C200051608AE045491431884208D14349083966
:100C3000496841F0F001414A083A51607DE03F497E
:100C40002831884208D13D490839496841F470612A
:100C50003A4A083A516070E038493C31884208D13C
:100C600036490839496841F47041344A083A5160BC
:100C700063E032495031884208D130490839496827
:100C800041F470212D4A083A516056E02B496431F5
:100C9000884208D129490839496841F47001274A36
:100CA000083A516049E025497831884208D1234902
:100CB0000839496841F07061204A083A51603CE0C7
:100CC0001F49884206D1011F096841F00F01021F28
:100CD000116032E01A491431884208D11849091FBD
:100CE000096841F0F001164A121F116025E014490D
:100CF0002831884208D11249091F096841F47061FE
:100D00000F4A121F116018E00D493C31884208D18A
:100D10000B49091F096841F47041094A121F11600B
:100D20000BE007495031884207D10549091F09687E
:100D300041F47021024A121F1160704708000240FE
:100D40000804024001460020002201F0805313B144
:100D5000054B1A6801E0054B1A6802EA01030BB162
:100D6000012000E000207047000402400000024023
:100D70001AB103680B43036002E003688B4303600E
:100D8000704710B50022026847F6F0739A430C6A68
:100D90008B6823430C6923434C6923438C692343A9
:100DA000CC6923434C6A23438C6A23431A43026071
:100DB000CB6843600B6883604B68C36010BD7047AD
:100DC0002DE9F041024600250026002000230024E2
:100DD000002791F803C00CF00F0591F803C00CF048
:100DE000100CBCF1000F03D091F802C04CEA0505CD
:100DF00091F800C0BCF1000F31D0146800202BE046
:100E00004FF0010C0CFA00F3B1F800C00CEA030635
:100E10009E4220D183004FF00F0C0CFA03F7BC4325
:100E200005FA03FC4CEA040491F803C0BCF1280F56
:100E300006D14FF0010C0CFA00FCC2F814C00AE015
:100E400091F803C0BCF1480F05D14FF0010C0CFA2A
:100E500000FCC2F810C0401C0828D1D31460B1F8BF
:100E600000C0BCF1FF0F34DD546800202EE000F11B
:100E7000080C4FF0010808FA0CF3B1F800C00CEAB6
:100E800003069E4221D183004FF00F0C0CFA03F7AA
:100E9000BC4305FA03FC4CEA040491F803C0BCF11E
:100EA000280F05D100F1080C08FA0CF8C2F81480DC
:100EB00091F803C0BCF1480F07D100F1080C4FF0C6
:100EC000010808FA0CF8C2F81080401C0828CED39C
:100ED0005460BDE8F0810000F0B50A46002300240C
:100EE0000021002500F00046B6F1004F02D11D4E52
:100EF000F16901E01B4E7168C0F3034583B200F451
:100F00004016B6F5401F08D121F07061154E766885
:100F100026F07066134F7E6012E000F48016B6F57E
:100F2000801F06D1032606FA05F4A14341F0706143
:100F300006E0460D360103FA06F6B14341F0706152
:100F400022B1460D360103FA06F6314300F00046A1
:100F5000B6F1004F02D1034EF16101E0014E716024
:100F6000F0BD000000000140416170470161704721
:100F700000BFFEE710B540210748FFF7F7FF8021CB
:100F80000548FFF7F3FF80210348FFF7EDFF4021FD
:100F90000148FFF7E9FF10BD0014014010B54021E2
:100FA0000548FFF7E3FF80210348FFF7DDFF8021BD
:100FB0000148FFF7DBFF10BD0014014010B54021D0
:100FC0000348FFF7D3FF40210148FFF7CDFF10BDD5
:100FD0000014014070B504460D46FC480078844278
:100FE00073DDFB48007803280FDBF94800780628FA
:100FF0000BDC032C03DCF548007806287BDA062C92
:1010000003DBF2480078032875DDF248007830B140
:1010100001284CD0022823D0032820D16CE0EB48D3
:101020000078201A012806DD00214FF08040EA4AAE
:10103000C2E9001013E0E94AE94BE74903C901F0AE
:1010400097FDE54A03C20022E64BE34903C901F0DC
:1010500055FC04D80021E348DF4AC2E900106EE0E5
:10106000012000F0D3FC012000F0D0FCD74800782C
:10107000201A012806DD00214FF08040D64AC2E93F
:10108000001013E0D54AD64BD34903C901F070FDD7
:10109000D14A03C20022D34BCF4903C901F02EFC31
:1010A00004D80021CF48CC4AC2E9001047E0012013
:1010B00000F0ACFCC5480078201A012806DD0020AD
:1010C0004FF08041C44A03C214E039E0C34AC44B24
:1010D000C14903C901F04CFDBF4A03C20022C14B04
:1010E000BD4903C901F00AFC04D80021BD48BA4A31
:1010F000C2E9001023E0DDE1002000F087FCB348E6
:101100000078201A012805DD00204FF08041B24A06
:1011100003C213E0B14AB24BAF4903C901F028FD45
:10112000AD4A03C20022AF4BAB4903C901F0E6FB55
:1011300004D80021AB48A84AC2E9001000BFE0E192
:10114000A2480078844271DAA248007830B10128C0
:1011500049D0022828D0032825D168E0002000F0DB
:1011600055FC002000F052FC98480078001B012834
:1011700006DD00214FF08040974AC2E9001012E0DE
:10118000964A974B944903C901F0F2FC924A03C274
:101190000022944B904903C901F0B0FB03D8002012
:1011A00090498D4A03C266E088480078001B0128F8
:1011B00005DD00204FF08041874A03C212E0874AD4
:1011C000874B854903C901F0D3FC834A03C200223F
:1011D000844B814903C901F091FB03D80020814968
:1011E0007D4A03C247E0002000F010FC77480078F9
:1011F000001B012805DD00204FF08041764A03C224
:1012000013E0764A764B744903C901F0B1FC724A87
:1012100003C20022734B704903C901F06FFB04D86D
:10122000002170486C4AC2E9001024E024E001204B
:1012300000F0ECFB65480078001B012806DD00216A
:101240004FF08040644AC2E9001013E0634A644BE7
:10125000614903C901F08CFC5F4A03C20022614B63
:101260005D4903C901F04AFB04D800215D485A4A90
:10127000C2E9001000BF44E15548007885426FDDA7
:101280005448007830B1012849D0022825D00328DD
:1012900022D166E0002000F0B9FB4D480078281A02
:1012A000012806DD00214FF080404B4AC2E90010C2
:1012B00012E04A4A4A4B484903C901F059FC464AE0
:1012C00003C20022474B444903C901F017FB03D86E
:1012D00000204449404A03C269E0012000F096FB27
:1012E0003B480078281A012805DD00204FF0804196
:1012F000394A03C212E0394A394B374903C901F070
:1013000037FC354A03C20022364B334903C901F08A
:10131000F5FA03D8002033492F4A03C247E02C488E
:101320000078281A012806DD00214FF080402A4A63
:10133000C2E9001013E0294A294B274903C901F0EB
:1013400017FC254A03C20022264B234903C901F09A
:10135000D5FA04D8002123481F4AC2E9001026E02C
:1013600026E0012000F052FB012000F04FFB18485E
:101370000078281A012805DD00204FF08041164A28
:1013800003C213E0154A164B134903C901F0F0FBE1
:10139000114A03C20022134B0F4903C901F0AEFAF0
:1013A00004D800210F480C4AC2E9001000BFA8E091
:1013B0000748007885427DDA06480078A0B1012808
:1013C00057D0022833D0032830D179E00B00002019
:1013D0000C0000200D000020000000207B14AE4710
:1013E000E17A743F0000E03F012000F00FFB454828
:1013F0000078401B012806DD00214FF08040424A62
:10140000C2E9001012E0414A414B3F4903C901F0D3
:10141000AFFB3D4A03C200223E4B3B4903C901F0EA
:101420006DFA03D800203B49374A03C268E0002028
:1014300000F0ECFA33480078401B012805DD00205D
:101440004FF08041304A03C212E0304A304B2E49FF
:1014500003C901F08DFB2C4A03C200222D4B2A49FF
:1014600003C901F04BFA03D800202A49264A03C2D7
:1014700046E0002000F0CAFA002000F0C7FA214838
:101480000078401B012805DD00204FF080411E4AF6
:1014900003C214E01D4A1E4B1B4903C901F068FB3F
:1014A000194A03C200221B4B174903C901F026FA4F
:1014B00005D800E025E000201649134A03C21FE0CA
:1014C00010480078401B012805DD00204FF08041C6
:1014D0000D4A03C213E00D4A0D4B0B4903C901F03D
:1014E00047FB094A03C200220A4B074903C901F01E
:1014F00005FA04D800210748034AC2E9001000BFDA
:1015000000BF70BD0C000020000000207B14AE471F
:10151000E17A743F0000E03F00BFFEE77047000043
:1015200070B5002100230F22C47804B3154C246841
:1015300004F4E064C4F5E064210AC1F10403CA4084
:10154000447804FA03F184781440214309010E4CD5
:101550000678A155047804F01F050124AC400578F5
:101560006D11AD0005F1E025C5F8004109E00478F2
:1015700004F01F050124AC40044D0678761145F8AF
:10158000264070BD0CED00E000E400E080E100E0EA
:1015900002490143024A1160704700000000FA0549
:1015A0000CED00E070B5002418E004F1B00000215B
:1015B00000F0A0F80021084600F09CF8002110205F
:1015C00000F098F8002505E00121002000F092F8D5
:1015D000681CC5B2802DF7DB601CC4B2082CE4DBAC
:1015E00070BD000008B50121202000F0FFF8C020E8
:1015F000ADF8000010208DF8030003208DF80200E4
:1016000069463B48FFF7DCFBC0213948FFF7AEFCD9
:10161000C82000F005FE0021AE2000F06BF800218C
:10162000084600F067F80021102000F063F8002160
:10163000402000F05FF80021B02000F05BF80021AE
:10164000812000F057F80021FF2000F053F800211E
:10165000A12000F04FF80021A62000F04BF8002157
:10166000A82000F047F800213F2000F043F80021B7
:10167000C82000F03FF80021D32000F03BF8002103
:10168000084600F037F80021D52000F033F800219B
:10169000802000F02FF80021D82000F02BF8002146
:1016A000052000F027F80021D92000F023F80021C0
:1016B000F12000F01FF80021DA2000F01BF80021D3
:1016C000122000F017F80021DB2000F013F80021B1
:1016D000302000F00FF800218D2000F00BF80021E1
:1016E000142000F007F80021AF2000F003F808BD37
:1016F0000014014070B504460D461DB1E0B200F083
:1017000079FD02E0E0B200F05FFD70BD14481549BC
:1017100008601548486015488860114814490860F9
:1017200011484860114888600D48124908600E4809
:1017300048600E4888600A480F4908600A484860B7
:101740000A4888600D480E4908600020486088609B
:101750000A480C4908600020486088607047000013
:1017600000002040640000200AD7A33DCDCCCC3D32
:1017700084000020A4000020C4000020000040409D
:10178000E4000020040100207047000029B1064A4F
:1017900052690243044B5A6104E0034A526982438E
:1017A000014B5A61704700000010024029B1064AFF
:1017B000D2690243044BDA6104E0034AD2698243EE
:1017C000014BDA61704700000010024029B1064A5F
:1017D00012690243044B1A6104E0034A126982430E
:1017E000014B1A61704700000010024029B1064AFF
:1017F00092690243044B9A6104E0034A926982436E
:10180000014B9A61704700000010024029B1064A5E
:10181000D2680243044BDA6004E0034AD268824390
:10182000014BDA60704700000010024030B5002123
:101830000022002400232D4D6D6805F00C0121B11C
:10184000042905D0082923D105E0294D056022E0AF
:10185000274D05601FE0254D6D6805F47012234D7E
:101860006D6805F48034022505EB92421CB9214DC8
:10187000554305600BE01D4D6D6805F400351DB145
:101880001C4D5543056002E0194D5543056002E0CB
:10189000174D056000BF00BF144D6D6805F0F001E5
:1018A0000909154D6B5C0568DD4045600F4D6D689D
:1018B00005F4E061090A104D6B5C4568DD40856008
:1018C0000A4D6D6805F46051C90A0B4D6B5C4568A3
:1018D000DD40C560054D6D6805F44041890B074D3D
:1018E0006B5CC568B5FBF3F5056130BD00100240C7
:1018F00000127A0000093D002C0000203C0000206E
:1019000000B587B001210420FFF770FF01214804D2
:10191000FFF74CFF374800F0DBFA0820ADF818005D
:1019200004208DF81B0006A93348FFF749FA334815
:1019300002900020ADF80C00ADF80E004FF480606E
:10194000ADF810000020ADF814000C20ADF8120026
:1019500002A9284800F05AFB0121264800F0A3FA0A
:1019600001210846FFF712FF00224021214800F024
:10197000A6FA2348FFF740F91E48001D21490860D8
:1019800021484860002088601220C860002008615B
:101990008020486100208861C861202008624FF4DF
:1019A00040504862002088621548FFF7EAF94FF47A
:1019B0000030FFF7F9F8012202211148FFF7D8F9AA
:1019C000012240210B4800F07AFA10208DF8040023
:1019D00002208DF805008DF8060001208DF8070023
:1019E00001A8FFF79DFD01210548FFF7F9F807B0B1
:1019F00000BD00000044004000080140A086010036
:101A00006C000240400100202401002010B1012898
:101A100002D100E000E000BF00BF704770B504468F
:101A200004B970BD2078617840EA0120C0F30A0053
:101A30001F4908806078C010A17840EA4110C0F3C7
:101A40000A001B494880A0788011E17840EA8100B3
:101A5000217940EA8120C0F30A0015498880207965
:101A60004010617940EAC110C0F30A001049C880F3
:101A700060790011800808726079C0F30110487223
:101A800008460088B0F5AF6F10DA08460088B0F558
:101A9000167F0BDD0988A1F5806000F017FF054671
:101AA000044A054B00F066FF044A03C200BFB8E7D2
:101AB000360100207B14AE47E17A643F000000202D
:101AC000704710B500F002F810BD00000CB5002002
:101AD000019000903348006840F48030314908603C
:101AE00000BF3048006800F4003000900198401CAE
:101AF0000190009818B90198B0F5A06FF1D129486C
:101B0000006800F4003010B10120009001E00020D6
:101B100000900098012843D12348006840F010004D
:101B2000214908600846006820F003000860084664
:101B3000006840F0020008601A484068194948608F
:101B40000846406848600846406840F48060486045
:101B50000846406820F47C1048600846406840F41D
:101B6000E81048600846006840F08070086000BFD8
:101B70000C48006800F000700028F9D0094840685F
:101B800020F00300074948600846406840F0020022
:101B9000486000BF0348406800F00C000828F9D1F5
:101BA0000CBD0000001002400020024070B586B05D
:101BB00006460C4615464FF40070019000208DF843
:101BC0000C008DF80D0008208DF80E00200A8DF80D
:101BD0000F008DF81040290A8DF811108DF8125061
:101BE00001A93046FEF74EFE06B070BD02480068FF
:101BF000401C0149086070472800002010B51348B8
:101C0000006840F00100114908600846406810492A
:101C100008400E494860084600680E4908400B49D4
:101C200008600846006820F4802008600846406884
:101C300020F4FE0048604FF41F008860FFF741FF6A
:101C40004FF000600449086010BD00000010024021
:101C50000000FFF8FFFFF6FE08ED00E010B50121DF
:101C6000054800F05AF828B10121034800F046F871
:101C7000FEF768FF10BD0000000C00407FB5054670
:101C80000C4601210820FFF791FDADF80850ADF892
:101C900004400020ADF80A00ADF8060001A90E4886
:101CA00000F056F8012211460B4800F047F83220A8
:101CB0008DF8000000208DF8010003208DF802004F
:101CC00001208DF803006846FFF72AFC0121024835
:101CD00000F017F87FBD0000000C004010B5012196
:101CE000054800F01AF828B10121034800F006F871
:101CF00000F02CFB10BD000000100040CA4302821F
:101D0000704721B1028842F00102028004E002889B
:101D10004FF6FE731A400280704730B5024600202D
:101D200000230024158A05EA0103958905EA0104C8
:101D300013B10CB1012000E0002030BD1AB183893D
:101D40000B43838102E083898B43838170470000CA
:101D5000002202881D4B98420ED01D4B98420BD09A
:101D6000B0F1804F08D01B4B984205D01A4B9842D7
:101D700002D01A4B984204D14FF68F731A404B8809
:101D80001A43174B984207D0164B984204D04FF68F
:101D9000FF431A40CB881A4302808B8883850B88C7
:101DA00003850A4B98420BD0094B984208D00E4B42
:101DB000984205D00D4B984202D00D4B984201D16C
:101DC0000B7A03860123838270470000002C0140B8
:101DD000003401400004004000080040000C0040B6
:101DE0000010004000140040004001400044014049
:101DF0000048014010B540F225511F4800F0B6F8E8
:101E000038B31D4800F06EF9C4B21C48008800F4D5
:101E1000005088B11A4801880088401C184A108078
:101E2000184844541046008805281FD10020114648
:101E300008801249088019E01048008800F480509A
:101E400060B1592C06D10D48008840F400500B4970
:101E500008800BE000200949088007E0592C05D1D3
:101E60000648008840F480500449088040F225511B
:101E7000014800F009F810BD004800405000002063
:101E8000520000205C00002010B50022002340F624
:101E90006A14A14200D100BF0A1201249440A3B2E7
:101EA000DC43048010BD21B1828942F4005282815A
:101EB00004E082894DF6FF731A40828170471AB19F
:101EC000838A0B43838202E0838A8B438382704739
:101ED00010B504462048844209D101218803FFF748
:101EE00095FC00214FF48040FFF790FC32E01B4846
:101EF000844209D101214804FFF768FC00214FF416
:101F00000030FFF763FC25E01548844209D1012128
:101F10008804FFF75BFC00214FF48020FFF756FC9C
:101F200018E01048844209D10121C804FFF74EFC93
:101F300000214FF40020FFF749FC0BE00A488442DF
:101F400008D101210805FFF741FC00214FF4801062
:101F5000FFF73CFC10BD0000003801400044004089
:101F600000480040004C00400050004070B5024660
:101F7000002400230025002040F66A16B14200D15B
:101F800000BFC1F3421501F01F03012606FA03F357
:101F9000012D02D19689334006E0022D02D1168A26
:101FA000334001E0968A33400C12012606FA04F40D
:101FB0001688344013B10CB1012000E0002070BD40
:101FC000F0B50346002400260025002040F66A17DD
:101FD000B94200D100BF1846C1F3421401F01F06F8
:101FE000012707FA06F5012C01D10C3004E0022C80
:101FF00001D1103000E014301AB107682F43076098
:1020000002E00768AF430760F0BD00002DE9F0472C
:1020100086B005460E460024A24600BFA146002712
:10202000B08900B100BF2F462C8A4CF6FF700440E7
:10203000F08804432C82AC894EF6F3100440B0883B
:1020400031890843718908430443AC81AC8A4FF657
:10205000FF400440B0890443AC8201A8FFF7E6FBCF
:102060001F48874202D1DDF810A001E0DDF80CA086
:10207000A88900F4004040B10AEBCA0000EB0A1046
:1020800031684900B0FBF1F807E00AEBCA0000EB49
:102090000A1031688900B0FBF1F86420B8FBF0F059
:1020A00004012009642101FB1089A88900F4004083
:1020B00040B1322000EBC900B0FBF1F000F00700A6
:1020C000044308E0322000EB09106421B0FBF1F07A
:1020D00000F00F0004432C8106B0BDE8F08700003B
:1020E0000038014001468888C0F3080070470000AE
:1020F00010B501210448FEF7A1F918B101210248E9
:10210000FEF7C4F810BD00000064004000B585B0C3
:1021100002211448FEF792F910B302211148FEF78C
:10212000B5F86A4600210F48FEF734FB0098A0F28C
:10213000012010B1012812D108E09DF80E109DF881
:102140000D0041EA00200849088008E09DF80E10C3
:102150009DF80D0041EA00200449088000BF00BF3F
:1021600005B000BD00640040400000204800002091
:1021700000BFFEE72DE9F04105462C4640211148FD
:10218000FEF7F2FE002619E0274607F08007802FB1
:1021900004D180210B48FEF7E9FE03E080210948C5
:1021A000FEF7E2FE6006040E40210648FEF7DEFE62
:1021B00040210448FEF7D8FE701CC6B2082EE3DBAF
:1021C000BDE8F0810014014010B50446FEF7D2FED0
:1021D0007820FFF7CFFFFEF7F1FE0020FFF7CAFFE0
:1021E000FEF7ECFE2046FFF7C5FFFEF7E7FEFEF721
:1021F000D5FE10BD10B50446FEF7BCFE7820FFF7F3
:10220000B9FFFEF7DBFE4020FFF7B4FFFEF7D6FE76
:102210002046FFF7AFFFFEF7D1FEFEF7BFFE10BD71
:10222000044A1268111800BF024A12688A42FBD39E
:1022300070470000280000202DE9F0410F4C0022DB
:102240000F4B104903C900F095FB064600F058FA01
:1022500005462146284600F0D7FD064600F096FECA
:10226000094948602146284600F0CEFD064600F0A8
:102270008DFE06494860BDE8F08100006747CC3E0E
:1022800000004E40000000204000002048000020D8
:1022900030B5002015490860154800684FF47A727F
:1022A000B0FBF2F1B1F1807F00D31DE021F07F405F
:1022B000401E4FF0E022506150170F22002807DA2D
:1022C00013071D0E0B4B00F00F04241F1D5503E0D8
:1022D00013071C0E084B1C5400BF00204FF0E022D7
:1022E00090610720106100BF30BD00002800002071
:1022F0001400002018ED00E000E400E001210520BA
:10230000FFF774FA01211048FEF7E6FDFFF776FCAF
:10231000FFF7BEFF4FF4A060FFF73AF9FEF7B2F9FE
:1023200042F20F714720FFF7A9FCFFF7E9FAFFF728
:1023300059F9FFF737F94FF4E13000F091F9FFF761
:10234000E5F900BFFEE700000002300010B5BE480E
:102350000078032815DCBD480078032811DCBC4850
:10236000007803280DDBBB480078062809DBB94854
:102370000178B5480078FEF72DFE0120B6490870B7
:1023800047E0B1480078032815DCB04800780628FB
:1023900011DCAE480078062803DAAC480078032840
:1023A00009DCAC480178A8480078FEF713FE02204B
:1023B000A94908702DE0A4480078032829DCA34827
:1023C0000078062825DCA1480078032821DBA048F6
:1023D000007806281DDB9F480078032819DB9D48FC
:1023E0000078062815DC99480078032803D0974820
:1023F0000078042805D1022193480078FEF7EAFD11
:1024000004E0072190480078FEF7E4FD022092499D
:1024100008708D480078032815DC8C480078062861
:1024200011DB8B48007803280DDB8A4800780328ED
:1024300009DC8848017884480078FEF7CBFD03204A
:1024400085490870ECE08048007806282ADC7E4840
:102450000078032826DB7D480078062822DB7C48AC
:10246000007803281EDB7A48007806281ADC7948B1
:102470000078032816DC74480078032803D07248DB
:102480000078042805D1734801780220FEF7A2FDE8
:1024900004E0704801780720FEF79CFD04206E4997
:1024A0000870BDE068480078062819DB67480078A6
:1024B000062815DB66480078032811DB644800789D
:1024C00006280DDC63480078032809DC61480178A0
:1024D0005D480078FEF77EFD05205F4908709FE0AB
:1024E00059480078062819DB58480078032815DC7D
:1024F00057480078032811DB5548007806280DDC82
:1025000054480078062809DB524801784E48007884
:10251000FEF760FD07205049087081E04A480078C6
:1025200006282ADB49480078032826DB474800783C
:10253000062822DC4648007803281EDC454800783F
:1025400003281ADB43480078062816DC3F48007849
:10255000032803D03D480078042805D102213A48D9
:102560000078FEF737FD04E0072137480078FEF7D2
:1025700031FD06203849087052E0334800780628BB
:1025800019DB32480078032815DB3048007806282C
:1025900011DC30480078062803DA2E48007803283A
:1025A00009DC2C48017828480078FEF713FD062046
:1025B0002949087034E02448007803282ADB22489F
:1025C0000078062826DC21480078032822DC2148F0
:1025D000007806281EDB1E48007806281ADC1C48F6
:1025E0000078032816DB18480078032803D0174822
:1025F0000078042805D1154801780220FEF7EAFC8E
:1026000004E0124801780720FEF7E4FC0820124994
:10261000087005E00F4801780D480078FEF7DAFCF5
:1026200000200E4908700848007809490978884256
:1026300008D10648007807490978884202D101206C
:102640000649087010BD00000B0000200C0000209F
:102650000E0000200F0000200A0000206100002072
:1026600010B586B00446012144F20400FFF7BEF81D
:102670004FF40070ADF8140003208DF816001820F8
:102680008DF8170005A91C48FEF79AFB4FF400606F
:10269000ADF8140004208DF8170005A91648FEF7C0
:1026A0008FFB01940020ADF80800ADF80A00ADF8EA
:1026B0000C00ADF810000C20ADF80E0001A90F4879
:1026C000FFF7A4FC25208DF8000000208DF8010004
:1026D00001208DF802008DF803006846FEF720FF08
:1026E000012240F225510548FFF76AFC0121034809
:1026F000FFF7D9FB06B010BD0008014000380140CB
:1027000021F00042A2F16052B2F5801F01F00043B7
:1027100028BFD2F17F6C0BD95FEA001C43EAC202EA
:1027200042EB507018BF704728BF20F0010070477F
:10273000B2F5801FBCBF184670474FEA410C1CF52C
:10274000001F02D2084600F01CBD70B500F0BCF9B5
:1027500000000089FFF7F6BF4FF00040A0F58000B1
:102760007047000010B591EA030F48BF83F00043A3
:1027700000F10682841A71EB030C05D2121943EBA7
:102780000C03001B61EB0C01DFF824E14FEA11544C
:10279000A4EB135C1EEA430F18BF9EEA445F73D09C
:1027A00023EA0E03DCF1200E21EA045143F48013E6
:1027B00032D322FA0CFE10EB0E0023FA0CFE41EB92
:1027C0000E01CCF1200E03FA0EFE10EB0E0051F1BB
:1027D0000001B1F5801FCCF1200E32D201EB045183
:1027E00012FA0EF2BDE8104058BF7047401C38BFC7
:1027F0005FEA420218BF7047002814BF20F00100B2
:1028000041F100014FEA410313F5001F38BF704743
:10281000A1F1C04100F0A6B9012A43EB0302ACF1DB
:10282000200CDCF11F0E32BF4FF0000E23FA0CF328
:1028300010EB030041EB0451B4EB115FD0D0A1EBDE
:10284000045101F5801149085FEA300001EB0451A1
:102850000ED350F1000038BF12FA0EFE08D1BDE8C9
:102860001040C9E7401C38BF5FEA4202CAD1C3E743
:10287000BDE810404FEA410313F5001F38BF704711
:10288000A1F1C04100F06EB99EEA445F08D011EAA0
:102890005E0FBDE8104004BF01F00041002070470A
:1028A000BDE8104070B500F00FF900BF64FBBE3EFC
:1028B0000000E0FF491058BFC1F140415B1058BF14
:1028C000C3F140438B42EFF30080704710F00042A9
:1028D00048BF4042B0FA80F310FA03F10AD0C3F1C6
:1028E0001D0303F580634FEA415002EB035202EBF4
:1028F000D12170474FF000007047000051EA030CEF
:1029000017D41CF5801F58BFBCF5801F00F106804E
:10291000994218BF704708BF9042704707D711F51A
:10292000801F58BF13F5801F19D499427047894200
:1029300070471CF5801F08D5BCF5801FF7D58B426A
:1029400018BF704708BF824270474FF4001C1CEB51
:10295000410F38BF1CEB430F01D28B42704770B55B
:1029600000F0B2F8922449004FF000514FF080532C
:10297000FFF7A0BFDFF848C170B51CEA111E1EBFEB
:102980001CEA13159EEA0C0F95EA0C0F00F06F80FD
:1029900081EA030423EA4C134EEAD47E21EA4C1167
:1029A00041F4801143F48013AE44A1FB024CA0FB20
:1029B0000365AEF17F7E361955EB0C05A1FB034C88
:1029C0004CF10003A0FB021C16EB0C06654153F111
:1029D0000003094218BF46F0010613F4007F0BD133
:1029E0004FEA03314FEA0530340341EA155140EA1A
:1029F00016506FF003020AE04FEAC3214FEAC520E8
:102A0000F40241EA555140EA56506FF0020202EBDF
:102A10002E4201EB025585EACE710AD05FEA440CE2
:102A200018BF24F0004450F1000041F1000120EAF9
:102A3000D47040F2FE7C624500D270BDA84214BF43
:102A40004FF080444FF04044002E08BF0024BEF1F8
:102A5000806FA8BFA1F1C041BDE8704080F28280C4
:102A60004FF0000001F1C04101F0004170479EEAC3
:102A70000C0F0CEA131518BF95EA0C0F06D04FF097
:102A8000000081EA030E0EF0004170BD00F01CF85A
:102A90008900013E00F007B800F009B84FEA430C86
:102AA0005FEA5C5C08D081EA030100F05BB84FEAA2
:102AB000410C5FEA5C5CF6D14FF0000001497047C1
:102AC0000000FF070000F87F0EF1020E2EF0030E4B
:102AD0005EF8046B364205D4012A43EB030515F575
:102AE000001F12D8012841EB010C1CF5001F0CD867
:102AF0000ED14FEAD17C15F5001F0CEB4C0C0CF1FC
:102B0000020C08BF4CEBD37C04E04FF0080C01E052
:102B10004FEAD37C0CEB4C0526FA05F606F00706C7
:102B2000B6F1040C06D20EEB860CBDE870404CF0FA
:102B3000010C6047DFE80CF0090B02024FF0004186
:102B40004FF00000A1F5002170BD19461046012884
:102B500051EB010418BFD4F5001484BF002001F02C
:102B6000004170BD0808A0F500114FEA310170471F
:102B700010B591EA030F48BF83F000433FF5FAAD6B
:102B8000841A71EB030C07D212198CF0004C43EB42
:102B90000C03001B61EB0C01DFF8A4E14FEA1154B8
:102BA000A4EB135C1EEA430F18BF9EEA445F00F0DB
:102BB000B08023EA6E03524221EA0451C3EB6E0354
:102BC00038BF5B1EDCF1200E25D322FA0CFE10EB81
:102BD0000E0043FA0CFE41EB0E01CCF1200E03FA7D
:102BE0000EFE10EB0E0051F10001CCF1200E29D4A5
:102BF00012FA0EF201EB0451BDE8104058BF7047C5
:102C0000401C1CBFB2F1004F704700280CBF491C8C
:102C100020F00100704712EB020E43EB030218BFD5
:102C20004FF0010E4EEA4202ACF1200CDCF11E0E18
:102C300054D943FA0CFE10EB0E0051F1FF31CCF1E8
:102C40001E0ED5D50EF1010E12FA0EFE404141EBDB
:102C5000010101EB445C5FEA5C5C10D910EBDE70B3
:102C600001EB045138BFBEF1004FBDE8104018BF62
:102C7000704700280CBF491C20F00100704730D27B
:102C80004FEAD42C11F5001124F400641BD0B1FAE2
:102C900081F20B3AA41AA41ED2F12003914030FA1B
:102CA00003F31943904001EBCC71002C01EB04516C
:102CB000BDE81040A8BF704701F1C0414FF00000CF
:102CC00001F000417047B0FA80F310FA03F100D12F
:102CD00010BDE41A173C4805C90AE4E701EB0451AA
:102CE00010BD491001EB0451BDE810404FEA30001F
:102CF00002E04FF0000170474A0008BF0042F8D0E0
:102D0000B2F5001F28BF704701F000414FF00000EE
:102D100070479EEA445F07D011EA5E0FBDE810409D
:102D200004BF002100207047BDE8104070B5FFF7D8
:102D3000CBFE00BF40DFF63E83F0004110467047F7
:102D40000000E0FF90EA010F48BF81F0004100F170
:102D50002482421A3CBF801A89184FEAD0524FF0A1
:102D60007F4C1CEA410FA2EBD15318BF9CEA026FC3
:102D700000F03B804FF0004C4CEA00204CEA01216F
:102D800021FA03FC10EB0C0C1ED202F1FF325FEAB9
:102D90001C2040EBC25038BF70471CF07F0F4FEA39
:102DA000400C18BFBCF17F4F38BF7047C3F1200300
:102DB000994008BF20F00100BCF17F4F38BF704739
:102DC000A0F1C04000F0DDB94FEA3C00000A40EB42
:102DD000C25028BF1CF0FF0F4FEA400CE6D018BFCE
:102DE000BCF17F4F38BF7047EAE79CEA026F05D01D
:102DF00010EA5C0F08BF00F00040704710B500F00B
:102E00007AF900BF64FBBE3E4FF47F0C1CEAD0127F
:102E10001EBF1CEAD11392EA0C0F93EA0C0F00F0CC
:102E2000858090EA010F48BF42F4807240F4000CA4
:102E300041F400002CF07F4120F07F4000B581423A
:102E4000A2EB03020FF2081CACEB504EC0F10000E5
:102E50009EF800E04FEA4E0E00FB0EFC38BF490022
:102E60004FEA2C1C02F5FA020CFB0EF34FEACE1EC1
:102E70004FEA112C4FEAC1210EEB635E42EB224276
:102E80000EFB0CFC4FEA1C5300FB03114FEA112C04
:102E90004FEA01310EFB0CFC4FEADC4C00FB0C113D
:102EA000C14228BF09184CEB03335DF804EB10EB6B
:102EB000410143EBC250B2F57C0F38BF704729D5B2
:102EC00012F0F00F1CBF00F1C04000F0004070474E
:102ED000008182838485868788898B8C8D8E8F91F3
:102EE0009293959697999A9C9D9FA0A2A3A5A7A817
:102EF000AAACAEB0B2B3B5B7B9BCBEC0C2C5C7C943
:102F0000CCCED1D4D7D9DCDFE2E6E9ECF0F3F7FAA6
:102F1000FE0000004FEA400C0CF1807CBCF17E4FBB
:102F200028BF7047B0F1C04000F02BB990EA010F04
:102F30000CEAD11348BF42F48072624538BF634542
:102F400007D213F47F0F16D080EA010000F0004092
:102F5000704710B500F0CFF8097EFC3E00F005B8D0
:102F600080EA010000F00040704780EA010000F0B4
:102F7000004000F006B912F47F0F04BF024870470A
:102F800080EA010000F0FDB80000C07F41000B0E98
:102F9000D3F19E0208D950F400034FEA032323FA29
:102FA00002F048BF4042704710B500F0A4F800BFDF
:102FB00049922480002070476FF0004282EA20008E
:102FC0007047000010F0004148BF4042B0FA80F363
:102FD00010FA03F2C3F19D030BD051EAC35101EB88
:102FE0001220530638BF704700F1010008BF20F0DF
:102FF000010070474FF47F0C1CEAD0121EBF1CEA80
:10300000D11392EA0C0F93EA0C0F00F0478090EA7C
:10301000010F48BF42F480724FF0004C4CEA002090
:103020004CEA012102EB0302A0FB0113A2F500020E
:10303000002918BF43F001035B0028BF4FEA3303A8
:1030400042EB22425FEA132C4CEBC2502EBFBCEB8A
:10305000436FB2F57C0F70474FEA036CBCF1004F31
:1030600008BF20F00100B2F57C0F38BF70470BD5C8
:1030700082F0FF0212F5803FC8BF704700F1C040E8
:10308000D8BF00F00040704700F5000C5FEA4C0C20
:1030900048BF7047B0F1C04000F073B890EA010F2C
:1030A0000CEAD11348BF42F48072624538BF6345D1
:1030B00004D280EA010000F00040704710B500F033
:1030C0001AF800BF8900013E00F007B800F009B807
:1030D0005FEA410C5FEA1C6C08D080EA010000F056
:1030E00050B85FEA400C5FEA1C6CF6D14FF000402C
:1030F000A0F5800070470EF1020E2EF0030E5EF870
:10310000044B244204D44FEA4102B2F17F4F11D85C
:103110004FEA4003B3F17F4F0CD80ED14FEAD07C79
:10312000B2F17F4F0CEB4C0C0CF1020C08BF4CEBD6
:10313000D17C04E04FF0080C01E04FEAD17C0CEBAD
:103140004C0324FA03F404F00704B4F1040C06D28F
:103150000EEB840CBDE810404CF0010C6047DFE83A
:103160000CF0070802024FF00040A0F5800010BDEF
:103170000846420018BFD2F1807288BF00F00040BC
:1031800010BDFF2141EAD050C005704790EA010F01
:1031900048BF81F000413FF5DCAD421A04D882F00F
:1031A0000042A0EB020011444FEAD0524FF07F4C96
:1031B0001CEA410FA2EBD15318BF9CEA026F4AD020
:1031C0004FF0004C4CEA00204CEA012121FA03FCAC
:1031D000B0EB0C0C0FD412F0FE0F36D05FEA4C00AF
:1031E0001DD5001240EBC25038BF70471CF03F0F96
:1031F00018BF70470BE0A2F101025FEA1C2040EB10
:10320000C25038BF70471CF07F0F18BF7047C3F122
:103210002003994014BF401E20F001007047800831
:103220004FEA122308BF7047B0FA80FCA2EB0C02F1
:10323000CCF1280C60FA0CF093EA122F04BF00EBDB
:10324000C25070474FEAC3707047130A5FEADC1040
:1032500008BF7047F6E79CEA026F04D010EA5C0FE3
:1032600008BF0020704710B5FFF745FF40DFF63E6E
:1032700081F00040704700009832000800000020F4
:10328000640000006C010008FC32000864000020AB
:103290006C0700008801000800000000000000002A
:1032A00000000000020000030000000000A24A0429
:1032B00000000000000000000102030406070809E6
:1032C00000000000000000000102030401020304EA
:1032D00006070809020406080000000000000000BC
:1032E00000000000000000000000000000000000DE
:0C32F000000000000000000000000000D2
:04000005080001CD21
:00000001FF
