:020000040800F2
:1000000038080020790200082D2A0008BF260008C1
:10001000292A00086D1800081537000800000000A4
:10002000000000000000000000000000E9300008AF
:10003000FB24000800000000FD2D00081D32000810
:10004000930200089302000893020008930200083C
:10005000930200089302000893020008930200082C
:10006000930200089302000893020008930200081C
:1000700093020008A52200089302000893020008DA
:10008000C522000893020008930200088D3600087C
:10009000A9360008930200089302000893020008A2
:1000A00093020008930200089302000893020008DC
:1000B00093020008930200089302000893020008CC
:1000C00093020008930200089302000893020008BC
:1000D00093020008930200089302000893020008AC
:1000E000930200089302000893020008930200089C
:1000F000930200089302000893020008930200088C
:1001000093020008930200088D3200089302000851
:1001100093020008930200081133000893020008BC
:10012000930200089302000893020008930200085B
:1001300000F002F800F090F80AA090E8000C824469
:100140008344AAF10107DA4501D100F085F8AFF246
:10015000090EBAE80F0013F0010F18BFFB1A43F0A5
:1001600001031847DC580000FC580000103A24BF77
:1001700078C878C1FAD8520724BF30C830C144BF0C
:1001800004680C607047000000230024002500264E
:10019000103A28BF78C1FBD8520728BF30C148BFEA
:1001A0000B6070476E2900F05981702900F09B8226
:1001B000662904F0CA87652904F0C787672904F017
:1001C000C4876129AFF3008003681B0A28BF41F090
:1001D0008001692900F00681642900F003817529F6
:1001E00000F000816F2900F02982782900F06782F1
:1001F000E92900F0C381E42900F0C081F52900F06D
:10020000BD81EF2900F02682F82900F0668203689C
:10021000DB0928BF41F08001632900F0E8857329DC
:1002200000F0ED85E32900F0F885F32900F0FD8565
:10023000002070471FB500F049FE04000020002197
:1002400003F04CFF401C60600020002103F030FFF1
:10025000E0601FBD10B510BD00F00BFE1146FFF7AA
:10026000E9FF03F0AFFC00F0E3FE03B4FFF7F2FF99
:1002700003BC00F027FF00000948804709480047F9
:10028000FEE7FEE7FEE7FEE7FEE7FEE7FEE7FEE746
:10029000FEE7FEE704480549054A064B70470000A3
:1002A0002D320008310100083802002038080020F3
:1002B00038040020380400201CB50C46064B7B4453
:1002C00069460090204600F0E2F8044600206946A6
:1002D00000F0F0F820461CBDF301000010B5431CEF
:1002E00002E010F8011B71B18107FAD14FF0013221
:1002F00002C88C1A8C4314EAC211F9D0C01A0A063B
:1003000003D0C01E10BDC01A10BD0A0401D0801E4B
:1003100010BD0902FCD0401E10BD704770477047E9
:1003200070B5044685690068C10601D5302600E035
:100330002026C00707D070BDD4E901213046904780
:10034000206A401C20626D1EF6D570BD70B5044653
:1003500085690078C00707D170BDD4E9012120204C
:100360009047206A401C20626D1EF6D570BD09685A
:100370004A0501D540B27047C905FCD500B27047A7
:1003800009684A0501D5C0B27047C905FCD580B2DD
:10039000704770B50C460546012A05D028788006BE
:1003A00000D5EA69002302E0012305E05B1C9342CB
:1003B00002D2E05C0028F9D1A869E618C01AA86149
:1003C000286A184428622846FFF7AAFF04E0D5E906
:1003D000012114F8010B9047B442F8D32846FFF7E7
:1003E000B5FF70BD2DE9F04106460024106875295F
:1003F000314616A510D0FFF7BAFF002802DA4042B6
:1004000013A507E031688A0701D512A502E0490764
:1004100004D511A5012401E0FFF7B2FF00210A2253
:1004200006F1240709E0B0FBF2FCB0FBF2F302FB9B
:100430001C00303078541846491C0028F3D123465C
:100440002A463046BDE8F04100F061BA00000000E5
:100450002D0000002B000000200000001168026841
:10046000006A530501D508700AE0D30501D508805C
:1004700006E0130603D5C217C1E9000200E00860D8
:100480000120704701694A1C02610878704700B575
:100490008FB0CDE901310021059105497944CDE9BD
:1004A00003101146684600F029F90FB000BD0000A6
:1004B000E5FFFFFF0A6802F8010B0A6070470000C1
:1004C0002DE9FF5F15468A460446DFF8AC80F84404
:1004D0000027D8E900103E46CDE9001010E03AF8B8
:1004E00016106A4602A800F0A4FC411C07D021782F
:1004F000890603D5E269391891420DD80744761C64
:100500002078800602D5E069B84205DDAE42E6DB20
:100510003AF816000028E2D1A069C01BA06120466D
:10052000FFF7FEFED8E90010CDE90010002017E02B
:100530003AF818106A4602A800F07BFCB0F1FF3FC1
:1005400081460BD000250DF1080B05E0D4E901210F
:100550001BF8050090476D1C4D45F7D308F10100CD
:10056000B0428046E4DB206A384420622046FFF730
:10057000EDFEBDE8FF9F0000965400002DE9F0411C
:100580008046D21D22F007020025D2E90002F5299B
:1005900015A614D0011E72F1000106DA0023D0EB7B
:1005A000030063EB020211A608E0D8F800108B07E5
:1005B00001D50FA602E0490701D50EA60125114677
:1005C000002408F1240704E000F05CF930323A55C9
:1005D000641C50EA0102F7D12B46324621464046C0
:1005E000BDE8F04100F093B9000000002D000000CC
:1005F0002B0000002000000030B4002100F1240492
:1006000008E002F00705D208303542EA4372DB0801
:100610006554491C52EA0305F3D10468002310A273
:10062000250708D504F020040C4304D0C469012335
:100630000CA2641EC46130BC00F069B910B5044658
:1006400021461068FFF79CFE02462046BDE8104098
:100650000023D1E7D21D22F00701D1E90023CBE727
:100660000000000030000000F0B40D4601880905CC
:1006700002D5214C7C4402E01F4C7C440E34002106
:1006800000F1240608E002F00F071209E75D42EAD4
:1006900003721B097754491C52EA0307F3D102780D
:1006A0000023120704D5702D06D009B1022311349E
:1006B0002246F0BC00F02BB901231034F8E770B5E6
:1006C00004460D4621461068FFF75AFE02462946A9
:1006D0002046BDE870400023C6E7D21D22F0070384
:1006E000D3E90023C0E70368126843F020030360E6
:1006F0000823C3610023B7E7F85200002DE9F05F3B
:10070000894604464FF0000ADFF874B1FB44C0F894
:1007100020A02046E1688847002874D0252806D00C
:10072000D4E901219047206A401C2062F1E70026AD
:100730005F462046E16888472028054607DB312DC3
:1007400005D2781910F8200C08B10643F1E7B0077C
:1007500001D526F00406C4F81CA00027C4F818A090
:100760002A2D09D0284603F041F838B304EB870856
:10077000303DC8F8185019E059F8041B204604EB26
:1007800087029161E1688847012F054618D1E06929
:10079000002820DA26F020061DE0D8F8180000EB2B
:1007A000800005EB40003038C8F818002046E168AA
:1007B0008847054603F01AF80028EED1012F0AD029
:1007C0002E2D08D12046E16888477F1C0546022F60
:1007D00046F02006C4DBA069002803DA404246F058
:1007E0000106A061F00701D026F010066C2D0BD099
:1007F000682D09D04C2D39D06A2D35D0742D35D0C7
:100800007A2D33D016E038E0E1682F46204688473D
:10081000B842054609D16C2F26D04FF48060E168BC
:10082000064320468847054604E06C2F1AD04FF453
:10083000807006430DB3A5F14100192802D8203578
:1008400046F400664A462946204626604E46FFF793
:10085000A9FC80B101280BD0F61D26F0070000F19D
:10086000080956E74020E4E78020D8E70020D6E7D3
:1008700006F104094DE7284652E7206ABDE8F09FDB
:100880008852000030B5B0F10A024FEA900E71F1C3
:1008900000034EEA817EB0EB0E0061EB91014FEA5E
:1008A000101E4EEA017E10EB0E0041EB11114FEAD3
:1008B000102E4EEA016E10EB0E0041EB11214FEAB3
:1008C000104E4EEA014E10EB0E0041EB1141401864
:1008D00041F100014FEAD00040EA41704FEAD101F6
:1008E00010EB80054FEA810444EA907444EB010464
:1008F0006D1944EB0404521BA3414FF0000348BFA1
:100900000A3200D530BD401C41F1000130BD2DE957
:10091000F0470D4699469246044600F124080168C6
:10092000880604D5E06921F01001216000E0012073
:10093000A84201DD471B00E00027A1697A1902EBFC
:100940000900081AA0612078C00602D42046FFF7EB
:10095000E7FC002608E0D4E901211AF806009047D8
:10096000206A401C761C20624E45F4DB2078C006CD
:100970000AD52046FFF7D4FC06E0D4E90121302057
:100980009047206A401C2062381EA7F10107F4DC62
:1009900007E0D4E9012118F805009047206A401CBF
:1009A0002062281EA5F10105F3DC2046FFF7CEFCEE
:1009B0002078000602D50220BDE8F0870120FBE781
:1009C00070472DE9FF4F0C461E464FF0FF378BB0A6
:1009D000D2E90001DDF860800A908A46C1F30A5529
:1009E00005B93D46002108464FF00000BAF1000F5E
:1009F00000F4400005DA00EB80004FF4400101EA0A
:100A000050004FEA9059B9F1010F00DDB9460A983C
:100A100050EA4A000ED044F61050A5F2FF35454387
:100A20002F14B8F1000F1ED07542291E1EDDC9F12A
:100A300000021CE0B8F1010F4FF0000001D030219E
:100A400003E0F24305E02154401CB042FBDB30469A
:100A50000022002121540B99C1F80880C1E900202F
:100A60000FB0BDE8F08FBD1B6D1CDEE74A4600DA13
:100A7000694206A800F06EFA06AB93E8070003ABE4
:100A800083E8070050460A9900F023FB8DE8070031
:100A9000A0F500501F3800900398002D09DD42F2A8
:100AA0001F014A46084403A90390684600F082FDEE
:100AB00008E0A0F500504A461F3803A90390684695
:100AC00000F08CFD8DE807000004000C03D04FF00F
:100AD000FF30410800E01046B8F1000F03D00022BB
:100AE000009215461EE0751E05D4FFF7CBFE30328E
:100AF00062556D1EF9D5B3460122084302D000228B
:100B00007F1C04E02078302801D100227F1E002ABB
:100B1000099786D01DE0112D07DAFFF7B3FE3032BA
:100B200062556D1C50EA0102F5D1084302D00098CD
:100B3000C8B10EE00021681E05E0235C625C6354CE
:100B40002254401E491C8142F7DBAB46A81B401EC5
:100B50000990002004F80B000B98099AC0F808804F
:100B6000C0E9002B7CE711264FF0000859E72DE97A
:100B7000F04F88460446D21D22F0070191B0D1E91A
:100B80000001CDE90A0102F01DFE02460B98C00FDC
:100B900001D02D2007E02068810701D52B2002E03D
:100BA000202101EAC000032A099001D0072A05DBB1
:100BB00003464146204600F08DF90BE1207880067F
:100BC00001D5E06900E00620B8F1650F814606D046
:100BD000B8F1660F18D0B8F1670F70D131E000207E
:100BE000B9F1110F009001DB112301E009F10103BC
:100BF0000AAA01A90CA8FFF7E4FEDDE90C700026A3
:100C000009F10105834647E001204B4600904FF073
:100C100000470AAA01A90CA8FFF7D3FEDDE90DB031
:100C20000C995D46002610B909F101000D18B9EBC9
:100C3000050003D4C0F1FF3609F10105A5EB090059
:100C40002BE0B9F1010F01DA4FF001090020B9F1F1
:100C5000110F0090484601DD112300E003460AAA67
:100C600001A90CA8FFF7ADFEDDE90C704D4600268A
:100C70008346207800070AD4AB4500DA5D4601A818
:100C8000012D04DD411911F8011C302907D04F4511
:100C900002DA17F1040F04DA012082460FE06D1E1C
:100CA000EEE7002F02DCED1B3E4403E0781CA84277
:100CB00000DD7D1CB81B00F1010A4FF000472078D1
:100CC000000703D4AA4501DB4FF0FF3A0021B7F13A
:100CD000004F0DF143088DF8431024D002202B2340
:100CE000002F01DA7F422D230A21021EA0F101000C
:100CF00000DC5FB197FBF1FC97FBF1F201FB1C7C80
:100D000017460CF1300C08F801CDEEE7A8F1010010
:100D100003702188090501D5452100E06521A0F176
:100D2000010800F8011C09980FA9A1EB0807FF1D95
:100D300000B10120411901EBEA70A1693844081A99
:100D4000401EA0612078C00602D42046FFF7E8FAD2
:100D5000099828B1D4E901219047206A401C2062FB
:100D60002078C00622D52046FFF7DAFA1EE0002ED2
:100D700004DBB34502DD01A8805D00E03020D4E94A
:100D800001219047206A401C2062761CAAF10100D4
:100D90005FEA000A0AD100F099F8C0680168405C77
:100DA000D4E901219047206A401C2062281EA5F149
:100DB0000105DCDC07E0D4E9012118F8010B9047BC
:100DC000206A401C2062381EA7F10107F3DC204690
:100DD000FFF7BCFA032011B043E610B5436913B125
:100DE000AFF3008001E0FFF7D4FA012010BD1278C4
:100DF00000F124010A7000224A700122EDE7116817
:100E00004FF0FF32E9E710B5436913B1AFF300804B
:100E100001E0FFF755FB012010BD128800F124010D
:100E200082840022C2840122EDE711684FF0FF3274
:100E3000E9E770B516460C46054600F03FF8036832
:100E400093F80101012806D0FF2C0FD8185D68B176
:100E500001202C7070BDD3F807013246214603F201
:100E6000071303442846BDE8704018474FF0FF3091
:100E700070BD754600F0E2F8AE460500694653467F
:100E800020F00700854618B020B5FFF703FABDE84B
:100E900020404FF000064FF000074FF000084FF0E1
:100EA000000B21F00701AC46ACE8C009ACE8C00972
:100EB000ACE8C009ACE8C0098D46704710B500F039
:100EC00005F8001D10BD00BF153200000048704736
:100ED000F80100202DE9F0411F4604460326016871
:100EE000072A01F4006004DB08B116A505E016A589
:100EF00003E008B115A500E015A521F01000206061
:100F0000A069C01EA0610FB1401EA0612046FFF77E
:100F100007FA4FB1D4E9012138469047206A401CB6
:100F20002062C01C206206E0206AFAE7D4E90121B1
:100F300015F8010B9047761EF8D22046FFF706FA07
:100F4000BDE8F0814E414E006E616E00494E460094
:100F5000696E66002DE9F047814616468AB033482F
:100F600078440DC88DE80D0030487844801C03ACEF
:100F70000DC884E80D0041F69B300844372190FBF2
:100F8000F1F290FBF1F5A5F1800501FB12041B3C89
:100F900002D56442012000E00020DFF890A08046E6
:100FA0000027FA44AAF1BE0A0DE0E00709D0324654
:100FB000684607EB47010AEB810100F00FFB8DE863
:100FC000070064107F1C002CEFD1184F7F44AC3F0A
:100FD00018E0E80714D007EB04100DF1180A90E8A8
:100FE0000E008AE80E00C068F04201D198190890FE
:100FF000324606A903A800F0F1FA03AB83E8070024
:101000006D10641C002DE4D132466946B8F1000F22
:1010100003A802D000F0CEFA01E000F0DFFAC9E93F
:101020000001C9F808200AB0BDE8F087C44A0000F2
:101030000446AFF300802046FFF717F900487047D9
:10104000D80100204FF0013C50F8042B51F8043B2C
:101050009A4221D1A2EB0C03934313EACC1317D18C
:1010600050F8042B51F8043B9A4215D1A2EB0C0323
:10107000934313EACC130BD150F8042B51F8043BE3
:101080009A4209D1A2EB0C03934313EACC13DBD0B1
:101090004FF00000704700BFD01A01BAB1FA81F1D9
:1010A00001F0180122FA01F0CB40C1F12001DBB2BE
:1010B000C0B2C01A2CFA01F3D11A914311EAC3113C
:1010C000E6D1704701491820ABBEFEE726000200BA
:1010D00070475FEA400C08BF91F0000F4FEA8C2385
:1010E0004FEAC12243EA51514FEA1C5018BF00F5A4
:1010F000F0404FEA300018BF41F000415FEA6C5CFD
:1011000000F02980BCF1FF3F08BF40F080407047ED
:10111000130C06BF12044FF0100C4FF0000C130E0E
:1011200004BF12020CF1080C130F04BF12010CF1E2
:10113000040C930F04BF92000CF1020CD30F04BFF8
:1011400052000CF1010C11464FF00002A0F11F00FB
:10115000A0EB0C00704711F0004F08BF704731F052
:1011600000413FF4D5AF0B0C06BF09044FF0100C43
:101170004FF0000C0B0E04BF09020CF1080C0B0F12
:1011800004BF09010CF1040C8B0F04BF89000CF1A2
:10119000020CCB0F04BF49000CF1010CCCF1200371
:1011A000A0EB0C0022FA03F302FA0CF241EA03016D
:1011B00000F10100704720F07F4C80EA030023F02B
:1011C0007F47ACEB070303F57C5300F0004003F1CD
:1011D000FF032DE980494FEA154B09B44FEA144348
:1011E00025EA0B4E24EA03480FF2042606EB1327E8
:1011F00049083E785FEA320203FB0667C7F500073D
:1012000007FB06F64FEA54374FEAD64606F10206C8
:1012100007FB066CCCF1005C4FEA1C472CEA074C3C
:1012200007FB06F40CFB06F504EB15464FEA961691
:1012300034BF00204FF000404FEAD13706FB07FCD7
:101240004FEA1C4C0CFB0BF7D21B03FB0CF761EBBA
:1012500007010CFB0EF7B0EB074072EB17420CFBDB
:1012600008F734BFA2EB0742B2EB074261EB17412C
:101270004FEA0C444FEA910706FB07FC4FEA1C4C6F
:101280000CFB0BF7B0EBC74072EB573203FB0CF7CC
:1012900034BFA2EBC742B2EBC74261EB57310CFB44
:1012A0000EF7B0EBC70072EB57720CFB08F734BFB8
:1012B000A2EBC702B2EBC70261EB5771039F4FEA83
:1012C000816141EA921104EBCC044FEAD1374FEA35
:1012D000826206FB07FC42EA90124FEA80604FEA06
:1012E0001C4C0CFB0BF7D21B03FB0CF761EB07014B
:1012F0000CFB0EF7B0EB074072EB17420CFB08F744
:1013000034BFA2EB0742B2EB074261EB17414FEA51
:101310008C554FEA910704EB9C2406FB07FC4FEA2F
:101320001C4C0CFB0BF7B0EBC74072EB573203FBC6
:101330000CF734BFA2EBC742B2EBC74261EB5731A7
:101340000CFB0EF7B0EBC70072EB57720CFB08F703
:1013500034BFA2EBC702B2EBC70261EB577115EBCA
:101360004C254FEA816141EA92114FEA82624FEACD
:10137000D13742EA901206FB07FC44F100044FEA21
:1013800080604FEA1C4C0CFB0BF7D21B03FB0CF7E5
:1013900061EB07010CFB0EF7B0EB074072EB174255
:1013A0000CFB08F734BFA2EB0742B2EB074261EB3C
:1013B000174115EB1C154FEA813141EA92414FEA82
:1013C000823242EA90424FEA80304FEA0C7644F192
:1013D000000448EA03434EEA0B484FF0000EB2EB1C
:1013E000080C71EB030724BF624639464EEB0E0E24
:1013F0004FF0000B0018524149414BEB0B0BB2EB85
:10140000080C71EB03077BF1000B24BF62463946E1
:101410004EEB0E0E4FF0000B0018524149414BEBC2
:101420000B0BB2EB080C71EB03077BF1000B24BF35
:10143000624639464EEB0E0E51EA020718BF46F0DF
:10144000010616EB0E7655F1000254F1000103D5AA
:10145000BDE88901BDE80088BDE88901BDE8004814
:10146000B619524141EB0101A3F10103704780809D
:101470007F7E7D7C7B7A79787776767574737271EE
:1014800071706F6E6E6D6C6C6B6A6A6968686766A6
:1014900066656464636362616160605F5F5E5E5D38
:1014A0005D5C5C5B5B5A5A595958585757565655AC
:1014B00055555454535352525251515050504F4F0E
:1014C0004F4E4E4D4D4D4C4C4C4B4B4B4A4A4A495E
:1014D00049494848484747474746464645454544A1
:1014E0004444444343434342424242414141002B2E
:1014F00026D4770021D01CB54FEA370703B44FF04C
:1015000010004FF010014FF000000FBCBDE810407C
:101510000BF1010BBBF1010F08BF5FEA170722BFF8
:1015200012F1010211F101014FF0004143F10003FA
:1015300000F0004043EA00007047F9D35708DAE7AB
:1015400046EA064613F1400F4FEA16461FDD13F137
:10155000200FDFBF16430A46002120335B42C8D06C
:10156000C3F1200746EA064602FA07F74FEA164695
:1015700046EA0706C3F1200722FA03F201FA07F749
:1015800021FA03F14FF0000342EA0702B1E746EA0D
:10159000020646EA06464FEA164646EA0106BCBF80
:1015A00046EA0646360C4FF000034FF000024FF0BB
:1015B00000019EE72DE9C048934630B491E8380019
:1015C00007C831EA400C48BF34EA430C03D5FFF7A3
:1015D000F2FDFFF78CFFF0BCBDE800882DE9C048A4
:1015E000934630B491E8380007C810F0804F08BF28
:1015F00013F0804F03D100F005F8FFF778FFF0BC3F
:10160000BDE8008820F07F4780EA030023F07F4C8C
:1016100007EB0C03A3F57C5300F00040A3F1FE039D
:1016200092F0000F00F0B38095F0000F00F077808B
:101630002DE901494FEA11404FEA144621EA0048DA
:1016400000FB06FC24EA064708FB06F607FB08F841
:1016500000FB07F718EB06484CEB164C4FEA124B11
:1016600018EB07484FEA15464CEB174022EA0B4EA1
:101670000BFB06FC25EA06470EFB06F607FB0EFEF3
:101680000BFB07F71EEB064E4CEB164C4FF000061B
:101690001EEB074E4CEB174B18EB0B0840F100000C
:1016A00018EB0E0B58EB000840F100008F1A4FF0BA
:1016B00000013CBFC943661B14BFB5EB040C0021FD
:1016C0003CBFC943F61B4FEA17444EEA8E0E27EA89
:1016D00004454FEA1C4704FB07622CEA074C05FB54
:1016E00007F70CFB05F604FB0CFC16EB074642EB78
:1016F000174216EB0C4642EB1C421BEB060658EB5E
:101700000202414146EA9E0601D5BDE80189B619AB
:10171000524141EB0101A3F10103BDE801894FEA08
:1017200014454FEA114724EA054621EA074C05FB18
:1017300007F406FB07F70CFB06F105FB0CFC11EBAD
:10174000074144EB17444FEA124711EB0C4144EBBD
:101750001C4422EA074C05FB07F206FB07F70CFBCB
:1017600006F605FB0CFC16EB074642EB174216EBA0
:101770000C4642EB1C456A1854F1000148BF704703
:10178000B619524141EB0101A3F10103704795F0F5
:10179000000F37D04FEA11424FEA144721EA0246C0
:1017A00024EA074C02FB07F106FB07F70CFB06F4E3
:1017B00002FB0CFC14EB074441EB17414FEA1547C1
:1017C00014EB0C4441EB1C4125EA074C02FB07F5E6
:1017D00006FB07F70CFB06F602FB0CFC16EB0746B4
:1017E00045EB174516EB0C4645EB1C42121951F11F
:1017F000000148BF7047B619524141EB0101A3F106
:10180000010370474FEA14454FEA114724EA0546A1
:1018100021EA074C05FB07F106FB07F70CFB06F274
:101820004FF0000605FB0CFC12EB074241EB1741A1
:1018300012EB0C4251EB1C4148BF7047921841EB30
:101840000101A3F10103704710B50446012C04D136
:10185000C103054800F031FF04E04FF400410248A5
:1018600000F029FF10BD00000008014000BFFEE7A6
:10187000B1F5007F3AD00FDC202928D006DC012901
:101880001CD004291DD0082940D11DE0402921D0B9
:10189000B1F5807F3AD126E0B1F5004F31D006DCBA
:1018A000B1F5806F25D0B1F5006F2FD124E0B1F5EF
:1018B000803F12D0B1F5003F28D111E0154A826077
:1018C00025E00822C26022E01022C2601FE0082248
:1018D00002611CE01022026119E00822426016E059
:1018E0001022426013E00422426010E004224260B1
:1018F0000DE0042242600AE000228261042242607C
:1019000005E0002282610422426000E000BF00BFC7
:10191000704700000101010010B50021837A012207
:1019200002FA03F13D4A126842F001023B4B1A6091
:101930003A4A1C3212688A43384B1C331A60027BC5
:10194000CAB9364A0C3212688A43344B0C331A60D7
:101950004288C38842EA0343304A4032847A42F8DC
:1019600034300288838842EA03432C4A4032847A26
:1019700002EBC4025360027B012A19D1274A0C32C0
:1019800012680A43254B0C331A604288038842EAE6
:101990000343224A4032847A42F83430C288838832
:1019A00042EA03431D4A4032847A02EBC402536088
:1019B000C27A3AB9194A121D12688A43174B1B1D85
:1019C0001A6006E0154A121D12680A43134B1B1DCC
:1019D0001A60028932B9114A143212688A430F4BD5
:1019E00014331A600289012A06D10C4A1432126893
:1019F0000A430A4B14331A60427B012A06D1074A74
:101A00001C3212680A43054B1C331A60034A1268E1
:101A100022F00102014B1A6010BD00000066004078
:101A200070B504460D46002660692840002871D034
:101A3000B5F5807F5CD010DC082D35D006DC012D9B
:101A400020D0022D24D0042D72D127E0102D31D0CA
:101A5000202D35D0402D6BD138E0B5F5004F60D04A
:101A600009DCB5F5007F49D0B5F5806F4CD0B5F5F0
:101A7000006F5DD14FE0B5F5803F2DD0B5F5003F4B
:101A800056D12FE0A0682D4900F002FC064651E037
:101A9000E068032100F0FCFB06464BE0E06808210B
:101AA00000F0F6FB064645E0E068102100F0F0FB90
:101AB00006463FE02069032100F0EAFB064639E0D4
:101AC0002069082100F0E4FB064633E0206910217C
:101AD00000F0DEFB06462DE06068082100F0D8FB30
:101AE000064627E06068102100F0D2FB064621E0A0
:101AF000A069012100F0CCFB06461BE0A069022191
:101B000000F0C6FB064615E0A069042100F0C0FB0A
:101B100006460FE00FE0A069702100F0B9FB064611
:101B200008E06068042100F0B3FB064602E0FFE72E
:101B3000002600BF00E00026304670BD0101010014
:101B40001AB143690B43436102E043698B4343612C
:101B5000704730B5024600200023146824F00204C8
:101B60001460146844F00104146000E05B1C5468C5
:101B700004F001041CB94FF6FF74A342F6D1546877
:101B800004F001040CB900206CE08C79012C04D124
:101B9000146844F08004146003E0146824F08004A6
:101BA0001460CC79012C04D1146844F04004146012
:101BB00003E0146824F0400414600C7A012C04D172
:101BC000146844F02004146003E0146824F0200436
:101BD00014604C7A012C04D1146844F01004146091
:101BE00003E0146824F0100414608C7A012C04D1F2
:101BF000146844F00804146003E0146824F0080436
:101C00001460CC7A012C04D1146844F004041460EC
:101C100003E0146824F0040414608C78A407CD78E1
:101C200044EA05640D7944EA05444D7944EA0554D3
:101C30000D886D1E2C43D461146824F001041460D7
:101C4000002300E05B1C546804F001041CB14FF653
:101C5000FF74A342F6D1546804F001040CB10020D3
:101C600000E0012030BD000000B589B00121042052
:101C700001F0F6F80121480601F0D2F84FF4805047
:101C8000ADF8200003208DF8220018208DF82300E5
:101C900008A9374800F032FC4FF40060ADF820008E
:101CA00048208DF8230008A9314800F027FC0020C7
:101CB0008DF81A008DF81B008DF81C008DF81D00A2
:101CC0008DF81E0001208DF81F0000208DF81600F1
:101CD0008DF8170008208DF8180007208DF81900DE
:101CE0000220ADF8140005A92248FFF732FF0020BA
:101CF0008DF80E008DF80F0001208DF810000020E7
:101D0000ADF80400ADF80600ADF80800ADF80A0023
:101D1000ADF80C0001208DF8110001A8FFF7FCFDC3
:101D2000012202211348FFF70BFF0122114611483F
:101D3000FFF706FF14208DF8000001208DF8010048
:101D40008DF802008DF80300684600F071FE132044
:101D50008DF8000000208DF8010001208DF80200B0
:101D60008DF80300684600F063FE09B000BD000076
:101D7000000801400064004010B500F5D87303EB83
:101D800001131B6803F004031372137A53B900F5AF
:101D9000D87303EB01131B6840F2FF7404EA53533A
:101DA000136009E000F5D87303EB01131B686FF0B3
:101DB000604404EAD303536000F5D87303EB0113C6
:101DC0001B6803F00203537200F5D87303EB011391
:101DD0005B6803F00F03937200F5D87303EB0113F4
:101DE0005B681B0AD37400F5D87303EB01139B687F
:101DF000D37200F5D87303EB01139B681C0A1473AC
:101E000000F5D87303EB01139B681C0C547300F5A9
:101E1000D87303EB01139B681B0E937300F5D87303
:101E200003EB0113DB68D37300F5D87303EB0113E5
:101E3000DB681C0A147400F5D87303EB0113DB682C
:101E40001C0C547400F5D87303EB0113DB681B0EF4
:101E5000937421B9C36843F02003C36003E00369AE
:101E600043F02003036110BD10B5024600209368C3
:101E700003F08063B3F1806F00D110E0936803F04A
:101E80000063B3F1006F01D1012008E0936803F013
:101E90008053B3F1805F01D1022000E004200428C8
:101EA00074D002F5C07303EB00131B6803F0010448
:101EB00002F5C07303EB00131C600B7A7BB94B7AFD
:101EC0000C8843EA445302F5C07404EB0014246800
:101ED000234302F5C07404EB0014236010E00B7A76
:101EE0004C6843EAC4034C7A234302F5C07404EB04
:101EF00000142468234302F5C07404EB001423602B
:101F00008B7A03F00F038B7202F5C07303EB00139F
:101F10005B6823F00F0402F5C07303EB00135C60F1
:101F200002F5C07303EB00135B688C7A234302F560
:101F3000C07404EB001463608B7B1C064B7B44EA8B
:101F400003440B7B44EA0323CC7A234302F5C07499
:101F500004EB0014A3608B7C1C064B7C44EA034416
:101F60000B7C44EA0323CC7B234302F5C07404EBCF
:101F70000014E36002F5C07303EB00131B6843F029
:101F8000010402F5C07303EB00131C6010BD0000D8
:101F90002DE9F04F89B03A48408839490988401AFC
:101FA00000B2384988810846408A8989084400B2CD
:101FB000344948820846B0F9120006900846C089A4
:101FC000098A401A00B207902E48C0892D4908821C
:101FD00008468089C881079802F05EFF05462948B7
:101FE0008168284602F070FF044602F0E9FDCDE961
:101FF0000401069802F050FF07462248416838461F
:1020000002F062FF064602F0DBFD04460D461D4964
:10201000086802F0D5FD06460F461A49B1F90C00D2
:1020200002F049FB804632463B4602F0ABFB2246BB
:102030002B46CDE9000102F099F8CDE90201DDE976
:10204000042302F093F8824602F0D8FA00B20D4958
:1020500088820846B0F914000B49884203DA4FF62B
:102060002420084988820748B0F9140040F2DC5166
:10207000884202DD08460349888209B0BDE8F08F36
:10208000440000209C00002024FAFFFF2DE9F04FBF
:1020900089B03A48408839490988401A00B238491D
:1020A00088810846408A8989084400B234494882B8
:1020B0000846B0F9120006900846C089098A401AFD
:1020C00000B207902E48C0892D49088208468089B1
:1020D000C881079802F0E0FE054629488168284635
:1020E00002F0F2FE044602F06BFDCDE90401069811
:1020F00002F0D2FE074622484168384602F0E4FE6C
:10210000064602F05DFD04460D461D49086802F0D2
:1021100057FD06460F461A49B1F90C0002F0CBFAFA
:10212000804632463B4602F02DFB22462B46CDE947
:10213000000102F01BF8CDE90201DDE9042302F001
:1021400015F8824602F05AFA00B20D498882084614
:10215000B0F914000B49884203DA4FF624200849ED
:1021600088820748B0F9140040F2DC51884202DD51
:1021700008460349888209B0BDE8F08F4800002076
:10218000B800002024FAFFFF70B50022134635493D
:1021900003C902F0F7F904D10020334948823349DA
:1021A00048824FF03332324B2E4903C902F0E8FB2C
:1021B00006D84FF033312E482A4AC2E900100DE00C
:1021C0004FF033322B4B274903C902F09FFA05D851
:1021D0004FF033312748234AC2E9001026480078DF
:1021E00088BB204903C901F0B7FB044602F006FA98
:1021F00000B2224948801B4903C901F0ADFB0446E7
:1022000002F0FCF900B21E49488001F0F7FA1D48BF
:102210000078C0B100F056FA00221346114903C9F4
:1022200002F0B0F90FD0154840881749898A084450
:1022300000B212494880124840881349898A401ADE
:1022400000B20F494880FFF7A3FEFFF71FFF0748C2
:10225000B0F914200448B0F914100C4800F0BAFF8B
:1022600070BD0000000000209C000020B80000208D
:102270003333F33F3333F3BF8B000020440000209F
:102280004800002012000020D4000020006400401C
:102290000246002002EA01030BB1012000E0002009
:1022A0007047000010B54FF4007000F0E9F830B14D
:1022B0004FF4807000F024F8014801F039FC10BDA3
:1022C0006A00002010B54FF4001000F0D9F830B1CA
:1022D0004FF4801000F014F8014800F0D1FE10BD5A
:1022E000F000002000F0805111B10349086001E0C6
:1022F00002494860704700000404024000000240A8
:1023000000F0805111B10349086001E002494860C2
:1023100070470000040402400000024021B102683E
:1023200042F00102026004E002684FF6FE731A40B8
:102330000260704701684FF6FE7211400160002193
:10234000016041608160C1604B49884208D14A49BF
:102350000839496841F00F01474A083A51608AE05C
:1023600045491431884208D143490839496841F048
:10237000F001414A083A51607DE03F4928318842E6
:1023800008D13D490839496841F470613A4A083A30
:10239000516070E038493C31884208D136490839EB
:1023A000496841F47041344A083A516063E0324967
:1023B0005031884208D130490839496841F47021C8
:1023C0002D4A083A516056E02B496431884208D1C1
:1023D00029490839496841F47001274A083A51608F
:1023E00049E025497831884208D1234908394968AC
:1023F00041F07061204A083A51603CE01F49884230
:1024000006D1011F096841F00F01021F116032E07F
:102410001A491431884208D11849091F096841F046
:10242000F001164A121F116025E014492831884234
:1024300008D11249091F096841F470610F4A121F3F
:10244000116018E00D493C31884208D10B49091F41
:10245000096841F47041094A121F11600BE00749F5
:102460005031884207D10549091F096841F470219C
:10247000024A121F1160704708000240080402401F
:1024800001460020002201F0805313B1054B1A6869
:1024900001E0054B1A6802EA01030BB1012000E0DC
:1024A0000020704700040240000002401AB1036897
:1024B0000B43036002E003688B430360704710B571
:1024C0000022026847F6F0739A430C6A8B68234334
:1024D0000C6923434C6923438C692343CC69234310
:1024E0004C6A23438C6A23431A430260CB684360DF
:1024F0000B6883604B68C36010BD70472DE9F041E5
:10250000024600250026002000230024002791F821
:1025100003C00CF00F0591F803C00CF0100CBCF1D7
:10252000000F03D091F802C04CEA050591F800C0F5
:10253000BCF1000F31D0146800202BE04FF0010CEB
:102540000CFA00F3B1F800C00CEA03069E4220D159
:1025500083004FF00F0C0CFA03F7BC4305FA03FCA1
:102560004CEA040491F803C0BCF1280F06D14FF0E7
:10257000010C0CFA00FCC2F814C00AE091F803C088
:10258000BCF1480F05D14FF0010C0CFA00FCC2F869
:1025900010C0401C0828D1D31460B1F800C0BCF1B1
:1025A000FF0F34DD546800202EE000F1080C4FF0DE
:1025B000010808FA0CF3B1F800C00CEA03069E42C9
:1025C00021D183004FF00F0C0CFA03F7BC4305FA3E
:1025D00003FC4CEA040491F803C0BCF1280F05D1B8
:1025E00000F1080C08FA0CF8C2F8148091F803C046
:1025F000BCF1480F07D100F1080C4FF0010808FAB0
:102600000CF8C2F81080401C0828CED35460BDE8F6
:10261000F0810000F0B50A460023002400210025C7
:1026200000F00046B6F1004F02D11D4EF16901E005
:102630001B4E7168C0F3034583B200F44016B6F533
:10264000401F08D121F07061154E766826F0706643
:10265000134F7E6012E000F48016B6F5801F06D19D
:10266000032606FA05F4A14341F0706106E0460D29
:10267000360103FA06F6B14341F0706122B1460D0E
:10268000360103FA06F6314300F00046B6F1004F7A
:1026900002D1034EF16101E0014E7160F0BD000016
:1026A000000001400246002093680B400BB101205E
:1026B00000E000207047416170470161704700BF32
:1026C000FEE700002DE9F05F00221346364903C9FA
:1026D00002F01CF808D23548008834494988401A6D
:1026E00000B23349888107E0304880882F49C98883
:1026F000401A00B22E4988812D48408A2C49898988
:10270000084400B22A4948820846B0F91250C089EC
:10271000098A401A04B22648C08925490882084619
:102720008089C881204602F0B7FB81462048816835
:10273000484602F0C9FB0746284602F0ADFB834637
:102740001B484168584602F0BFFB81461849B1F961
:102750000C0002F0A1FB834615480168584602F0C0
:10276000B3FB8246494602F057FA8046394602F0EA
:1027700053FA064602F074FB00B20D4988820846FF
:10278000B0F9140010F52F7F02DA4FF6445088821A
:102790000748B0F91400B0F52F7F03DD4FF42F7018
:1027A00003498882BDE8F09F0000002082000020DD
:1027B000D400002010B540210748FFF77EFF80219C
:1027C0000548FFF77AFF80210348FFF774FF402197
:1027D0000148FFF770FF10BD0014014010B5402103
:1027E0000548FFF76AFF80210348FFF764FF802157
:1027F0000148FFF762FF10BD0014014010B54021F1
:102800000348FFF75AFF40210148FFF754FF10BD6E
:102810000014014008B50121402000F021FB4FF4D5
:10282000F970ADF8000048208DF8030069460248B1
:10283000FFF764FE08BD00000018014010B5044613
:1028400014B101203F4908703E480078002850D05C
:1028500010213D48FFF726FFC8B120213A48FFF775
:1028600021FFA0B140213848FFF71CFF78B180213B
:102870003548FFF717FF50B14FF480713248FFF72A
:1028800011FF20B102213048FFF70CFF80BB0A2066
:1028900001F056F800202B49087010212A48FFF754
:1028A00001FF08B9012010BD20212748FFF7FAFEDB
:1028B00008B90220F7E740212348FFF7F3FE08B9E3
:1028C0000320F0E780212048FFF7ECFE08B9042040
:1028D000E9E74FF480711C48FFF7E4FE08B90520D2
:1028E000E1E702211848FFF7DDFE40BB0620DAE7EA
:1028F000FFE710211448FFF7D5FE01281FD1202142
:102900001148FFF7CFFE012819D140210E48FFF7EB
:10291000C9FE012813D180210B48FFF7C3FE01280F
:102920000DD101020848FFF7BDFE012807D10221A1
:102930000548FFF7B7FE012801D1024908700020C1
:10294000B1E700009A0000200018014070B504466D
:102950000D46B5F5806F0AD024B929460948FFF71E
:10296000ACFE0EE029460748FFF7A5FE09E024B9B2
:1029700029460548FFF7A1FE03E029460248FFF774
:102980009AFE70BD00100140001C014008B50121F5
:10299000102000F065FA0320ADF8000010208DF83B
:1029A000030003208DF8020069461C48FFF7A6FDCE
:1029B0000121802000F054FA4FF48060ADF800004F
:1029C00010208DF8030003208DF80200694614489A
:1029D000FFF794FD0121042000F042FA4FF400407B
:1029E000ADF8000010208DF8030003208DF80200E0
:1029F00069460C48FFF782FD01210020FFF7A6FF82
:102A000002210020FFF7A2FF4FF480610020FFF7B2
:102A10009DFF0020FEF718FF08BD000000100140D8
:102A2000001C01400008014000BFFEE770470000A5
:102A300070B5002100230F22C47804B3154C24681C
:102A400004F4E064C4F5E064210AC1F10403CA405F
:102A5000447804FA03F184781440214309010E4CB0
:102A60000678A155047804F01F050124AC400578D0
:102A70006D11AD0005F1E025C5F8004109E00478CD
:102A800004F01F050124AC40044D0678761145F88A
:102A9000264070BD0CED00E000E400E080E100E0C5
:102AA00002490143024A1160704700000000FA0524
:102AB0000CED00E070B5002418E004F1B000002136
:102AC00000F067F90021084600F063F900211020AA
:102AD00000F05FF9002505E00121002000F059F920
:102AE000681CC5B2802DF7DB601CC4B2082CE4DB87
:102AF00070BD000008B50121202000F0B1F9C02010
:102B0000ADF8000010208DF8030003208DF80200BE
:102B100069463B48FFF7F2FCC0213948FFF7CDFD7D
:102B2000C82000F00DFF0021AE2000F032F9002196
:102B3000084600F02EF90021102000F02AF90021AB
:102B4000402000F026F90021B02000F022F90021F9
:102B5000812000F01EF90021FF2000F01AF9002169
:102B6000A12000F016F90021A62000F012F90021A2
:102B7000A82000F00EF900213F2000F00AF9002102
:102B8000C82000F006F90021D32000F002F900214E
:102B9000084600F0FEF80021D52000F0FAF80021E8
:102BA000802000F0F6F80021D82000F0F2F8002193
:102BB000052000F0EEF80021D92000F0EAF800210D
:102BC000F12000F0E6F80021DA2000F0E2F8002120
:102BD000122000F0DEF80021DB2000F0DAF80021FE
:102BE000302000F0D6F800218D2000F0D2F800212E
:102BF000142000F0CEF80021AF2000F0CAF808BD84
:102C00000014014070B504460D4605F1B0000021E6
:102C100000F0BFF8102141EA1410002100F0B9F8CB
:102C200004F00F00002100F0B4F870BD2DE9F0476A
:102C300007460E469046994600250024A8F120003C
:102C4000C5B27F2F02DD0027B01CC6B2B9F1100F4C
:102C500024D131463846FFF7D5FF002408E004EBC5
:102C60000511194A505C012100F093F8601CC4B2B0
:102C7000082CF4DB701CC1B23846FFF7C3FF0024F8
:102C800009E004EB051108310F4A505C012100F006
:102C900080F8601CC4B2082CF3DB12E031463846E1
:102CA000FFF7B0FF00240AE005EB4501074A02EBFD
:102CB0004101085D012100F06CF8601CC4B2062CD3
:102CC000F2DBBDE8F0870000765300084E510008A3
:102CD0002DE9FF5F074691461E460E9D4FF0000A04
:102CE000002435E0301B401EC1B20A2001F052F929
:102CF000B9FBF0F00A21B0FBF1F201FB1208BAF1C6
:102D0000000F14D1701EA04211DDB8F1000F0CD1DC
:102D1000AB4605EBDB71491001FB0471C8B22B46D1
:102D200020220199FFF782FF10E04FF0010AAB4625
:102D300005EBDB71491001FB0471C8B208F13001E9
:102D4000CAB22B460199FFF771FF00BF601CC4B2E5
:102D5000B442C7DBBDE8FF9F2DE9F04104460F46B2
:102D60001546984600260FE0AA5D434639462046A0
:102D7000FFF75CFF04F10800C4B2782C02DD0024E8
:102D8000B81CC7B2701CC6B2A85D0028ECD1BDE863
:102D9000F08170B504460D461DB1E0B200F0FCFCB8
:102DA00002E0E0B200F0E2FC70BD00000A480B490E
:102DB00008600B4848600B48886007480A4908606B
:102DC000074848600748886008480949086009487A
:102DD000486009488860704766661E409C00002075
:102DE000295C0F3D0AD7A33CB8000020CDCCCC3ED7
:102DF000D4000020CDCCCC3D0AD7233C7047000046
:102E000029B1064A52690243044B5A6104E0034A5D
:102E100052698243014B5A61704700000010024022
:102E200029B1064AD2690243044BDA6104E0034A3D
:102E3000D2698243014BDA61704700000010024002
:102E400029B1064A12690243044B1A6104E0034A9D
:102E500012698243014B1A61704700000010024062
:102E600029B1064A92690243044B9A6104E0034A7D
:102E700092698243014B9A61704700000010024042
:102E800029B1064AD2680243044BDA6004E0034ADF
:102E9000D2688243014BDA607047000000100240A4
:102EA00030B500210022002400232D4D6D6805F06F
:102EB0000C0121B1042905D0082923D105E0294DB1
:102EC000056022E0274D05601FE0254D6D6805F483
:102ED0007012234D6D6805F48034022505EB924293
:102EE0001CB9214D554305600BE01D4D6D6805F47F
:102EF00000351DB11C4D5543056002E0194D554389
:102F0000056002E0174D056000BF00BF144D6D68FD
:102F100005F0F0010909154D6B5C0568DD40456061
:102F20000F4D6D6805F4E061090A104D6B5C456852
:102F3000DD4085600A4D6D6805F46051C90A0B4D8E
:102F40006B5C4568DD40C560054D6D6805F440412A
:102F5000890B074D6B5CC568B5FBF3F5056130BDAA
:102F60000010024000127A0000093D0030000020ED
:102F70004000002000B587B001210420FFF770FF5A
:102F800001214804FFF74CFF374800F08FFA082072
:102F9000ADF8180004208DF81B0006A93348FFF790
:102FA000ADFA334802900020ADF80C00ADF80E00E9
:102FB0004FF48060ADF810000020ADF814000C2034
:102FC000ADF8120002A9284800F0F0FA01212648C5
:102FD00000F056FA01210846FFF712FF00224021B7
:102FE000214800F059FA2348FFF7A4F91E48001DB4
:102FF0002149086021484860002088601220C8608C
:10300000002008618020486100208861C86120207C
:1030100008624FF440504862002088621548FFF76C
:103020004EFA4FF40010FFF75DF90122022111481A
:10303000FFF73CFA012240210B4800F02DFA102046
:103040008DF8040002208DF805008DF8060001209F
:103050008DF8070001A8FFF7EBFC01210548FFF7F9
:103060005DF907B000BD00000044004000080140C9
:10307000A08601006C0002400C010020F00000203E
:1030800000B970470178427841EA0221C1F30A0190
:10309000144A11804178C910827841EA4211C1F383
:1030A0000A01104A518081788911C27841EA82016F
:1030B000027941EA8221C1F30A010A4A9180017929
:1030C0004910427941EAC211C1F30A01054AD1808F
:1030D00041790911890811724179C1F301115172C5
:1030E00000BFCEE702010020704710B500F002F8E3
:1030F00010BD00000CB5002001900090334800681E
:1031000040F480303149086000BF3048006800F466
:10311000003000900198401C0190009818B9019867
:10312000B0F5A06FF1D12948006800F4003010B16B
:103130000120009001E0002000900098012843D178
:103140002348006840F010002149086008460068E4
:1031500020F0030008600846006840F002000860A4
:103160001A4840681949486008464068486008465F
:10317000406840F4806048600846406820F47C1055
:1031800048600846406840F4E81048600846006817
:1031900040F08070086000BF0C48006800F00070CC
:1031A0000028F9D00948406820F00300074948602A
:1031B0000846406840F00200486000BF034840688D
:1031C00000F00C000828F9D10CBD000000100240EE
:1031D0000020024070B586B006460C4615464FF4F6
:1031E0000070019000208DF80C008DF80D00082073
:1031F0008DF80E006042000A8DF80F006042C1B2E7
:103200008DF81010290A8DF811108DF8125001A9AF
:103210003046FEF729FE06B070BD00000248006887
:10322000401C0149086070472C00002010B513486D
:10323000006840F0010011490860084640681049E4
:1032400008400E494860084600680E4908400B498E
:1032500008600846006820F480200860084640683E
:1032600020F4FE0048604FF41F008860FFF73DFF28
:103270004FF000600449086010BD000000100240DB
:103280000000FFF8FFFFF6FE08ED00E010B5012199
:10329000064800F088F838B10121044800F074F8BD
:1032A00000F0ACFAFEF770FF10BD0000000C00400B
:1032B0007FB505460C4601210820FFF7B1FDADF8AA
:1032C0000850ADF804400020ADF80A00ADF8060043
:1032D00001A90E4800F082F8012211460B4800F0C7
:1032E00073F832208DF8000001208DF801000320D2
:1032F0008DF8020001208DF803006846FFF798FB67
:103300000121024800F043F87FBD0000000C00409E
:1033100010B50121044800F046F818B10121024817
:1033200000F032F810BD0000001000407FB50546E7
:103330000C4601211020FFF773FDADF80850ADF8E1
:1033400004400020ADF80A00ADF8060001A90D48C0
:1033500000F044F8012211460A4800F035F8362002
:103360008DF8000002208DF801008DF80200012088
:103370008DF803006846FFF75BFB0121014800F070
:1033800006F87FBD00100040CA430282704721B199
:10339000028842F00102028004E002884FF6FE73C8
:1033A0001A400280704730B50246002000230024F6
:1033B000158A05EA0103958905EA010413B10CB1E8
:1033C000012000E0002030BD1AB183890B438381C6
:1033D00002E083898B4383817047000000220288CA
:1033E0001D4B98420ED01D4B98420BD0B0F1804F30
:1033F00008D01B4B984205D01A4B984202D01A4B6A
:10340000984204D14FF68F731A404B881A43174BDA
:10341000984207D0164B984204D04FF6FF431A400B
:10342000CB881A4302808B8883850B8803850A4BDF
:1034300098420BD0094B984208D00E4B984205D0C9
:103440000D4B984202D00D4B984201D10B7A038666
:103450000123838270470000002C014000340140AA
:103460000004004000080040000C00400010004034
:103470000014004000400140004401400048014069
:1034800021B1828942F40052828104E082894DF6A2
:10349000FF731A40828170471AB1838A0B4383827B
:1034A00002E0838A8B4383827047000010B5044694
:1034B0002048844209D101218803FFF7E1FC002163
:1034C0004FF48040FFF7DCFC32E01B48844209D116
:1034D00001214804FFF7B4FC00214FF40030FFF74E
:1034E000AFFC25E01548844209D101218804FFF78B
:1034F000A7FC00214FF48020FFF7A2FC18E0104841
:10350000844209D10121C804FFF79AFC00214FF43D
:103510000020FFF795FC0BE00A48844208D1012106
:103520000805FFF78DFC00214FF48010FFF788FCA1
:1035300010BD000000380140004400400048004039
:10354000004C00400050004002460020B1F5007FD2
:1035500000D100BF13880B400BB1012000E0002018
:103560007047F0B50346002400260025002040F6F1
:103570006A17B94200D100BF1846C1F3421401F0E6
:103580001F06012707FA06F5012C01D10C3004E0D3
:10359000022C01D1103000E014301AB107682F431B
:1035A000076002E00768AF430760F0BD2DE9F04710
:1035B00086B005460E460024A24600BFA14600275D
:1035C000B08900B100BF2F462C8A4CF6FF70044032
:1035D000F08804432C82AC894EF6F3100440B08886
:1035E00031890843718908430443AC81AC8A4FF6A2
:1035F000FF400440B0890443AC8201A8FFF750FCAF
:103600001F48874202D1DDF810A001E0DDF80CA0D0
:10361000A88900F4004040B10AEBCA0000EB0A1090
:1036200031684900B0FBF1F807E00AEBCA0000EB93
:103630000A1031688900B0FBF1F86420B8FBF0F0A3
:1036400004012009642101FB1089A88900F40040CD
:1036500040B1322000EBC900B0FBF1F000F00700F0
:10366000044308E0322000EB09106421B0FBF1F0C4
:1036700000F00F0004432C8106B0BDE8F087000085
:1036800000380140C1F308028280704710B5012163
:103690000448FEF7C5F918B101210248FEF7E8F821
:1036A00010BD00000064004000B585B0022116483E
:1036B000FEF7B6F928B302211348FEF7D9F86A4697
:1036C00000211148FEF758FB0098A0F2012010B12C
:1036D000012815D10AE09DF80E109DF80D0041EA71
:1036E0000020404200B20949088009E09DF80E1010
:1036F0009DF80D0041EA002000B20549088000BF96
:1037000000BF05B000BD0000006400404400002080
:103710004800002000BFFEE72DE9F04105462C4699
:1037200040211148FEF7C7FF002619E0274607F0A1
:103730008007802F04D180210B48FEF7BEFF03E0F5
:1037400080210948FEF7B7FF6006040E40210648B5
:10375000FEF7B3FF40210448FEF7ADFF701CC6B270
:10376000082EE3DBBDE8F0810014014010B50446EB
:10377000FFF720F87820FFF7CFFFFFF73FF8002092
:10378000FFF7CAFFFFF73AF82046FFF7C5FFFFF73C
:1037900035F8FFF723F810BD10B50446FFF70AF817
:1037A0007820FFF7B9FFFFF729F84020FFF7B4FFB3
:1037B000FFF724F82046FFF7AFFFFFF71FF8FFF7EA
:1037C0000DF810BD490050EAC12018BF04204A0D71
:1037D00018BF40F0010040F2FF72B2EB515F08BF2A
:1037E00040F00200012808BF0520704730380A2841
:1037F00001D2012070470020704700002DE9FC47EE
:1038000000250026A946AA4613243BE0012C17D127
:1038100047480088474921F81400454841884548F1
:10382000283020F81410424881884248503020F84F
:1038300014103F48C1883F48783020F814101FE02A
:10384000601E3C4931F8100021F81400601E283138
:1038500031F810103748283020F81410601E354910
:10386000503131F810103348503020F81410601ED9
:103870003049783131F810102E48783020F8141083
:10388000601EC4B2002CC1DC012414E0294830F8C9
:10389000140005442748283030F814000644254811
:1038A000503030F8140081442248783030F8140049
:1038B0008244601CC4B2142CE8DB284600F012FFDE
:1038C000074600221C4B00F005FDCDE9000100F089
:1038D000C5FE1A490880304600F004FF0746002262
:1038E000154B00F0F7FCCDE9000100F0B7FE1349DD
:1038F0004880484600F0F6FE074600220E4B00F0D6
:10390000E9FCCDE9000100F0A9FE0C498880504691
:1039100000F0E8FE07460022074B00F0DBFCCDE993
:10392000000100F09BFE0549C880BDE8FC8700004F
:103930007A0000203801002000003340820000207F
:10394000044A1268111800BF024A12688A42FBD367
:10395000704700002C0000202DE9F05F04460D4662
:10396000DFF838A000220E4B2046294600F00AFF5F
:10397000804600F0C9FB83460A49584601F0A4FA84
:103980008146514601F0AAF9804601F019F9064630
:103990000F4630463946BDE8F09F00003BEF303E11
:1039A00000004E400000984130B5002015490860E5
:1039B000154800684FF47A72B0FBF2F1B1F1807FE4
:1039C00000D31DE021F07F40401E4FF0E022506107
:1039D00050170F22002807DA13071D0E0B4B00F0BB
:1039E0000F04241F1D5503E013071C0E084B1C5425
:1039F00000BF00204FF0E02290610720106100BF5F
:103A000030BD00002C0000201800002018ED00E060
:103A100000E400E000B591B001210820FFF720FA92
:103A200001218804FFF7FCF93D48FFF73FFD4FF403
:103A30000060ADF82C0004208DF82F000BA9394848
:103A4000FEF75CFD4FF48060ADF82C0003208DF88C
:103A50002E0018208DF82F000BA93248FEF74EFDDE
:103A60004FF4E1300D900020ADF83800ADF83A0089
:103A7000ADF83C00ADF840000420ADF83E000DA9C3
:103A80002748FFF793FD01212548FFF7F9FC0121A5
:103A90000846FFF7B5F9002240212148FFF7FCFC5A
:103AA0002148FEF747FC1E48001D00901F4801906A
:103AB00000200290082003900020049080200590B0
:103AC00000200690079020200890C0010990002057
:103AD0000A9069461448FEF7F2FC4FF40070FEF7B6
:103AE00001FC012202211048FEF7E0FC01224021E6
:103AF0000B48FFF7D1FC0D208DF8300002208DF827
:103B0000310003208DF8320001208DF833000CA81D
:103B1000FEF78EFF01210448FEF700FC11B000BD46
:103B200000480040000C0140300002406A000020C4
:103B300010B5044600201F490880A0780988084372
:103B40001C490880E0784FF47F4101EA00201949C0
:103B50000988084317490880002017490880207900
:103B6000098808431449088060794FF47F4101EACD
:103B700000201149098808430F4908800846008839
:103B8000142816DD08460088B0F5FA6F11DA0948E6
:103B900000881E280DDB07480088B0F5966F08DC0A
:103BA00004480088054908800846018804A000F000
:103BB0004DFA10BD74000020760000201400002093
:103BC00025640A0008B501210846FFF749F90121DB
:103BD000D048FEF71FFDFFF729FBFFF7E5FE4FF486
:103BE000A060FEF75DFF4FF4E13000F0DFF9FEF773
:103BF0003BF8FEF7CBFEFFF7BDF9FEF77BFFFFF7C3
:103C000009FF4FF4E13000F0D1F9FFF7CFF8FEF7EC
:103C100001FEFEF74FFF40F2E7312320FFF748FB9C
:103C200042F20F7140F26710FFF780FB71E1BA4872
:103C3000007830B100221346B84903C900F0A2FC55
:103C400072D1B748007801286FD11023B5A20021A6
:103C50000846FFF781F8102003230090B24802784D
:103C600000211020FFF734F81023B0A20221002019
:103C7000FFF772F8102003230090AD48027802216C
:103C80001020FFF725F81023AAA204210020FFF737
:103C900063F8102003230090A74802880421102015
:103CA000FFF716F81023A5A206210020FFF754F80D
:103CB0000022A34B994903C900F064FD054600F0BA
:103CC0009DFC041E4FF01000009001DB204600E038
:103CD00060420246032306211020FEF7F9FF10235D
:103CE00098A200213220FFF737F89748B0F900403A
:103CF00010200090002C01DB204600E060420246CC
:103D0000042300214C20FEF7E3FF10238FA20221A1
:103D10003220FFF721F88E48B0F9004010200090C3
:103D2000002C03DB204602E0BFE056E06042024682
:103D3000042302214C20FEF7CBFF102385A204218F
:103D40003220FFF709F810200090834802880423EE
:103D500019464C20FEF7BCFF102380A2062132201A
:103D6000FEF7FAFF102000907B48428804230621CA
:103D70004C20FEF7ADFF0020FEF760FD784908708B
:103D800008460078012804D10021644A116051607E
:103D90008BE073480078052808D1724A724B5F495E
:103DA00003C900F0E3F95D4A03C27EE06C48007885
:103DB000032808D16B4A6C4B584903C900F016FE22
:103DC000564A03C271E06648007804286DD1FEF7B8
:103DD00071FE02205249087067E0102363A200219F
:103DE0000846FEF7B9FF10200090614802880423BE
:103DF00000211920FEF76CFF10235EA20221002093
:103E0000FEF7AAFF1020009059484288042302219F
:103E10001920FEF75DFF102357A204210020FEF7B2
:103E20009BFF1020009052488288042319461920D5
:103E3000FEF74EFF102351A206210020FEF78CFF53
:103E4000102000904A48C288042306211920FEF75A
:103E50003FFF10234AA200215020FEF77DFF1020D3
:103E600000904348027A012300216A20FEF730FFC8
:103E7000102344A202215020FEF76EFF1020009074
:103E80003B48427A012302216A20FEF721FF0020ED
:103E9000FEF7D4FC3249087008460078022804D1A5
:103EA000FEF708FE01201E4908703748007830B33D
:103EB00000213648FFF76BFA00221346174903C961
:103EC00000F05EFD08D2274A314B144903C900F0C7
:103ED0008DFD124A03C20EE0002213460F4903C9AA
:103EE00000F014FC07D21F4A294B0C4903C900F00B
:103EF0003DF90A4A03C201200749087009E0064853
:103F0000007830B101212148FFF741FA0020024931
:103F100008708CE600023000100000200000002035
:103F200016000020580000000B000020590000007F
:103F30000C00002044000000140000205600000087
:103F4000000059404D310000440000204D32000077
:103F50004800002048310000820000204832000064
:103F6000110000209A9999999999B93F433000001E
:103F700002010020433100004332000043330000BF
:103F800053310000533200000900002000100040AF
:103F90009999A93F10B50246012000E050430B005B
:103FA000A1F10104E1B2F9D110BD000010B586B055
:103FB0000446012144F20400FEF752FF4FF4007062
:103FC000ADF8140003208DF8160018208DF81700A6
:103FD00005A91C48FEF792FA4FF40060ADF81400F2
:103FE00004208DF8170005A91648FEF787FA0194FA
:103FF0000020ADF80800ADF80A00ADF80C00ADF8EF
:1040000010000C20ADF80E0001A90F48FFF7CEFA02
:1040100025208DF8000000208DF8010001208DF88A
:1040200002008DF803006846FEF702FD012240F20F
:1040300025510548FFF795FA01210348FFF720FABB
:1040400006B010BD00080140003801400FB400B5B3
:10405000C1B043A840906846409A4299FCF72CF9B9
:1040600000204090684600F003F841B05DF814FB72
:1040700070B50546002403E0285D00F007F8641CD5
:104080002846FCF72BF9A042F6D870BD10B50446BF
:1040900021460648FFF7F6FA00BF80210348FFF7E4
:1040A00053FA0028F9D0012010BD0000003801406B
:1040B00010B500290AD00878002807D005487844B0
:1040C000FCF7C0FF002801D0002010BD0248784452
:1040D00010BD0000A21900009A19000010B50029B7
:1040E0000AD00878002807D005487844FCF7AAFFD2
:1040F000002801D0002010BD0248784410BD000007
:10410000921900008A19000021F00042A2F16052C9
:10411000B2F5801F01F0004328BFD2F17F6C0BD9AC
:104120005FEA001C43EAC20242EB507018BF7047BE
:1041300028BF20F001007047B2F5801FBCBF1846B1
:1041400070474FEA410C1CF5001F02D2084600F0F0
:1041500082BF70B500F0C0FB00000089FFF7F6BF1A
:104160004FF00040A0F580007047000010B591EAC4
:10417000030F48BF83F0004300F14084841A71EBC1
:10418000030C05D2121943EB0C03001B61EB0C016D
:10419000DFF824E14FEA1154A4EB135C1EEA430F4D
:1041A00018BF9EEA445F73D023EA0E03DCF1200EB1
:1041B00021EA045143F4801332D322FA0CFE10EBAF
:1041C0000E0023FA0CFE41EB0E01CCF1200E03FA97
:1041D0000EFE10EB0E0051F10001B1F5801FCCF185
:1041E000200E32D201EB045112FA0EF2BDE810405B
:1041F00058BF7047401C38BF5FEA420218BF704783
:10420000002814BF20F0010041F100014FEA4103F2
:1042100013F5001F38BF7047A1F1C04100F0AABBE1
:10422000012A43EB0302ACF1200CDCF11F0E32BF7C
:104230004FF0000E23FA0CF310EB030041EB045196
:10424000B4EB115FD0D0A1EB045101F58011490806
:104250005FEA300001EB04510ED350F1000038BF8B
:1042600012FA0EFE08D1BDE81040C9E7401C38BF65
:104270005FEA4202CAD1C3E7BDE810404FEA4103FA
:1042800013F5001F38BF7047A1F1C04100F072BBA9
:104290009EEA445F08D011EA5E0FBDE8104004BFFB
:1042A00001F0004100207047BDE8104070B500F0FB
:1042B00013FB00BF64FBBE3E0000E0FF491058BF87
:1042C000C1F140415B1058BFC3F140438B42EFF353
:1042D000008070472DE9C04130B4DFF8A0C23CEA4D
:1042E000111418BF3CEA131400F0EC8081EA0305B6
:1042F0001CEA111444EAD57418BF1CEA131500F027
:10430000C780A4EB05044FF0004545EAC12145EA0A
:10431000C32341EA505143EA525304F17F74994256
:1043200004F500344FEAC0204FEAC22208BF904291
:1043300000F09C804FEA13650FF24016765D4FEA5D
:10434000134506FB05F7C7F1807706FB07F74FEA31
:10435000D737A7FB03687642C8F58038A7FB06CE9F
:1043600038BFA8F1010807FB08E64FF0000EA6FBD6
:10437000028CE6FB03CEDCF1000CCEF1004E38BF20
:10438000AEF1010EA6FB0C584FF000074FF00005F0
:10439000E6FB0E87A1FB08C6A0FB07CE16EB0E06B8
:1043A00045F10005E1FB076515F1E04E7EBFA4F580
:1043B00080345FEA46066D4116F1800745F100053D
:1043C0004FEA17274FEA066647EA0567A6F1DE4679
:1043D000B6F1805F4FEA15251FD9384624F0010C4D
:1043E00005EBC471BCF1FE6F01EB0C1102D8F0BCFF
:1043F000BDE8008124425CBF01F5801E9EEAC47FB7
:1044000002D4F0BCBDE80081244238D4F0BCA1F154
:10441000C041BDE8004100F0ADBA4FEAD22242EA05
:1044200043524FEAD323A7FB02864FEAD02040EA4B
:10443000415007FB03661EEA0E0F4FEAD12105FB30
:10444000026658BFA6EB0056B6EB00564FEA520E76
:104450004EEAC37E18EB0E0E56EB530EBDD518EB8D
:1044600002085E417F1C55F10005B6E74FF4801548
:104470004FF000074FF000064FF00008ADE7F0BC2A
:104480004FF0000001F1C04101F00041BDE80081A2
:1044900011EA0C1F0CEA131500D00CE013EA0C1FF4
:1044A00000F025804FF00000F0BC81EA030101F02C
:1044B0000041BDE80081F0BCBDE8004181EA030194
:1044C00000F058BAF0BCBDE8004170B500F004FA45
:1044D000097EFC3E00F007B881EA03014FF00000BE
:1044E00001F00041704781EA030100F043BAF0BCDB
:1044F000BDE800414FF0000021497047FFFDFBF986
:10450000F7F5F4F2F0EEEDEBE9E8E6E4E3E1E0DE06
:10451000DDDBDAD8D7D5D4D3D1D0CFCDCCCBCAC878
:10452000C7C6C5C4C2C1C0BFBEBDBCBBBAB9B8B79F
:10453000B6B5B4B3B2B1B0AFAEADACABAAA9A8A892
:10454000A7A6A5A4A3A3A2A1A09F9F9E9D9C9C9B60
:104550009A9999989797969595949393929191900B
:104560008F8F8E8E8D8C8C8B8B8A8989888887879C
:104570008685858484838382828181800000FF0711
:104580000000F87F51EA030C17D41CF5801F58BFB8
:10459000BCF5801F00F10680994218BF704708BF24
:1045A0009042704707D711F5801F58BF13F5801F41
:1045B00019D499427047894270471CF5801F08D56D
:1045C000BCF5801FF7D58B4218BF704708BF8242E9
:1045D00070474FF4001C1CEB410F38BF1CEB430F1E
:1045E00001D28B42704770B500F076F992244900F1
:1045F0004FF000514FF08053FFF760BE4FEA410388
:104600004FEA5353A3F58063D3F11E03C8BFD3F120
:10461000210C0CDD4FF0004242EAC12242EA505226
:1046200032FA03FC8CEAE17CACEBE1707047102BB2
:10463000C4BF0020704703F5787CBCF1FF3F04D075
:104640006FF0004282EA2100704770B500F044F933
:104650004992248000207047F2E700004FEA11538E
:10466000A3F58063D3F11E03A8BFD3F1200C08DBB0
:104670004FF0004242EAC12252EA505232FA03F0AD
:10468000704709420BD4102BC4BF0020704703F5BC
:10469000787CBCF1FF3F05D04FF0FF3070474FF002
:1046A0000000704770B500F017F900BF49922480F0
:1046B00000207047F0E710F0004248BF4042B0FAD7
:1046C00080F310FA03F10AD0C3F11D0303F58063F0
:1046D0004FEA415002EB035202EBD12170474FF0F9
:1046E00000007047B0FA80F310FA03F10AD0C3F16A
:1046F0001D0303F580634FEA41504FEA035202EB7A
:10470000D12170474FF000007047000051EA030CC0
:1047100017D41CF5801F58BFBCF5801F00F1068020
:10472000994218BF704708BF9042704707D711F5EC
:10473000801F58BF13F5801F19D4994270478942D2
:1047400070471CF5801F08D5BCF5801FF7D58B423C
:1047500018BF704708BF824270474FF4001C1CEB23
:10476000410F38BF1CEB430F01D28B42704770B52D
:1047700000F0B2F8922449004FF000514FF08053FE
:10478000FFF79CBDDFF848C170B51CEA111E1EBFC3
:104790001CEA13159EEA0C0F95EA0C0F00F06F80CF
:1047A00081EA030423EA4C134EEAD47E21EA4C1139
:1047B00041F4801143F48013AE44A1FB024CA0FBF2
:1047C0000365AEF17F7E361955EB0C05A1FB034C5A
:1047D0004CF10003A0FB021C16EB0C06654153F1E3
:1047E0000003094218BF46F0010613F4007F0BD105
:1047F0004FEA03314FEA0530340341EA155140EAEC
:1048000016506FF003020AE04FEAC3214FEAC520B9
:10481000F40241EA555140EA56506FF0020202EBB1
:104820002E4201EB025585EACE710AD05FEA440CB4
:1048300018BF24F0004450F1000041F1000120EACB
:10484000D47040F2FE7C624500D270BDA84214BF15
:104850004FF080444FF04044002E08BF0024BEF1CA
:10486000806FA8BFA1F1C041BDE8704080F2828096
:104870004FF0000001F1C04101F0004170479EEA95
:104880000C0F0CEA131518BF95EA0C0F06D04FF069
:10489000000081EA030E0EF0004170BD00F01CF82C
:1048A0008900013E00F007B800F009B84FEA430C58
:1048B0005FEA5C5C08D081EA030100F05BB84FEA74
:1048C000410C5FEA5C5CF6D14FF000000149704793
:1048D0000000FF070000F87F0EF1020E2EF0030E1D
:1048E0005EF8046B364205D4012A43EB030515F547
:1048F000001F12D8012841EB010C1CF5001F0CD839
:104900000ED14FEAD17C15F5001F0CEB4C0C0CF1CD
:10491000020C08BF4CEBD37C04E04FF0080C01E024
:104920004FEAD37C0CEB4C0526FA05F606F0070699
:10493000B6F1040C06D20EEB860CBDE870404CF0CC
:10494000010C6047DFE80CF0090B02024FF0004158
:104950004FF00000A1F5002170BD19461046012856
:1049600051EB010418BFD4F5001484BF002001F0FE
:10497000004170BD0808A0F500114FEA31017047F1
:1049800053EA010C17D41CF5801F58BFBCF5801FDB
:1049900000F106808B4218BF704708BF8242704703
:1049A00007D713F5801F58BF11F5801F19D48B420C
:1049B00070479B4270471CF5801F08D5BCF5801FCF
:1049C000F7D5994218BF704708BF904270474FF41F
:1049D000001C1CEB430F38BF1CEB410F01D2994266
:1049E00070470FB40CBC03BCFFF7C1BE10B591EA11
:1049F000030F48BF83F000433FF5C0AB841A71EB4F
:104A0000030C07D212198CF0004C43EB0C03001B73
:104A100061EB0C01DFF8A4E14FEA1154A4EB135C45
:104A20001EEA430F18BF9EEA445F00F0B08023EAFD
:104A30006E03524221EA0451C3EB6E0338BF5B1E82
:104A4000DCF1200E25D322FA0CFE10EB0E0043FA07
:104A50000CFE41EB0E01CCF1200E03FA0EFE10EB22
:104A60000E0051F10001CCF1200E29D412FA0EF201
:104A700001EB0451BDE8104058BF7047401C1CBFFB
:104A8000B2F1004F704700280CBF491C20F0010014
:104A9000704712EB020E43EB030218BF4FF0010EFA
:104AA0004EEA4202ACF1200CDCF11E0E54D943FA5E
:104AB0000CFE10EB0E0051F1FF31CCF11E0ED5D5DE
:104AC0000EF1010E12FA0EFE404141EB010101EB25
:104AD000445C5FEA5C5C10D910EBDE7001EB0451C2
:104AE00038BFBEF1004FBDE8104018BF7047002826
:104AF0000CBF491C20F00100704730D24FEAD42C83
:104B000011F5001124F400641BD0B1FA81F20B3AC4
:104B1000A41AA41ED2F12003914030FA03F31943E2
:104B2000904001EBCC71002C01EB0451BDE810402A
:104B3000A8BF704701F1C0414FF0000001F00041F3
:104B40007047B0FA80F310FA03F100D110BDE41AF7
:104B5000173C4805C90AE4E701EB045110BD4910B0
:104B600001EB0451BDE810404FEA300002E04FF085
:104B7000000170474A0008BF0042F8D0B2F5001F9C
:104B800028BF704701F000414FF0000070479EEAD7
:104B9000445F07D011EA5E0FBDE8104004BF00215A
:104BA00000207047BDE8104070B5FFF795FE00BFCC
:104BB00040DFF63E83F00041104670470000E0FF02
:104BC00043004FEAD30C4FEA3C0C43401FBF400761
:104BD0000CF1605113F0FE4F70471CF0006F03D1D1
:104BE00000200CF0004170470CF0004343EA507085
:104BF00010B540EACC0000F0E8F900BF00000092D8
:104C00004FEA0001FFF7B6BE4FF000414FF0000041
:104C1000A1F500217047000090EA010F48BF81F024
:104C2000004100F12482421A3CBF801A89184FEAE1
:104C3000D0524FF07F4C1CEA410FA2EBD15318BF6A
:104C40009CEA026F00F03B804FF0004C4CEA0020E1
:104C50004CEA012121FA03FC10EB0C0C1ED202F1EC
:104C6000FF325FEA1C2040EBC25038BF70471CF097
:104C70007F0F4FEA400C18BFBCF17F4F38BF704721
:104C8000C3F12003994008BF20F00100BCF17F4F21
:104C900038BF7047A0F1C04000F0DDB94FEA3C00DA
:104CA000000A40EBC25028BF1CF0FF0F4FEA400C37
:104CB000E6D018BFBCF17F4F38BF7047EAE79CEAE7
:104CC000026F05D010EA5C0F08BF00F0004070478B
:104CD00010B500F07AF900BF64FBBE3E4FF47F0CC4
:104CE0001CEAD0121EBF1CEAD11392EA0C0F93EA01
:104CF0000C0F00F0858090EA010F48BF42F48072EB
:104D000040F4000C41F400002CF07F4120F07F4083
:104D100000B58142A2EB03020FF2081CACEB504E2F
:104D2000C0F100009EF800E04FEA4E0E00FB0EFCC2
:104D300038BF49004FEA2C1C02F5FA020CFB0EF3B7
:104D40004FEACE1E4FEA112C4FEAC1210EEB635EF3
:104D500042EB22420EFB0CFC4FEA1C5300FB0311FA
:104D60004FEA112C4FEA01310EFB0CFC4FEADC4CF0
:104D700000FB0C11C14228BF09184CEB03335DF84E
:104D800004EB10EB410143EBC250B2F57C0F38BF8E
:104D9000704729D512F0F00F1CBF00F1C04000F0A1
:104DA00000407047008182838485868788898B8C48
:104DB0008D8E8F919293959697999A9C9D9FA0A284
:104DC000A3A5A7A8AAACAEB0B2B3B5B7B9BCBEC0D4
:104DD000C2C5C7C9CCCED1D4D7D9DCDFE2E6E9EC75
:104DE000F0F3F7FAFE0000004FEA400C0CF1807C73
:104DF000BCF17E4F28BF7047B0F1C04000F02BB926
:104E000090EA010F0CEAD11348BF42F48072624568
:104E100038BF634507D213F47F0F16D080EA010034
:104E200000F00040704710B500F0CFF8097EFC3E5E
:104E300000F005B880EA010000F00040704780EA09
:104E4000010000F0004000F006B912F47F0F04BF2B
:104E50000248704780EA010000F0FDB80000C07F02
:104E600041000B0ED3F19E0208D950F400034FEA23
:104E7000032323FA02F048BF4042704710B500F008
:104E8000A4F800BF49922480002070476FF00042D0
:104E900082EA20007047000010F0004148BF404205
:104EA000B0FA80F310FA03F2C3F19D030BD051EA7C
:104EB000C35101EB1220530638BF704700F10100C7
:104EC00008BF20F0010070474FF47F0C1CEAD0129D
:104ED0001EBF1CEAD11392EA0C0F93EA0C0F00F0EC
:104EE000478090EA010F48BF42F480724FF0004CB7
:104EF0004CEA00204CEA012102EB0302A0FB011363
:104F0000A2F50002002918BF43F001035B0028BF8F
:104F10004FEA330342EB22425FEA132C4CEBC250C0
:104F20002EBFBCEB436FB2F57C0F70474FEA036CAA
:104F3000BCF1004F08BF20F00100B2F57C0F38BF74
:104F400070470BD582F0FF0212F5803FC8BF704753
:104F500000F1C040D8BF00F00040704700F5000CE1
:104F60005FEA4C0C48BF7047B0F1C04000F073B826
:104F700090EA010F0CEAD11348BF42F480726245F7
:104F800038BF634504D280EA010000F0004070475A
:104F900010B500F01AF800BF8900013E00F007B814
:104FA00000F009B85FEA410C5FEA1C6C08D080EAA7
:104FB000010000F050B85FEA400C5FEA1C6CF6D1CB
:104FC0004FF00040A0F5800070470EF1020E2EF069
:104FD000030E5EF8044B244204D44FEA4102B2F1BE
:104FE0007F4F11D84FEA4003B3F17F4F0CD80ED159
:104FF0004FEAD07CB2F17F4F0CEB4C0C0CF1020C61
:1050000008BF4CEBD17C04E04FF0080C01E04FEA04
:10501000D17C0CEB4C0324FA03F404F00704B4F144
:10502000040C06D20EEB840CBDE810404CF0010CD1
:105030006047DFE80CF0070802024FF00040A0F5DF
:10504000800010BD0846420018BFD2F1807288BFB0
:1050500000F0004010BDFF2141EAD050C00570476C
:1050600090EA010F48BF81F000413FF5DCAD421AE4
:1050700004D882F00042A0EB020011444FEAD05263
:105080004FF07F4C1CEA410FA2EBD15318BF9CEAB2
:10509000026F4AD04FF0004C4CEA00204CEA01214C
:1050A00021FA03FCB0EB0C0C0FD412F0FE0F36D03B
:1050B0005FEA4C001DD5001240EBC25038BF70476C
:1050C0001CF03F0F18BF70470BE0A2F101025FEA2E
:1050D0001C2040EBC25038BF70471CF07F0F18BF38
:1050E0007047C3F12003994014BF401E20F0010017
:1050F000704780084FEA122308BF7047B0FA80FC5F
:10510000A2EB0C02CCF1280C60FA0CF093EA122FFF
:1051100004BF00EBC25070474FEAC3707047130AD8
:105120005FEADC1008BF7047F6E79CEA026F04D024
:1051300010EA5C0F08BF0020704710B5FFF745FF6D
:1051400040DFF63E81F000407047FBF710BD0000E5
:10515000000000000000002F000000000700070012
:1051600000147F147F1400242A7F2A12006264082E
:1051700013230036495522500000050300000000AB
:105180001C224100000041221C000014083E0814AB
:105190000008083E0808000000A060000008080899
:1051A0000808000060600000002010080402003EB3
:1051B0005149453E0000427F40000042615149464E
:1051C000002141454B31001814127F10002745453E
:1051D0004539003C4A494930000171090503003650
:1051E0004949493600064949291E00003636000063
:1051F0000000563600000008142241000014141468
:105200001414000041221408000201510906003262
:105210004959513E007C1211127C007F49494936A0
:10522000003E41414122007F4141221C007F49490B
:105230004941007F09090901003E4149497A007F3F
:105240000808087F0000417F4100002040413F01E5
:10525000007F08142241007F40404040007F020C44
:10526000027F007F0408107F003E4141413E007FE5
:1052700009090906003E4151215E007F09192946AE
:105280000046494949310001017F0101003F40408A
:10529000403F001F2040201F003F4038403F006338
:1052A000140814630007087008070061514945435A
:1052B00000007F41410000552A552A550000414118
:1052C0007F00000402010204004040404040000012
:1052D00001020400002054545478007F48444438AC
:1052E00000384444442000384444487F0038545433
:1052F000541800087E0901020018A4A4A47C007FB1
:10530000080404780000447D4000004080847D0053
:10531000007F102844000000417F4000007C0418FA
:105320000478007C0804047800384444443800FCC5
:10533000242424180018242418FC007C08040408E1
:1053400000485454542000043F444020003C404056
:10535000207C001C2040201C003C4030403C00448D
:1053600028102844001CA0A0A07C004464544C4495
:1053700014141414141400000000000000000000B5
:10538000000000000000000000F800000000000025
:1053900000333000000000100C06100C0600000066
:1053A00000000000000040C07840C0784000043F8A
:1053B00004043F040400007088FC0830000000185A
:1053C00020FF211E0000F008F000E018000000217E
:1053D0001C031E211E0000F00888700000001E2122
:1053E00023241927211010160E00000000000000D1
:1053F000000000000000000000E0180402000000AF
:1054000000071820400000020418E00000000040DF
:10541000201807000000404080F080404000020259
:10542000010F01020200000000F000000000010175
:10543000011F01010100000000000000000080B019
:1054400070000000000000000000000000000001EB
:105450000101010101010000000000000000003016
:1054600030000000000000000000806018040060B0
:1054700018060100000000E010080810E000000F0E
:10548000102020100F00001010F800000000002075
:10549000203F2020000000700808088870000030BD
:1054A0002824222130000030088888483000001865
:1054B000202020110E000000C02010F8000000077E
:1054C0000424243F240000F80888880808000019F4
:1054D000212020110E0000E0108888180000000F25
:1054E000112020110E0000380808C83808000000FC
:1054F000003F000000000070880808887000001C51
:10550000222121221C0000E010080810E000000009
:10551000312222110F00000000C0C0000000000076
:10552000003030000000000000800000000000009B
:105530008060000000000000804020100800000192
:105540000204081020004040404040404000040455
:10555000040404040400000810204080000000201F
:10556000100804020100007048080808F00000005C
:10557000003036010000C030C828E810E0000718ED
:10558000272423140B000000C038E0000000203C5A
:1055900023020227382008F8888888700000203FFE
:1055A000202020110E00C030080808083800071815
:1055B00020202010080008F808080810E000203F0C
:1055C000202020100F0008F88888E8081000203FED
:1055D00020202320180008F88888E8081000203FC1
:1055E000200003000000C030080808380000071839
:1055F0002020221E020008F808000008F808203FBA
:10560000210101213F20000808F8080800000020BF
:10561000203F2020000000000808F8080800C08093
:1056200080807F00000008F888C028180800203F0C
:1056300020012638200008F8080000000000203F64
:1056400020202020300008F8F800F8F80800203F5B
:10565000003F003F200008F830C00008F808203F55
:10566000200007183F00E01008080810E0000F10A5
:10567000202020100F0008F808080808F000203F3C
:10568000210101010000E01008080810E0000F18D7
:10569000242438504F0008F8888888887000203FFC
:1056A0002000030C302000708808080838000038FB
:1056B000202121221C00180808F808081800000002
:1056C000203F2000000008F808000008F808001F2C
:1056D000202020201F000878880000C8380800001B
:1056E00007380E010000F80800F80008F800033C35
:1056F0000700073C030008186880806818082030FD
:105700002C03032C30200838C800C83808000000DB
:10571000203F2000000010080808C8380800203882
:10572000262120201800000000FE020202000000D6
:10573000007F40404000000C30C00000000000002E
:1057400000010638C00000020202FE000000004016
:1057500040407F000000000004020202040000003C
:105760000000000000000000000000000000808039
:105770008080808080800002020400000000000021
:105780000000000000000000808080800000001900
:10579000242222223F2008F8008080000000003FE1
:1057A000112020110E000000008080800000000EFB
:1057B000112020201100000000808088F800000ED9
:1057C000112020103F200000808080800000001FFA
:1057D000222222221300008080F08888881800206E
:1057E000203F202000000000808080808000006B2F
:1057F00094949493600008F8008080800000203F1B
:10580000210000203F200080989800000000002028
:10581000203F20200000000000809898000000C079
:105820008080807F000008F8000080808000203F9A
:1058300024022D302000000808F80000000000209D
:10584000203F202000008080808080808000203FDA
:1058500020003F20003F8080008080800000203FAB
:10586000210000203F200000808080800000001F79
:10587000202020201F00808000808000000080FF0A
:10588000A12020110E000000008080808000000E0A
:10589000112020A0FF808080800080808000202058
:1058A0003F212000010000008080808080000033C4
:1058B000242424241900008080E08080000000005F
:1058C000001F202000008080000000808000001F5A
:1058D000202020103F2080808000008080800001F8
:1058E0000E300806010080800080008080800F302C
:1058F0000C030C300F0000808000808080000020AE
:10590000312E0E31200080808000008080808081D8
:105910008E70180601000080808080808000002149
:10592000302C2221300000000000807C02020000A8
:105930000000003F404000000000FF0000000000A9
:105940000000FF0000000002027C80000000004018
:10595000403F0000000000060101020204040000B4
:105960000000000000000000000000000000000037
:105970003031323334353637383941424344454685
:10598000403058003031323334353637383961627F
:105990006364656640307800040000080000000081
:1059A00000000002000100001000000002400000A2
:1059B000000000A00000000005400000000000C83A
:1059C000000000000C4000000000409C00000000AF
:1059D000194000000020BCBE000000003440000060
:1059E000BFC91B8E00000004B5400000504BCFD053
:1059F0006607E2CF010000006C4100003E8251AA20
:105A0000DFEEA73401000000D9420000DCB5A0E2BF
:105A10003A301F97FFFFFFFFB4450000FD25A0C8E7
:105A2000E9A3C14FFFFFFFFFFF3F00000000008020
:105A300000000000FF3F00000000008000000000A8
:105A40008C5B0008000000209C0000006C01000836
:105A5000285C00089C0000209C07000088010008CA
:105A60001C00000043000000F8FFFFFF0C000000D6
:105A70000E0000000F0000002E00000010010000CA
:105A800043000000F8FFFFFF00404040404040401E
:105A90004040414141414140404040404040404001
:105AA00040404040404040404005020202020202A5
:105AB00002020202020202020220202020202020F4
:105AC0002020200202020202020290909090909008
:105AD00010101010101010101010101010101010C6
