:020000040800F2
:10000000F0070020CD010008CD1400087B0F000888
:10001000C91400087F0200089D20000800000000AD
:100020000000000000000000000000008D19000822
:10003000BF0D000800000000D1150008B91A000823
:10004000E7010008E7010008E7010008E7010008F0
:10005000E7010008E7010008E7010008E7010008E0
:10006000E7010008E7010008E7010008E7010008D0
:10007000E7010008E7010008E7010008E7010008C0
:10008000890B0008E7010008E70100081D200008AF
:1000900039200008E7010008E7010008E70100082F
:1000A000E7010008E7010008E7010008E701000890
:1000B000E7010008E7010008E7010008E701000880
:1000C000E7010008E7010008E7010008E701000870
:1000D000E7010008E7010008E7010008211D00080A
:1000E000E7010008E7010008E7010008E701000850
:1000F000E7010008E7010008E7010008E701000840
:10010000E7010008E7010008291B0008E7010008D3
:10011000E7010008E7010008A91B0008E701000843
:10012000E7010008E7010008E7010008E70100080F
:1001300000F002F800F03AF80AA090E8000C8244BF
:100140008344AAF10107DA4501D100F02FF8AFF29C
:10015000090EBAE80F0013F0010F18BFFB1A43F0A5
:10016000010318475830000078300000103A24BFCF
:1001700078C878C1FAD8520724BF30C830C144BF0C
:1001800004680C607047000000230024002500264E
:10019000103A28BF78C1FBD8520728BF30C148BFEA
:1001A0000B6070471FB51FBD10B510BD00F031F8D2
:1001B0001146FFF7F7FF02F001F800F04FF803B423
:1001C000FFF7F2FF03BC00F053F800000948804736
:1001D00009480047FEE7FEE7FEE7FEE7FEE7FEE729
:1001E000FEE7FEE7FEE7FEE704480549054A064B41
:1001F00070470000C91A000831010008F001002012
:10020000F0070020F0030020F00300207047704743
:100210007047754600F028F8AE460500694653461B
:1002200020F00700854618B020B5FFF7DDFFBDE8D8
:1002300020404FF000064FF000074FF000084FF04D
:10024000000B21F00701AC46ACE8C009ACE8C009DE
:10025000ACE8C009ACE8C0098D4670470446AFF36E
:1002600000802046FFF7ABFF004870478C0100205C
:1002700001491820ABBEFEE726000200704700BF10
:10028000FEE70000B1F5007F3AD00FDC202928D02E
:1002900006DC01291CD004291DD0082940D11DE00D
:1002A000402921D0B1F5807F3AD126E0B1F5004F49
:1002B00031D006DCB1F5806F25D0B1F5006F2FD1BC
:1002C00024E0B1F5803F12D0B1F5003F28D111E014
:1002D000154A826025E00822C26022E01022C26036
:1002E0001FE0082202611CE01022026119E00822CE
:1002F000426016E01022426013E00422426010E0E7
:10030000042242600DE0042242600AE00022826181
:100310000422426005E0002282610422426000E083
:1003200000BF00BF704700000101010010B50021AF
:10033000837A012202FA03F13D4A126842F0010277
:100340003B4B1A603A4A1C3212688A43384B1C33C2
:100350001A60027BCAB9364A0C3212688A43344B9F
:100360000C331A604288C38842EA0343304A403261
:10037000847A42F834300288838842EA03432C4A64
:100380004032847A02EBC4025360027B012A19D105
:10039000274A0C3212680A43254B0C331A604288F4
:1003A000038842EA0343224A4032847A42F83430D6
:1003B000C288838842EA03431D4A4032847A02EBB2
:1003C000C4025360C27A3AB9194A121D12688A43AC
:1003D000174B1B1D1A6006E0154A121D12680A43CE
:1003E000134B1B1D1A60028932B9114A143212686C
:1003F0008A430F4B14331A600289012A06D10C4A32
:10040000143212680A430A4B14331A60427B012AE1
:1004100006D1074A1C3212680A43054B1C331A6086
:10042000034A126822F00102014B1A6010BD00005D
:100430000066004070B504460D46002660692840FD
:10044000002871D0B5F5807F5CD010DC082D35D048
:1004500006DC012D20D0022D24D0042D72D127E0FE
:10046000102D31D0202D35D0402D6BD138E0B5F591
:10047000004F60D009DCB5F5007F49D0B5F5806F3D
:100480004CD0B5F5006F5DD14FE0B5F5803F2DD074
:10049000B5F5003F56D12FE0A0682D4900F06AFB6A
:1004A000064651E0E068032100F064FB06464BE09D
:1004B000E068082100F05EFB064645E0E068102198
:1004C00000F058FB06463FE02069032100F052FB94
:1004D000064639E02069082100F04CFB064633E06F
:1004E0002069102100F046FB06462DE060680821D7
:1004F00000F040FB064627E06068102100F03AFB60
:10050000064621E0A069012100F034FB06461BE00D
:10051000A069022100F02EFB064615E0A069042127
:1005200000F028FB06460FE00FE0A069702100F004
:1005300021FB064608E06068042100F01BFB06462C
:1005400002E0FFE7002600BF00E00026304670BD55
:10055000010101001AB143690B43436102E04369A1
:100560008B434361704730B5024600200023146876
:1005700024F002041460146844F00104146000E0E4
:100580005B1C546804F001041CB94FF6FF74A342CD
:10059000F6D1546804F001040CB900206CE08C79A9
:1005A000012C04D1146844F08004146003E0146842
:1005B00024F080041460CC79012C04D1146844F038
:1005C0004004146003E0146824F0400414600C7AC2
:1005D000012C04D1146844F02004146003E0146872
:1005E00024F0200414604C7A012C04D1146844F0E7
:1005F0001004146003E0146824F0100414608C7A72
:10060000012C04D1146844F00804146003E0146859
:1006100024F008041460CC7A012C04D1146844F04E
:100620000404146003E0146824F0040414608C785B
:10063000A407CD7844EA05640D7944EA05444D7970
:1006400044EA05540D886D1E2C43D461146824F0CF
:1006500001041460002300E05B1C546804F00104F2
:100660001CB14FF6FF74A342F6D1546804F00104A4
:100670000CB1002000E0012030BD000000B589B0C1
:100680000121042000F0D6FF0121480600F0B2FF4E
:100690004FF48050ADF8200003208DF82200182080
:1006A0008DF8230008A9374800F08AFB4FF400605A
:1006B000ADF8200048208DF8230008A9314800F04B
:1006C0007FFB00208DF81A008DF81B008DF81C00B0
:1006D0008DF81D008DF81E0001208DF81F000020F0
:1006E0008DF816008DF8170008208DF818000720E7
:1006F0008DF819000220ADF8140005A92248FFF773
:1007000032FF00208DF80E008DF80F0001208DF8CB
:1007100010000020ADF80400ADF80600ADF80800A8
:10072000ADF80A00ADF80C0001208DF8110001A809
:10073000FFF7FCFD012202211348FFF70BFF012206
:1007400011461148FFF706FF14208DF80000012024
:100750008DF801008DF802008DF80300684600F066
:10076000B7FE13208DF8000000208DF80100012055
:100770008DF802008DF80300684600F0A9FE09B06C
:1007800000BD0000000801400064004010B500F505
:10079000D87303EB01131B6803F004031372137A7D
:1007A00053B900F5D87303EB01131B6840F2FF74D3
:1007B00004EA5353136009E000F5D87303EB011307
:1007C0001B686FF0604404EAD303536000F5D873EC
:1007D00003EB01131B6803F00203537200F5D87397
:1007E00003EB01135B6803F00F03937200F5D873FA
:1007F00003EB01135B681B0AD37400F5D87303EB9A
:1008000001139B68D37200F5D87303EB01139B6847
:100810001C0A147300F5D87303EB01139B681C0CBE
:10082000547300F5D87303EB01139B681B0E93738D
:1008300000F5D87303EB0113DB68D37300F5D873AD
:1008400003EB0113DB681C0A147400F5D87303EB87
:100850000113DB681C0C547400F5D87303EB01130F
:10086000DB681B0E937421B9C36843F02003C36097
:1008700003E0036943F02003036110BD10B5024695
:100880000020936803F08063B3F1806F00D110E023
:10089000936803F00063B3F1006F01D1012008E019
:1008A000936803F08053B3F1805F01D1022000E030
:1008B0000420042874D002F5C07303EB00131B68F6
:1008C00003F0010402F5C07303EB00131C600B7A04
:1008D0007BB94B7A0C8843EA445302F5C07404EBAD
:1008E00000142468234302F5C07404EB0014236051
:1008F00010E00B7A4C6843EAC4034C7A234302F5B8
:10090000C07404EB00142468234302F5C07404EBA4
:10091000001423608B7A03F00F038B7202F5C0730F
:1009200003EB00135B6823F00F0402F5C07303EBC5
:1009300000135C6002F5C07303EB00135B688C7AF4
:10094000234302F5C07404EB001463608B7B1C0628
:100950004B7B44EA03440B7B44EA0323CC7A2343D6
:1009600002F5C07404EB0014A3608B7C1C064B7C66
:1009700044EA03440B7C44EA0323CC7B234302F583
:10098000C07404EB0014E36002F5C07303EB0013C2
:100990001B6843F0010402F5C07303EB00131C60F5
:1009A00010BD00002DE9F05F2F4880882E4909888E
:1009B000401A00B22D4988810846408A8989084436
:1009C00000B22A4948820846B0F91250C089098A03
:1009D000401A04B22548C089244908820846808903
:1009E000C881204602F090FA814620488168484636
:1009F00002F0A2FA0746284602F086FA83461B4810
:100A00004168584602F098FA81461849B1F90C003D
:100A100002F07AFA834615480168584602F08CFACB
:100A20008246494602F030F98046394602F02CF9F8
:100A3000064602F04DFA00B20C4988820846B0F929
:100A4000140010F5FA5F02DA4EF2C00088820748FF
:100A5000B0F91400B0F5FA5F03DD4FF4FA50034922
:100A60008882BDE8F09F0000400000208400002044
:100A70002DE9F05F2F4880882E490988401A00B27E
:100A80002D4988810846408A8989084400B22A494C
:100A900048820846B0F91250C089098A401A04B247
:100AA0002548C0892449088208468089C881204693
:100AB00002F02AFA814620488168484602F03CFA52
:100AC0000746284602F020FA83461B4841685846EC
:100AD00002F032FA81461849B1F90C0002F014FA1A
:100AE000834615480168584602F026FA8246494670
:100AF00002F0CAF88046394602F0C6F8064602F00F
:100B0000E7F900B20C4988820846B0F9140010F5E4
:100B1000FA5F02DA4EF2C00088820748B0F914008A
:100B2000B0F5FA5F03DD4FF4FA5003498882BDE85F
:100B3000F09F000048000020A400002010B50948E4
:100B4000007808B901F0B8FAFFF792FFFFF72AFF23
:100B50000548B0F914200548B0F91410044800F015
:100B60008BFF10BD82000020A40000208400002024
:100B7000006400400246002002EA01030BB101209C
:100B800000E000207047000010B54FF4001000F0A6
:100B9000D9F830B14FF4801000F014F8014800F09B
:100BA000A3FE10BD4401002000F0805111B10349A3
:100BB000086001E0024948607047000004040240F8
:100BC0000000024000F0805111B10349086001E0CB
:100BD00002494860704700000404024000000240DF
:100BE00021B1026842F00102026004E002684FF69F
:100BF000FE731A400260704701684FF6FE721140A2
:100C000001600021016041608160C1604B49884200
:100C100008D14A490839496841F00F01474A083A62
:100C200051608AE045491431884208D14349083966
:100C3000496841F0F001414A083A51607DE03F497E
:100C40002831884208D13D490839496841F470612A
:100C50003A4A083A516070E038493C31884208D13C
:100C600036490839496841F47041344A083A5160BC
:100C700063E032495031884208D130490839496827
:100C800041F470212D4A083A516056E02B496431F5
:100C9000884208D129490839496841F47001274A36
:100CA000083A516049E025497831884208D1234902
:100CB0000839496841F07061204A083A51603CE0C7
:100CC0001F49884206D1011F096841F00F01021F28
:100CD000116032E01A491431884208D11849091FBD
:100CE000096841F0F001164A121F116025E014490D
:100CF0002831884208D11249091F096841F47061FE
:100D00000F4A121F116018E00D493C31884208D18A
:100D10000B49091F096841F47041094A121F11600B
:100D20000BE007495031884207D10549091F09687E
:100D300041F47021024A121F1160704708000240FE
:100D40000804024001460020002201F0805313B144
:100D5000054B1A6801E0054B1A6802EA01030BB162
:100D6000012000E000207047000402400000024023
:100D70001AB103680B43036002E003688B4303600E
:100D8000704710B50022026847F6F0739A430C6A68
:100D90008B6823430C6923434C6923438C692343A9
:100DA000CC6923434C6A23438C6A23431A43026071
:100DB000CB6843600B6883604B68C36010BD7047AD
:100DC0002DE9F041024600250026002000230024E2
:100DD000002791F803C00CF00F0591F803C00CF048
:100DE000100CBCF1000F03D091F802C04CEA0505CD
:100DF00091F800C0BCF1000F31D0146800202BE046
:100E00004FF0010C0CFA00F3B1F800C00CEA030635
:100E10009E4220D183004FF00F0C0CFA03F7BC4325
:100E200005FA03FC4CEA040491F803C0BCF1280F56
:100E300006D14FF0010C0CFA00FCC2F814C00AE015
:100E400091F803C0BCF1480F05D14FF0010C0CFA2A
:100E500000FCC2F810C0401C0828D1D31460B1F8BF
:100E600000C0BCF1FF0F34DD546800202EE000F11B
:100E7000080C4FF0010808FA0CF3B1F800C00CEAB6
:100E800003069E4221D183004FF00F0C0CFA03F7AA
:100E9000BC4305FA03FC4CEA040491F803C0BCF11E
:100EA000280F05D100F1080C08FA0CF8C2F81480DC
:100EB00091F803C0BCF1480F07D100F1080C4FF0C6
:100EC000010808FA0CF8C2F81080401C0828CED39C
:100ED0005460BDE8F0810000F0B50A46002300240C
:100EE0000021002500F00046B6F1004F02D11D4E52
:100EF000F16901E01B4E7168C0F3034583B200F451
:100F00004016B6F5401F08D121F07061154E766885
:100F100026F07066134F7E6012E000F48016B6F57E
:100F2000801F06D1032606FA05F4A14341F0706143
:100F300006E0460D360103FA06F6B14341F0706152
:100F400022B1460D360103FA06F6314300F00046A1
:100F5000B6F1004F02D1034EF16101E0014E716024
:100F6000F0BD0000000001400246002093680B40E5
:100F70000BB1012000E00020704700BFFEE7000039
:100F800070B504460D46F8480078844273DDF74892
:100F9000007830B101284AD0022823D0032820D17C
:100FA0006AE0F1480078201A012806DD00214FF0A0
:100FB0008040EF4AC2E9001013E0EE4AEE4BEC49E4
:100FC00003C901F077FDEA4A03C20022EB4BE8496E
:100FD00003C901F035FC04D80021E848E44AC2E91D
:100FE00000106DE0012000F035FC012000F032FC23
:100FF000DD480078201A012805DD00204FF08041EF
:10100000DB4A03C212E0DB4ADB4BD94903C901F0DA
:1010100051FDD74A03C20022D84BD54903C901F07C
:101020000FFC03D80020D549D14A03C248E0012073
:1010300000F010FCCC480078201A012806DD0021C1
:101040004FF08040CA4AC2E9001013E0C94ACA4BB7
:10105000C74903C901F02EFDC54A03C20022C74B90
:10106000C34903C901F0ECFB04D80021C348C04ABE
:10107000C2E9001024E024E0002000F0EBFBBA48B5
:101080000078201A012806DD00214FF08040B84A80
:10109000C2E9001013E0B74AB74BB54903C901F0E4
:1010A00009FDB34A03C20022B44BB14903C901F0A0
:1010B000C7FB04D80021B148AD4AC2E9001000BF07
:1010C000F1E1A9480078844270DAA848007830B18C
:1010D000012849D0022828D0032825D167E0002024
:1010E00000F0B8FB002000F0B5FB9F480078001B23
:1010F000012806DD00214FF080409D4AC2E9001022
:1011000012E09C4A9C4B9A4903C901F0D3FC984ACF
:1011100003C20022994B964903C901F091FB03D801
:1011200000209649924A03C265E08F480078001B70
:10113000012805DD00204FF080418D4A03C212E0F6
:101140008C4A8D4B8A4903C901F0B4FC884A03C21A
:1011500000228A4B864903C901F072FB03D80020A4
:101160008649834A03C246E0002000F073FB7E48B4
:101170000078001B012805DD00204FF080417C4AEB
:1011800003C212E07B4A7C4B794903C901F092FC0F
:10119000774A03C20022794B754903C901F050FB1D
:1011A00003D800207549724A03C224E024E00120DC
:1011B00000F050FB6C480078001B012806DD002180
:1011C0004FF080406A4AC2E9001013E0694A6A4B56
:1011D000674903C901F06EFC654A03C20022674BF0
:1011E000634903C901F02CFB04D800216348604A1D
:1011F000C2E9001000BF56E16148007885426FDD0A
:101200005A48007830B101284AD0022825D0032856
:1012100022D166E0002000F01DFB59480078281A12
:10122000012806DD00214FF08040514AC2E900103C
:1012300012E0504A504B4E4903C901F03BFC4C4A66
:1012400003C200224D4B4A4903C901F0F9FA03D801
:1012500000204A49464A03C268E0012000F0FAFA39
:1012600047480078281A012806DD00214FF0804009
:101270003F4AC2E9001012E03E4A3F4B3C4903C9D5
:1012800001F018FC3A4A03C200223C4B384903C91A
:1012900001F0D6FA03D800203849354A03C245E0A8
:1012A00037480078281A012805DD00204FF08041DA
:1012B0002F4A03C213E02F4A2F4B2D4903C901F0D7
:1012C000F9FB2B4A03C200222C4B294903C901F028
:1012D000B7FA04D800212948254AC2E9001025E0C0
:1012E00025E0012000F0B6FA012000F0B3FA24480E
:1012F0000078281A012805DD00204FF080411C4AA3
:1013000003C212E01B4A1C4B194903C901F0D2FB6E
:10131000174A03C20022194B154903C901F090FA7C
:1013200003D800201549124A03C200BFBBE014488D
:10133000007885426FDA0D48007830B1012859D025
:10134000022833D0032830D17BE0012000F082FA5C
:101350000B480078401B012814DD00214FF080402D
:10136000034AC2E9001020E00B0000200D0000201D
:10137000000000207B14AE47E17A743F0000E03F9C
:101380000C000020484A494B494903C901F092FB2F
:10139000474A03C20022474B454903C901F050FAAE
:1013A00003D800204349424A03C26BE0002000F00A
:1013B00051FA41480078401B012806DD00214FF01A
:1013C00080403B4AC2E9001013E0374A374B3849A6
:1013D00003C901F06FFB364A03C20022354B344982
:1013E00003C901F02DFA04D800213248304AC2E97D
:1013F000001047E0002000F02DFA002000F02AFA4B
:101400002D480078401B012806DD00204FF0804168
:10141000274A03C214E036E0234A244B244903C977
:1014200001F048FB224A03C20022224B204903C993
:1014300001F006FA04D800211E481D4AC2E9001036
:1014400020E01D480078401B012806DD00214FF0F8
:101450008040174AC2E9001013E0134A134B1449A5
:1014600003C901F027FB124A03C20022114B1049A5
:1014700003C901F0E5F904D800210E480C4AC2E97D
:10148000001000BF0FE00D4800780D490978884230
:1014900009D1094800780B490978884203D1002016
:1014A000034A1060506070BD7B14AE47E17A743F10
:1014B000000000200000E03F0C0000200B00002096
:1014C0000E0000200F00002000BFFEE77047000064
:1014D00070B5002100230F22C47804B3154C246892
:1014E00004F4E064C4F5E064210AC1F10403CA40D5
:1014F000447804FA03F184781440214309010E4C26
:101500000678A155047804F01F050124AC40057845
:101510006D11AD0005F1E025C5F8004109E0047842
:1015200004F01F050124AC40044D0678761145F8FF
:10153000264070BD0CED00E000E400E080E100E03A
:1015400002490143024A1160704700000000FA0599
:101550000CED00E01448154908601548486015482E
:101560008860114814490860114848601148886033
:101570000D48124908600E4848600E4888600A48C5
:101580000F4908600A4848600A4888600D480E49BB
:1015900008600020486088600A480C490860002004
:1015A00048608860704700000000204084000020F0
:1015B0000AD7A33DCDCCCC3DA4000020C400002020
:1015C000E40000200000404004010020240100202D
:1015D0007047000029B1064A52690243044B5A6120
:1015E00004E0034A52698243014B5A61704700008C
:1015F0000010024029B1064AD2690243044BDA6165
:1016000004E0034AD2698243014BDA61704700006B
:101610000010024029B1064A12690243044B1A61C4
:1016200004E0034A12698243014B1A6170470000CB
:101630000010024029B1064A92690243044B9A61A4
:1016400004E0034A92698243014B9A6170470000AB
:101650000010024029B1064AD2680243044BDA6006
:1016600004E0034AD2688243014BDA60704700000D
:101670000010024030B500210022002400232D4D2F
:101680006D6805F00C0121B1042905D0082923D18A
:1016900005E0294D056022E0274D05601FE0254D3E
:1016A0006D6805F47012234D6D6805F480340225D1
:1016B00005EB92421CB9214D554305600BE01D4DD1
:1016C0006D6805F400351DB11C4D5543056002E001
:1016D000194D5543056002E0174D056000BF00BF7E
:1016E000144D6D6805F0F0010909154D6B5C056836
:1016F000DD4045600F4D6D6805F4E061090A104D4D
:101700006B5C4568DD4085600A4D6D6805F460518D
:10171000C90A0B4D6B5C4568DD40C560054D6D68C1
:1017200005F44041890B074D6B5CC568B5FBF3F5CB
:10173000056130BD0010024000127A0000093D0032
:101740002C0000203C00002000B587B001210420BF
:10175000FFF770FF01214804FFF74CFF374800F006
:101760004DFB0820ADF8180004208DF81B0006A9D9
:101770003348FFF725FB334802900020ADF80C00FA
:10178000ADF80E004FF48060ADF810000020ADF809
:1017900014000C20ADF8120002A9284800F0CCFB80
:1017A0000121264800F015FB01210846FFF712FF32
:1017B00000224021214800F018FB2348FFF71CFAC3
:1017C0001E48001D214908602148486000208860AB
:1017D0001220C860002008618020486100208861D4
:1017E000C861202008624FF440504862002088629F
:1017F0001548FFF7C6FA4FF40030FFF7D5F901227C
:1018000002211148FFF7B4FA012240210B4800F0F1
:10181000ECFA10208DF8040002208DF805008DF8F8
:10182000060001208DF8070001A8FFF751FE0121F5
:101830000548FFF7D5F907B000BD0000004400409F
:1018400000080140A08601006C00024060010020F9
:101850004401002010B5044600211E4A1160516069
:1018600001201D49087014B1012C2DD116E06FF034
:101870004A001A4948604B20194948601E2000F070
:101880000FFC00BF04211748FFF76EFB28B90821A1
:101890001448FFF769FB0028F4D015E04B200F49EE
:1018A000486040420E4948601E2000F0F9FB00BF2E
:1018B00004210C48FFF758FB28B908210948FFF715
:1018C00053FB0028F4D000BF00BF0020024908707D
:1018D00010BD000000000020820000204000002019
:1018E000480000200018014070B5044604B970BDDE
:1018F0002078617840EA0120C0F30A001F4908807F
:101900006078C010A17840EA4110C0F30A001B497A
:101910004880A0788011E17840EA8100217940EA8E
:101920008120C0F30A001549888020794010617930
:1019300040EAC110C0F30A001049C8806079001164
:10194000800808726079C0F3011048720846008868
:10195000B0F5AF6F10DA08460088B0F5167F0BDDE2
:101960000988A1F5806000F053FF0546044A054B45
:1019700000F0A2FF044A03C200BFB8E756010020EE
:101980007B14AE47E17A643F00000020704710B539
:1019900000F002F810BD00000CB50020019000908E
:1019A0003348006840F480303149086000BF304857
:1019B000006800F4003000900198401C01900098ED
:1019C00018B90198B0F5A06FF1D12948006800F46A
:1019D000003010B10120009001E00020009000983C
:1019E000012843D12348006840F0100021490860D5
:1019F0000846006820F0030008600846006840F0D0
:101A0000020008601A484068194948600846406862
:101A100048600846406840F4806048600846406876
:101A200020F47C1048600846406840F4E8104860A4
:101A30000846006840F08070086000BF0C480068ED
:101A400000F000700028F9D00948406820F0030039
:101A5000074948600846406840F00200486000BFFF
:101A60000348406800F00C000828F9D10CBD0000C4
:101A7000001002400020024070B586B006460C46B9
:101A800015464FF40070019000208DF80C008DF881
:101A90000D0008208DF80E00200A8DF80F008DF83B
:101AA0001040290A8DF811108DF8125001A9304606
:101AB000FEF7E4FE06B070BD02480068401C014914
:101AC000086070472800002010B51348006840F0F7
:101AD00001001149086008464068104908400E4955
:101AE0004860084600680E4908400B4908600846EF
:101AF000006820F4802008600846406820F4FE005A
:101B000048604FF41F008860FFF741FF4FF000600E
:101B10000449086010BD0000001002400000FFF8FA
:101B2000FFFFF6FE08ED00E010B50121054800F0CA
:101B30008AF828B10121034800F076F8FEF7FEFF8D
:101B400010BD0000000C00407FB505460C46012189
:101B50000820FFF74FFDADF80850ADF80440002015
:101B6000ADF80A00ADF8060001A90E4800F086F8AD
:101B7000012211460B4800F077F832208DF8000062
:101B800001208DF8010003208DF8020001208DF85E
:101B900003006846FFF79CFC0121024800F047F86B
:101BA0007FBD0000000C004010B50121054800F089
:101BB0004AF828B10121034800F036F800F05CFB38
:101BC00010BD0000001000407FB505460C46012105
:101BD0001020FFF70FFDADF80850ADF804400020CD
:101BE000ADF80A00ADF8060001A90E4800F046F86D
:101BF000012211460B4800F037F836208DF800001E
:101C000000208DF8010002208DF8020001208DF8DF
:101C100003006846FFF75CFC0121024800F007F86A
:101C20007FBD000000100040CA430282704721B10E
:101C3000028842F00102028004E002884FF6FE733F
:101C40001A400280704730B502460020002300246D
:101C5000158A05EA0103958905EA010413B10CB15F
:101C6000012000E0002030BD1AB183890B4383813D
:101C700002E083898B438381704700000022028841
:101C80001D4B98420ED01D4B98420BD0B0F1804FA7
:101C900008D01B4B984205D01A4B984202D01A4BE1
:101CA000984204D14FF68F731A404B881A43174B52
:101CB000984207D0164B984204D04FF6FF431A4083
:101CC000CB881A4302808B8883850B8803850A4B57
:101CD00098420BD0094B984208D00E4B984205D041
:101CE0000D4B984202D00D4B984201D10B7A0386DE
:101CF0000123838270470000002C01400034014022
:101D00000004004000080040000C004000100040AB
:101D100000140040004001400044014000480140E0
:101D200010B540F225511F4800F0B6F838B31D48F1
:101D300000F06EF9C4B21C48008800F4005088B16D
:101D40001A4801880088401C184A108018484454DA
:101D50001046008805281FD100201146088012492E
:101D6000088019E01048008800F4805060B1592CB8
:101D700006D10D48008840F400500B4908800BE064
:101D800000200949088007E0592C05D10648008841
:101D900040F480500449088040F22551014800F089
:101DA00009F810BD004800407000002072000020BB
:101DB0007C00002010B50022002340F66A14A142E6
:101DC00000D100BF0A1201249440A3B2DC43048076
:101DD00010BD21B1828942F40052828104E08289DF
:101DE0004DF6FF731A40828170471AB1838A0B4304
:101DF000838202E0838A8B438382704710B5044656
:101E00002048844209D101218803FFF723FC0021E7
:101E10004FF48040FFF71EFC32E01B48844209D19A
:101E200001214804FFF7F6FB00214FF40030FFF7D3
:101E3000F1FB25E01548844209D101218804FFF710
:101E4000E9FB00214FF48020FFF7E4FB18E0104885
:101E5000844209D10121C804FFF7DCFB00214FF4C3
:101E60000020FFF7D7FB0BE00A48844208D101218C
:101E70000805FFF7CFFB00214FF48010FFF7CAFBE6
:101E800010BD000000380140004400400048004000
:101E9000004C00400050004070B502460024002372
:101EA0000025002040F66A16B14200D100BFC1F300
:101EB000421501F01F03012606FA03F3012D02D19A
:101EC0009689334006E0022D02D1168A334001E0A4
:101ED000968A33400C12012606FA04F41688344020
:101EE00013B10CB1012000E0002070BDF0B5034635
:101EF000002400260025002040F66A17B94200D1D0
:101F000000BF1846C1F3421401F01F06012707FA6B
:101F100006F5012C01D10C3004E0022C01D1103067
:101F200000E014301AB107682F43076002E0076829
:101F3000AF430760F0BD00002DE9F04786B00546CD
:101F40000E460024A24600BFA1460027B08900B17A
:101F500000BF2F462C8A4CF6FF700440F0880443E3
:101F60002C82AC894EF6F3100440B08831890843C6
:101F7000718908430443AC81AC8A4FF6FF400440AA
:101F8000B0890443AC8201A8FFF774FB1F48874265
:101F900002D1DDF810A001E0DDF80CA0A88900F462
:101FA000004040B10AEBCA0000EB0A10316849005A
:101FB000B0FBF1F807E00AEBCA0000EB0A10316849
:101FC0008900B0FBF1F86420B8FBF0F004012009AF
:101FD000642101FB1089A88900F4004040B132203F
:101FE00000EBC900B0FBF1F000F00700044308E08B
:101FF000322000EB09106421B0FBF1F000F00F007B
:1020000004432C8106B0BDE8F08700000038014091
:1020100001468888C0F308007047000010B5012110
:102020000448FEF707FA18B101210248FEF72AF921
:1020300010BD00000064004000B585B002211448C6
:10204000FEF7F8F910B302211148FEF71BF96A46B2
:1020500000210F48FEF79AFB0098A0F2012010B172
:10206000012812D108E09DF80E109DF80D0041EAFC
:1020700000200849088008E09DF80E109DF80D002A
:1020800041EA00200449088000BF00BF05B000BD40
:1020900000640040400000204800002000BFFEE730
:1020A000044A1268111800BF024A12688A42FBD320
:1020B00070470000280000202DE9F0410F4C00225D
:1020C0000F4B104903C900F0F7FB064600F0BAFABF
:1020D00005462146284600F039FE064600F0F8FE87
:1020E000094948602146284600F030FE064600F0C7
:1020F000EFFE06494860BDE8F08100006747CC3E2E
:1021000000004E4000000020400000204800002059
:1021100008B501214020FFF78DFA0420ADF800003A
:1021200048208DF8030069460848FEF749FE012162
:102130004020FFF77FFA0820ADF8000048208DF816
:10214000030069460148FEF73BFE08BD0018014048
:1021500030B5002015490860154800684FF47A72C0
:10216000B0FBF2F1B1F1807F00D31DE021F07F40A0
:10217000401E4FF0E022506150170F22002807DA6E
:1021800013071D0E0B4B00F00F04241F1D5503E019
:1021900013071C0E084B1C5400BF00204FF0E02218
:1021A00090610720106100BF30BD000028000020B2
:1021B0001400002018ED00E000E400E001210520FB
:1021C000FFF738FA01212548FEF786FEFFF77CFC71
:1021D000FFF7BEFF4FF4A060FFF7B2F9FEF74EFA2B
:1021E00042F20F714720FFF7AFFC40F2E731472082
:1021F000FFF7EAFCFFF7A8FA4FF4E13000F0D2F95C
:10220000FFF7A8F9FFF784FF27E015480078D0B161
:1022100000211448FFF70BFD134A144B144903C95E
:1022200000F048FC124A03C200221346104903C9B9
:1022300000F006FB03D800210D4A11605160012017
:102240000C49087009E00B48007830B101210548BD
:10225000FFF7EDFC002007490870D6E700023000C8
:1022600009000020001000407B14AE47E17A743F63
:10227000000000201000002010B5C348007803289B
:1022800015DCC2480078032811DCC1480078032817
:102290000DDBC0480078062809DBBE480178BA4843
:1022A0000078FEF76DFE0120BB49087047E0B64894
:1022B0000078032815DCB5480078062811DCB348FF
:1022C0000078062803DAB1480078032809DCB14811
:1022D0000178AD480078FEF753FE0220AE49087041
:1022E0002DE0A9480078032829DCA84800780628B2
:1022F00025DCA6480078032821DBA54800780628BD
:102300001DDBA4480078032819DBA24800780628C2
:1023100015DC9E480078032803D09C4800780428E8
:1023200005D1022198480078FEF72AFE04E0072133
:1023300095480078FEF724FE0220974908709248DD
:102340000078032815DC91480078062811DB9048B6
:10235000007803280DDB8F480078032809DC8D48BE
:10236000017889480078FEF70BFE03208A4908703F
:10237000F2E08548007806282ADC834800780328A4
:1023800026DB82480078062822DB81480078032873
:102390001EDB7F48007806281ADC7E480078032878
:1023A00016DC79480078032803D0774800780428A1
:1023B00005D1764801780220FEF7E2FD04E073487B
:1023C00001780720FEF7DCFD042073490870C3E0A4
:1023D0006D480078062819DB6C480078062815DB64
:1023E0006B480078032811DB6948007806280DDC6B
:1023F00068480078032809DC66480178624800785C
:10240000FEF7BEFD052064490870A5E05E4800782F
:10241000062819DB5D480078032815DC5C48007845
:10242000032811DB5A48007806280DDC594800784B
:10243000062809DB5748017853480078FEF7A0FDCD
:1024400007205549087087E04F48007806282ADBA6
:102450004E480078032826DB4C480078062822DC0A
:102460004B48007803281EDC4A48007803281ADB12
:1024700048480078062816DC44480078032803D032
:1024800042480078042805D102213F480078FEF731
:1024900077FD04E007213C480078FEF771FD062037
:1024A0003D49087058E038480078062819DB37485D
:1024B0000078032815DB35480078062811DC3548FC
:1024C0000078062803DA33480078032809DC31480D
:1024D00001782D480078FEF753FD06202E4908703C
:1024E0003AE02948007803282ADB274800780628A4
:1024F00026DC26480078032822DC264800780628B7
:102500001EDB2348007806281ADC214800780328BF
:1025100016DB1D480078032803D01C4800780428E7
:1025200005D11A4801780220FEF72AFD04E0174879
:1025300001780720FEF724FD0820174908700BE0FA
:102540001248017812480078FEF71AFD1148017808
:102550000D480078FEF714FD0020104908700A4865
:1025600000780B49097888420CD10848007809495D
:102570000978884206D10021094A11605160012082
:102580000649087010BD00000B0000200C00002060
:102590000E0000200F0000200A0000208100002013
:1025A0000000002010B586B00446012144F204006A
:1025B000FFF740F84FF40070ADF8140003208DF8D9
:1025C000160018208DF8170005A91C48FEF7F8FB27
:1025D0004FF40060ADF8140004208DF8170005A931
:1025E0001648FEF7EDFB01940020ADF80800ADF8A9
:1025F0000A00ADF80C00ADF810000C20ADF80E008C
:1026000001A90F48FFF798FC25208DF80000002055
:102610008DF8010001208DF802008DF80300684656
:10262000FEF756FF012240F225510548FFF75EFCF8
:1026300001210348FFF7CDFB06B010BD00080140A3
:102640000038014021F00042A2F16052B2F5801F33
:1026500001F0004328BFD2F17F6C0BD95FEA001C68
:1026600043EAC20242EB507018BF704728BF20F007
:1026700001007047B2F5801FBCBF184670474FEA93
:10268000410C1CF5001F02D2084600F01CBD70B5BD
:1026900000F0BCF900000089FFF7F6BF4FF00040E2
:1026A000A0F580007047000010B591EA030F48BF05
:1026B00083F0004300F10682841A71EB030C05D20B
:1026C000121943EB0C03001B61EB0C01DFF824E152
:1026D0004FEA1154A4EB135C1EEA430F18BF9EEAA5
:1026E000445F73D023EA0E03DCF1200E21EA04518B
:1026F00043F4801332D322FA0CFE10EB0E0023FABF
:102700000CFE41EB0E01CCF1200E03FA0EFE10EB95
:102710000E0051F10001B1F5801FCCF1200E32D234
:1027200001EB045112FA0EF2BDE8104058BF704799
:10273000401C38BF5FEA420218BF7047002814BF30
:1027400020F0010041F100014FEA410313F5001FA1
:1027500038BF7047A1F1C04100F0A6B9012A43EB90
:102760000302ACF1200CDCF11F0E32BF4FF0000E63
:1027700023FA0CF310EB030041EB0451B4EB115FAF
:10278000D0D0A1EB045101F5801149085FEA300077
:1027900001EB04510ED350F1000038BF12FA0EFEC7
:1027A00008D1BDE81040C9E7401C38BF5FEA4202CB
:1027B000CAD1C3E7BDE810404FEA410313F5001F3B
:1027C00038BF7047A1F1C04100F06EB99EEA445F86
:1027D00008D011EA5E0FBDE8104004BF01F00041CF
:1027E00000207047BDE8104070B500F00FF900BF41
:1027F00064FBBE3E0000E0FF491058BFC1F14041FC
:102800005B1058BFC3F140438B42EFF30080704729
:1028100010F0004248BF4042B0FA80F310FA03F1D2
:102820000AD0C3F11D0303F580634FEA415002EB68
:10283000035202EBD12170474FF0000070470000B7
:1028400051EA030C17D41CF5801F58BFBCF5801F3C
:1028500000F10680994218BF704708BF9042704748
:1028600007D711F5801F58BF13F5801F19D499425F
:102870007047894270471CF5801F08D5BCF5801F42
:10288000F7D58B4218BF704708BF824270474FF49C
:10289000001C1CEB410F38BF1CEB430F01D28B42D5
:1028A000704770B500F0B2F8922449004FF0005123
:1028B0004FF08053FFF7A0BFDFF848C170B51CEAA6
:1028C000111E1EBF1CEA13159EEA0C0F95EA0C0F91
:1028D00000F06F8081EA030423EA4C134EEAD47EB1
:1028E00021EA4C1141F4801143F48013AE44A1FB62
:1028F000024CA0FB0365AEF17F7E361955EB0C054B
:10290000A1FB034C4CF10003A0FB021C16EB0C06D0
:10291000654153F10003094218BF46F0010613F464
:10292000007F0BD14FEA03314FEA0530340341EA0F
:10293000155140EA16506FF003020AE04FEAC32136
:102940004FEAC520F40241EA555140EA56506FF073
:10295000020202EB2E4201EB025585EACE710AD04B
:102960005FEA440C18BF24F0004450F1000041F12C
:10297000000120EAD47040F2FE7C624500D270BDB6
:10298000A84214BF4FF080444FF04044002E08BFCF
:102990000024BEF1806FA8BFA1F1C041BDE8704026
:1029A00080F282804FF0000001F1C04101F000414F
:1029B00070479EEA0C0F0CEA131518BF95EA0C0F2E
:1029C00006D04FF0000081EA030E0EF0004170BD0A
:1029D00000F01CF88900013E00F007B800F009B8CB
:1029E0004FEA430C5FEA5C5C08D081EA030100F027
:1029F0005BB84FEA410C5FEA5C5CF6D14FF0000037
:102A0000014970470000FF070000F87F0EF1020E39
:102A10002EF0030E5EF8046B364205D4012A43EB18
:102A2000030515F5001F12D8012841EB010C1CF518
:102A3000001F0CD80ED14FEAD17C15F5001F0CEB0E
:102A40004C0C0CF1020C08BF4CEBD37C04E04FF0B3
:102A5000080C01E04FEAD37C0CEB4C0526FA05F696
:102A600006F00706B6F1040C06D20EEB860CBDE8A4
:102A700070404CF0010C6047DFE80CF0090B0202DB
:102A80004FF000414FF00000A1F5002170BD194644
:102A90001046012851EB010418BFD4F5001484BF7F
:102AA000002001F0004170BD0808A0F500114FEAB8
:102AB0003101704710B591EA030F48BF83F000431E
:102AC0003FF5FAAD841A71EB030C07D212198CF0A2
:102AD000004C43EB0C03001B61EB0C01DFF8A4E19D
:102AE0004FEA1154A4EB135C1EEA430F18BF9EEA91
:102AF000445F00F0B08023EA6E03524221EA0451A1
:102B0000C3EB6E0338BF5B1EDCF1200E25D322FA27
:102B10000CFE10EB0E0043FA0CFE41EB0E01CCF163
:102B2000200E03FA0EFE10EB0E0051F10001CCF165
:102B3000200E29D412FA0EF201EB0451BDE8104028
:102B400058BF7047401C1CBFB2F1004F70470028AF
:102B50000CBF491C20F00100704712EB020E43EB42
:102B6000030218BF4FF0010E4EEA4202ACF1200CF6
:102B7000DCF11E0E54D943FA0CFE10EB0E0051F19D
:102B8000FF31CCF11E0ED5D50EF1010E12FA0EFE5C
:102B9000404141EB010101EB445C5FEA5C5C10D910
:102BA00010EBDE7001EB045138BFBEF1004FBDE801
:102BB000104018BF704700280CBF491C20F00100CE
:102BC000704730D24FEAD42C11F5001124F4006480
:102BD0001BD0B1FA81F20B3AA41AA41ED2F1200341
:102BE000914030FA03F31943904001EBCC71002C73
:102BF00001EB0451BDE81040A8BF704701F1C0418E
:102C00004FF0000001F000417047B0FA80F310FA75
:102C100003F100D110BDE41A173C4805C90AE4E7E6
:102C200001EB045110BD491001EB0451BDE8104007
:102C30004FEA300002E04FF0000170474A0008BF41
:102C40000042F8D0B2F5001F28BF704701F00041E4
:102C50004FF0000070479EEA445F07D011EA5E0F14
:102C6000BDE8104004BF002100207047BDE81040BF
:102C700070B5FFF7CBFE00BF40DFF63E83F00041AA
:102C8000104670470000E0FF90EA010F48BF81F056
:102C9000004100F12482421A3CBF801A89184FEA91
:102CA000D0524FF07F4C1CEA410FA2EBD15318BF1A
:102CB0009CEA026F00F03B804FF0004C4CEA002091
:102CC0004CEA012121FA03FC10EB0C0C1ED202F19C
:102CD000FF325FEA1C2040EBC25038BF70471CF047
:102CE0007F0F4FEA400C18BFBCF17F4F38BF7047D1
:102CF000C3F12003994008BF20F00100BCF17F4FD1
:102D000038BF7047A0F1C04000F0DDB94FEA3C0089
:102D1000000A40EBC25028BF1CF0FF0F4FEA400CE6
:102D2000E6D018BFBCF17F4F38BF7047EAE79CEA96
:102D3000026F05D010EA5C0F08BF00F0004070473A
:102D400010B500F07AF900BF64FBBE3E4FF47F0C73
:102D50001CEAD0121EBF1CEAD11392EA0C0F93EAB0
:102D60000C0F00F0858090EA010F48BF42F480729A
:102D700040F4000C41F400002CF07F4120F07F4033
:102D800000B58142A2EB03020FF2081CACEB504EDF
:102D9000C0F100009EF800E04FEA4E0E00FB0EFC72
:102DA00038BF49004FEA2C1C02F5FA020CFB0EF367
:102DB0004FEACE1E4FEA112C4FEAC1210EEB635EA3
:102DC00042EB22420EFB0CFC4FEA1C5300FB0311AA
:102DD0004FEA112C4FEA01310EFB0CFC4FEADC4CA0
:102DE00000FB0C11C14228BF09184CEB03335DF8FE
:102DF00004EB10EB410143EBC250B2F57C0F38BF3E
:102E0000704729D512F0F00F1CBF00F1C04000F050
:102E100000407047008182838485868788898B8CF7
:102E20008D8E8F919293959697999A9C9D9FA0A233
:102E3000A3A5A7A8AAACAEB0B2B3B5B7B9BCBEC083
:102E4000C2C5C7C9CCCED1D4D7D9DCDFE2E6E9EC24
:102E5000F0F3F7FAFE0000004FEA400C0CF1807C22
:102E6000BCF17E4F28BF7047B0F1C04000F02BB9D5
:102E700090EA010F0CEAD11348BF42F48072624518
:102E800038BF634507D213F47F0F16D080EA0100E4
:102E900000F00040704710B500F0CFF8097EFC3E0E
:102EA00000F005B880EA010000F00040704780EAB9
:102EB000010000F0004000F006B912F47F0F04BFDB
:102EC0000248704780EA010000F0FDB80000C07FB2
:102ED00041000B0ED3F19E0208D950F400034FEAD3
:102EE000032323FA02F048BF4042704710B500F0B8
:102EF000A4F800BF49922480002070476FF0004280
:102F000082EA20007047000010F0004148BF4042B4
:102F1000B0FA80F310FA03F2C3F19D030BD051EA2B
:102F2000C35101EB1220530638BF704700F1010076
:102F300008BF20F0010070474FF47F0C1CEAD0124C
:102F40001EBF1CEAD11392EA0C0F93EA0C0F00F09B
:102F5000478090EA010F48BF42F480724FF0004C66
:102F60004CEA00204CEA012102EB0302A0FB011312
:102F7000A2F50002002918BF43F001035B0028BF3F
:102F80004FEA330342EB22425FEA132C4CEBC25070
:102F90002EBFBCEB436FB2F57C0F70474FEA036C5A
:102FA000BCF1004F08BF20F00100B2F57C0F38BF24
:102FB00070470BD582F0FF0212F5803FC8BF704703
:102FC00000F1C040D8BF00F00040704700F5000C91
:102FD0005FEA4C0C48BF7047B0F1C04000F073B8D6
:102FE00090EA010F0CEAD11348BF42F480726245A7
:102FF00038BF634504D280EA010000F0004070470A
:1030000010B500F01AF800BF8900013E00F007B8C3
:1030100000F009B85FEA410C5FEA1C6C08D080EA56
:10302000010000F050B85FEA400C5FEA1C6CF6D17A
:103030004FF00040A0F5800070470EF1020E2EF018
:10304000030E5EF8044B244204D44FEA4102B2F16D
:103050007F4F11D84FEA4003B3F17F4F0CD80ED108
:103060004FEAD07CB2F17F4F0CEB4C0C0CF1020C10
:1030700008BF4CEBD17C04E04FF0080C01E04FEAB4
:10308000D17C0CEB4C0324FA03F404F00704B4F1F4
:10309000040C06D20EEB840CBDE810404CF0010C81
:1030A0006047DFE80CF0070802024FF00040A0F58F
:1030B000800010BD0846420018BFD2F1807288BF60
:1030C00000F0004010BDFF2141EAD050C00570471C
:1030D00090EA010F48BF81F000413FF5DCAD421A94
:1030E00004D882F00042A0EB020011444FEAD05213
:1030F0004FF07F4C1CEA410FA2EBD15318BF9CEA62
:10310000026F4AD04FF0004C4CEA00204CEA0121FB
:1031100021FA03FCB0EB0C0C0FD412F0FE0F36D0EA
:103120005FEA4C001DD5001240EBC25038BF70471B
:103130001CF03F0F18BF70470BE0A2F101025FEADD
:103140001C2040EBC25038BF70471CF07F0F18BFE7
:103150007047C3F12003994014BF401E20F00100C6
:10316000704780084FEA122308BF7047B0FA80FC0E
:10317000A2EB0C02CCF1280C60FA0CF093EA122FAF
:1031800004BF00EBC25070474FEAC3707047130A88
:103190005FEADC1008BF7047F6E79CEA026F04D0D4
:1031A00010EA5C0F08BF0020704710B5FFF745FF1D
:1031B00040DFF63E81F0004070470000DC3100083F
:1031C00000000020840000006C010008603200084C
:1031D000840000206C070000880100080000000047
:1031E00000000000000000000200000300000000DA
:1031F00000A24A04000000000000000001020304D5
:103200000607080900000000000000000102030496
:103210000102030406070809020406080000000072
:10322000000000000000000000000000000000009E
:10323000000000000000000000000000000000008E
:10324000000000000000000000000000000000007E
:10325000000000000000000000000000000000006E
:04000005080001CD21
:00000001FF
