:020000040800F2
:100000001805002045010008C30F00086F0500080F
:10001000C10F0008DF030008BB1700080000000044
:100020000000000000000000000000005510000863
:10003000E103000800000000D90F000819110008B2
:100040005F0100085F0100085F0100085F01000810
:100050005F0100085F0100085F0100085F01000800
:100060005F0100085F0100085F0100085F010008F0
:100070005F0100085F0100085F0100085F010008E0
:100080005F0100085F0100085F0100085F010008D0
:100090005F0100085F0100085F0100085F010008C0
:1000A0005F0100085F0100085F0100085F010008B0
:1000B0005F0100085F0100085F0100085F010008A0
:1000C0005F0100085F0100085F0100085F01000890
:1000D0005F010008111700085F0100085F010008B8
:1000E0005F0100085F0100085F0100085F01000870
:1000F0005F0100085F0100085F0100085F01000860
:100100005F0100085F0100085F0100085F0100084F
:100110005F0100085F0100085F0100085F0100083F
:100120005F0100085F0100085F0100085F0100082F
:10013000DFF80CD000F032F90048004781180008C1
:10014000180500200648804706480047FEE7FEE7FE
:10015000FEE7FEE7FEE7FEE7FEE7FEE7FEE7FEE777
:1001600029110008310100082DE9F04D81EA03044E
:1001700004F0004B21F0004514464FF0000A23F034
:10018000004150EA050220D054EA01021DD0C5F317
:100190000A570246C5F31303C1F31300C1F30A560D
:1001A00040F4801543F48013A7EB0608101BD646D5
:1001B00008F2FD3873EB050002D308F1010801E0F5
:1001C00092185B41B8F1000F03DA00200146BDE848
:1001D000F08D00204FF48011064684460EE0171B78
:1001E00073EB050705D3121B63EB050306434CEACB
:1001F000010C49084FEA300092185B4150EA0107B0
:10020000EDD152EA030012D082EA040083EA05012C
:10021000084305D0101BAB4106D20122002306E0A3
:1002200000224FF0004302E06FF0010253101AEB7E
:1002300006004CEB085110EB0A0041EB0B01BDE846
:10024000F04D00F04DB80EB5C10F80EAE0700844E3
:10025000CA07002140F233438DE80E000A460B46E0
:1002600000F04DF803B000BD0EB540F233410291ED
:100270000021CDE900110A460B4600F040F803B01A
:1002800000BD70B5C1F30A5201F000450024C1F36E
:10029000130140F2FF3341F480119A4201DA002049
:1002A00070BD40F233439A42A2F2334203DC524221
:1002B00000F006F800E090402C43F1D0404270BDC1
:1002C000202A04DB203A21FA02F00021704721FAAB
:1002D00002F3D040C2F12002914008431946704712
:1002E00010B5141E73F1000408DA401C41F100013E
:1002F00092185B411A4301D120F0010010BD2DE995
:10030000F04D92469B4611B1B1FA81F202E0B0FA8B
:1003100080F22032904600F053F804460F4640EA3F
:100320000A0041EA0B0153465A46084313D01146CE
:1003300053EA010019D0C8F140025046FFF7C0FF50
:1003400005460E4650465946424600F039F80843E5
:1003500005D0012004E020463946BDE8F08D00209C
:10036000054346EAE0762C4337430A986305E40ADE
:10037000A0EB08000022FD0A44EA47540A3002D5E7
:1003800000200146E9E7010510196941DDE908454A
:1003900000196941BDE8F04DA2E70000064C074D89
:1003A00006E0E06840F0010394E807009847103445
:1003B000AC42F6D3FFF7C0FE783100089831000850
:1003C000202A04DB203A00FA02F100207047914015
:1003D000C2F1200320FA03F3194390407047FEE76F
:1003E000704700008000A0F1C0400029016802D0E1
:1003F00041F0010101E0024A114001607047000034
:10040000FEFF0F0010B5D0E901121143D0E903231C
:100410001A4311434269114382691143C26911436E
:10042000026A1143426A1143826A1143C26A11434C
:10043000026B114302689200A2F1C0421160816810
:10044000082907D101688900A1F1C0410A6842F07A
:1004500040020A60416BD1E9002342EA03128B6833
:100460008C891B0243EA04431A430B8A42EA035273
:100470000B7D896942EA03620A4301688900A1F1A0
:10048000C0414A60C16AB1F5804F08D000686FF082
:1004900070418000A0F1C040C0F8041110BD816B14
:1004A000D1E9002342EA03128B680C8A1B0243EA5B
:1004B00004531A430B7D896942EA036200680A43C8
:1004C0008000A0F1C040C0F8042110BDF0B5CA788A
:1004D000002502F00F03D20601D58A7813430A786B
:1004E0004FF00F0E12F0FF0F4FF001021CD0046806
:1004F0000F8802FA05F63740B74211D14FEA850C52
:100500000EFA0CF724EA070703FA0CF43C43CF7801
:10051000282F02D0482F02D002E0466100E0066199
:100520006D1C082DE4D304600C88FF2C1ED9446890
:100530005FF0000606F1080702FA07F50F882F4062
:10054000AF420FD14FEA860C0EFA0CF7BC4303FA08
:100550000CF73C43CF78282F00D14561CF78482F46
:1005600000D10561761C082EE4D34460F0BDFEE79F
:100570002DE9F043174C81460025208866884643C4
:10058000A088A0F5D041043902D1A079012807D074
:100590000021084600F092FB00F000FD0E4814E038
:1005A0000020A0712A2767814FF02B08A4F80C8047
:1005B000014600F083FB0120A071A4F80A80A78106
:1005C000EAE700BFA0F800906D1CB542FAD3BDE881
:1005D000F08300003C0000200008006C2DE9F04F83
:1005E0004A492A242B25898845F2105A4FF4305B5A
:1005F0004FF4285E4FF448764FF0F00C49F2413941
:100600004FF4A07345F210374FF4F07280B13F48B9
:100610004FF00108494580F806800380A0F802C029
:1006200001D0B9423ED12C2606814481858157E014
:1006300036484FF00008494580F80680A0F800C011
:10064000438006D0A1F5D04CBCF1040C01D0B942D6
:100650000CD12C2606814481A1F5D0448581043C2F
:1006600001D0B94244D10380428041E0514507D1D5
:10067000A0F808B0A0F80AE04FF42C5181810EE0F8
:10068000A1F5C853633B06D022210181202141817D
:10069000212181812CE02C210181458184810280EE
:1006A000468025E0A1F5D04CBCF1040C09D05145A1
:1006B0000BD1A0F808B0A0F80AE04FF42C548481C4
:1006C00021E02C260681458109E0A1F5C85CBCF13A
:1006D000630C12D0222404812124448120248481AB
:1006E000A1F5D044043C01D0B94201D1028043803D
:1006F000BDE8F04F002000F00DBA4FF02C0CA0F830
:1007000008C04481858106804280E9E73C000020E2
:100710002DE9F04FDFF8FC800C460146060A404602
:100720009346B8F80450DFF8F0A08289230A408984
:10073000A5F513470AF10209413F18D0A5F5A647D0
:10074000103F14D0B7F5007715D04746A5F5C85C23
:10075000BE793F887F1A7F1EBCF1630C20D0A5F5BF
:10076000D04CBCF1040C33D0012E43D043E05546AD
:10077000AAF8000033E0AAF80000A9F80060401CC5
:10078000AAF80000C8B2A9F80000AAF80020A9F849
:100790000030521CAAF80020E0B2A9F8000031E0B5
:1007A00006B9B9B2AAF800000D0A4846A9F80050E7
:1007B000CFB2A9F80070A9F80050C9B2A9F800108A
:1007C000AAF80020A9F80030E1B2A9F800100DE065
:1007D000012E00D1B9B25546AAF800000E0A4846CB
:1007E000A9F80060C9B2A9F800102A800380E1B21C
:1007F000018007E0B9B200F0DBFBB8F80C0021463D
:1008000000F0D6FBB8F80810AAF80010A9F800B05C
:10081000BDE8F08F3C000020FE07006CF0B5012120
:100820009FB0080200F0DAFB01214FF4B47000F031
:10083000F9FB0125ADF83C5010268DF83F600324EC
:100840008DF83E400FA99D48FFF740FE4CF23370F3
:10085000ADF83C0018278DF83F708DF83E400FA989
:100860009748FFF733FE4FF68070ADF83C008DF8E7
:100870003F708DF83E400FA99248FFF727FE41F2E6
:100880000100ADF83C008DF83F708DF83E400FA997
:100890008D48FFF71BFE00200F211095CDE91101B7
:1008A00013901490CDE918041590169017901A9093
:1008B00006211B901C90CDE90010CDE902061D9089
:1008C00004902903CDE9080106900590079089005E
:1008D000CDE90A010C9010A80D9017A80E9068465B
:1008E000FFF790FD01210620FFF77CFD322000F08C
:1008F00093FF002000F002F97449754C4FF6FF7623
:100900008880FF2804D3B04202D0B0F5134F11D134
:10091000D320208000F0E8F8888000F0E5F8888097
:1009200000F0E2F806EA0020888000F0DDF88A880E
:100930001043888080B2A0F5134141397ED1CF2089
:10094000208063490020891C0880C1200880302055
:100950000880ED2020806420088003200880122079
:10096000088081200880E8202080852008801020D1
:1009700008807A200880CB202080392008802C2015
:100980000880002008803420088002200880F7209A
:10099000208020200880EA20208000200880088015
:1009A000C02020801B200880C120208001200880DA
:1009B000C5202080302008800880C7202080B720F4
:1009C000088036202080482008803A20208055204A
:1009D0000880B1202080002008801A200880B620DE
:1009E00020800A200880A2200880F2202080002099
:1009F00008802620208001200880E02020800F2011
:100A000008802A20088028200880082008800E20DE
:100A100008800820088054200880A92008804320EE
:100A200008800A2008800F200880002008800880A5
:100A300008800880E1202080002000E033E008806A
:100A400015200880172008800720088011200880C2
:100A5000062008802B200880562008803C20088033
:100A600005200880102008800F2008803F20088083
:100A700008800F2008802B2020800020088008801C
:100A8000012008803F2008802A2020800020088044
:100A900008800880EF20088011202080782000F056
:100AA000BBFE292020800020FFF798FD0948C0F8F0
:100AB00080513046FFF75CFD1FB0F0BD000C0140D7
:100AC0000014014000180140002001403C000020BB
:100AD000FE07006C008021420246012000E05043E6
:100AE000491EC9B2FBD27047034808B50088ADF86B
:100AF0000000BDF8000008BD0008006C044910B5F6
:100B00000880052000F0A2FEBDE81040FFF7ECBF12
:100B1000FE07006CF0B5674C00232146A679898852
:100B200046F6040241F66315012E01D02EB11DE0F8
:100B300091421BD0A94202D118E0A94216D108283F
:100B400014D2DFE800F00406080A0C0E101206208A
:100B50000CE007200AE0042008E0052006E0012060
:100B600004E0002002E0032000E00220A1F5134C85
:100B700045F2103745F21056BCF1410C07D09142B6
:100B800005D0B94203D0B14201D0A94275D108289D
:100B900012D2DFE800F0110406080A0C0E108023C0
:100BA0000AE0402308E0C02306E0202304E060239D
:100BB00002E0A02300E0E023B14202D14FF45850FC
:100BC00000E03620B94205D0B14203D0A94201D09D
:100BD00043F00803914201D143F00203194600F0AB
:100BE000E7F9A088A8420AD099062188628802D530
:100BF000914202D303E0914201D9228061802E49C3
:100C00008A1CB0426089088021D100231380431CD4
:100C10000B8000231380831C0B8023885B1E1D0A1E
:100C20001580C01C0880D8B21080A08908800023DD
:100C30001380431C0B8000231380831C0B8063886C
:100C40005B1E1C0A1480C01C0880D8B212E0002071
:100C5000108010802088401E030A1380C0B21080CC
:100C6000A08908800020108010806088401E010A42
:100C70001180C0B21080F0BDFFE7082812D2DFE873
:100C800000F0040608110A0C0E1030230AE01023AD
:100C900008E0202306E0382304E0282302E018239C
:100CA00000E00823BDE8F040032043F4805100F049
:100CB0007FB900003C000020FE07006C2DE9F04FDA
:100CC0004C4E0C4601464FEA102C3046B588DFF8F2
:100CD00028B18289230A4089A5F513470BF1020A3E
:100CE000413F1CD0A5F5A647103F18D0B64696F850
:100CF00006903688A5F5D047A6EB0108A8F10108B3
:100D0000043F13D0A5F5C857633F23D0A5F5AA47E4
:100D10007646103F4ED0B9F1010F60D061E05D46DC
:100D2000ABF800005046AAF800C00BE0B9F1010F83
:100D300001D11FFA88F15D46ABF800000E0A50465B
:100D4000AAF80060C9B201802A800380E1B2018064
:100D5000BDE8F08FB9F1000F1DD0ABF80000504690
:100D6000AAF800C0C9B2AAF80010761E310AAAF883
:100D70000010F1B20180ABF800205046AAF8003014
:100D8000E1B2AAF80010BEF80210491E0A0AAAF839
:100D90000020C9B2DBE71FFA88F1ABF8000000269B
:100DA0005046AAF80060AAF800600E0AAAF800608F
:100DB000C9B2DFE7ABF80000AAF800C0401CABF8EE
:100DC0000000C8B2AAF80000ABF80020AAF8003072
:100DD000521CABF80020E0B2AAF80000B8E71FFAF6
:100DE00088F100F0E5F8B0892146BDE8F04F00F049
:100DF000DFB800003C000020FE07006C2DE9FF4F2B
:100E00001D460C468A46580700D0012000EBD5004D
:100E100069084843203A00F0FF09D0B20026DFF805
:100E20009CB0029045E00C2D12D0102D15D0182D3D
:100E300041D10298224900EBC00000BF01EB8000C5
:100E40004FF00008875D38060CD51E4802880DE07B
:100E500002981D4900EB4000F0E71C49029801EBA5
:100E60000010EDE70D9828B91648428821460098F1
:100E7000FFF74EFC7806070E641CBBF80200A4B214
:100E8000A04218D9A4EB0A00A84209D10098544600
:100E9000401C80B20090BBF8001081420BD906E0E4
:100EA00008F1010000F0FF08B8F1080FCBD3761C61
:100EB000F6B24E45B7D3BDE8FF8F00003C000020DE
:100EC0001C2400081C000020B81900082C1E000873
:100ED0002DE9FF4F81B00026DDF838A01D4693466E
:100EE00081463446B0464FEA5A0727E0281B401E89
:100EF000C1B20A20FFF7F0FDBBFBF0F00A21B0FB06
:100F0000F1F201FB120026B9691E8C4201DA48B1E8
:100F100001263030C2B207FB049080B25346CDF8B0
:100F2000008006E007FB049080B253462022CDF8F3
:100F300000800299FFF762FF641CE4B2AC42D5D393
:100F400005B0BDE8F08F2DE9F84F044600F0FF0929
:100F500010190D46DDE90AB61FFA80F8581987B254
:100F60004FF0000A12E0444503D305EB0B004C465A
:100F700085B2BD420FD25B4629462046CDF800A07F
:100F8000FFF73CFF04EB5B0084B2761C3278A2F1E1
:100F900020005E28E7D9BDE8F88F00000248034929
:100FA00000890880704700003C000020FE07006CAC
:100FB000024A1080901C018070470000FE07006C00
:100FC000FEE7704702490843024908607047000085
:100FD0000000FA050CED00E070470000044A00290B
:100FE000516901D0014300E0814351617047000025
:100FF00000100240044A0029D16901D0014300E0F9
:101000008143D1617047000000100240044A00296A
:10101000116901D0014300E0814311617047000074
:1010200000100240044A0029916901D0014300E008
:10103000814391617047000000100240044A00297A
:10104000D16801D0014300E08143D16070470000C6
:1010500000100240704700000CB5002126480191A5
:101060000091026842F4803202604FF4A06302688B
:1010700002F400320092019A521C0192009A12B9B5
:10108000019A9A42F3D10268920333D5012100916B
:101090001A490A6842F010020A600A6822F0030244
:1010A0000A600A6842F002020A60416841604168D1
:1010B0004160416841F480614160416821F47C11E4
:1010C0004160416841F4E8114160016841F080717C
:1010D000016001688901FCD5416821F0030141608C
:1010E000416841F0020141604168C1F38101022978
:1010F000FAD10CBD00910CBD00100240002002404E
:101100004FF0E0210428086903D020F004000861B2
:10111000704740F00400FAE70248C168491CC1600A
:1011200070470000000000200F4810B5016841F032
:101130000101016041680D4A1140416001680C4A9B
:1011400011400160016821F480210160416821F4AF
:10115000FE0141604FF41F018160FFF77DFF0549EB
:101160004FF00060086010BD001002400000FFF862
:10117000FFFFF6FE08ED00E070B5048C24F00104DA
:101180000484058B048C4FF6FF7606EA03131343A1
:1011900025F0F3050E4A2B4390420ED00D4A9042A3
:1011A0000BD0B0F1804F08D00B4A904205D00B4ACB
:1011B000904202D00A4A904202D124F0020201E099
:1011C00024F00A020A4342F001010383018470BD46
:1011D000002C0140003401400004004000080040A1
:1011E000000C0040F0B5048C24F010040484078B3C
:1011F000048C4FF6FF7527F4734705EA03333B432E
:1012000005EA02221A43114B05EA011698420ED054
:101210000F4B98420BD0B0F1804F08D00D4B984245
:1012200005D00D4B984202D00C4B984205D124F0CA
:101230002001314341F0100104E024F0A0030B43EE
:1012400043F0100102830184F0BD0000002C014036
:10125000003401400004004000080040000C004041
:10126000AFF3008010B588B001210820FFF7DAFE47
:10127000C020ADF8180004208DF81B0003208DF865
:101280001A0006A92048FFF721F901210420FFF7E1
:10129000B1FE1E4C204600F049F86946204600F099
:1012A000E9F94FF6FF700021ADF80400ADF8001029
:1012B000ADF80610ADF802106946204600F0DAF9E4
:1012C000022300220321204600F0E8F803A800F0E2
:1012D00097F90620ADF8140003A9204600F0FAF8AB
:1012E0000121204600F014F801221146204600F0AA
:1012F0008FF90021204600F093F90121204600F0EB
:101300000AF808B010BD0000000C014000080040C1
:10131000C943018270470029018802D041F00101D0
:1013200001E021F001010180704700004B4910B538
:10133000884202D10121C41486E0B0F1804F09D067
:10134000474988420DD101210220FFF75FFE0021AD
:10135000022064E001210846FFF758FE0021012029
:101360005DE04049884206D101210420FFF74EFE8E
:101370000021042053E03C49884206D10121082085
:10138000FFF744FE0021082049E03849884206D191
:1013900001211020FFF73AFE002110203FE03449E0
:1013A000884206D101212020FFF730FE00212020B5
:1013B00035E03049884202D10121441444E02E49ED
:1013C000884202D10121CC043EE02C49884202D15E
:1013D00001210C0538E02A49884202D101214C053F
:1013E00032E02849884206D101214020FFF70EFE55
:1013F0000021402013E02449884206D101218020A9
:10140000FFF704FE0021802009E0204988420AD12C
:10141000841501212046FFF7F9FD00212046BDE893
:101420001040FFF7F3BD1A49884202D101210C0494
:101430000AE01849884202D101214C0404E016490F
:1014400088420AD101218C042046FFF7F7FD20468F
:10145000BDE810400021FFF7F1BD10BD002C014098
:101460000004004000080040000C00400010004054
:101470000014004000340140004C01400050014085
:101480000054014000180040001C004000200040B3
:1014900000400140004401400048014070B505890A
:1014A000048B068C25F007050D434FF6FC410C40DC
:1014B00040F201110C434FF6FF7101EA031126F0CF
:1014C00022061143314305810483018470BD808C61
:1014D000704700002DE9F05F0D4604460888434F31
:1014E000DFF80CC1DFF80C814988AA882B894FF0FE
:1014F000804960B3042833D04FF6FF7E082838D0E7
:10150000208C9B4620F480502084A38B268C704630
:1015100000EA022223F473431A4300EA0B3010431B
:101520000EEA013EBC420BD0644509D04C4507D0C1
:10153000444505D0304A944202D0304B9C4248D1B9
:1015400026F4005141EA0E0141F4805146E0204664
:10155000FFF712FEE9882046BDE8F05F00F062B8B0
:101560002046FFF73FFEE9882046BDE8F05F00F027
:1015700061B8208C20F480702084B4F81CA0208CEA
:101580000EEA031313432AF0F30A0EEA012B43EA8F
:101590000A03BC420BD0644509D04C4507D04445F2
:1015A00005D0154A944202D0144A944204D120F442
:1015B000007040EA0B0002E020F42060084340F491
:1015C0008070A3832084E9882046BDE8F05F00F0A6
:1015D0003DB826F402420A4342F48051A0832046DB
:1015E0002184E988BDE8F05F00F038B8002C0140A4
:1015F000003401400004004000080040000C00409E
:1016000000210180418001228280C18001817047D8
:10161000002A828901D00A4300E08A438281704710
:1016200081847047028B22F00C020283028B0A43F2
:1016300002837047028B22F440620283028B4FF6D2
:10164000FF7303EA01210A4302837047828B22F071
:101650000C028283828B0A4382837047828B22F43E
:1016600040628283828B4FF6FF7303EA01210A43B3
:101670008283704730B502881B4B1C4C98420DD0BA
:10168000A0420BD0B0F1804F08D0194DA84205D030
:10169000184DA84202D0184DA84203D122F070057F
:1016A0004A882A43154DA84206D0154DA84203D0BA
:1016B00022F44075CA882A4302808A8882850A8873
:1016C000028598420AD0A04208D00E4A904205D026
:1016D0000D4A904202D00D4A904201D1097A01860A
:1016E0000121818230BD0000002C01400034014006
:1016F0000004004000080040000C004000100040C2
:1017000000140040004001400044014000480140F6
:1017100070B5154C40F22551204600F02BF80028FA
:101720000ED0204600F045F8C2B2104801880B04E4
:1017300006D44C044FF0000306D50A2A01D00380DA
:1017400070BD41F400410DE00D2A09D0C1F30D0434
:10175000074D491C89B22A550180C729EFD870BDB1
:1017600041F48041018070BD003801402400002018
:101770004A00002030B501F01F0201240025C1F30A
:10178000421304FA02F2012B0FD0022B0FD0838AEE
:101790004FEA11210088134204FA01F400EA040020
:1017A00001D000B10125284630BD8389F0E7038AC6
:1017B000EEE78088C0F308007047FEE702E008C843
:1017C000121F08C1002AFAD170477047002001E0BB
:1017D00001C1121F002AFBD17047000010B56FF045
:1017E0000400FFF78DFC094809490068B0FBF1F0DF
:1017F000C1B2084801EB41020170C2EBC1114FF6C2
:10180000FF7202EAC101418010BD000028000020E3
:1018100000127A00200000200B49498848434FF00D
:10182000E021486100228A61086940F001000861F6
:101830000869C30701D0C003FAD5086920F0010088
:1018400008618A6170470000200000200B49097878
:1018500048434FF0E021486100228A61086940F066
:10186000010008610869C30701D0C003FAD50869FF
:1018700020F0010008618A6170470000200000200C
:101880001CB5FFF7ABFF4FF4A060FFF79BFBFEF723
:10189000C5FFFFF7E5FC2C4D0021E9602B484FF414
:1018A0007A720068B0FBF2F0B0F1807F0CD220F0C9
:1018B0007F424FF0E020521E4261254BF02283F818
:1018C000142D816107210161224E10243046FFF75B
:1018D000FEFD2988411A09B269802880A868084459
:1018E000A86000F03BF8A869002821DC1AA0CDE927
:1018F000004001231A4614210A20FFF724FBAA699D
:101900000094002A00DA5242142108230846FFF707
:10191000DFFA08230022009428211420FFF7D8FAC8
:101920000094EA680A2350211420FFF7D1FACDE78A
:1019300014210823002208460094FFF7C9FA0094F6
:101940000823AA69E8E70000000000202800002022
:101950000FE000E0000800402D0000002DE9F047F6
:10196000134C0746E6682069301AFEF77DFC00221A
:10197000104BFEF7F9FB054660698A46381AFEF7F8
:1019800062FC804689466068FEF75DFC02460B46B5
:1019900040464946FEF7E8FB2A465346FEF7E4FB7D
:1019A000FEF76FFC2661C4E90570BDE8F087000012
:1019B00000000020004CED4000000000000000008E
:1019C00000000000000000003F4000000000000098
:1019D00000003000400030004000000009000BC053
:1019E0003D000BC03D00090018C024407FE02240AC
:1019F00031800000180024C01B000D80324001809F
:101A000003801C4027401C800740004010006000FD
:101A100000000000000000000000000000001F8027
:101A2000204040200000402020401F800000000097
:101A3000090006001F8006000900000004000400E1
:101A40003F8004000400000000100060000000005F
:101A50000000000004000400040004000400000072
:101A6000000000400000000000000000002001C055
:101A700006003800400000001F8020402040204029
:101A80001F800000000010403FC000400000000028
:101A900018C02140224024401840000010802040FF
:101AA000244024401B80000002000D0011003FC0B4
:101AB000014000003C80244024402440238000005A
:101AC0001F80244024403440038000003000200068
:101AD00027C03800200000001B8024402440244000
:101AE0001B8000001C0022C0224022401F800000FA
:101AF000000000000840000000000000000000009E
:101B00000460000000000000000004000A00110052
:101B10002080404009000900090009000900000078
:101B200000004040208011000A000400180020003E
:101B300023402400180000001F8020402740294037
:101B40001F400000004007C039000F0001C00040E6
:101B500020403FC0244024401B8000001F802040C4
:101B6000204020403080000020403FC020402040E6
:101B70001F80000020403FC024402E4030C00000A5
:101B800020403FC024402E00300000000F00108095
:101B9000204022403380020020403FC00400040067
:101BA0003FC02040204020403FC020402040000057
:101BB0000060202020203FC02000200020403FC0A7
:101BC00024400B0030C0204020403FC02040004057
:101BD000004000C03FC03C0003C03C003FC00000CC
:101BE00020403FC00C4023003FC020001F80204009
:101BF000204020401F80000020403FC0244024009F
:101C0000180000001F802140214020E01FA000009C
:101C100020403FC02440260019C0004018C0244086
:101C20002440224031800000300020403FC020404E
:101C30003000000020003F80004000403F80200036
:101C400020003E0001C0070038002000380007C017
:101C50003C0007C038000000204039C0060039C0F1
:101C6000204000002000384007C03840200000001D
:101C7000304021C02640384020C000000000000055
:101C80007FE0402040200000000070000C00038036
:101C9000004000000000402040207FE000000000E5
:101CA0000000200040002000000000000010001094
:101CB00000100010001000100000000040000000A4
:101CC00000000000000002800540054003C0004005
:101CD00020003FC004400440038000000000038057
:101CE00004400440064000000000038004402440FB
:101CF0003FC0004000000380054005400340000055
:101D0000000004401FC0244024402000000002E0E6
:101D1000055005500650042020403FC004400400F8
:101D200003C000400000044027C000400000000045
:101D300000100010041027E00000000020403FC009
:101D40000140070004C00440204020403FC0004044
:101D50000040000007C0040007C0040003C00000EA
:101D6000044007C00440040003C00040000003809A
:101D70000440044003800000041007F004500440B5
:101D800003800000000003800440045007F00010AE
:101D9000044007C0024004000400000000000640A8
:101DA0000540054004C00000000004001F800440FE
:101DB00000400000040007800040044007C00040CD
:101DC0000400070004C0018006000400060001C0F2
:101DD000070001C006000000044006C0010006C064
:101DE000044000000410071004E001800600040015
:101DF0000000044005C00640044000000000000050
:101E000004007BE040200000000000000000FFF024
:101E100000000000000040207BE004000000000003
:101E20004000800040002000200040000000000032
:101E300000000000000000000000000000000000A2
:101E400000001FCC000C0000000000000000080093
:101E5000300060000800300060000000022003FC39
:101E60001E20022003FC1E200220000000000E188D
:101E700011043FFF10840C78000000000F00108454
:101E80000F3800C0077818840078000000780F84AD
:101E900010C411240E9800E40084000808006800B3
:101EA00070000000000000000000000000000000C2
:101EB000000007E018182004400200000000400263
:101EC0002004181807E00000000000000240024053
:101ED00001800FF00180024002400000008000807D
:101EE00000800FF800800080008000000001000DDD
:101EF000000E000000000000000000000000008054
:101F00000080008000800080008000800000000CC5
:101F1000000C0000000000000000000000000006AF
:101F2000001800600180060018002000000007F083
:101F3000080810041004080807F000000000080456
:101F400008041FFC000400040000000000000E0C48
:101F500010141024104411840E0C000000000C1802
:101F600010041104110412880C700000000000E03D
:101F70000320042408241FFC0024000000001F98F4
:101F8000108411041104108810700000000007F084
:101F900008881104110418880070000000001C005B
:101FA000100010FC13001C001000000000000E3890
:101FB00011441084108411440E3800000000070002
:101FC000088C10441044088807F00000000000004E
:101FD0000000030C030C00000000000000000000E3
:101FE0000001010600000000000000000000008069
:101FF0000140022004100808100400000220022002
:102000000220022002200220022000000000100412
:1020100008080410022001400080000000000E00AB
:102020001200100C106C10800F00000003E00C1860
:1020300013E4142417C4082807D000000004003C4F
:1020400003C41C40074000E4001C000410041FFCF3
:102050001104110411040E880070000003E00C1834
:1020600010041004100410081C10000010041FFCC1
:10207000100410041004080807F0000010041FFCEE
:102080001104110417C410040818000010041FFCE8
:102090001104110017C010000800000003E00C1824
:1020A0001004100410441C780040000010041FFCB1
:1020B00010840080008010841FFC100400001004B5
:1020C00010041FFC100410040000000000030001B5
:1020D000100110011FFE10001000000010041FFC72
:1020E000110403801464181C1004000010041FFC69
:1020F0001004000400040004000C000010041FFC85
:102100001F0000FC1F001FFC1004000010041FFC37
:102110000C04030000E010181FFC100007F0080872
:10212000100410041004080807F0000010041FFC3D
:1021300010841080108010800F00000007F0081835
:1021400010241024101C080A07F2000010041FFCC1
:102150001104110011C011300E0C000400000E1CFF
:1021600011041084108410441C3800001800100062
:1021700010041FFC100410001800000010001FF8CD
:1021800010040004000410041FF8100010001E00CA
:1021900011E0001C007013801C0010001FC0103CD8
:1021A00000E01F0000E0103C1FC000001004180CED
:1021B000163401C001C01634180C100410001C00A5
:1021C000130400FC13041C00100000000804101C81
:1021D0001064108413041C04101800000000000098
:1021E00000007FFE4002400240020000000030007C
:1021F0000C0003800060001C00030000000040028F
:10220000400240027FFE00000000000000000000CD
:1022100020004000400040002000000000010001BC
:102220000001000100010001000100010000400068
:1022300040002000000000000000000000000098A6
:10224000012401440144014400FC000410001FFC6F
:102250000088010401040088007000000000007084
:1022600000880104010401040088000000000070DF
:1022700000880104010411081FFC0004000000F89C
:10228000014401440144014400C80000000001046D
:1022900001040FFC1104110411001800000000D605
:1022A00001290129012901C90106000010041FFCB0
:1022B000008401000100010400FC0004000001048E
:1022C000190419FC000400040000000000000003D1
:1022D00000010101190119FE0000000010041FFC9B
:1022E0000024004001B4010C0104000000001004AF
:1022F00010041FFC0004000400000000010401FCA5
:102300000104010001FC0104010000FC010401FCC6
:10231000008401000100010400FC0004000000F83A
:10232000010401040104010400F80000010101FF9F
:1023300000850104010400880070000000000070A6
:10234000008801040104010501FF000101040104EA
:1023500001FC00840104010001800000000000CCA9
:10236000012401240124012401980000000001003F
:10237000010007F80104010400000000010001F859
:10238000000400040004010801FC000401000180B5
:102390000170000C001001600180010001F0010CCF
:1023A000003001C00030010C01F001000000010408
:1023B000018C00740170018C010400000101018195
:1023C0000171000E0018016001800100000001840D
:1023D000010C013401440184010C000000000000E4
:1023E0000000000001003EFC40024002000000002E
:1023F00000000000FFFF000000000000000040029D
:1024000040023EFC010000000000000000006000EF
:1024100080008000400040002000200000000000FC
:1024200000000000000000000000000000000000AC
:10243000000000000000000000000000000000009C
:102440000000000000000000000000000000000F7D
:1024500080380FFE380F80380000000000000000B8
:102460000000000000000000000001000006000065
:102470000C00003800003100000600000C0000389D
:1024800000003000000000000000000061800067D4
:10249000F807F98000618000618000618000618040
:1024A0000067F807F980006180000000000000006C
:1024B000000001C0E003E0F00630080418081FFF28
:1024C000FE040E080787F00381E000000000000012
:1024D00001F000060C00040408060C7001F9C000AD
:1024E0000E00003BE000EC18070808040C1800037D
:1024F000E00000000001E00007F003F818041C08E9
:1025000004170807E1D003C0E00023B0003C080036
:102510002008000010000000000000010000310051
:10252000003200001C00000000000000000000005D
:10253000000000000000000000000000000000009B
:102540000000000000000000000000007F0001FF0C
:10255000C00780F00C0018100004200002000000EA
:102560000000002000021000040C00180780F00199
:10257000FFC0007F0000000000000000000000001D
:10258000000000000000000042000066000066003D
:10259000003C0000180003FFC0001800003C0000D1
:1025A000660000660000420000000000080000080D
:1025B0000000080000080000080001FFC00008003B
:1025C00000080000080000080000080000000000EB
:1025D000000100003100003200001C00000000007B
:1025E00000000000000000000000000000000000EB
:1025F00000000000080000080000080000080000BB
:10260000080000080000080000080000080000089A
:10261000000000000000000000000000380000384A
:102620000000380000000000000000000000000072
:102630000000000000000000000000000006000094
:102640001C000070000180000E0000380000C00077
:102650000700001C00003000000000000000000027
:102660007F8001FFE003807006001804000804006A
:102670000806001803807001FFE0007F8000000062
:10268000000000000000010008010008010008032C
:10269000FFF807FFF800000800000800000800002D
:1026A0000000000000000001C03802C0580400987B
:1026B000040118040218040418061C1803F8180171
:1026C000E0F800000000000000000001C0E003C0CE
:1026D000F004000804080804080806180803F418A1
:1026E00001E7F00001E00000000000000000000031
:1026F0000300000D000011000061000081080301CB
:102700000807FFF80FFFF8000108000108000000AB
:102710000000000000E007FCD006080806100806CC
:102720001008061008061838060FF00607C000004B
:1027300000000000000000003F8001FFE003843043
:1027400002081804100804100804100807181003E1
:102750000FF00007C000000000000000000003C0F0
:10276000000700000600000600F80607F80618003B
:1027700006E0000700000600000000000000000165
:10278000E1E003F7F0063410041808041808040CFC
:1027900008040C0806161803F3F001C1E00000005D
:1027A00000000000F80003FC3003063804020804AF
:1027B00002080402080404100308F001FFC0007FAF
:1027C0000000000000000000000000000000000009
:1027D0000000000070380070380070380000000001
:1027E00000000000000000000000000000000000E9
:1027F0000000000000000000301A00301C00000043
:1028000000000000000000000000000000000000C8
:1028100000000008000014000022000041000080B9
:1028200080010040020020040010080008000000A1
:102830000000000021000021000021000021000014
:1028400021000021000021000021000021000021C2
:102850000000000000000000000008000804001054
:1028600002002001004000808000410000220000A2
:10287000140000080000000000000003C00004C0B5
:1028800000040000080038080F3808083808100055
:102890000C300007E00003C0000000000000000052
:1028A0003F8000FFE0038070020F1006708804C0B4
:1028B00088048308047F8802C09003012000FE4042
:1028C0000000080000180001F8003E0801C20007DF
:1028D000020007E20000FE00001FC80001F800002F
:1028E0003800000804000807FFF807FFF80408088C
:1028F00004080804080804080806180803F4180166
:10290000E7F00001E0000000000000003F8001FF50
:10291000E0038070020018040008040008040008A6
:102920000400100600200780C00000000400080713
:10293000FFF807FFF804000804000804000804007A
:102940001802001003807001FFE0007F800000008B
:1029500004000807FFF807FFF80408080408080443
:102960000808040808043E080400080600180100CE
:102970006000000004000807FFF807FFF8040808DB
:10298000040800040800040800043E0006000006D5
:102990000000018000000000000000003F8001FFF7
:1029A000E00380700600180400080402080402080E
:1029B0000203F00783F00002000002000400080791
:1029C000FFF807FFF80408080008000008000008E6
:1029D0000000080004080807FFF807FFF8040008D3
:1029E00000000000000004000804000804000807BC
:1029F000FFF807FFF80400080400080400080000BE
:102A000000000000000000000006000007000001B8
:102A100004000104000104000307FFFE07FFFC049B
:102A2000000004000004000004000807FFF807FF8E
:102A3000F8040C08001800003E0004C7800503C815
:102A40000600F80400380400180000080400080715
:102A5000FFF807FFF8040008000008000008000065
:102A600008000008000008000018000060000000D6
:102A700004000807FFF807800807FC00007FC0007B
:102A800003F80007C000780007800807FFF807FF79
:102A9000F804000804000807FFF807000803C00056
:102AA00000E000003800001E000007000001C00424
:102AB00000F007FFF8040000000000007F8001FF25
:102AC000E0038070060018040008040008060018DF
:102AD00003003001FFE0007F8000000004000807D1
:102AE000FFF807FFF80404080404000404000404C9
:102AF00000040400060C0003F80001F000000000D0
:102B0000000000007F8001FFE00380700600880461
:102B100000880400C806003C03003E01FFE6007F79
:102B20008400000004000807FFF807FFF804080805
:102B3000040800040C00040F00040BC00610F0038E
:102B4000F03801E00800000800000001E0F803F0A0
:102B500030063010041808041808040C08040C0887
:102B60000206180207F00781E0000000018000065D
:102B7000000004000004000004000807FFF807FF3D
:102B8000F8040008040000040000060000018000B2
:102B900004000007FFE007FFF00400180000080031
:102BA000000800000800000800000804001007FFEB
:102BB000E004000004000006000007E00007FE003B
:102BC000041FE00001F80000380001E0043E0007A7
:102BD000C00006000004000004000007E00007FF3A
:102BE000C0041FF80007C007F80007FF80043FF883
:102BF0000007C004F8000700000400000000000403
:102C0000000806001807C07805F1C8003E00001F44
:102C1000800463E80780F80600180400080000003C
:102C200004000006000007800007E008047C08009C
:102C30001FF80007F800180804E008070000060065
:102C4000000400000000000100080600380400F83D
:102C50000403E8040F08047C0805F00807C008070F
:102C600000180400600000000000000000000000E8
:102C7000000000000000003FFFFE200002200002D4
:102C800020000220000220000200000000000000DE
:102C9000000008000007000000C000003800000627
:102CA000000001C000003000000E00000100000024
:102CB000000000000000200002200002200002208E
:102CC00000022000023FFFFE0000000000000000A4
:102CD00000000000000000000000000000080000EC
:102CE000100000300000200000300000100000083C
:102CF00000000000000000000000010000010000D2
:102D000001000001000001000001000001000001BD
:102D100000000100000100000100000100000000AF
:102D20000000000000200000200000100000100043
:102D30000000000000000000000000000000000093
:102D40000000000000F00019F8001B180022080025
:102D50002608002408002410003FF8001FF8000097
:102D60000800001800000004000007FFF80FFFF043
:102D70000018180010080020080020080030180073
:102D80001FF0000FC00000000000000007C0001F7F
:102D9000F0001830002008002008002008003C083F
:102DA000001C100000600000000000000000000097
:102DB00007C0001FF000381800200800200800207D
:102DC0000804101007FFF80FFFF0000010000000CB
:102DD0000000000000000007C0001FF000123000DB
:102DE0002218002208002208003208001E10000EDF
:102DF0002000000000000000200000200800200843
:102E000001FFF803FFF80620080420080420080743
:102E1000200003000000000000000000000E000E73
:102E20006E001FF30031B10020B10020B1003191DC
:102E3000001F13002E1E00200E00300000000004B2
:102E4000000807FFF80FFFF800100800200000201E
:102E500000002008003FF8001FF8000008000000F4
:102E600000000000000000200800200800200806E4
:102E70003FF8063FF80000080000080000080000C6
:102E8000000000000000000000000000030000033C
:102E9000002001002001002003063FFE063FFC0049
:102EA000000000000000000000000004000807FF10
:102EB000F80FFFF8000188000300002FC00038F869
:102EC000002038002008000008000000000000007A
:102ED000000004000804000804000807FFF80FFFC2
:102EE000F8000008000008000008000000000000D2
:102EF000002008003FF8003FF80010080020000004
:102F00003FF8003FF8001008002000003FF8003FA5
:102F1000F8000008000000002008003FF8003FF81B
:102F2000001008001000002000002008003FF800FA
:102F30001FF80000080000000000000007C0000F9C
:102F4000F000183000300800200800200800300889
:102F5000001830000FF00007C00000000000000063
:102F60002001003FFF003FFF00101100200900205A
:102F700008002008003038001FF0000FC0000000DB
:102F80000000000007C0001FF000381800200800F3
:102F90002008002009001011001FFF003FFF000063
:102FA00001000000002008002008002008003FF871
:102FB000003FF8000808001008002008002000006A
:102FC0003000003000000000000000000000000C95
:102FD00078001E180033080023080021080021880B
:102FE0000021980030F00038600000000000000070
:102FF000200000200000200000FFF003FFF8002068
:103000000800200800200800003000000000000038
:10301000000000002000003FF0007FF800001800D2
:103020000008000008002010003FF8007FF00000BA
:1030300010000000000000002000003000003C00F4
:10304000003F800023F00000780000700023800023
:103050003C00003000002000002000003C00003F49
:10306000E00023F80000E0002700003E00003FE001
:103070000021F80001E0003E0000200000000000F8
:103080002008002008003838003E68002780000330
:10309000C8002CF800383800201800200800000074
:1030A000000000002000003003003C01003F8300CE
:1030B00023EC000070002380003C00002000002072
:1030C0000000000000000000000000380800203868
:1030D0000020F80023E8002F88003E080038080090
:1030E0002018000070000000000000000000000038
:1030F000000000000000000008000014001FF7FCA2
:103100003000062000020000000000000000000067
:103110000000000000000000000000000000FFFFB1
:10312000FF000000000000000000000000000000A0
:103130000000000000002000023000061FF7FC0025
:103140001400000800000000000000000000000063
:1031500000000000000000180000600000400000B7
:1031600040000020000010000008000004000004DF
:1031700000000C0000100000983100080000002042
:103180003C000000BC170008D43100083C000020BF
:10319000DC040000CC17000800000000983A000092
:1031A000000000000000000000000000000000001F
:1031B000000000000000FFFF000000000000000011
:1031C00000A24A0400000000000000000102030405
:0431D00006070809DD
:0400000508000131BD
:00000001FF
