:020000040800F2
:10000000201D00200D0200087522000819190008A3
:1000100071220008A1080008F53A0008000000005D
:100020000000000000000000000000000532000891
:10003000DF15000800000000F92E00083933000821
:1000400027020008270200082702000827020008EC
:1000500027020008270200082702000827020008DC
:1000600027020008270200082702000827020008CC
:100070002702000889130008270200082702000849
:10008000A913000827020008270200086D3A00089B
:10009000893A000827020008270200082702000802
:1000A000270200082702000827020008270200088C
:1000B000270200082702000827020008270200087C
:1000C000270200082702000827020008270200086C
:1000D000270200082702000827020008270200085C
:1000E000270200082702000827020008270200084C
:1000F000270200082702000827020008270200083C
:100100002702000827020008A93300082702000878
:10011000270200082702000829340008AD3400082F
:10012000270200082702000827020008270200080B
:1001300000F002F800F05AF80AA090E8000C82449F
:100140008344AAF10107DA4501D100F04FF8AFF27C
:10015000090EBAE80F0013F0010F18BFFB1A43F0A5
:1001600001031847C8690000E86900000A444FF01D
:10017000000C10F8013B13F0070408BF10F8014B06
:100180001D1108BF10F8015B641E05D010F8016B4B
:10019000641E01F8016BF9D113F0080F1EBF10F8AF
:1001A000014BAD1C0C1B09D16D1E58BF01F801CBD2
:1001B000FAD505E014F8016B01F8016B6D1EF9D555
:1001C0009142D6D37047000000230024002500266A
:1001D000103A28BF78C1FBD8520728BF30C148BFAA
:1001E0000B6070471FB51FBD10B510BD00F0A6F81D
:1001F0001146FFF7F7FF04F06FF800F0C4F803B4FE
:10020000FFF7F2FF03BC00F0C9F80000094880477F
:1002100009480047FEE7FEE7FEE7FEE7FEE7FEE7E8
:10022000FEE7FEE7FEE7FEE704480549054A064B00
:1002300070470000493300083101000820170020F2
:10024000201D0020201900202019002040EA010371
:10025000024630B59B0710D14FF0013400E008C2D0
:1002600008C91D1B9D4315EAC41FF8D013F0FF01F8
:1002700002F8011B0DD01B0AF8E711F8013B002B17
:1002800002F8013B05D011F8013B002B02F8013BBD
:10029000F3D130BD02F0FF0343EA032242EA0242F7
:1002A00000F002B84FF000020429C0F0128010F0F4
:1002B000030C00F01E80CCF1040CBCF1020F18BF3F
:1002C00000F8012BA8BF20F8022BA1EB0C0100F0D5
:1002D00010B85FEAC17C24BF00F8012B00F8012BA5
:1002E00048BF00F8012B70477047704770474FF0C8
:1002F000000200B5134694469646203922BFA0E876
:100300000C50A0E80C50B1F12001BFF4F7AF090781
:1003100028BFA0E80C5048BF0CC05DF804EB890072
:1003200028BF40F8042B08BF704748BF20F8022BB5
:1003300011F0804F18BF00F8012B7047754600F090
:1003400029F8AE4605006946534620F00700854669
:1003500018B020B5FFF768FFBDE820404FF0000659
:100360004FF000074FF000084FF0000B21F007019D
:10037000AC46ACE8C009ACE8C009ACE8C009ACE8E0
:10038000C0098D4670470446AFF300802046FFF752
:1003900036FF000000487047BC16002001491820B5
:1003A000ABBEFEE726000200704721B1826842F032
:1003B0000102826003E0826822F0010282607047DD
:1003C00021B1826842F48072826003E0826822F484
:1003D000807282607047000008B50121102002F091
:1003E000BDFD3C20ADF8000000208DF803006946FB
:1003F000014801F0F5F808BD001001400146002059
:100400008A6802F004020AB1012000E0002070476F
:10041000014600208A6802F008020AB1012000E0CB
:100420000020704730B502460020002350680F4C72
:1004300020400D790C6844EA052420435060906800
:100440000B4C2040D1E902542C434D7944EA450439
:1004500020439060D06A20F470000C7C641EE4B2EB
:10046000234340EA0350D06230BD0000FFFEF0FF9E
:10047000FDF7F1FFF0B504460D4600200021092DDF
:1004800011DDE068A5F10A0606EB4607072606FA25
:1004900007F18843A5F10A0606EB460603FA06F1C2
:1004A0000843E0600CE0206905EB4507072606FAE3
:1004B00007F1884305EB450603FA06F1084320617E
:1004C000072A0FDA606B561E06EB86071F2606FA10
:1004D00007F18843561E06EB860605FA06F1084327
:1004E000606322E00D2A0FDA206BD61F06EB860729
:1004F0001F2606FA07F18843D61F06EB860605FA83
:1005000006F10843206310E0E06AA2F10D0606EB55
:1005100086071F2606FA07F18843A2F10D0606EBAF
:10052000860605FA06F10843E062F0BD816841F0F5
:1005300008018160704721B1826842F4A0028260A4
:1005400003E0826822F4A00282607047816841F073
:10055000040181607047000000B591B00121084698
:1005600002F0CCFC0121480202F0F8FC3B4800F00C
:1005700053FF3B4806903B4807900020089004201A
:10058000099000200A9080200B9040000C90800081
:100590000D9020200E9000020F900020109006A9D0
:1005A0002E4800F0FEFF01212C4800F029FF00201A
:1005B000019001208DF808008DF809004FF46020AB
:1005C00003900020049004208DF8140001A9244811
:1005D0004C38FFF727FF062301220C2120484C3816
:1005E000FFF748FF062302220D211D484C38FFF774
:1005F00041FF062303220E2119484C38FFF73AFF2A
:10060000062304220F2116484C38FFF733FF01213F
:1006100013484C38FFF7D4FE012111484C38FFF73E
:10062000C4FE0F484C38FFF781FF00BF0C484C3820
:10063000FFF7EEFE0028F9D109484C38FFF786FF96
:1006400000BF07484C38FFF7D9FE0028F9D1012137
:1006500003484C38FFF76FFF11B000BD080002409F
:100660004C2401400604002030B589B004460D46F4
:100670000121084602F052FC0121042002F06EFC28
:100680000720ADF8200018208DF8230003208DF8F6
:10069000220008A92C4800F0A3FFADF81840ADF8DF
:1006A00014500020ADF81A00ADF8160005A94FF05F
:1006B000804003F093F87020ADF804000120ADF8FD
:1006C00006000020ADF80A00ADF80C0001A94FF0BB
:1006D000804002F06DFF01A94FF0804002F0BEFFA4
:1006E00001A94FF0804003F019F80121880702F0BA
:1006F00036FF0821C80602F0A7FF0821C80602F04D
:10070000FFFF0821C80603F059F80121880702F00D
:100710000BFF0121880702F016FF0C48008881B208
:100720004FF0804003F053F80848408881B24FF002
:10073000804003F04EF80548808881B24FF0804039
:1007400003F049F809B030BD000801402E04002034
:1007500010B54348B0F904004249B1F90010081A35
:10076000002803DD01204049088003E04FF0FF30FE
:100770003D49088013E03D48B0F9000003F004FC57
:100780003748808881B24FF0804003F024F8344825
:10079000808835490988084400B23149888030484A
:1007A000B0F904002F49B1F900108842E3D111E0FB
:1007B0002E48B0F9000003F0E7FB2948408881B2D9
:1007C0004FF0804003F005F825484088401E00B2F5
:1007D000234948802248B0F902002549B1F90010A8
:1007E0008842E5D12348B0F900001D49B1F9001055
:1007F000401A002803DD01201F49088003E04FF064
:10080000FF301D49088022E01848B0F9000003F0CD
:10081000BBFB1348008881B24FF0804002F0D7FF45
:100820000F48408881B24FF0804002F0D2FF0C4860
:10083000008811490988084400B20949088008461F
:1008400040880D490988401A00B20549488004488B
:10085000B0F900000749B1F900108842D4D110BDA9
:100860002E040020540400202C0400203A04002010
:1008700034040020360400202A04002010B5044669
:10088000012C04D1C103054800F089FF04E04FF4B6
:100890000041024800F081FF10BD00000008014047
:1008A00000BFFEE7B1F5007F3AD00FDC202928D049
:1008B00006DC01291CD004291DD0082940D11DE0E7
:1008C000402921D0B1F5807F3AD126E0B1F5004F23
:1008D00031D006DCB1F5806F25D0B1F5006F2FD196
:1008E00024E0B1F5803F12D0B1F5003F28D111E0EE
:1008F000154A826025E00822C26022E01022C26010
:100900001FE0082202611CE01022026119E00822A7
:10091000426016E01022426013E00422426010E0C0
:10092000042242600DE0042242600AE0002282615B
:100930000422426005E0002282610422426000E05D
:1009400000BF00BF704700000101010010B5002189
:10095000837A012202FA03F13D4A126842F0010251
:100960003B4B1A603A4A1C3212688A43384B1C339C
:100970001A60027BCAB9364A0C3212688A43344B79
:100980000C331A604288C38842EA0343304A40323B
:10099000847A42F834300288838842EA03432C4A3E
:1009A0004032847A02EBC4025360027B012A19D1DF
:1009B000274A0C3212680A43254B0C331A604288CE
:1009C000038842EA0343224A4032847A42F83430B0
:1009D000C288838842EA03431D4A4032847A02EB8C
:1009E000C4025360C27A3AB9194A121D12688A4386
:1009F000174B1B1D1A6006E0154A121D12680A43A8
:100A0000134B1B1D1A60028932B9114A1432126845
:100A10008A430F4B14331A600289012A06D10C4A0B
:100A2000143212680A430A4B14331A60427B012ABB
:100A300006D1074A1C3212680A43054B1C331A6060
:100A4000034A126822F00102014B1A6010BD000037
:100A50000066004070B504460D46002660692840D7
:100A6000002871D0B5F5807F5CD010DC082D35D022
:100A700006DC012D20D0022D24D0042D72D127E0D8
:100A8000102D31D0202D35D0402D6BD138E0B5F56B
:100A9000004F60D009DCB5F5007F49D0B5F5806F17
:100AA0004CD0B5F5006F5DD14FE0B5F5803F2DD04E
:100AB000B5F5003F56D12FE0A0682D4900F05AFC53
:100AC000064651E0E068032100F054FC06464BE086
:100AD000E068082100F04EFC064645E0E068102181
:100AE00000F048FC06463FE02069032100F042FC8C
:100AF000064639E02069082100F03CFC064633E058
:100B00002069102100F036FC06462DE060680821BF
:100B100000F030FC064627E06068102100F02AFC57
:100B2000064621E0A069012100F024FC06461BE0F6
:100B3000A069022100F01EFC064615E0A069042110
:100B400000F018FC06460FE00FE0A069702100F0ED
:100B500011FC064608E06068042100F00BFC064624
:100B600002E0FFE7002600BF00E00026304670BD2F
:100B7000010101001AB143690B43436102E043697B
:100B80008B434361704730B5024600200023146850
:100B900024F002041460146844F00104146000E0BE
:100BA0005B1C546804F001041CB94FF6FF74A342A7
:100BB000F6D1546804F001040CB900206CE08C7983
:100BC000012C04D1146844F08004146003E014681C
:100BD00024F080041460CC79012C04D1146844F012
:100BE0004004146003E0146824F0400414600C7A9C
:100BF000012C04D1146844F02004146003E014684C
:100C000024F0200414604C7A012C04D1146844F0C0
:100C10001004146003E0146824F0100414608C7A4B
:100C2000012C04D1146844F00804146003E0146833
:100C300024F008041460CC7A012C04D1146844F028
:100C40000404146003E0146824F0040414608C7835
:100C5000A407CD7844EA05640D7944EA05444D794A
:100C600044EA05540D886D1E2C43D461146824F0A9
:100C700001041460002300E05B1C546804F00104CC
:100C80001CB14FF6FF74A342F6D1546804F001047E
:100C90000CB1002000E0012030BD000000B589B09B
:100CA0000121042002F05AF90121480602F036F928
:100CB0004FF48050ADF8200003208DF8220018205A
:100CC0008DF8230008A9374800F08AFC4FF4006033
:100CD000ADF8200048208DF8230008A9314800F025
:100CE0007FFC00208DF81A008DF81B008DF81C0089
:100CF0008DF81D008DF81E0001208DF81F000020CA
:100D00008DF816008DF8170008208DF818000720C0
:100D10008DF819000220ADF8140005A92248FFF74C
:100D200032FF00208DF80E008DF80F0001208DF8A5
:100D300010000020ADF80400ADF80600ADF8080082
:100D4000ADF80A00ADF80C0001208DF8110001A8E3
:100D5000FFF7FCFD012202211348FFF70BFF0122E0
:100D600011461148FFF706FF14208DF800000120FE
:100D70008DF801008DF802008DF80300684601F03F
:100D80007BFA13208DF8000000208DF8010001206F
:100D90008DF802008DF80300684601F06DFA09B085
:100DA00000BD0000000801400064004010B500F5DF
:100DB000D87303EB01131B6803F004031372137A57
:100DC00053B900F5D87303EB01131B6840F2FF74AD
:100DD00004EA5353136009E000F5D87303EB0113E1
:100DE0001B686FF0604404EAD303536000F5D873C6
:100DF00003EB01131B6803F00203537200F5D87371
:100E000003EB01135B6803F00F03937200F5D873D3
:100E100003EB01135B681B0AD37400F5D87303EB73
:100E200001139B68D37200F5D87303EB01139B6821
:100E30001C0A147300F5D87303EB01139B681C0C98
:100E4000547300F5D87303EB01139B681B0E937367
:100E500000F5D87303EB0113DB68D37300F5D87387
:100E600003EB0113DB681C0A147400F5D87303EB61
:100E70000113DB681C0C547400F5D87303EB0113E9
:100E8000DB681B0E937421B9C36843F02003C36071
:100E900003E0036943F02003036110BD10B502466F
:100EA0000020936803F08063B3F1806F00D110E0FD
:100EB000936803F00063B3F1006F01D1012008E0F3
:100EC000936803F08053B3F1805F01D1022000E00A
:100ED0000420042874D002F5C07303EB00131B68D0
:100EE00003F0010402F5C07303EB00131C600B7ADE
:100EF0007BB94B7A0C8843EA445302F5C07404EB87
:100F000000142468234302F5C07404EB001423602A
:100F100010E00B7A4C6843EAC4034C7A234302F591
:100F2000C07404EB00142468234302F5C07404EB7E
:100F3000001423608B7A03F00F038B7202F5C073E9
:100F400003EB00135B6823F00F0402F5C07303EB9F
:100F500000135C6002F5C07303EB00135B688C7ACE
:100F6000234302F5C07404EB001463608B7B1C0602
:100F70004B7B44EA03440B7B44EA0323CC7A2343B0
:100F800002F5C07404EB0014A3608B7C1C064B7C40
:100F900044EA03440B7C44EA0323CC7B234302F55D
:100FA000C07404EB0014E36002F5C07303EB00139C
:100FB0001B6843F0010402F5C07303EB00131C60CF
:100FC00010BD00002DE9F04F89B03A4840883949FA
:100FD0000988401A00B2384988810846408A8989C0
:100FE000084400B2344948820846B0F9120006901D
:100FF0000846C089098A401A00B207902E48C08965
:101000002D49088208468089C881079805F09EF816
:10101000054629488168284605F0B0F8044604F0E2
:10102000A7FFCDE90401069805F090F8074622488D
:101030004168384605F0A2F8064604F099FF0446D8
:101040000D461D49086804F093FF06460F461A49ED
:10105000B1F90C0004F007FD804632463B4604F02F
:1010600069FD22462B46CDE9000104F0DDFBCDE908
:101070000201DDE9042304F0D7FB824604F0C4FC3E
:1010800000B20D4988820846B0F914000B49884225
:1010900003DA4FF62420084988820748B0F9140083
:1010A00040F2DC51884202DD08460349888209B0DB
:1010B000BDE8F08F440000206404002024FAFFFF04
:1010C0002DE9F04F89B03A48408839490988401ADB
:1010D00000B2384988810846408A8989084400B2AC
:1010E000344948820846B0F9120006900846C08983
:1010F000098A401A00B207902E48C0892D490882FB
:1011000008468089C881079805F020F805462948D7
:101110008168284605F032F8044604F029FFCDE93D
:101120000401069805F012F807462248416838463F
:1011300005F024F8064604F01BFF04460D461D4941
:10114000086804F015FF06460F461A49B1F90C006D
:1011500004F089FC804632463B4604F0EBFC224614
:101160002B46CDE9000104F05FFBCDE90201DDE98A
:10117000042304F059FB824604F046FC00B20D49FA
:1011800088820846B0F914000B49884203DA4FF60A
:101190002420084988820748B0F9140040F2DC5145
:1011A000884202DD08460349888209B0BDE8F08F15
:1011B000480000208004002024FAFFFF10B51648E4
:1011C0000078D8B115480078C0B900F0A7FB00221C
:1011D0001346134903C904F0ABFD0FD211484088F0
:1011E0001149898A084400B20E4948800F48408856
:1011F0000D49898A401A00B20C494880FFF7E2FE87
:10120000FFF75EFF0A48B0F914200A48B0F914103D
:10121000094802F06DF810BD1000002017040020EE
:1012200000000020440000209C0400204800002012
:101230008004002064040020006400402DE9F04197
:1012400046480068401C454908600846006804F0AC
:1012500021FC064642480CC8304604F06BFC0446AC
:101260000022404B04F064FD75D800203B49086023
:101270003D48007830B1012852D0022836D00328EA
:1012800068D119E000221346354903C904F050FD26
:1012900005D236480078401C344908700BE0002223
:1012A00013462F4903C904F009FC04D22F480078E3
:1012B000401E2E4908704DE000221346284903C9FC
:1012C00004F036FD05D22A480078401C28490870F1
:1012D0000BE000221346224903C904F0EFFB04D2BD
:1012E00023480078401E2249087033E0002213464C
:1012F0001B4903C904F01CFD05D21C480078401EA0
:101300001A4908700BE000221346154903C904F07E
:10131000D5FB04D215480078401C1449087019E028
:10132000002213460E4903C904F002FD05D21048FD
:101330000078401E0E4908700BE000221346084951
:1013400003C904F0BBFB04D209480078401C0849DB
:10135000087000BF00BFBDE8F08100007C000020E5
:1013600000000020000079400D0000200B0000204C
:101370000C0000200246002002EA01030BB101200C
:1013800000E000207047000010B54FF4007000F03E
:10139000E9F830B14FF4807000F024F8014802F011
:1013A00059FF10BD6E00002010B54FF4001000F082
:1013B000D9F830B14FF4801000F014F8014801F072
:1013C000EDFE10BDB804002000F0805111B10349BA
:1013D000086001E0024948607047000004040240D0
:1013E0000000024000F0805111B10349086001E0A3
:1013F00002494860704700000404024000000240B7
:1014000021B1026842F00102026004E002684FF676
:10141000FE731A400260704701684FF6FE72114079
:1014200001600021016041608160C1604B498842D8
:1014300008D14A490839496841F00F01474A083A3A
:1014400051608AE045491431884208D1434908393E
:10145000496841F0F001414A083A51607DE03F4956
:101460002831884208D13D490839496841F4706102
:101470003A4A083A516070E038493C31884208D114
:1014800036490839496841F47041344A083A516094
:1014900063E032495031884208D1304908394968FF
:1014A00041F470212D4A083A516056E02B496431CD
:1014B000884208D129490839496841F47001274A0E
:1014C000083A516049E025497831884208D12349DA
:1014D0000839496841F07061204A083A51603CE09F
:1014E0001F49884206D1011F096841F00F01021F00
:1014F000116032E01A491431884208D11849091F95
:10150000096841F0F001164A121F116025E01449E4
:101510002831884208D11249091F096841F47061D5
:101520000F4A121F116018E00D493C31884208D162
:101530000B49091F096841F47041094A121F1160E3
:101540000BE007495031884207D10549091F096856
:1015500041F47021024A121F1160704708000240D6
:101560000804024001460020002201F0805313B11C
:10157000054B1A6801E0054B1A6802EA01030BB13A
:10158000012000E0002070470004024000000240FB
:101590001AB103680B43036002E003688B430360E6
:1015A000704710B50022026847F6F0739A430C6A40
:1015B0008B6823430C6923434C6923438C69234381
:1015C000CC6923434C6A23438C6A23431A43026049
:1015D000CB6843600B6883604B68C36010BD704785
:1015E0002DE9F041024600250026002000230024BA
:1015F000002791F803C00CF00F0591F803C00CF020
:10160000100CBCF1000F03D091F802C04CEA0505A4
:1016100091F800C0BCF1000F31D0146800202BE01D
:101620004FF0010C0CFA00F3B1F800C00CEA03060D
:101630009E4220D183004FF00F0C0CFA03F7BC43FD
:1016400005FA03FC4CEA040491F803C0BCF1280F2E
:1016500006D14FF0010C0CFA00FCC2F814C00AE0ED
:1016600091F803C0BCF1480F05D14FF0010C0CFA02
:1016700000FCC2F810C0401C0828D1D31460B1F897
:1016800000C0BCF1FF0F34DD546800202EE000F1F3
:10169000080C4FF0010808FA0CF3B1F800C00CEA8E
:1016A00003069E4221D183004FF00F0C0CFA03F782
:1016B000BC4305FA03FC4CEA040491F803C0BCF1F6
:1016C000280F05D100F1080C08FA0CF8C2F81480B4
:1016D00091F803C0BCF1480F07D100F1080C4FF09E
:1016E000010808FA0CF8C2F81080401C0828CED374
:1016F0005460BDE8F0810000F0B50A4600230024E4
:101700000021002500F00046B6F1004F02D11D4E29
:10171000F16901E01B4E7168C0F3034583B200F428
:101720004016B6F5401F08D121F07061154E76685D
:1017300026F07066134F7E6012E000F48016B6F556
:10174000801F06D1032606FA05F4A14341F070611B
:1017500006E0460D360103FA06F6B14341F070612A
:1017600022B1460D360103FA06F6314300F0004679
:10177000B6F1004F02D1034EF16101E0014E7160FC
:10178000F0BD0000000001400246002093680B40BD
:101790000BB1012000E000207047416170470161FA
:1017A0007047000010B50446174830F91400174977
:1017B000B1F90410401A002803DD01201449088003
:1017C00003E04FF0FF301249088013E01148B0F9F0
:1017D000000002F0D9FB0D48808881B24FF08040B4
:1017E00001F0F9FF0948808809490988084400B2D6
:1017F000064988800548B0F90400034931F91410FE
:101800008842E3D110BD00003C0400202E040020DB
:101810002C0400203A04002010B51748B0F9040049
:101820001649B1F90010081A002803DD01201449F7
:10183000088003E04FF0FF301149088013E01148A1
:10184000B0F9000002F0A0FB0B48808881B24FF095
:10185000804001F0C0FF0848808809490988084491
:1018600000B2054988800448B0F904000349B1F981
:1018700000108842E3D110BD2E0400205404002043
:101880002C0400203A04002010B504461E4830F90C
:1018900014001E49B1F90010401A002803DD012090
:1018A0001B49088003E04FF0FF301949088022E00F
:1018B0001848B0F9000002F067FB1448008881B2B4
:1018C0004FF0804001F083FF1048408881B24FF014
:1018D000804001F07EFF0D4800880D4909880844CA
:1018E00000B20A4908800846408809490988401A18
:1018F00000B2064948800548B0F90000024931F9B4
:1019000014108842D4D110BD360400202E040020CB
:101910002A0400203A04002000BFFEE72DE9F04F22
:1019200089B03A48008839494988401A00B2384994
:1019300088810846408A8989084400B2344948822F
:101940000846B0F9120006900846C089098A401A74
:1019500000B207902E48C0892D4908820846808928
:10196000C881079804F0F2FB05462948816828469B
:1019700004F004FC044604F0FBFACDE904010698E7
:1019800004F0E4FB074622484168384604F0F6FBC1
:10199000064604F0EDFA04460D461D49086804F0B9
:1019A000E7FA06460F461A49B1F90C0004F05BF855
:1019B000804632463B4604F0BDF822462B46CDE930
:1019C000000103F031FFCDE90201DDE9042303F05A
:1019D0002BFF824604F018F800B20D4988820846B1
:1019E000B0F9140010F5617F02DA4FF67C4088826E
:1019F0000748B0F91400B0F5617F03DD4FF4617062
:101A00000349888209B0BDE8F08F00000604002079
:101A10009C04002010B540210748FFF7C0FE80213C
:101A20000548FFF7BCFE80210348FFF7B6FE4021C2
:101A30000148FFF7B2FE10BD0014014010B540216F
:101A40000548FFF7ACFE80210348FFF7A6FE802182
:101A50000148FFF7A4FE10BD0014014010B540215D
:101A60000348FFF79CFE40210148FFF796FE10BD9A
:101A70000014014008B50121402001F06FFA4FF435
:101A8000F970ADF8000048208DF80300694602485F
:101A9000FFF7A6FD08BD00000018014010B5044680
:101AA00014B101203F4908703E480078002850D00A
:101AB00010213D48FFF768FEC8B120213A48FFF7E2
:101AC00063FEA0B140213848FFF75EFE78B1802167
:101AD0003548FFF759FE50B14FF480713248FFF797
:101AE00053FE20B102213048FFF74EFE80BB0A2092
:101AF00002F04AFA00202B49087010212A48FFF70B
:101B000043FE08B9012010BD20212748FFF73CFE05
:101B100008B90220F7E740212348FFF735FE08B94E
:101B20000320F0E780212048FFF72EFE08B90420AB
:101B3000E9E74FF480711C48FFF726FE08B905203D
:101B4000E1E702211848FFF71FFE40BB0620DAE755
:101B5000FFE710211448FFF717FE01281FD12021AD
:101B60001148FFF711FE012819D140210E48FFF757
:101B70000BFE012813D180210B48FFF705FE012839
:101B80000DD101020848FFF7FFFD012807D102210E
:101B90000548FFF7F9FD012801D10249087000202E
:101BA000B1E70000290400200018014070B5044688
:101BB0000D46B5F5806F0AD024B929460948FFF7CC
:101BC000EEFD0EE029460748FFF7E7FD09E024B9DE
:101BD00029460548FFF7E3FD03E029460248FFF7E1
:101BE000DCFD70BD00100140001C014008B5012162
:101BF000102001F0B3F90320ADF8000010208DF89B
:101C0000030003208DF8020069461C48FFF7E8FC3A
:101C10000121802001F0A2F94FF48060ADF80000AE
:101C200010208DF8030003208DF802006946144847
:101C3000FFF7D6FC0121042001F090F94FF4004099
:101C4000ADF8000010208DF8030003208DF802008D
:101C500069460C48FFF7C4FC01210020FFF7A6FFEE
:101C600002210020FFF7A2FF4FF480610020FFF760
:101C70009DFF0020FEF702FE08BD0000001001409D
:101C8000001C01400008014070B504460D46F848AC
:101C9000007884427EDDF748007830B101287DD09D
:101CA000022826D0032823D14EE0F1480078201ADC
:101CB000012805DDF049F148F14AC2E9001017E0BA
:101CC000EB480078201A012812D1EE4AEE4BEC497D
:101CD00003C904F063F8EA4A03C20022EB4BE84967
:101CE00003C903F0EBFE03D80020E849E44A03C22D
:101CF0007CE0012001F0BCF9012001F0B9F9DC48D9
:101D00000078201A012805DDDB49DC48DC4AC2E9FD
:101D1000001018E0D6480078201A012813D1D94ABB
:101D2000D94BD74903C904F039F8D54A03C2002278
:101D3000D64BD34903C903F0C1FE04D80021D348D0
:101D4000CF4AC2E9001051E0012001F091F9C848E2
:101D50000078201A012805DDC749C848C84AC2E9E9
:101D600000101AE0C2480078201A012815D1C54A8F
:101D7000C54BC34903C904F011F8C14A03C200228C
:101D8000C24BBF4903C903F099FE06D80020BF49E2
:101D9000BB4A01E02BE001E003C227E0002001F094
:101DA00067F9B3480078201A012805DDB249B34825
:101DB000B34AC2E9001018E0AD480078201A0128A3
:101DC00013D1B04AB04BAE4903C903F0E7FFAC4AA8
:101DD00003C20022AD4BAA4903C903F06FFE04D829
:101DE0000021AA48A64AC2E9001000BF19E2A04893
:101DF000007884427EDA9F48007830B101287BD099
:101E000002282CD0032829D14DE0012001F030F91F
:101E1000012001F02DF996480078001B012804DD0F
:101E200095489649964A03C218E091480078201ACE
:101E3000401C98B9934A944B914903C903F0AEFFF3
:101E40008F4A03C20022914B8D4903C903F036FE2D
:101E500004D800218D488A4AC2E9001074E0844801
:101E60000078001B012804DD83488449844A03C2AA
:101E700018E07F480078201A401C98B9814A824BAC
:101E80007F4903C903F08AFF7D4A03C200227F4BCA
:101E90007B4903C903F012FE04D800217B48784A2D
:101EA000C2E9001050E0002001F0E2F8704800782C
:101EB000001B012805DD70497048714AC2E9001015
:101EC00017E06B480078201A401C90B96D4A6E4BA1
:101ED0006B4903C903F062FF694A03C200226B4BDE
:101EE000674903C903F0EAFD03D800206749644A43
:101EF00003C229E029E0FFE7012001F0B9F85C48BE
:101F00000078001B012805DD5B495C485C4AC2E99A
:101F1000001018E056480078201A401C98B9594A19
:101F2000594B574903C903F039FF554A03C20022F0
:101F3000564B534903C903F0C1FD04D8002153484F
:101F40004F4AC2E9001000BF6BE15148007885425A
:101F50007BDD4848007830B1012878D0022829D0AC
:101F6000032826D14CE0002001F082F84848007890
:101F7000281A012804DD40484049414A03C218E0BC
:101F800043480078281A012813D13E4A3E4B3C4969
:101F900003C903F003FF3A4A03C200223B4B38490E
:101FA00003C903F08BFD04D800213848344AC2E944
:101FB000001088E0012001F05BF835480078281A0D
:101FC000012804DD2C482D492D4A03C217E0304872
:101FD0000078281A012812D12A4A2B4B284903C914
:101FE00003F0DCFE264A03C20022284B244903C921
:101FF00003F064FD03D800202449214A03C262E0B3
:1020000023480078281A012805DD1B491B481C4A73
:10201000C2E9001018E01E480078281A012813D1E0
:10202000184A194B164903C903F0B8FE144A03C2F3
:102030000022164B124903C903F040FD04D80021C9
:1020400012480F4AC2E900103DE03DE0FFE70120E1
:1020500001F00EF8012001F00BF80D480078281A65
:10206000012817DD04490548054AC2E9001029E0A6
:102070000B0000200D000020713D0AD7A370E53F42
:1020800000000020B81E85EB51B89E3F0000D03FF5
:102090000C0000206B480078281A012812D16A4AE7
:1020A0006A4B6B4903C903F079FE694A03C20022F7
:1020B000684B674903C903F001FD03D80020654957
:1020C000634A03C200BFACE05E4800788542FADA9A
:1020D0006148007830B101287ED002282AD0032838
:1020E00027D14DE0012000F0C3FF56480078401B87
:1020F000012805DD59495A48554AC2E9001018E03F
:1021000050480078281A401C98B94F4A4F4B504904
:1021100003C903F043FE4E4A03C200224D4B4C4913
:1021200003C903F0CBFC04D800214A48484AC2E95D
:10213000001075E0002000F09BFF42480078401B33
:10214000012804DD45484649414A03C217E03D489D
:102150000078281A401C90B93B4A3C4B3C4903C9C3
:1021600003F01CFE3A4A03C200223A4B384903C925
:1021700003F0A4FC03D800203649354A03C24FE0DF
:10218000012000F075FF012000F072FF2D4800785B
:10219000401B012805DD314931482D4AC2E90010B4
:1021A00018E028480078281A401C98B9264A274B7E
:1021B000274903C903F0F2FD254A03C20022254B3B
:1021C000234903C903F07AFC04D800212148204A9E
:1021D000C2E9001024E0FFE71A480078401B0128FC
:1021E00004DD1E481E491A4A03C218E0154800784B
:1021F000281A401C98B9144A144B154903C903F016
:10220000CDFD134A03C20022124B114903C903F04A
:1022100055FC04D800210F480D4AC2E9001000BF48
:1022200000BF1048007810490978884209D1054854
:1022300000780E490978884203D10021044A1160D0
:10224000516070BD0C000020B81E85EB51B89E3F58
:10225000000000200000D03F0D000020713D0AD793
:10226000A370E53F0B0000200E0000200F000020AF
:1022700000BFFEE77047000070B5002100230F2269
:10228000C47804B3154C246804F4E064C4F5E06435
:10229000210AC1F10403CA40447804FA03F18478A6
:1022A0001440214309010E4C0678A155047804F02E
:1022B0001F050124AC4005786D11AD0005F1E02546
:1022C000C5F8004109E0047804F01F050124AC4082
:1022D000044D0678761145F8264070BD0CED00E0FF
:1022E00000E400E080E100E002490143024A11609D
:1022F000704700000000FA050CED00E070B5002406
:1023000018E004F1B000002100F0C5FD00210846EE
:1023100000F0C1FD0021102000F0BDFD002505E00A
:102320000121002000F0B7FD681CC5B2802DF7DB4D
:10233000601CC4B2082CE4DB70BD000008B50121AC
:10234000202000F00BFEC020ADF8000010208DF81A
:10235000030003208DF8020069463B48FFF740F96F
:10236000C0213948FFF71BFAC82001F00DFE0021FB
:10237000AE2000F090FD0021084600F08CFD002109
:10238000102000F088FD0021402000F084FD002195
:10239000B02000F080FD0021812000F07CFD0021B4
:1023A000FF2000F078FD0021A12000F074FD002145
:1023B000A62000F070FD0021A82000F06CFD002197
:1023C0003F2000F068FD0021C82000F064FD0021DE
:1023D000D32000F060FD0021084600F05CFD0021E4
:1023E000D52000F058FD0021802000F054FD002190
:1023F000D82000F050FD0021052000F04CFD002108
:10240000D92000F048FD0021F12000F044FD00211A
:10241000DA2000F040FD0021122000F03CFD0021F8
:10242000DB2000F038FD0021302000F034FD0021D9
:102430008D2000F030FD0021142000F02CFD002143
:10244000AF2000F028FD08BD00140140F8B5FE489B
:102450000078062874D2DFE800F07303F0EFEEEDA9
:102460001023FAA20021084600F0F8FC10200323F4
:102470000090F74802780021102000F0ABFC1023F8
:10248000F4A20221002000F0E9FC102003230090B8
:10249000F14802780221102000F09CFC1023EFA2EA
:1024A0000421002000F0DAFC102003230090EC4807
:1024B00002880421102000F08DFC1023E9A20621DF
:1024C000002000F0CBFC00221346E74903C903F0CB
:1024D000F5FA06D210232D2206210A2000F028FC4E
:1024E00005E01023202206210A2000F021FC002212
:1024F000DE4BDD4903C903F01DFB054603F084FAFA
:10250000041E4FF01000009001DB204600E0604206
:10251000024603230621102000F05CFC1023D4A205
:102520000021322000F09AFCD248B0F902000028C5
:1025300007DA10232D220021462000F0F9FB06E0E7
:1025400031E2102320220021462000F0F1FBC9488F
:10255000B0F9004010200090002C01DB204600E084
:1025600060420246042300214C2000F033FC10237B
:10257000C1A20221322000F071FCC048B0F9020073
:10258000002806DA10232D220221462000F0D0FB7D
:1025900005E0102320220221462000F0C9FBB748A5
:1025A000B0F9004010200090002C01DB204600E034
:1025B00060420246042302214C2000F00BFC102351
:1025C000AFA20421322000F049FC10200090AD4859
:1025D0000288042319464C2000F0FCFB1023AAA219
:1025E0000621322000F03AFC10200090A5484288D5
:1025F000042306214C2000F0EDFB0020FFF74EFAEB
:10260000A24908700846007807282AD2DFE800F0BF
:10261000290429161F0925000021934A11605160E1
:102620001FE09B4A9B4B904903C903F0FDF88E4A7B
:1026300003C216E07AE2B7E1A7E014E0944A954BB2
:10264000894903C903F0AAFB874A03C209E0FFF7DF
:1026500055FE02207C49087003E0012000F008FDCF
:1026600000BF00BF11E310238BA20021084600F039
:10267000F5FB1020009089480288042300211920CE
:1026800000F0A8FB102386A20221002000F0E6FB48
:10269000102000908148428804230221192000F074
:1026A00099FB10237FA20421002000F0D7FB10200B
:1026B00000907A48828804231946192000F08AFB8A
:1026C000102379A20621002000F0C8FB1020009002
:1026D0007248C28804230621192000F07BFB1023D6
:1026E00072A20021502000F0B9FB102000906B482E
:1026F000027A012300216A2000F06CFB10236CA2F7
:102700000221502000F0AAFB102000906348427A7A
:10271000012302216A2000F05DFB0020FFF7BEF9D3
:102720005A4908700846007807282CD2DFE800F0E4
:102730002B041B122109270000204B4A1060506017
:1027400021E0534A5B4B484903C903F06DF8464A00
:1027500003C218E04E4A574B434903C903F01EFB1E
:10276000414A03C20FE0FFF7C9FD01203649087056
:1027700009E0FFF7C3FD03203349087003E001209F
:1027800000F076FC00BF00BF7FE210234AA20021C8
:10279000084600F063FB10200123009048480278AF
:1027A0000021322000F016FB102346A20221002057
:1027B00000F054FB102001230090434802780221CE
:1027C000322000F007FB102340A20421002000F07B
:1027D00045FB1020012300903E480278042132205E
:1027E00000F0F8FA10233CA20621002000F036FB8E
:1027F0001020012300903A4802780621322000F090
:10280000E9FA102337A20021462000F027FB102010
:1028100001230090354802780021782000F0DAFA90
:10282000102333A20221462000F018FB10200123C0
:102830000090314802780221782000F0CBFA102372
:102840002EA2042146205DE0010400205800000073
:102850000B000020590000000C0000204400000084
:102860001200002056000000000000200000594027
:102870004D310000440000204D320000480000208F
:10288000483100000E0400204832000002040020FD
:102890009A9999999999A93F43300000CA04002058
:1028A0004331000043320000433300005331000045
:1028B000533200009999B93F73746F7000000000A3
:1028C0000900002068640000100000204D6F666958
:1028D0000000000016040020526F74610000000028
:1028E0001704002052656D6F000000005E0000209C
:1028F00046657463000000000A0000204D6F6465A7
:102900000000000000F0AAFA102001230090E04827
:1029100002780421782000F05DFA1023DDA2062160
:10292000462000F09BFA102002230090DA4802783B
:102930000621642000F04EFA0020FFF7AFF8D749D7
:1029400008700846007807282CD2DFE800F02B0436
:102950001B12210927000021D14A1160516021E09A
:10296000D04AD14BCE4903C902F05EFFCC4A03C224
:1029700018E0CC4ACC4BCA4903C903F00FFAC84A45
:1029800003C20FE0FFF7BAFC0220C849087009E053
:10299000FFF7B4FC0420C549087003E0012000F0F3
:1029A00067FB00BF00BF70E11023C1A200210846F1
:1029B00000F054FA0121BF48FEF7E6FE044610205D
:1029C0000123224600210090232000F003FA102367
:1029D000B9A20221002000F041FA0221B548FEF719
:1029E000D3FE04461020012322460221009023201A
:1029F00000F0F0F91023B1A20421002000F02EFA1B
:102A00000421AC48FEF7C0FE0446102001232246F4
:102A100004210090232000F0DDF91023A8A2062154
:102A2000002000F01BFA0821A248FEF7ADFE044684
:102A300010200123224606210090232000F0CAF92D
:102A40001023AFF2C4120021322000F007FA102048
:102A500000909C480288042300214C2000F0BAF921
:102A60001023AFF2DC120221322000F0F7F910201F
:102A7000009094484288042302214C2000F0AAF9D7
:102A8000102391A20421322000F0E8F910200090D8
:102A90008C488288042319464C2000F09BF91023AF
:102AA0008AA20621322000F0D9F910200090854832
:102AB000C288042306214C2000F08CF90020FEF788
:102AC000EDFF764908700846007807282CD2DFE829
:102AD00000F02B041B12210927000021704A11600D
:102AE000516021E06F4A704B6D4903C902F09CFEB2
:102AF0006B4A03C218E06B4A6B4B694903C903F088
:102B00004DF9674A03C20FE0FFF7F8FB032067495E
:102B1000087009E0FFF7F2FB05206449087003E044
:102B2000012000F0A5FA00BF00BFAEE01023AFF215
:102B3000E4220021084600F091F9102001230090C2
:102B4000634802780021232000F044F91023AFF2FB
:102B5000FC220221002000F081F9102001230090C6
:102B60005C4802780221232000F034F910235AA295
:102B70000421002000F072F9102001230090574832
:102B800002780421232000F025F9102354A2062105
:102B9000002000F063F910200123009051480278D2
:102BA0000621232000F016F910234FA20021322025
:102BB00000F054F91020042300904C4890F90020B4
:102BC00000214C2000F006F9102349A202213220F6
:102BD00000F044F9102004230090464890F90020AA
:102BE00002214C2000F0F6F8102343A204213220E9
:102BF00000F034F910200423009040480278194670
:102C00004C2000F0E7F810233DA20621322000F00E
:102C100025F91020042300903A48027806214C2020
:102C200000F0D8F80020FEF739FF1C49087008466C
:102C30000078072827D2DFE800F0260416101C0AC7
:102C40002200FFF75BFB0320184908701BE02148B6
:102C50000078401C1F49087015E01E480078401E8F
:102C60001C4908700FE01A480078401E1849087087
:102C700009E017480078401C1549087003E001205E
:102C800000F0F6F900BF00BF00BF00BFF8BD0000B4
:102C90001500002050617400180400200204002078
:102CA000000000209A9999999999B93F0104002050
:102CB00042310000000C014042320000423300006B
:102CC000423400000E040020483300004834000065
:102CD0000B0000200C000020545800000E000020C3
:102CE000545900000F0000204E5800001F0400201F
:102CF0004E590000200400204F6200001100002007
:102D00004F7200000D00002070B504460D4605F11D
:102D1000B000002100F0BFF8102141EA141000219A
:102D200000F0B9F804F00F00002100F0B4F870BD15
:102D30002DE9F04707460E469046994600250024A7
:102D4000A8F12000C5B27F2F02DD0027B01CC6B25B
:102D5000B9F1100F24D131463846FFF7D5FF0024D2
:102D600008E004EB0511194A505C012100F093F8CA
:102D7000601CC4B2082CF4DB701CC1B23846FFF7EB
:102D8000C3FF002409E004EB051108310F4A505C31
:102D9000012100F080F8601CC4B2082CF3DB12E0C3
:102DA00031463846FFF7B0FF00240AE005EB450145
:102DB000074A02EB4101085D012100F06CF8601C3C
:102DC000C4B2062CF2DBBDE8F08700003C650008C9
:102DD000146300082DE9FF5F074691461E460E9DCD
:102DE0004FF0000A002435E0301B401EC1B20A201B
:102DF00001F020FDB9FBF0F00A21B0FBF1F201FB7C
:102E00001208BAF1000F14D1701EA04211DDB8F102
:102E1000000F0CD1AB4605EBDB71491001FB0471CF
:102E2000C8B22B4620220199FFF782FF10E04FF035
:102E3000010AAB4605EBDB71491001FB0471C8B216
:102E400008F13001CAB22B460199FFF771FF00BFAC
:102E5000601CC4B2B442C7DBBDE8FF9F2DE9F0415E
:102E600004460F461546984600260FE0AA5D4346E5
:102E700039462046FFF75CFF04F10800C4B2782C05
:102E800002DD0024B81CC7B2701CC6B2A85D0028C1
:102E9000ECD1BDE8F08170B504460D461DB1E0B23D
:102EA00000F06AFE02E0E0B200F050FE70BD0000EB
:102EB0000A480B4908600B484860002088600748B2
:102EC00009490860074848600020886007480849A9
:102ED00008600020486007488860704766661E40AA
:102EE00064040020EC51383D800400209A99593F39
:102EF0009C040020B81E053E7047000029B1064A18
:102F000052690243044B5A6104E0034A5269824306
:102F1000014B5A61704700000010024029B1064A77
:102F2000D2690243044BDA6104E0034AD269824366
:102F3000014BDA61704700000010024029B1064AD7
:102F400012690243044B1A6104E0034A1269824386
:102F5000014B1A61704700000010024029B1064A77
:102F600092690243044B9A6104E0034A92698243E6
:102F7000014B9A61704700000010024029B1064AD7
:102F8000D2680243044BDA6004E0034AD268824309
:102F9000014BDA60704700000010024030B500219C
:102FA0000022002400232D4D6D6805F00C0121B195
:102FB000042905D0082923D105E0294D056022E028
:102FC000274D05601FE0254D6D6805F47012234DF7
:102FD0006D6805F48034022505EB92421CB9214D41
:102FE000554305600BE01D4D6D6805F400351DB1BE
:102FF0001C4D5543056002E0194D5543056002E044
:10300000174D056000BF00BF144D6D6805F0F0015D
:103010000909154D6B5C0568DD4045600F4D6D6815
:1030200005F4E061090A104D6B5C4568DD40856080
:103030000A4D6D6805F46051C90A0B4D6B5C45681B
:10304000DD40C560054D6D6805F44041890B074DB5
:103050006B5CC568B5FBF3F5056130BD001002403F
:1030600000127A0000093D003000002040000020DE
:1030700070B5044600204049086000213F4A1160B5
:10308000516001203E49087014B1012C36D11AE07C
:103090003C483D4900F09EFF81F00041054602F0AA
:1030A000B3FC00B2394948803648374900F092FFF6
:1030B000054602F0A9FC00B23549488040F2C6201E
:1030C00000F062FF1AE02F482F4900F083FF054609
:1030D00002F09AFC00B22D4948802A482A4900F0A3
:1030E00079FF81F00041054602F08EFC00B22849CC
:1030F000488040F2622000F047FF00BF00BF14B1DB
:10310000012C1BD10CE02348007828B1214800781D
:10311000401E2049087002E003201E4908700DE09F
:103120001C480078032805D01A480078401C19492B
:10313000087002E000201749087000BF00BF0F4967
:1031400003C900F047FF054602F05EFC00B20F49DC
:1031500048800A4903C900F03DFF054602F054FCCF
:1031600000B20B494880002005490870012002493F
:1031700008600949087070BD8401224200000020E7
:10318000170400209A9999999999C93F4400002001
:10319000480000200D0000208000002000B970478A
:1031A0000178427841EA0221C1F30A01144A1180F0
:1031B0004178C910827841EA4211C1F30A01104AEC
:1031C000518081788911C27841EA8201027941EA0D
:1031D0008221C1F30A010A4A91800179491042799A
:1031E00041EAC211C1F30A01054AD18041790911AE
:1031F000890811724179C1F30111517200BFCEE704
:10320000CA040020704710B500F002F810BD00009D
:103210000CB50020019000903348006840F48030E5
:103220003149086000BF3048006800F40030009069
:103230000198401C0190009818B90198B0F5A06F52
:10324000F1D12948006800F4003010B1012000904D
:1032500001E0002000900098012843D12348006835
:1032600040F01000214908600846006820F0030083
:1032700008600846006840F0020008601A4840688C
:10328000194948600846406848600846406840F46C
:10329000806048600846406820F47C10486008461A
:1032A000406840F4E81048600846006840F08070CC
:1032B000086000BF0C48006800F000700028F9D0DA
:1032C0000948406820F00300074948600846406804
:1032D00040F00200486000BF0348406800F00C0066
:1032E0000828F9D10CBD0000001002400020024067
:1032F00070B586B006460C4615464FF40070019036
:1033000000208DF80C008DF80D0008208DF80E00BF
:10331000200A8DF80F008DF8104028124042C1B2EB
:103320008DF811106842C1B28DF8121001A9304613
:10333000FDF7B4FD06B070BD02480068401C0149AD
:10334000086070472C00002010B51348006840F05A
:1033500001001149086008464068104908400E49BC
:103360004860084600680E4908400B490860084656
:10337000006820F4802008600846406820F4FE00C1
:1033800048604FF41F008860FFF73DFF4FF000607A
:103390000449086010BD0000001002400000FFF862
:1033A000FFFFF6FE08ED00E010B50121054800F032
:1033B000E5F828B10121034800F0C2F8FDF7FEFE50
:1033C00010BD0000000C00407FB505460C460121F1
:1033D0000820FFF7A3FDADF80850ADF80440002029
:1033E000ADF80A00ADF8060001A90E4800F0F6F9A4
:1033F000012211460B4800F0D2F832208DF800006F
:1034000001208DF8010003208DF8020001208DF8C5
:1034100003006846FEF730FF0121024800F093F8F0
:103420007FBD0000000C004010B50121064800F0EF
:10343000A5F838B10121044800F082F8FDF7FEFE3E
:1034400001F01CF810BD0000001000407FB50546DB
:103450000C4601211020FFF761FDADF80850ADF8D2
:1034600004400020ADF80A00ADF8060001A90E489E
:1034700000F0B4F9012211460B4800F090F8362014
:103480008DF8000001208DF8010002208DF8020067
:1034900001208DF803006846FEF7EEFE0121024888
:1034A00000F051F87FBD00000010004010B5012170
:1034B000054800F063F828B10121034800F040F806
:1034C00000F0BEFC10BD0000001400407FB50546B2
:1034D0000C4601212020FFF721FDADF80850ADF882
:1034E00004400020ADF80A00ADF8060001A90D481F
:1034F00000F074F9012211460A4800F050F8372014
:103500008DF8000002208DF8010001208DF80200E6
:103510008DF803006846FEF7AFFE0121014800F078
:1035200012F87FBD0014004021B1028842F08002F1
:10353000028004E002884FF67F731A4002807047D1
:10354000CA430282704721B1028842F00102028020
:1035500004E002884FF6FE731A400280704731B1D2
:10356000B0F8442042F40042A0F8442005E0B0F84E
:103570004420C2F30E02A0F84420704730B5024642
:10358000002000230024158A05EA0103958905EA35
:10359000010413B10CB1012000E0002030BD1AB1CC
:1035A00083890B43838102E083898B438381704746
:1035B00070B5002400220023058C4FF6FE763540BE
:1035C0000584028C8388048B4FF68F752C40B51EC2
:1035D0002C400D882C43751E2A400D892A434D88A6
:1035E0002A43144DA8420BD0134DA84208D0134DC6
:1035F000A84205D0124DA84202D0124DA84213D1C4
:103600004FF6F7752A404D892A434FF6FB752A403D
:103610008D882A434FF6FF652B404FF6FF552B4010
:103620008D892B43CD892B4383800483CD88858668
:10363000028470BD002C0140003401400040014074
:1036400000440140004801400A460021018B4FF62A
:10365000F7731940114301837047000070B50024CF
:1036600000220023058C4FF6EF7635400584028C4E
:103670008388048B48F6FF752C404FF6FF452C409D
:103680000D884FF6FF7606EA05252C434FF6DF75C9
:103690002A400D8906EA05152A434D8806EA0515D4
:1036A0002A43154DA84202D0144DA8421DD14FF611
:1036B0007F752A404D894FF6FF7606EA05152A43A5
:1036C0004FF6BF752A408D8806EA05152A434FF646
:1036D000FF352B404FF2FF752B408D8906EA85059B
:1036E0002B43CD8906EA85052B4383800483CD884F
:1036F0000587028470BD0000002C014000340140A9
:103700000A460021018B4FF2FF7319404FF6FF73F9
:1037100003EA0223194301837047000070B50024B7
:1037200000220023058C4FF6FF6635400584028C8D
:103730008388848B4FF68F752C404FF6FC752C4098
:103740000D882C434FF6FF552A400D894FF6FF7622
:1037500006EA05252A434D8806EA05252A43154D24
:10376000A84202D0144DA8421DD14FF2FF752A4045
:103770004D894FF6FF7606EA05252A434FF6FF35B9
:103780002A408D8806EA05252A434EF6FF752B4010
:103790004DF6FF752B408D8906EA05152B43CD8923
:1037A00006EA05152B4383808483CD8885870284B0
:1037B00070BD0000002C0140003401400A46002189
:1037C000818B4FF6F77319401143818370478186CF
:1037D0007047018770478187704700000022028888
:1037E0001D4B98420ED01D4B98420BD0B0F1804F2C
:1037F00008D01B4B984205D01A4B984202D01A4B66
:10380000984204D14FF68F731A404B881A43174BD6
:10381000984207D0164B984204D04FF6FF431A4007
:10382000CB881A4302808B8883850B8803850A4BDB
:1038300098420BD0094B984208D00E4B984205D0C5
:103840000D4B984202D00D4B984201D10B7A038662
:103850000123838270470000002C014000340140A6
:103860000004004000080040000C00400010004030
:103870000014004000400140004401400048014065
:1038800021B1828942F40052828104E082894DF69E
:10389000FF731A40828170471AB1838A0B43838277
:1038A00002E0838A8B4383827047000010B5044690
:1038B0002048844209D101218803FFF75FFB0021E2
:1038C0004FF48040FFF75AFB32E01B48844209D195
:1038D00001214804FFF732FB00214FF40030FFF7CD
:1038E0002DFB25E01548844209D101218804FFF70A
:1038F00025FB00214FF48020FFF720FB18E0104843
:10390000844209D10121C804FFF718FB00214FF4BC
:103910000020FFF713FB0BE00A48844208D1012185
:103920000805FFF70BFB00214FF48010FFF706FBA3
:1039300010BD000000380140004400400048004035
:10394000004C004000500040F0B503460024002623
:103950000025002040F66A17B94200D100BF184682
:10396000C1F3421401F01F06012707FA06F5012CE6
:1039700001D10C3004E0022C01D1103000E01430F1
:103980001AB107682F43076002E00768AF4307607A
:10399000F0BD00002DE9F04786B005460E46002434
:1039A000A24600BFA1460027B08900B100BF2F4644
:1039B0002C8A4CF6FF700440F08804432C82AC89BA
:1039C0004EF6F3100440B0883189084371890843EA
:1039D0000443AC81AC8A4FF6FF400440B0890443F5
:1039E000AC8201A8FFF7DAFA1F48874202D1DDF85E
:1039F00010A001E0DDF80CA0A88900F4004040B15F
:103A00000AEBCA0000EB0A1031684900B0FBF1F87C
:103A100007E00AEBCA0000EB0A1031688900B0FB2E
:103A2000F1F86420B8FBF0F004012009642101FBE7
:103A30001089A88900F4004040B1322000EBC90091
:103A4000B0FBF1F000F00700044308E0322000EB87
:103A500009106421B0FBF1F000F00F0004432C8149
:103A600006B0BDE8F08700000038014010B5012124
:103A70000448FCF7EFFF18B101210248FCF712FFE0
:103A800010BD00000064004000B585B0022116485A
:103A9000FCF7E0FF28B302211348FCF703FF6A4656
:103AA00000211148FDF782F90098A0F2012010B121
:103AB000012815D109E09DF80E109DF80D0041EA8E
:103AC000002000B2094908800AE09DF80E109DF818
:103AD0000D0041EA0020404200B20549088000BFC5
:103AE00000BF05B000BD000000640040440000209D
:103AF0004800002000BFFEE72DE9F04105462C46B6
:103B000040211148FDF749FE002619E0274607F03D
:103B10008007802F04D180210B48FDF740FE03E091
:103B200080210948FDF739FE6006040E4021064851
:103B3000FDF735FE40210448FDF72FFE701CC6B28C
:103B4000082EE3DBBDE8F0810014014010B5044607
:103B5000FDF760FF7820FFF7CFFFFDF77FFF002024
:103B6000FFF7CAFFFDF77AFF2046FFF7C5FFFDF715
:103B700075FFFDF763FF10BD10B50446FDF74AFF62
:103B80007820FFF7B9FFFDF769FF4020FFF7B4FF8A
:103B9000FDF764FF2046FFF7AFFFFDF75FFFFDF77E
:103BA0004DFF10BD10B500213D483E4AC2E900104E
:103BB00001E0FEF74BFC01213B48FDF7E5FD28B98C
:103BC00002213948FDF7E0FD0028F2D004213648F3
:103BD000FDF7DAFD28B908213348FDF7D5FD0028A7
:103BE000E7D000212F4A11605160FCF7B1FD0021A0
:103BF0002B482C4AC2E9001001E0FEF727FC012106
:103C00002948FDF7C1FD28B902212748FDF7BCFD71
:103C10000028F2D004212448FDF7B6FD28B9082178
:103C20002148FDF7B1FD0028E7D000201D4A1060B3
:103C30005060FFF71DFA002019491A4A03C201E03B
:103C4000FEF704FC01211848FDF79EFD28B902216A
:103C50001548FDF799FD0028F2D004211248FDF720
:103C600093FD28B908211048FDF78EFD0028E7D004
:103C700000210C4A1160516003200C49087001209A
:103C80000B49087003200B49087001200A4908708D
:103C900003200A49087001200949087010BD00007E
:103CA0000000D03F00000020000C01400D0000206B
:103CB0000B0000200C0000200E0000200F00002050
:103CC000160400202DE9F0410026344890F9001038
:103CD000334800F065F9334890F90010324800F09D
:103CE0005FF94DE02E480168083047562E480168BC
:103CF000083010F901802A4800F098F82A4800F0AE
:103D000095F8002639E029488057C419284880577B
:103D100000EB08052946204600F054F858B301206E
:103D200004EB440101EBC401224A1144485578B226
:103D300004EB440101EBC4011F4A114448554FFAFA
:103D400088F004EB440101EBC4011C4A11444855BE
:103D500004EB440000EBC40019490844405D5428BA
:103D600001D1BDE8F08161B20D4800F019F969B2E6
:103D70000D4800F015F9701C46B2042EC3DB00BFDD
:103D80000748006806494968884205D00648006827
:103D9000054949688842A5D100BFE2E71B0400201D
:103DA0006C0600201C0400205C0A00202104002076
:103DB000250400204216002079050020F20500208D
:103DC000000500200246002A26DB144890F9000076
:103DD000824221DA00291FDB114890F9000081425C
:103DE0001ADA02EB420000EBC2000E4B1844405CB2
:103DF00090B902EB420000EBC2000B4B1844405C50
:103E00002A2807D002EB420000EBC2001844405CB5
:103E1000542801D1012070470020FCE7190400203C
:103E20001A0400204216002000050020D0E90012EC
:103E3000914200D170470168491C016000BFF9E759
:103E400070B5002213463B4903C901F0A1FD04D11E
:103E500000203949488239494882394A394B354925
:103E600003C901F065FF05D835493648314AC2E932
:103E700000100AE0324A344B2E4903C901F01EFEFD
:103E800003D82F4830492B4A03C22D4A2D4B2949CC
:103E900003C901F04DFF07D82C482D4908600020C8
:103EA00048602C48886006E02B48294908600020BB
:103EB00048602A4888602A480078002838D1294874
:103EC000007898B1284800782849097888420DD1AF
:103ED0002748007827490978884207D12648007882
:103EE00020B900202549134A03C205E01D48007887
:103EF00010B100201B4908701B4800781B4908704E
:103F00001B4800781B4908700A4903C900F062F891
:103F1000044601F079FD00B219494880054903C9FA
:103F200000F058F8044601F06FFD00B215494880D2
:103F300070BD000000000020640400208004002008
:103F4000713D0AD7A370E53FA370E5BF9A99593F29
:103F50009C040020B81E053ECDCC0C3F0AD7A33CE4
:103F600017040020800000200B0000205C000020CF
:103F70000C0000205D0000200A0000200000D03F5F
:103F80004400002048000020044A1268111800BFB5
:103F9000024A12688A42FBD3704700002C000020BE
:103FA00000B502460B465068B0F57A7F0EDAD2E9CA
:103FB0000001884202D1104600F084F802F10800A6
:103FC000516843545068401C506000E000BD00BF81
:103FD000FCE700002DE9F05F04460D46DFF838A04D
:103FE00000220E4B2046294601F0A4FD804601F038
:103FF000E9FB83460A49584602F0C0F8814651461B
:1040000001F0E2FF804601F0B3FF06460F4630465E
:104010003946BDE8F09F00003BEF303E00004E40C7
:104020000000104210B5FCF7D7F9FCF795FA10BD67
:1040300008B501210820FEF791FF0120ADF800002E
:1040400048208DF8030069461D48FDF7C9FA012193
:104050000820FEF783FF0220ADF8000048208DF80D
:10406000030069461648FDF7BBFA01210820FEF758
:1040700075FF0420ADF8000048208DF80300694664
:104080000F48FDF7ADFA01210820FEF767FF082071
:10409000ADF8000048208DF8030069460848FDF798
:1040A0009FFA01210820FEF759FF1020ADF800000B
:1040B00048208DF8030069460148FDF791FA08BDD4
:1040C000000C0140002141600160704730B50020C4
:1040D00015490860154800684FF47A72B0FBF2F198
:1040E000B1F1807F00D31DE021F07F40401E4FF0F2
:1040F000E022506150170F22002807DA13071D0E27
:104100000B4B00F00F04241F1D5503E013071C0E7A
:10411000084B1C5400BF00204FF0E02290610720A4
:10412000106100BF30BD00002C00002018000020EE
:1041300018ED00E000E400E000B591B00121082096
:10414000FEF70CFF01218804FEF7E8FE3D48FFF76B
:10415000ADFB4FF40060ADF82C0004208DF82F006B
:104160000BA93948FDF73CFA4FF48060ADF82C00FC
:1041700003208DF82E0018208DF82F000BA932484F
:10418000FDF72EFA4FF4E1300D900020ADF8380025
:10419000ADF83A00ADF83C00ADF840000420ADF8B1
:1041A0003E000DA92748FFF7F5FB01212548FFF741
:1041B00067FB01210846FEF7A1FE002240212148AD
:1041C000FFF76AFB2148FDF727F91E48001D009004
:1041D0001F480190002002900820039000200490C6
:1041E0008020059000200690079020200890C001B4
:1041F000099000200A9069461448FDF7D2F94FF45F
:104200000070FDF7E1F8012202211048FDF7C0F926
:10421000012240210B48FFF73FFB0D208DF83000B5
:1042200002208DF8310003208DF8320001208DF836
:1042300033000CA8FEF720F801210448FDF7E0F850
:1042400011B000BD00480040000C014030000240A9
:104250006E00002000211D4A1180817812881143D0
:104260001A4A1180C1784FF47F4202EA0121174AAD
:1042700012881143154A11800021154A11800179D5
:1042800012881143124A118041794FF47F4202EAA9
:1042900001210F4A128811430D4A118011460988E5
:1042A000142911DD11460988B1F5FA6F0CDA0749B6
:1042B00009881E2908DB05490988B1F5966F03DCDA
:1042C00002490988034A11807047000078000020E5
:1042D0007A0000201200002001210846FEF73EFE71
:1042E00001215648FDF708FAFFF72EF8FFF7EEFE1A
:1042F0004FF47A70FFF748FE514800210160416099
:1043000081604FF4A060FDF7EFFF4FF4E13001F062
:10431000A1F9C72141F61F40FCF7A6F9FCF7BEFC46
:10432000FDF764FCFEF70AF8FFF706FFFEF7C0FD95
:10433000FFF778FEFFF77CFEFDF79CFBFDF7DEFF45
:1043400000F084FA40F2E7312320FFF73DF840F215
:10435000E7312320FFF7BAF800203A4908604FF40C
:10436000FA70FFF711FE01203749C1F880014FF4C0
:10437000FA70FFF709FE002032490860FFF712FCCF
:10438000FEF764F840F2E7314720FFF75FF80120BD
:104390002C4908602D4908702D49087017E001F07C
:1043A000A9F900F0F5FB2B48007858B92A480078A5
:1043B00040B92A48007828B9294A1178294A107842
:1043C000FDF762FC28480078132800D100E0E6E7FA
:1043D00000BF03201D4908700121642000F0E6FDA4
:1043E00005202249087007202149087000F0E8FAEA
:1043F00019E001F07FF91748007858B9164800789D
:1044000040B91648007828B9154A1178154A10782D
:10441000FDF73AFC17480078052804D116480078C3
:10442000072800D100E0E4E700BF0021084600F0C3
:10443000BDFD01E0FEF70AF8FCE7000000023000D5
:104440005804002080012242000022421500002072
:1044500010000020140000205E0000200A00002050
:10446000200400201F040020180400200E0000205B
:104470000F0000200B0000200C000020E44890F901
:104480000000401C00B3E34890F90000401CD8B184
:10449000DF480078E0490870DE480078DF4908709E
:1044A000DB4890F90000DE49097888420BD1D948F1
:1044B00090F90000DB4909788842F7D1FF20D44900
:1044C0000870D449087085E1D14890F90100401C7A
:1044D00000B3D04890F90100401CD8B1CC484078D6
:1044E000CD490870CB484078CC490870C84890F94D
:1044F0000100CB4909788842E5D1C64890F901000E
:10450000C84909788842DED1FF20C1494870C149B5
:1045100048705FE1BE4890F90200401C00B3BD48FE
:1045200090F90200401CD8B1B9488078BA490870A7
:10453000B8488078B9490870B54890F90200B84980
:1045400009788842BFD1B34890F90200B54909788B
:104550008842B8D1FF20AE498870AE49887039E1F1
:10456000AB4890F90300401C00B3AA4890F903003F
:10457000401CD8B1A648C078A7490870A548C078A3
:10458000A6490870A24890F90300A5490978884215
:1045900099D1A04890F90300A2490978884292D1A4
:1045A000FF209B49C8709B49C87013E1984890F957
:1045B0000400401C00B3974890F90400401CD8B197
:1045C000934800799449087092480079934908709B
:1045D0008F4890F9040092490978884299D18D4812
:1045E00090F904008F490978884292D1FF208849C8
:1045F000087188490871EDE0854890F90500401C74
:1046000000B3844890F90500401CD8B18048407937
:10461000814908707F484079804908707C4890F94A
:1046200005007F490978884299D17A4890F90500B8
:104630007C490978884292D1FF20754948717549B3
:104640004871C7E0724890F90600401C00B37148F9
:1046500090F90600401CD8B16D4880796E49087009
:104660006C4880796D490870694890F906006C497A
:104670000978884299D1674890F906006949097814
:10468000884292D1FF206249887162498871A1E015
:104690005F4890F90700401C00B35E4890F907009E
:1046A000401CD8B15A48C0795B4908705948C07954
:1046B0005A490870564890F90700594909788842C4
:1046C0000BD1544890F9070056490978884204D123
:1046D000FF204F49C8714F49C8717BE04C4890F9A1
:1046E0000800401C00B34B4890F90800401CD8B1AA
:1046F0004748007A484908704648007A4749087098
:10470000434890F9080046490978884262D14148F7
:1047100090F908004349097888425BD1FF203C4961
:1047200008723C49087255E0394890F90900401C6C
:1047300000B3384890F90900401CD8B13448407A99
:10474000354908703348407A34490870304890F948
:1047500009003349097888423CD12E4890F9090074
:1047600030490978884235D1FF20294948722949C2
:1047700048722FE0264890F90A00401C00B32548F3
:1047800090F90A00401CD8B12148807A224908706B
:104790002048807A214908701D4890F90A00204974
:1047A0000978884216D11B4890F90A001D490978FA
:1047B00088420FD1FF20164988721649887209E095
:1047C0001948007840B2144908701848007840B27F
:1047D000124908701248007813490978884213D1A9
:1047E000104800781149097888420DD101201049FC
:1047F00008700D48007840B2074908700B480078EF
:1048000040B20649087002E000200949087070476C
:104810002C160020371600201F0400202004002042
:104820000B0000200C0000200E0000200F000020D4
:104830001604002010B50246012000E050430B0092
:10484000A1F10104E1B2F9D110BD000010B5792148
:104850004648FBF727FD4FF0FF3279214448FBF72C
:1048600019FD4FF0FF3279214248FBF713FD4FF05D
:10487000FF320B214048FBF70DFD4FF0FF320B21BB
:104880003E48FBF707FD3E48007840B23D490870BE
:104890003D48007840B23D4908703D48FFF712FCA2
:1048A0003C48FFF70FFC3C48FFF70CFC3B48FFF788
:1048B00009FC3BA13D48FBF7C9FC39A13B480B3043
:1048C000FBF7C4FC36A139481630FBF7BFFC38A112
:1048D00036482130FBF7BAFC35A134482C30FBF7C1
:1048E000B5FC33A131483730FBF7B0FC30A12F487D
:1048F0004230FBF7ABFC2AA12C484D30FBF7A6FC5D
:1049000027A12A485830FBF7A1FC25A1274863308E
:10491000FBF79CFC29480078072821D2DFE800F04B
:104920002004090E13181C002321204880F8591078
:1049300016E023211D4880F85C1011E023211B485C
:1049400080F860100CE02321184880F83F1007E041
:1049500023211648C17403E023211448017400BFC9
:1049600000BF2321114880F8341010BD42160020EA
:1049700079050020F20500202C16002037160020B3
:104980000B0000201F0400200C0000202004002049
:104990006C0600205C0A00204C0E00203C12002017
:1049A0002A2A2A2A2A2A2A2A2A2A0000000500203E
:1049B0002A2A2A232323232A2A2A0000110000203E
:1049C0002DE9F0414FF0FF36374600240025FFF770
:1049D0003DFF53205E49097801EB410202EBC10122
:1049E0005C4A11445C4A1278885454215B48007830
:1049F00000EB400202EBC000564A1044584A1278BD
:104A000081545348007840B25649087052480078A3
:104A100040B2554908705148007840B25349087077
:104A20004F48007840B252490870494800784B49D5
:104A30000978884205D14848007849490978884270
:104A40007ED0FFF73FF9494A92F9002002EB42037A
:104A500003EBC202474B1A44454B93F90030D15641
:104A6000424A92F9002002EB420303EBC202424B9E
:104A70001A443F4B93F90030D05600F06FFA3B4890
:104A800090F900103D48FFF78BFA394890F9001073
:104A90003B48FFF785FA3948046831E03746374824
:104AA0000830611C41560057081AB0F1FF3F16D07C
:104AB00010B1012815D110E031480830611C415671
:104AC0000057081AB0F1FF3F03D0012803D1002698
:104AD00001E0012600BF00BF03E0032601E002263B
:104AE00000BF00BFB7420AD024480830005D254906
:104AF000485523480830005D234948556D1C641C07
:104B00001E484068A042C9DCFF201E4948551E4986
:104B100048552A200E49097801EB410202EBC101F8
:104B20000C4A11440C4A127888542A210B48007808
:104B300000EB400202EBC000064A1044084A00E0C5
:104B400004E012788154002010490870BDE8F0811B
:104B50000B000020000500200C0000200E000020AB
:104B60000F0000201B0400201C0400201D04002056
:104B70001E040020F2050020790500204C0E0020C4
:104B80003C1200202C1600203716002016040020AE
:104B900010B5E548007813280BD2DFE800F00A0AC8
:104BA0000B616DC1CDD4E0F7F6F5F4F3F2F1F0EF5F
:104BB000EE00B6E1DD48007878B1DD4800780328E2
:104BC0000BD0DB48007818B90020FEF751FA03E05B
:104BD0000120FEF74DFA00BF41E0D6480088642866
:104BE00019DCD2480078B0B1D1480078032812D13E
:104BF0000620D1490870D148007840B2D0490870E9
:104C0000D048007840B2D0490870FFF71FFE03205B
:104C1000C549087023E0C7480088DC2819DCC34870
:104C20000078B0B1C2480078032812D10520C249EB
:104C30000870C248007840B2C1490870C148007885
:104C400040B2C1490870FFF701FE0320B649087061
:104C500005E0B648007810B10320B349087060E160
:104C60000320BA4908700820B9490870FFF7A8FE68
:104C70000420AD49087054E1AC48007878B1AC48E4
:104C8000007860B1AA480078012803D10020FEF71F
:104C9000EFF903E00120FEF7EBF900BF3FE0A54884
:104CA0000088642818DCA1480078A8B1A0480078E2
:104CB00090B90420A0490870A048007840B2A049EB
:104CC0000870A048007840B29F490870FFF7BEFD09
:104CD00005209549087022E096480088DC2818DCF9
:104CE00092480078A8B19248007890B90320924980
:104CF00008709248007840B2914908709148007855
:104D000040B291490870FFF7A1FD0520864908705F
:104D100005E08648007810B105208349087000E15D
:104D200003208A490870092089490870FFF748FE66
:104D300006207D490870F4E07C48007810B1072017
:104D400079490870EDE00420804908700920804905
:104D50000870FFF735FE082073490870E1E07348DA
:104D60000078C8B172480078B0B171480078012865
:104D70000DD10020FEF77CF90DE0BBE0AFE097E03D
:104D80008AE072E065E04DE040E028E01BE00120B1
:104D9000FEF76EF900BF15E06448007890B16D48E9
:104DA0008088B0F5FA7F02DD01206B490870694800
:104DB000C088B0F5FA7F02DD0120674948700920FC
:104DC00059490870ADE00520604908700920604924
:104DD0000870FFF7F5FD0A2053490870A1E0534819
:104DE000007890B15B488088B0F5FA7F02DD012041
:104DF000594988705748C088B0F5FA7F02DD012014
:104E00005549C8700B20484908708AE006204F4970
:104E1000087009204E490870FFF7D2FD0C20424966
:104E200008707EE04148007890B10D203E4908703E
:104E300048488088B0F5FA7F02DD012046490871B4
:104E40004448C088B0F5FA7F02DD0120424948712C
:104E500067E007203D49087009203D490870FFF7C9
:104E6000AFFD0E20304908705BE03048007890B10B
:104E70000F202D49087037488088B0F5FA7F02DD91
:104E80000120354988713348C088B0F5FA7F02DDCA
:104E900001203149C87144E008202C4908700920DC
:104EA0002B490870FFF78CFD10201F49087038E06F
:104EB0001E48007890B127488088B0F5FA7F02DD5F
:104EC0000120254908722348C088B0F5FA7F02DD29
:104ED00001202149487211201349087021E009205E
:104EE0001A4908701A490870FFF76AFD12200E4926
:104EF000087016E00D48007890B116488088B0F52B
:104F0000FA7F02DD0120144988721248C088B0F58A
:104F1000FA7F02DD01201049C8721320024908708F
:104F200000BF00BF10BD00001804002016040020C0
:104F30000D00002012000020110000200B000020B6
:104F40001F0400200C000020200400200E00002080
:104F50000F0000200E0400205804002070B5044605
:104F60000D46601C00B970BD04EB440202EBC402A4
:104F70000A4B1A44515704EB440202EBC402084B9B
:104F80001A445057FFF7EAFF21460648FFF708F892
:104F900029460548FFF704F800BFE4E7F2050020C2
:104FA000790500204C0E00203C12002070B504460C
:104FB0000D4601260120F9490870F9490870F948A1
:104FC0000078F9490870F9480078F9490870F548FF
:104FD0000078B0B9F5480078042812DB0CE0F548F9
:104FE0000078032803D10020FEF742F803E00120F7
:104FF000FEF73EF800BF00BFEE4800780228EED171
:1050000023E2E8480078092816D1E8480078052806
:1050100012DC0CE0E7480078012803D10020FEF7FD
:1050200027F803E00120FEF723F800BF00BFE148A6
:1050300000780028EED108E2DC480078092815D174
:10504000D8480078042811DB0BE0DA48007818B95A
:105050000020FEF70DF803E00120FEF709F800BF7D
:1050600000BFD44800780328EFD1EEE1CF480078A4
:10507000B0B9CC480078052812DC0CE0CD480078A7
:10508000022803D10020FDF7F3FF03E00120FDF724
:10509000EFFF00BF00BFC74800780128EED1D4E180
:1050A000C0480078022827D1C0480078042823D1BE
:1050B0000CE0C0480078022803D10020FDF7D8FF9B
:1050C00003E00120FDF7D4FF00BF00BFB94800781E
:1050D0000328EED10021B848B84AC2E900104FF4C5
:1050E0004870FEF751FF0021B44A11605160012061
:1050F000FDF7BEFF0026A8E1AA480078022816D1D5
:10510000AA480078052812D10CE0AA4800780128A6
:1051100003D10020FDF7ACFF03E00120FDF7A8FF5D
:1051200000BF00BFA34800780028EED18DE19D4864
:105130000078022826D19D480078062822D10CE06C
:105140009C480078022803D10020FDF791FF03E07E
:105150000120FDF78DFF00BF00BF964800780128B1
:10516000EED100219448954AC2E900104FF44870EE
:10517000FEF70AFF0020914A10605060FDF778FFAB
:10518000002662E187480078072826D18748007802
:10519000032822D10BE08748007818B90020FDF7DA
:1051A00067FF03E00120FDF763FF00BF00BF8148F8
:1051B00000780328EFD100217F48804AC2E900101F
:1051C0004FF44870FEF7E0FE00217C4A1160516008
:1051D0000020FDF74DFF002637E1724800780728D0
:1051E00016D172480078042812D10CE0714800787A
:1051F000032803D10020FDF73BFF03E00120FDF76A
:1052000037FF00BF00BF6B4800780228EED11CE1D9
:1052100064480078072827D164480078052823D1FE
:105220000CE064480078022803D10020FDF720FF3D
:1052300003E00120FDF71CFF00BF00BF5D480078C0
:105240000128EED100215C485C4AC2E900104FF40D
:105250004870FEF799FE0021584A11605160012004
:10526000FDF706FF0026F0E050480078022826D11E
:105270004C480078032822D10CE04E4800780128E1
:1052800003D10020FDF7F4FE03E00120FDF7F0FE5E
:1052900000BF00BF474800780028EED100214648F3
:1052A000464AC2E900104FF44870FEF76DFE002038
:1052B000424A10605060FDF7DBFE0026C5E03B4827
:1052C0000078022815D137480078042811D10BE066
:1052D0003848007818B90020FDF7CAFE03E0012025
:1052E000FDF7C6FE00BF00BF324800780328EFD1AB
:1052F000ABE02E480078022826D12A4800780528FD
:1053000022D10CE02B480078032803D10020FDF7C0
:10531000AFFE03E00120FDF7ABFE00BF00BF254854
:1053200000780228EED100202349244A03C24FF41A
:105330004870FEF729FE0020204A106050600120CE
:10534000FDF796FE002680E018480078072837D140
:1053500014480078042833D10CE01648007801285E
:1053600003D10020FDF784FE03E00120FDF780FE5D
:1053700000BF00BF0F4800780028EED10E490F4A49
:1053800003C24FF44870FEF7FFFD00210B4A116085
:1053900051600120FDF76CFE002656E01000002051
:1053A0000A0000200B0000200E0000200C0000204E
:1053B0000F0000200D0000200000D03F0000002062
:1053C0009B480078072816D19A480078052812D102
:1053D0000CE099480078022803D10020FDF748FE30
:1053E00003E00120FDF744FE00BF00BF92480078B3
:1053F0000128EED129E08E480078072825D18D4874
:105400000078062821D10CE08B480078032803D1CE
:105410000020FDF72DFE03E00120FDF729FE00BF6F
:1054200000BF854800780228EED100218348844AD5
:10543000C2E900104FF44870FEF7A6FD0020804A34
:1054400010605060FDF714FE002616B900207D495B
:10545000087000217A4A1160516015B1012D08D100
:1054600003E00020FCF710FA03E00120FCF70CFA3F
:1054700000BF00BF4FF47A70FEF786FD00216F4831
:105480006F4AC2E9001040F2A460FEF77DFDFCF710
:10549000DDFF00206A4A10605060FCF7D7FF4FF430
:1054A0007A70FEF771FDFCF7D1FF642C02D1FCF796
:1054B000B3F903E02046FCF775F900BF00BF0021F7
:1054C00061485F4AC2E90010FCF7C0FF4FF49670D4
:1054D000FEF75AFDFCF7BAFF01E0FCF7B7FF022127
:1054E0005A48FCF751F90028F7D008215748FCF733
:1054F0004BF90028F1D00020514A10605060012083
:105500005049087000205249087016BB494800787D
:1055100002280DD146480078042809D10120FDF762
:10552000A7FD0220434908700520414908707CE02E
:105530004048007802280DD13D480078062809D15E
:105540000020FDF795FD02203A49087005203849F2
:1055500008706AE03748007807280DD13448007891
:10556000032809D10020FDF783FD07203149087089
:1055700004202F49087058E02E48007807280DD1E4
:105580002B480078052809D10120FDF771FD07207F
:105590002849087004202649087046E0244800780D
:1055A00002280DD123480078032809D10020FDF7F7
:1055B0005FFD04201F49087002201D49087034E077
:1055C0001B48007802280DD11A480078052809D117
:1055D0000120FDF74DFD04201649087002201449F2
:1055E000087022E01248007807280DD11148007891
:1055F000042809D10120FDF73BFD05200D49087065
:1056000007200B49087010E00948007807280CD1E2
:1056100008480078062808D10020FDF729FD05205C
:1056200004490870072002490870FFF7C9F970BDE6
:105630000C0000200B0000200D0000200000D03FD7
:1056400000000020100000200000D0BF000C01402E
:105650000A00002010B586B00446012144F204007F
:10566000FDF77CFC4FF40070ADF8140003208DF8BA
:10567000160018208DF8170005A91C48FBF7B0FF8D
:105680004FF40060ADF8140004208DF8170005A950
:105690001648FBF7A5FF01940020ADF80800ADF80F
:1056A0000A00ADF80C00ADF810000C20ADF80E00AB
:1056B00001A90F48FEF76EF925208DF800000020A3
:1056C0008DF8010001208DF802008DF80300684676
:1056D000FCF7D2FD012240F225510548FEF734F9CE
:1056E00001210348FEF7CCF806B010BD00080140C8
:1056F0000038014010B52B48007830B10022134625
:10570000294903C900F044F901D1FCF79FFE27485D
:10571000007800283ED02648007830B101281CD0FF
:1057200002280ED0032830D123E022480078401C04
:10573000214908702148007821490870FFF740F995
:1057400023E01C480078401E1B4908701B48007865
:105750001B490870FFF734F917E01648007816491E
:10576000087016480078401E15490870FFF728F9A0
:105770000BE0104800781049087010480078401C71
:105780000F490870FFF71CF900BF00BF0120054951
:10579000087005E00348007810B100200149087046
:1057A00010BD0000140000200000002009000020AF
:1057B0000D0000200B0000200E0000200C00002037
:1057C0000F00002021F00042A2F16052B2F5801FCC
:1057D00001F0004328BFD2F17F6C0BD95FEA001CB7
:1057E00043EAC20242EB507018BF704728BF20F056
:1057F00001007047B2F5801FBCBF184670474FEAE2
:10580000410C1CF5001F02D2084600F07EBD70B5A9
:1058100000F03AFA00000089FFF7F6BF4FF00040B1
:10582000A0F580007047000010B591EA030F48BF53
:1058300083F0004300F1BA82841A71EB030C05D2A5
:10584000121943EB0C03001B61EB0C01DFF824E1A0
:105850004FEA1154A4EB135C1EEA430F18BF9EEAF3
:10586000445F73D023EA0E03DCF1200E21EA0451D9
:1058700043F4801332D322FA0CFE10EB0E0023FA0D
:105880000CFE41EB0E01CCF1200E03FA0EFE10EBE4
:105890000E0051F10001B1F5801FCCF1200E32D283
:1058A00001EB045112FA0EF2BDE8104058BF7047E8
:1058B000401C38BF5FEA420218BF7047002814BF7F
:1058C00020F0010041F100014FEA410313F5001FF0
:1058D00038BF7047A1F1C04100F024BA012A43EB60
:1058E0000302ACF1200CDCF11F0E32BF4FF0000EB2
:1058F00023FA0CF310EB030041EB0451B4EB115FFE
:10590000D0D0A1EB045101F5801149085FEA3000C5
:1059100001EB04510ED350F1000038BF12FA0EFE15
:1059200008D1BDE81040C9E7401C38BF5FEA420219
:10593000CAD1C3E7BDE810404FEA410313F5001F89
:1059400038BF7047A1F1C04100F0ECB99EEA445F56
:1059500008D011EA5E0FBDE8104004BF01F000411D
:1059600000207047BDE8104070B500F08DF900BF11
:1059700064FBBE3E0000E0FF491058BFC1F140414A
:105980005B1058BFC3F140438B42EFF30080704778
:1059900051EA030C17D41CF5801F58BFBCF5801FBB
:1059A00000F10680994218BF704708BF90427047C7
:1059B00007D711F5801F58BF13F5801F19D49942DE
:1059C0007047894270471CF5801F08D5BCF5801FC1
:1059D000F7D58B4218BF704708BF824270474FF41B
:1059E000001C1CEB410F38BF1CEB430F01D28B4254
:1059F000704770B500F048F9922449004FF000510B
:105A00004FF08053FFF7B8BF4FEA41034FEA5353BB
:105A1000A3F58063D3F11E03C8BFD3F1210C0CDDC5
:105A20004FF0004242EAC12242EA505232FA03FCED
:105A30008CEAE17CACEBE1707047102BC4BF002016
:105A4000704703F5787CBCF1FF3F04D06FF0004253
:105A500082EA2100704770B500F016F9499224805F
:105A600000207047F2E710F0004248BF4042B0FA11
:105A700080F310FA03F10AD0C3F11D0303F580632C
:105A80004FEA415002EB035202EBD12170474FF035
:105A900000007047B0FA80F310FA03F10AD0C3F1A6
:105AA0001D0303F580634FEA41504FEA035202EBB6
:105AB000D12170474FF000007047000051EA030CFD
:105AC00017D41CF5801F58BFBCF5801F00F106805D
:105AD000994218BF704708BF9042704707D711F529
