:020000040800F2
:10000000801D00200D020008811F00080B1600084B
:100010007D1F00088D060008A135000800000000C3
:10002000000000000000000000000000892F000810
:100030004714000800000000952B0008C13000089C
:1000400027020008270200082702000827020008EC
:1000500027020008270200082702000827020008DC
:1000600027020008270200082702000827020008CC
:1000700027020008F11100082702000827020008E3
:10008000111200082702000827020008193500088D
:10009000353500082702000827020008270200085B
:1000A000270200082702000827020008270200088C
:1000B000270200082702000827020008270200087C
:1000C000270200082702000827020008270200086C
:1000D000270200082702000827020008270200085C
:1000E000270200082702000827020008270200084C
:1000F000270200082702000827020008270200083C
:1001000027020008270200083131000827020008F2
:100110002702000827020008B5310008270200085E
:10012000270200082702000827020008270200080B
:1001300000F002F800F05AF80AA090E8000C82449F
:100140008344AAF10107DA4501D100F04FF8AFF27C
:10015000090EBAE80F0013F0010F18BFFB1A43F0A5
:1001600001031847F85A0000185B00000A444FF0DA
:10017000000C10F8013B13F0070408BF10F8014B06
:100180001D1108BF10F8015B641E05D010F8016B4B
:10019000641E01F8016BF9D113F0080F1EBF10F8AF
:1001A000014BAD1C0C1B09D16D1E58BF01F801CBD2
:1001B000FAD505E014F8016B01F8016B6D1EF9D555
:1001C0009142D6D37047000000230024002500266A
:1001D000103A28BF78C1FBD8520728BF30C148BFAA
:1001E0000B6070471FB51FBD10B510BD00F0A6F81D
:1001F0001146FFF7F7FF03F025FD00F0C4F803B444
:10020000FFF7F2FF03BC00F0C9F80000094880477F
:1002100009480047FEE7FEE7FEE7FEE7FEE7FEE7E8
:10022000FEE7FEE7FEE7FEE704480549054A064B00
:1002300070470000D130000831010008801700200D
:10024000801D0020801900208019002040EA010351
:10025000024630B59B0710D14FF0013400E008C2D0
:1002600008C91D1B9D4315EAC41FF8D013F0FF01F8
:1002700002F8011B0DD01B0AF8E711F8013B002B17
:1002800002F8013B05D011F8013B002B02F8013BBD
:10029000F3D130BD02F0FF0343EA032242EA0242F7
:1002A00000F005B87047704770474FF0000204290E
:1002B000C0F0128010F0030C00F01B80CCF1040C95
:1002C000BCF1020F18BF00F8012BA8BF20F8022BC9
:1002D000A1EB0C0100F00DB85FEAC17C24BF00F86F
:1002E000012B00F8012B48BF00F8012B70474FF09D
:1002F000000200B5134694469646203922BFA0E876
:100300000C50A0E80C50B1F12001BFF4F7AF090781
:1003100028BFA0E80C5048BF0CC05DF804EB890072
:1003200028BF40F8042B08BF704748BF20F8022BB5
:1003300011F0804F18BF00F8012B7047754600F090
:1003400029F8AE4605006946534620F00700854669
:1003500018B020B5FFF768FFBDE820404FF0000659
:100360004FF000074FF000084FF0000B21F007019D
:10037000AC46ACE8C009ACE8C009ACE8C009ACE8E0
:10038000C0098D4670470446AFF300802046FFF752
:1003900036FF0000004870471C1700200149182054
:1003A000ABBEFEE726000200704721B1826842F032
:1003B0000102826003E0826822F0010282607047DD
:1003C00021B1826842F48072826003E0826822F484
:1003D000807282607047000008B50121102002F091
:1003E0000BFC3C20ADF8000000208DF803006946AE
:1003F000014801F029F808BD001001400146002025
:100400008A6802F004020AB1012000E0002070476F
:10041000014600208A6802F008020AB1012000E0CB
:100420000020704730B502460020002350680F4C72
:1004300020400D790C6844EA052420435060906800
:100440000B4C2040D1E902542C434D7944EA450439
:1004500020439060D06A20F470000C7C641EE4B2EB
:10046000234340EA0350D06230BD0000FFFEF0FF9E
:10047000FDF7F1FFF0B504460D4600200021092DDF
:1004800011DDE068A5F10A0606EB4607072606FA25
:1004900007F18843A5F10A0606EB460603FA06F1C2
:1004A0000843E0600CE0206905EB4507072606FAE3
:1004B00007F1884305EB450603FA06F1084320617E
:1004C000072A0FDA606B561E06EB86071F2606FA10
:1004D00007F18843561E06EB860605FA06F1084327
:1004E000606322E00D2A0FDA206BD61F06EB860729
:1004F0001F2606FA07F18843D61F06EB860605FA83
:1005000006F10843206310E0E06AA2F10D0606EB55
:1005100086071F2606FA07F18843A2F10D0606EBAF
:10052000860605FA06F10843E062F0BD816841F0F5
:1005300008018160704721B1826842F4A0028260A4
:1005400003E0826822F4A00282607047816841F073
:10055000040181607047000000B591B00121084698
:1005600002F01AFB0121480202F046FB3B4800F072
:1005700087FE3B4806903B480790002008900420E7
:10058000099000200A9080200B9040000C90800081
:100590000D9020200E9000020F900020109006A9D0
:1005A0002E4800F032FF01212C4800F05DFE0020B3
:1005B000019001208DF808008DF809004FF46020AB
:1005C00003900020049004208DF8140001A9244811
:1005D0004C38FFF727FF062301220C2120484C3816
:1005E000FFF748FF062302220D211D484C38FFF774
:1005F00041FF062303220E2119484C38FFF73AFF2A
:10060000062304220F2116484C38FFF733FF01213F
:1006100013484C38FFF7D4FE012111484C38FFF73E
:10062000C4FE0F484C38FFF781FF00BF0C484C3820
:10063000FFF7EEFE0028F9D109484C38FFF786FF96
:1006400000BF07484C38FFF7D9FE0028F9D1012137
:1006500003484C38FFF76FFF11B000BD080002409F
:100660004C2401400004002010B50446012C04D1A4
:10067000C103054800F0C7FF04E04FF40041024801
:1006800000F0BFFF10BD00000008014000BFFEE702
:10069000B1F5007F3AD00FDC202928D006DC0129F3
:1006A0001CD004291DD0082940D11DE0402921D0AB
:1006B000B1F5807F3AD126E0B1F5004F31D006DCAC
:1006C000B1F5806F25D0B1F5006F2FD124E0B1F5E1
:1006D000803F12D0B1F5003F28D111E0154A826069
:1006E00025E00822C26022E01022C2601FE008223A
:1006F00002611CE01022026119E00822426016E04B
:100700001022426013E00422426010E004224260A2
:100710000DE0042242600AE000228261042242606D
:1007200005E0002282610422426000E000BF00BFB9
:10073000704700000101010010B50021837A0122F9
:1007400002FA03F13D4A126842F001023B4B1A6083
:100750003A4A1C3212688A43384B1C331A60027BB7
:10076000CAB9364A0C3212688A43344B0C331A60C9
:100770004288C38842EA0343304A4032847A42F8CE
:1007800034300288838842EA03432C4A4032847A18
:1007900002EBC4025360027B012A19D1274A0C32B2
:1007A00012680A43254B0C331A604288038842EAD8
:1007B0000343224A4032847A42F83430C288838824
:1007C00042EA03431D4A4032847A02EBC40253607A
:1007D000C27A3AB9194A121D12688A43174B1B1D77
:1007E0001A6006E0154A121D12680A43134B1B1DBE
:1007F0001A60028932B9114A143212688A430F4BC7
:1008000014331A600289012A06D10C4A1432126884
:100810000A430A4B14331A60427B012A06D1074A65
:100820001C3212680A43054B1C331A60034A1268D3
:1008300022F00102014B1A6010BD0000006600406A
:1008400070B504460D46002660692840002871D026
:10085000B5F5807F5CD010DC082D35D006DC012D8D
:1008600020D0022D24D0042D72D127E0102D31D0BC
:10087000202D35D0402D6BD138E0B5F5004F60D03C
:1008800009DCB5F5007F49D0B5F5806F4CD0B5F5E2
:10089000006F5DD14FE0B5F5803F2DD0B5F5003F3D
:1008A00056D12FE0A0682D4900F098FC064651E093
:1008B000E068032100F092FC06464BE0E068082166
:1008C00000F08CFC064645E0E068102100F086FC54
:1008D00006463FE02069032100F080FC064639E02F
:1008E0002069082100F07AFC064633E020691021D7
:1008F00000F074FC06462DE06068082100F06EFCF4
:10090000064627E06068102100F068FC064621E0FA
:10091000A069012100F062FC06461BE0A0690221EB
:1009200000F05CFC064615E0A069042100F056FCCE
:1009300006460FE00FE0A069702100F04FFC06466C
:1009400008E06068042100F049FC064602E0FFE789
:10095000002600BF00E00026304670BD0101010006
:100960001AB143690B43436102E043698B4343611E
:10097000704730B5024600200023146824F00204BA
:100980001460146844F00104146000E05B1C5468B7
:1009900004F001041CB94FF6FF74A342F6D1546869
:1009A00004F001040CB900206CE08C79012C04D116
:1009B000146844F08004146003E0146824F0800498
:1009C0001460CC79012C04D1146844F04004146004
:1009D00003E0146824F0400414600C7A012C04D164
:1009E000146844F02004146003E0146824F0200428
:1009F00014604C7A012C04D1146844F01004146083
:100A000003E0146824F0100414608C7A012C04D1E3
:100A1000146844F00804146003E0146824F0080427
:100A20001460CC7A012C04D1146844F004041460DE
:100A300003E0146824F0040414608C78A407CD78D3
:100A400044EA05640D7944EA05444D7944EA0554C5
:100A50000D886D1E2C43D461146824F001041460C9
:100A6000002300E05B1C546804F001041CB14FF645
:100A7000FF74A342F6D1546804F001040CB10020C5
:100A800000E0012030BD000000B589B00121042044
:100A900002F0B2F80121480602F08EF84FF48050BF
:100AA000ADF8200003208DF8220018208DF82300D7
:100AB00008A9374800F0C8FC4FF40060ADF82000EA
:100AC00048208DF8230008A9314800F0BDFC002023
:100AD0008DF81A008DF81B008DF81C008DF81D0094
:100AE0008DF81E0001208DF81F0000208DF81600E3
:100AF0008DF8170008208DF8180007208DF81900D0
:100B00000220ADF8140005A92248FFF732FF0020AB
:100B10008DF80E008DF80F0001208DF810000020D8
:100B2000ADF80400ADF80600ADF80800ADF80A0015
:100B3000ADF80C0001208DF8110001A8FFF7FCFDB5
:100B4000012202211348FFF70BFF01221146114831
:100B5000FFF706FF14208DF8000001208DF801003A
:100B60008DF802008DF80300684601F00BFA13209F
:100B70008DF8000000208DF8010001208DF80200A2
:100B80008DF80300684601F0FDF909B000BD0000D2
:100B9000000801400064004010B500F5D87303EB75
:100BA00001131B6803F004031372137A53B900F5A1
:100BB000D87303EB01131B6840F2FF7404EA53532C
:100BC000136009E000F5D87303EB01131B686FF0A5
:100BD000604404EAD303536000F5D87303EB0113B8
:100BE0001B6803F00203537200F5D87303EB011383
:100BF0005B6803F00F03937200F5D87303EB0113E6
:100C00005B681B0AD37400F5D87303EB01139B6870
:100C1000D37200F5D87303EB01139B681C0A14739D
:100C200000F5D87303EB01139B681C0C547300F59B
:100C3000D87303EB01139B681B0E937300F5D873F5
:100C400003EB0113DB68D37300F5D87303EB0113D7
:100C5000DB681C0A147400F5D87303EB0113DB681E
:100C60001C0C547400F5D87303EB0113DB681B0EE6
:100C7000937421B9C36843F02003C36003E00369A0
:100C800043F02003036110BD10B5024600209368B5
:100C900003F08063B3F1806F00D110E0936803F03C
:100CA0000063B3F1006F01D1012008E0936803F005
:100CB0008053B3F1805F01D1022000E004200428BA
:100CC00074D002F5C07303EB00131B6803F001043A
:100CD00002F5C07303EB00131C600B7A7BB94B7AEF
:100CE0000C8843EA445302F5C07404EB00142468F2
:100CF000234302F5C07404EB0014236010E00B7A68
:100D00004C6843EAC4034C7A234302F5C07404EBF5
:100D100000142468234302F5C07404EB001423601C
:100D20008B7A03F00F038B7202F5C07303EB001391
:100D30005B6823F00F0402F5C07303EB00135C60E3
:100D400002F5C07303EB00135B688C7A234302F552
:100D5000C07404EB001463608B7B1C064B7B44EA7D
:100D600003440B7B44EA0323CC7A234302F5C0748B
:100D700004EB0014A3608B7C1C064B7C44EA034408
:100D80000B7C44EA0323CC7B234302F5C07404EBC1
:100D90000014E36002F5C07303EB00131B6843F01B
:100DA000010402F5C07303EB00131C6010BD0000CA
:100DB0002DE9F04F89B03A48408839490988401AEE
:100DC00000B2384988810846408A8989084400B2BF
:100DD000344948820846B0F9120006900846C08996
:100DE000098A401A00B207902E48C0892D4908820E
:100DF00008468089C881079804F040FA05462948CA
:100E00008168284604F052FA044604F049F9CDE915
:100E10000401069804F032FA074622484168384631
:100E200004F044FA064604F03BF904460D461D4919
:100E3000086804F035F906460F461A49B1F90C0066
:100E400003F0A9FE804632463B4603F00BFF2246E4
:100E50002B46CDE9000103F0F9FBCDE90201DDE904
:100E6000042303F0F3FB824603F038FE00B20D4981
:100E700088820846B0F914000B49884203DA4FF61D
:100E80002420084988820748B0F9140040F2DC5158
:100E9000884202DD08460349888209B0BDE8F08F28
:100EA000440000202404002024FAFFFF2DE9F04F25
:100EB00089B03A48408839490988401A00B238490F
:100EC00088810846408A8989084400B234494882AA
:100ED0000846B0F9120006900846C089098A401AEF
:100EE00000B207902E48C0892D49088208468089A3
:100EF000C881079804F0C2F9054629488168284648
:100F000004F0D4F9044604F0CBF8CDE904010698C6
:100F100004F0B4F9074622484168384604F0C6F99F
:100F2000064604F0BDF804460D461D49086804F065
:100F3000B7F806460F461A49B1F90C0003F02BFE2C
:100F4000804632463B4603F08DFE22462B46CDE9D5
:100F5000000103F07BFBCDE90201DDE9042303F08E
:100F600075FB824603F0BAFD00B20D49888208463F
:100F7000B0F914000B49884203DA4FF624200849DF
:100F800088820748B0F9140040F2DC51884202DD43
:100F900008460349888209B0BDE8F08F4800002068
:100FA0004004002024FAFFFF70B52E4A2E4B2F4933
:100FB00003C903F055FF05D82A492B482B4AC2E93B
:100FC00000100BE0274A2A4B284903C903F00EFE04
:100FD00004D824492648254AC2E90010254800784B
:100FE00098B9224903C902F0B9FC044603F076FD22
:100FF00000B2214948801D4903C902F0AFFC0446F4
:1010000003F06CFD00B21D49488002F021FB1C4832
:101010000078C0B100F0FCFA00221346134903C95E
:1010200003F020FD0FD0144840881649898A0844EF
:1010300000B211494880114840881249898A401AF3
:1010400000B20E494880FFF7B3FEFFF72FFF0E48AE
:10105000B0F914200D48B0F914100D4802F00AF848
:1010600070BD0000CDCCCCCCCCCCE43F0000002047
:10107000CCCCE4BF11040020440000204800002034
:10108000110000205C040020400400202404002003
:101090000064004010B54B480078C8B901214A48A7
:1010A00000F0A6FAA0B90221474800F0A1FA78B9E9
:1010B0000421454800F09CFA50B90821424800F04C
:1010C00097FA28B90020FFF7CFFA01203D490870B0
:1010D0003C480078012874D101213B4800F088FA8F
:1010E000012805D10221384800F082FA01280BD0EE
:1010F0000421354800F07CFA012862D108213248E9
:1011000000F076FA01285CD10120FFF7ADFA2F48F4
:10111000007830B101283DD0022828D003284CD1D6
:1011200012E0002213462A4903C903F099FE05D2B2
:1011300028480078401C2749087004E025480078BA
:10114000401E2449087038E000221346204903C994
:1011500003F086FE05D220480078401C1E49087026
:1011600004E01D480078401E1B49087025E000225D
:101170001346174903C903F073FE05D215480078DA
:10118000401E1449087004E012480078401C1149C0
:10119000087012E0002213460D4903C903F060FEF7
:1011A00005D20D480078401E0B49087004E00A483B
:1011B0000078401C0849087000BF00BF00200149AA
:1011C000087010BD7A000020000C01400D000020C6
:1011D000000000200B0000200C0000200246002030
:1011E00002EA01030BB1012000E00020704700007B
:1011F00010B54FF4007000F0E9F830B14FF4807092
:1012000000F024F8014802F0DBFC10BD6C00002067
:1012100010B54FF4001000F0D9F830B14FF4801041
:1012200000F014F8014801F07BFE10BD78040020A6
:1012300000F0805111B10349086001E002494860A3
:1012400070470000040402400000024000F080519A
:1012500011B10349086001E002494860704700008D
:10126000040402400000024021B1026842F0010281
:10127000026004E002684FF6FE731A400260704795
:1012800001684FF6FE72114001600021016041606B
:101290008160C1604B49884208D14A490839496890
:1012A00041F00F01474A083A51608AE0454914313C
:1012B000884208D143490839496841F0F001414A60
:1012C000083A51607DE03F492831884208D13D49C4
:1012D0000839496841F470613A4A083A516070E04F
:1012E00038493C31884208D136490839496841F4C7
:1012F0007041344A083A516063E0324950318842C3
:1013000008D130490839496841F470212D4A083A1A
:10131000516056E02B496431884208D12949083987
:10132000496841F47001274A083A516049E025496B
:101330007831884208D123490839496841F0706101
:10134000204A083A51603CE01F49884206D1011FFB
:10135000096841F00F01021F116032E01A4914318F
:10136000884208D11849091F096841F0F001164A5E
:10137000121F116025E014492831884208D1124912
:10138000091F096841F470610F4A121F116018E0CB
:101390000D493C31884208D10B49091F096841F4C5
:1013A0007041094A121F11600BE007495031884211
:1013B00007D10549091F096841F47021024A121F2B
:1013C00011607047080002400804024001460020F6
:1013D000002201F0805313B1054B1A6801E0054B60
:1013E0001A6802EA01030BB1012000E000207047F7
:1013F00000040240000002401AB103680B4303607E
:1014000002E003688B430360704710B50022026856
:1014100047F6F0739A430C6A8B6823430C692343A5
:101420004C6923438C692343CC6923434C6A23438F
:101430008C6A23431A430260CB6843600B68836065
:101440004B68C36010BD70472DE9F041024600258E
:101450000026002000230024002791F803C00CF090
:101460000F0591F803C00CF0100CBCF1000F03D075
:1014700091F802C04CEA050591F800C0BCF1000FDC
:1014800031D0146800202BE04FF0010C0CFA00F36F
:10149000B1F800C00CEA03069E4220D183004FF051
:1014A0000F0C0CFA03F7BC4305FA03FC4CEA0404E6
:1014B00091F803C0BCF1280F06D14FF0010C0CFAD3
:1014C00000FCC2F814C00AE091F803C0BCF1480F58
:1014D00005D14FF0010C0CFA00FCC2F810C0401C02
:1014E0000828D1D31460B1F800C0BCF1FF0F34DD7F
:1014F000546800202EE000F1080C4FF0010808FAB3
:101500000CF3B1F800C00CEA03069E4221D183001F
:101510004FF00F0C0CFA03F7BC4305FA03FC4CEA3E
:10152000040491F803C0BCF1280F05D100F1080CA8
:1015300008FA0CF8C2F8148091F803C0BCF1480F07
:1015400007D100F1080C4FF0010808FA0CF8C2F8B6
:101550001080401C0828CED35460BDE8F081000004
:10156000F0B50A46002300240021002500F00046C3
:10157000B6F1004F02D11D4EF16901E01B4E7168BA
:10158000C0F3034583B200F44016B6F5401F08D1FE
:1015900021F07061154E766826F07066134F7E60FC
:1015A00012E000F48016B6F5801F06D1032606FA75
:1015B00005F4A14341F0706106E0460D360103FADF
:1015C00006F6B14341F0706122B1460D360103FACF
:1015D00006F6314300F00046B6F1004F02D1034E4B
:1015E000F16101E0014E7160F0BD000000000140BA
:1015F0000246002093680B400BB1012000E0002060
:101600007047416170470161704700BFFEE700000D
:101610002DE9F04F89B000221346404903C903F079
:101620001FFC08D23E4800883D494988401A00B254
:101630003C49888107E03A4880883949C988401A7E
:1016400000B2384988813748408A36498989084438
:1016500000B2344948820846B0F912B0C089098AFC
:10166000401A0FFA80FA2F48C0892E49088208468E
:101670008089C881504603F001FE054629488168EB
:10168000284603F013FE044603F00AFDCDE90601E7
:10169000584603F0F3FD054622484168284603F00A
:1016A00005FE044603F0FCFCCDE902011D49086873
:1016B00003F0F6FC04460D461A49B1F90C0003F09C
:1016C0006AFA064622462B4603F0CCFACDE9000121
:1016D000DDE9022302F0BAFFCDE90401DDE90623CA
:1016E00002F0B4FF804603F0F9F900B20D49888298
:1016F0000846B0F9140010F5167F02DA4FF6A8502C
:1017000088820848B0F91400B0F5167F03DD4FF465
:1017100016700449888209B0BDE8F08F00000020EF
:10172000080400205C04002010B540210748FFF7A2
:101730006AFF80210548FFF766FF80210348FFF715
:1017400060FF40210148FFF75CFF10BD001401401D
:1017500010B540210548FFF756FF80210348FFF7E9
:1017600050FF80210148FFF74EFF10BD00140140DB
:1017700010B540210348FFF746FF40210148FFF71D
:1017800040FF10BD0014014008B50121402001F0C8
:1017900033FA4FF4F970ADF8000048208DF80300DB
:1017A00069460248FFF750FE08BD000000180140DE
:1017B00010B5044614B101203F4908703E48007836
:1017C000002850D010213D48FFF712FFC8B120215A
:1017D0003A48FFF70DFFA0B140213848FFF708FF56
:1017E00078B180213548FFF703FF50B14FF4807185
:1017F0003248FFF7FDFE20B102213048FFF7F8FE26
:1018000080BB0A2002F084F800202B4908701021C8
:101810002A48FFF7EDFE08B9012010BD2021274816
:10182000FFF7E6FE08B90220F7E740212348FFF75B
:10183000DFFE08B90320F0E780212048FFF7D8FE3B
:1018400008B90420E9E74FF480711C48FFF7D0FE87
:1018500008B90520E1E702211848FFF7C9FE40BB9F
:101860000620DAE7FFE710211448FFF7C1FE012840
:101870001FD120211148FFF7BBFE012819D14021BB
:101880000E48FFF7B5FE012813D180210B48FFF762
:10189000AFFE01280DD101020848FFF7A9FE01287B
:1018A00007D102210548FFF7A3FE012801D1024913
:1018B00008700020B1E70000220400200018014059
:1018C00070B504460D46B5F5806F0AD024B9294697
:1018D0000948FFF798FE0EE029460748FFF791FEFA
:1018E00009E024B929460548FFF78DFE03E02946A3
:1018F0000248FFF786FE70BD00100140001C014049
:1019000008B50121102001F077F90320ADF800009F
:1019100010208DF8030003208DF8020069461C4852
:10192000FFF792FD0121802001F066F94FF48060FD
:10193000ADF8000010208DF8030003208DF80200A0
:1019400069461448FFF780FD0121042001F054F995
:101950004FF40040ADF8000010208DF80300032084
:101960008DF8020069460C48FFF76EFD012100204A
:10197000FFF7A6FF02210020FFF7A2FF4FF48061CE
:101980000020FFF79DFF0020FEF76EFE08BD00005F
:1019900000100140001C01400008014070B50446E1
:1019A0000D46FE48007884427ADDFD48007830B16B
:1019B000012877D0022828D0032825D149E0F7480C
:1019C0000078201A012806DD4FF03331F548F64A39
:1019D000C2E9001018E0F1480078201A012813D15C
:1019E000F24AF34BF04903C903F070FAEE4A03C21E
:1019F000EE4AF04BEC4903C903F0F8F804D8EB4980
:101A0000EC48E94AC2E9001074E0E4480078201A82
:101A1000012805DD4FF03330E749E34A03C217E000
:101A2000DE480078201A012812D1E04AE04BDE4956
:101A300003C902F00BFEDC4A03C2DC4ADF4BDA4981
:101A400003C903F00DFA03D8D848DC49D64A03C2CB
:101A500050E0012001F0E4F9D0480078201A012874
:101A600005DD4FF03330CF49CF4A03C217E0CB48F2
:101A70000078201A012812D1CC4ACD4BCA4903C99B
:101A800003F024FAC84A03C2C84ACA4BC64903C96C
:101A900003F0ACF803D8C548C649C34A03C229E0DD
:101AA00029E0FFE7002001F0BBF9BC480078201ACC
:101AB000012806DD4FF03331BA48BB4AC2E90010B5
:101AC00017E0B6480078201A012812D1B74AB84B5F
:101AD000B54903C903F0FAF9B34A03C2B34AB54B97
:101AE000B14903C903F082F803D8B048B149AE4AFE
:101AF00003C200BF18E2A948007884427BDAA848F4
:101B0000007830B1012878D0022827D0032824D1CA
:101B100049E0A2480078001B012806DD4FF0333170
:101B2000A548A14AC2E9001017E09C480078201A95
:101B3000401C90B99D4A9E4B9B4903C902F086FD0B
:101B4000994A03C2994A9D4B974903C903F088F902
:101B500003D896489949944A03C277E08F480078A1
:101B6000001B012806DD4FF033318E488E4AC2E952
:101B7000001017E089480078201A401C90B98B4A61
:101B80008B4B894903C903F0A1F9874A03C2874AED
:101B9000884B854903C903F029F803D88348854950
:101BA000814A03C252E0002001F03AF97B480078F4
:101BB000001B012805DD4FF033307A497A4A03C211
:101BC00018E076480078201A401C98B9774A784B7C
:101BD000754903C903F07AF9734A03C2734A754B16
:101BE000714903C903F002F804D8704971486E4A7C
:101BF000C2E900102AE02AE0FFE7012001F010F915
:101C000066480078001B012806DD4FF03331654837
:101C1000654AC2E9001018E060480078201A401CAC
:101C200098B9624A624B604903C903F04FF95E4AB2
:101C300003C25E4A5F4B5C4903C902F0D7FF04D878
:101C40005A495C48584AC2E9001000BF6CE15C4840
:101C5000007885427DDD5248007830B101287AD085
:101C600002282AD0032827D14FE0002001F0D8F81D
:101C700053480078281A012806DD4FF033314948CF
:101C8000494AC2E9001017E04D480078281A012897
:101C900012D1464A464B444903C903F017F9424A58
:101CA00003C2424A434B404903C902F09FFF03D895
:101CB0003E4840493C4A03C287E0012001F0B0F8A9
:101CC0003F480078281A012806DD4FF033313548A7
:101CD000354AC2E9001017E039480078281A01286F
:101CE00012D1324A324B304903C903F0EFF82E4A81
:101CF00003C22E4A2F4B2C4903C902F077FF03D8A9
:101D00002A482C49284A03C25FE02D480078281A47
:101D1000012805DD4FF033302249234A03C217E082
:101D200027480078281A012812D1204A204B1E4942
:101D300003C903F0CBF81C4A03C21C4A1D4B1A49C5
:101D400003C902F053FF03D818481A49164A03C2C0
:101D50003BE03BE0FFE71A480078281A012805DD40
:101D60004FF033301449104A03C22DE01448007874
:101D7000281A012828D10D4A0D4B0B4903C902F03E
:101D800065FC094A03C2094A0C4B074903C903F021
:101D900067F819D805490948034A13E00B000020E9
:101DA0000D0000203333D33F000000209A99999909
:101DB0009999A93F9999C93F3333D3BF9999C9BF1D
:101DC0000C000020C2E9001000BFADE05F480078C1
:101DD00085427DDA5E48007830B101287AD0022849
:101DE00029D0032826D14EE0012001F019F85748E8
:101DF0000078401B012805DD4FF033305549564A25
:101E000003C217E051480078281A401C90B9534A81
:101E1000534B514903C903F059F84F4A03C24F4A83
:101E2000504B4D4903C902F0E1FE03D84B484D49E0
:101E3000494A03C273E0002000F0F2FF43480078F3
:101E4000401B012805DD4FF033304249424A03C2AE
:101E500018E03E480078281A401C98B93F4A404B89
:101E60003D4903C903F032F83B4A03C23B4A3D4BAC
:101E7000394903C902F0BAFE04D838493948364A0C
:101E8000C2E900104BE031480078401B012806DD14
:101E90004FF033313448304AC2E9001017E02B4884
:101EA0000078281A401C90B92C4A2D4B2A4903C9A6
:101EB00002F0CCFB284A03C2284A2C4B264903C90E
:101EC00002F0CEFF03D825482849234A03C226E062
:101ED00026E0FFE71D480078401B012805DD4FF094
:101EE00033301C491C4A03C218E018480078281AED
:101EF000401C98B9194A1A4B174903C902F0E6FF6A
:101F0000154A03C2154A174B134903C902F06EFE66
:101F100004D812491348104AC2E9001000BF03E078
:101F200000200D4A1060506011480078114909786E
:101F3000884209D1054800780F490978884203D1C1
:101F40000020054A1060506070BD00000C000020A9
:101F50000D0000203333D33F000000209A99999957
:101F60009999A93F9999C93F3333D3BF9999C9BF6B
:101F70000B0000200E0000200F00002000BFFEE735
:101F80007047000070B5002100230F22C47804B30D
:101F9000154C246804F4E064C4F5E064210AC1F13E
:101FA0000403CA40447804FA03F1847814402143BE
:101FB00009010E4C0678A155047804F01F05012490
:101FC000AC4005786D11AD0005F1E025C5F8004184
:101FD00009E0047804F01F050124AC40044D0678A4
:101FE000761145F8264070BD0CED00E000E400E0FD
:101FF00080E100E002490143024A1160704700009D
:102000000000FA050CED00E070B5002418E004F1C2
:10201000B000002100F08DFD0021084600F089FD90
:102020000021102000F085FD002505E001210020A1
:1020300000F07FFD681CC5B2802DF7DB601CC4B2C8
:10204000082CE4DB70BD000008B50121202000F061
:10205000D3FDC020ADF8000010208DF80300032050
:102060008DF8020069463B48FFF7EEF9C021394878
:10207000FFF7C9FAC82001F04BFC0021AE2000F0A8
:1020800058FD0021084600F054FD0021102000F00A
:1020900050FD0021402000F04CFD0021B02000F058
:1020A00048FD0021812000F044FD0021FF2000F0C8
:1020B00040FD0021A12000F03CFD0021A62000F001
:1020C00038FD0021A82000F034FD00213F2000F061
:1020D00030FD0021C82000F02CFD0021D32000F0AD
:1020E00028FD0021084600F024FD0021D52000F045
:1020F00020FD0021802000F01CFD0021D82000F0F0
:1021000018FD0021052000F014FD0021D92000F069
:1021100010FD0021F12000F00CFD0021DA2000F07C
:1021200008FD0021122000F004FD0021DB2000F05A
:1021300000FD0021302000F0FCFC00218D2000F08B
:10214000F8FC0021142000F0F4FC0021AF2000F086
:10215000F0FC08BD00140140F8B5F94800780128EA
:102160006FD11023F7A20021084600F0C5FC102013
:1021700003230090F44802780021102000F078FC3E
:102180001023F2A20221002000F0B6FC102003234D
:102190000090EF4802780221102000F069FC102323
:1021A000ECA20421002000F0A7FC102003230090E3
:1021B000E94802880421102000F05AFC1023E7A20D
:1021C0000621002000F098FC00221346E44903C9D0
:1021D00002F00CFD06D210232D2206210A2000F069
:1021E000F5FB05E01023202206210A2000F0EEFB7B
:1021F0000022DC4BDA4903C902F034FD054602F047
:102200006DFC041E4FF01000009001DB204600E042
:102210006042024603230621102000F029FC10230F
:10222000D1A20021322000F067FCD048B0F90200B2
:10223000002807DA10232D220021462000F0C6FBDB
:1022400006E08CE0102320220021462000F0BEFB97
:10225000C648B0F9024010200090002C01DB204657
:1022600000E060420246042300214C2000F000FC04
:102270001023BFA20221322000F03EFCBD48B0F97D
:102280000200002806DA10232D220221462000F049
:102290009DFB05E0102320220221462000F096FB42
:1022A000B448B0F9024010200090002C01DB204619
:1022B00000E060420246042302214C2000F0D8FBDB
:1022C0001023ADA20421322000F016FC1020009053
:1022D000AA480288042319464C2000F0C9FB1023A9
:1022E000A7A20621322000F007FC10200090A3488E
:1022F0004288042306214C2000F0BAFB0020FFF79F
:1023000057FAA049087008460078072826D2DFE867
:1023100000F0250425121B0921000020904A1060BE
:1023200050601BE0984A994B8D4903C902F08EF921
:102330008B4A03C212E0944A944B894903C902F0C4
:10234000C5FD874A03C209E0FFF75EFE02207C4913
:10235000087003E0012000F063FD00BFEBE2784865
:102360000078022876D1102389A20021084600F0C7
:10237000C3FB102000908748028804230021192005
:1023800000F076FB102384A20221002000F0B4FBB1
:10239000102000907F48428804230221192000F079
:1023A00067FB10237DA20421002000F0A5FB102074
:1023B00000907848828804231946192000F058FBC1
:1023C000102377A20621002000F096FB1020009039
:1023D0007048C28804230621192000F049FB10230D
:1023E00070A20021502000F087FB10200090694867
:1023F000027A012300216A2000F03AFB10236AA22E
:102400000221502000F078FB102000906148427AB1
:10241000012302216A2000F02BFB0020FFF7C8F9FE
:10242000584908700846007807282DD2DFE800F0E8
:102430002C041C13220928000020494A1060506017
:1024400022E0514A514B464903C902F0FFF8444A81
:1024500003C219E019E04C4A4C4B414903C902F050
:1024600035FD3F4A03C20FE0FFF7CEFD012034499E
:10247000087009E0FFF7C8FD03203149087003E048
:10248000012000F0CDFC00BF55E22D480078032864
:1024900054D1102345A20021084600F02DFB102046
:1024A00001230090434802780021322000F0E0FA36
:1024B000102341A20221002000F01EFB1020012366
:1024C00000903E4802780221322000F0D1FA102319
:1024D0003BA20421002000F00FFB102001230090FC
:1024E000394802780421322000F0C2FA102337A2C2
:1024F0000621002000F000FB102001230090354849
:1025000002780621322000F0B3FA102332A2002113
:10251000462000F0F1FA10200123009030480278A4
:102520000021782000F0A4FA0020FFF741F91549B6
:1025300008700846007807285ED253E080E000006B
:10254000FB030020580000000B0000205900000091
:102550000C00002044000000140000205600000081
:1025600000000020000059404D31000044000020D0
:102570004D320000480000204831000008040020CF
:1025800048320000FC0300209A9999999999B93F23
:10259000433000008A040020433100004332000031
:1025A00043330000533100005332000073746F70E6
:1025B00000000000090000206864000011000020F5
:1025C0004D6F66690000000010040020526F7461B6
:1025D000000000001104002052656D6F0000000033
:1025E0005C000020DFE800F02B041B12210927000B
:1025F0000020D14A1060506021E0D04AD04BCE4933
:1026000003C902F023F8CC4A03C218E0CB4ACC4BF2
:10261000C94903C902F05AFCC74A03C20FE0FFF7D9
:10262000F3FC0220C749087009E0FFF7EDFC042025
:10263000C449087003E0012000F0F2FB00BF7AE11A
:10264000C048007804287DD11023BFA2002108468D
:1026500000F052FA0121BD48FEF7CAFF04461020DF
:102660000123224600210090232000F001FA1023CC
:10267000B7A20221002000F03FFA0221B348FEF782
:10268000B7FF044610200123224602210090232098
:1026900000F0EEF91023AFA20421002000F02CFA84
:1026A0000421AA48FEF7A4FF044610200123224675
:1026B00004210090232000F0DBF91023A6A20621BC
:1026C000002000F019FA0821A048FEF791FF044607
:1026D00010200123224606210090232000F0C8F993
:1026E0001023AFF26C120021322000F005FA102006
:1026F00000909A480288042300214C2000F0B8F989
:102700001023AFF284120221322000F0F5F91020DC
:10271000009092484288042302214C2000F0A8F93E
:1027200010238FA20421322000F0E6F9102000903F
:102730008A488288042319464C2000F099F9102316
:1027400088A200E043E00621322000F0D5F91020F5
:1027500000908248C288042306214C2000F088F9AA
:102760000020FFF725F88049087008460078072800
:102770002CD2DFE800F02B041B12210927000020D7
:102780006D4A1060506021E06C4A6D4B6A4903C984
:1027900001F05CFF684A03C218E0684A684B66496A
:1027A00003C902F093FB644A03C20FE0FFF72CFC5D
:1027B00003206449087009E0FFF726FC0520614901
:1027C000087003E0012000F02BFB00BFB3E05D4880
:1027D00000780528FAD11023AFF29822002108468C
:1027E00000F08AF91020012300906048027800214F
:1027F000232000F03DF91023AFF2B0220221002087
:1028000000F07AF910200123009059480278022143
:10281000232000F02DF9102356A20421002000F0FF
:102820006BF91020012300905348027804212320E3
:1028300000F01EF9102351A20621002000F05CF9DF
:102840001020012300904E4802780621232000F03A
:102850000FF910234BA20021322000F04DF9102077
:1028600004230090484890F9002000214C2000F0FB
:10287000FFF8102345A20221322000F03DF910207C
:1028800004230090424890F9002002214C2000F0DF
:10289000EFF810233FA20421322000F02DF9102080
:1028A000042300903C48027819464C2000F0E0F8E0
:1028B00010233AA20621322000F01EF91020042332
:1028C00000903748027806214C2000F0D1F8002013
:1028D000FEF76EFF2449087008460078072829D2C1
:1028E000DFE800F0280416101C0A220000201F490F
:1028F00008701F4908701DE01D480078401C1C49E5
:10290000087017E01A480078401E1949087011E055
:1029100016480078401E154908700BE013480078EF
:10292000401C1249087005E0FFF76EFB01200549C5
:10293000087000BF00BFF8BD000000209A99999967
:102940009999B93FFB03002042310000000C01407F
:1029500042320000423300004234000008040020EC
:102960004833000048340000FC0300200B00002026
:102970000C000020545800000E00002054590000A4
:102980000F0000204E580000180400204E5900008F
:10299000190400204F620000120000204F72000056
:1029A0000D00002070B504460D4605F1B000002171
:1029B00000F0BFF8102141EA1410002100F0B9F82E
:1029C00004F00F00002100F0B4F870BD2DE9F047CD
:1029D00007460E469046994600250024A8F120009F
:1029E000C5B27F2F02DD0027B01CC6B2B9F1100FAF
:1029F00024D131463846FFF7D5FF002408E004EB28
:102A00000511194A505C012100F093F8601CC4B212
:102A1000082CF4DB701CC1B23846FFF7C3FF00245A
:102A200009E004EB051108310F4A505C012100F068
:102A300080F8601CC4B2082CF3DB12E03146384643
:102A4000FFF7B0FF00240AE005EB4501074A02EB5F
:102A50004101085D012100F06CF8601CC4B2062C35
:102A6000F2DBBDE8F08700006C5600084454000813
:102A70002DE9FF5F074691461E460E9D4FF0000A66
:102A8000002435E0301B401EC1B20A2001F0B4FB27
:102A9000B9FBF0F00A21B0FBF1F201FB1208BAF128
:102AA000000F14D1701EA04211DDB8F1000F0CD13F
:102AB000AB4605EBDB71491001FB0471C8B22B4634
:102AC00020220199FFF782FF10E04FF0010AAB4688
:102AD00005EBDB71491001FB0471C8B208F130014C
:102AE000CAB22B460199FFF771FF00BF601CC4B248
:102AF000B442C7DBBDE8FF9F2DE9F04104460F4615
:102B00001546984600260FE0AA5D43463946204602
:102B1000FFF75CFF04F10800C4B2782C02DD00244A
:102B2000B81CC7B2701CC6B2A85D0028ECD1BDE8C5
:102B3000F08170B504460D461DB1E0B200F072FDA3
:102B400002E0E0B200F058FD70BD00000A480B49F9
:102B500008600B4848600B48886007480A490860CD
:102B6000074848600748886008480949086000200D
:102B7000486088607047000066661E40240400209C
:102B8000295C0F3D0AD7A33C40040020CDCCCC3EAD
:102B90005C0400207047000029B1064A52690243D4
:102BA000044B5A6104E0034A52698243014B5A6163
:102BB000704700000010024029B1064AD269024362
:102BC000044BDA6104E0034AD2698243014BDA61C3
:102BD000704700000010024029B1064A1269024302
:102BE000044B1A6104E0034A12698243014B1A61E3
:102BF000704700000010024029B1064A9269024362
:102C0000044B9A6104E0034A92698243014B9A6142
:102C1000704700000010024029B1064AD268024302
:102C2000044BDA6004E0034AD2688243014BDA6065
:102C3000704700000010024030B50021002200243F
:102C400000232D4D6D6805F00C0121B1042905D03C
:102C5000082923D105E0294D056022E0274D0560B4
:102C60001FE0254D6D6805F47012234D6D6805F465
:102C70008034022505EB92421CB9214D5543056075
:102C80000BE01D4D6D6805F400351DB11C4D55431D
:102C9000056002E0194D5543056002E0174D0560DF
:102CA00000BF00BF144D6D6805F0F0010909154D16
:102CB0006B5C0568DD4045600F4D6D6805F4E061B3
:102CC000090A104D6B5C4568DD4085600A4D6D68F2
:102CD00005F46051C90A0B4D6B5C4568DD40C56069
:102CE000054D6D6805F44041890B074D6B5CC56867
:102CF000B5FBF3F5056130BD0010024000127A000B
:102D000000093D00300000204000002000B587B0E1
:102D100001210420FFF770FF01214804FFF74CFF59
:102D2000384800F019FB0820ADF8180004208DF891
:102D30001B0006A93448FEF787FB344802900020A8
:102D4000ADF80C00ADF80E004FF48060ADF8100047
:102D50000020ADF814000C20ADF8120002A929489B
:102D600000F06EFB0121274800F0E0FA012108463F
:102D7000FFF712FF00224021224800F0E3FA244826
:102D8000FEF77EFA1F48001D22490860224848606D
:102D9000002088601220C8600020086180204861FF
:102DA00000208861C861202008624FF440504862CA
:102DB000002088621648FEF728FB4FF40010FEF74B
:102DC00037FA012202211248FEF716FB01224021A8
:102DD0000C4800F0B7FA10208DF8040002208DF89E
:102DE00005008DF8060001208DF8070001A8FFF707
:102DF000C9F801210648FEF737FA01200749087093
:102E000007B000BD0044004000080140A08601005A
:102E10006C00024094040020780400205C00002034
:102E200070B504460021374A1160516001203649CF
:102E30000870114603C900F091FD054601F04EFEF1
:102E400000B2324948802F4903C900F087FD05468A
:102E500001F044FE00B22E49488014B1012C47D144
:102E600022E02C482C4900F079FD81F00041054614
:102E700001F034FE00B2254948802648264900F07A
:102E80006DFD054601F02AFE00B221494880234825
:102E9000007828B121480078401E2049087002E0DF
:102EA00003201E49087023E01A481B4900F056FD14
:102EB000054601F013FE00B2144948801548164932
:102EC00000F04CFD81F00041054601F007FE00B224
:102ED0000F49488011480078032805D00F48007832
:102EE000401C0E49087002E000200C49087000BF29
:102EF00000BF40F2622000F00BFD00200249087084
:102F000070BD0000000000201104002044000020DB
:102F1000480000209A9999999999C93F0D0000207D
:102F200000B970470178427841EA0221C1F30A01F1
:102F3000144A11804178C910827841EA4211C1F3E4
:102F40000A01104A518081788911C27841EA8201D0
:102F5000027941EA8221C1F30A010A4A918001798A
:102F60004910427941EAC211C1F30A01054AD180F0
:102F700041790911890811724179C1F30111517226
:102F800000BFCEE78A040020704710B500F002F8B9
:102F900010BD00000CB5002001900090334800687F
:102FA00040F480303149086000BF3048006800F4C8
:102FB000003000900198401C0190009818B90198C9
:102FC000B0F5A06FF1D12948006800F4003010B1CD
:102FD0000120009001E0002000900098012843D1DA
:102FE0002348006840F01000214908600846006846
:102FF00020F0030008600846006840F00200086006
:103000001A484068194948600846406848600846C0
:10301000406840F4806048600846406820F47C10B6
:1030200048600846406840F4E81048600846006878
:1030300040F08070086000BF0C48006800F000702D
:103040000028F9D00948406820F00300074948608B
:103050000846406840F00200486000BF03484068EE
:1030600000F00C000828F9D10CBD0000001002404F
:103070000020024070B586B006460C4615464FF457
:103080000070019000208DF80C008DF80D000820D4
:103090008DF80E006042000A8DF80F006042C1B248
:1030A0008DF810106842010A8DF811106842C1B203
:1030B0008DF8121001A93046FDF7E6FD06B070BD8F
:1030C00002480068401C0149086070472C0000203D
:1030D00010B51348006840F0010011490860084627
:1030E0004068104908400E494860084600680E498B
:1030F00008400B4908600846006820F480200860FA
:103100000846406820F4FE0048604FF41F008860C5
:10311000FFF73BFF4FF000600449086010BD00005E
:10312000001002400000FFF8FFFFF6FE08ED00E08F
:1031300010B50121064800F08CF838B1012104488F
:1031400000F078F800F084FAFDF72EFF10BD0000C3
:10315000000C00407FB505460C4601210820FFF712
:103160002BFDADF80850ADF804400020ADF80A0082
:10317000ADF8060001A90E4800F086F801221146BC
:103180000B4800F077F832208DF8000001208DF810
:10319000010003208DF8020001208DF8030068462D
:1031A000FEF7F0FE0121024800F047F87FBD000065
:1031B000000C004010B50121054800F04AF828B184
:1031C0000121034800F036F8FDF764FF10BD000050
:1031D000001000407FB505460C4601211020FFF786
:1031E000EBFCADF80850ADF804400020ADF80A0043
:1031F000ADF8060001A90E4800F046F8012211467C
:103200000B4800F037F836208DF8000001208DF8CB
:10321000010002208DF8020001208DF803006846AD
:10322000FEF7B0FE0121024800F007F87FBD000064
:1032300000100040CA430282704721B1028842F068
:103240000102028004E002884FF6FE731A400280F9
:10325000704730B50246002000230024158A05EA95
:103260000103958905EA010413B10CB1012000E0C6
:10327000002030BD1AB183890B43838102E083892A
:103280008B43838170470000002202881D4B9842C7
:103290000ED01D4B98420BD0B0F1804F08D01B4B85
:1032A000984205D01A4B984202D01A4B984204D14A
:1032B0004FF68F731A404B881A43174B984207D02A
:1032C000164B984204D04FF6FF431A40CB881A435E
:1032D00002808B8883850B8803850A4B98420BD02C
:1032E000094B984208D00E4B984205D00D4B98429E
:1032F00002D00D4B984201D10B7A038601238382C1
:1033000070470000002C01400034014000040040E0
:1033100000080040000C0040001000400014004075
:1033200000400140004401400048014021B1828931
:1033300042F40052828104E082894DF6FF731A4004
:10334000828170471AB1838A0B43838202E0838AA9
:103350008B4383827047000010B5044620488442A6
:1033600009D101218803FFF757FC00214FF4804069
:10337000FFF752FC32E01B48844209D10121480486
:10338000FFF72AFC00214FF40030FFF725FC25E071
:103390001548844209D101218804FFF71DFC002152
:1033A0004FF48020FFF718FC18E01048844209D140
:1033B0000121C804FFF710FC00214FF40020FFF7A3
:1033C0000BFC0BE00A48844208D101210805FFF7F5
:1033D00003FC00214FF48010FFF7FEFB10BD00003E
:1033E000003801400044004000480040004C0040CC
:1033F00000500040F0B503460024002600250020C0
:1034000040F66A17B94200D100BF1846C1F3421412
:1034100001F01F06012707FA06F5012C01D10C3037
:1034200004E0022C01D1103000E014301AB107681A
:103430002F43076002E00768AF430760F0BD00005C
:103440002DE9F04786B005460E460024A24600BF8F
:10345000A1460027B08900B100BF2F462C8A4CF648
:10346000FF700440F08804432C82AC894EF6F310C0
:103470000440B08831890843718908430443AC8112
:10348000AC8A4FF6FF400440B0890443AC8201A8E7
:10349000FFF7D2FB1F48874202D1DDF810A001E000
:1034A000DDF80CA0A88900F4004040B10AEBCA0086
:1034B00000EB0A1031684900B0FBF1F807E00AEBB5
:1034C000CA0000EB0A1031688900B0FBF1F86420F3
:1034D000B8FBF0F004012009642101FB1089A889E0
:1034E00000F4004040B1322000EBC900B0FBF1F025
:1034F00000F00700044308E0322000EB09106421CB
:10350000B0FBF1F000F00F0004432C8106B0BDE8E1
:10351000F08700000038014010B501210448FDF794
:103520008FF918B101210248FDF7B2F810BD000073
:103530000064004000B585B002211648FDF780F90F
:1035400028B302211348FDF7A3F86A460021114869
:10355000FDF722FB0098A0F2012010B1012815D13F
:1035600009E09DF80E109DF80D0041EA002000B220
:10357000094908800AE09DF80E109DF80D0041EA07
:103580000020404200B20549088000BF00BF05B0DE
:1035900000BD0000006400404400002048000020FE
:1035A00000BFFEE72DE9F04105462C4640211148B9
:1035B000FEF727F8002619E0274607F08007802F3E
:1035C00004D180210B48FEF71EF803E08021094852
:1035D000FEF717F86006040E40210648FEF713F8C0
:1035E00040210448FEF70DF8701CC6B2082EE3DB3C
:1035F000BDE8F0810014014010B50446FEF794F8D0
:103600007820FFF7CFFFFEF7B3F80020FFF7CAFFDF
:10361000FEF7AEF82046FFF7C5FFFEF7A9F8FEF764
:1036200097F810BD10B50446FEF77EF87820FFF736
:10363000B9FFFEF79DF84020FFF7B4FFFEF798F8BA
:103640002046FFF7AFFFFEF793F8FEF781F810BDB5
:103650002DE9FC4700250026A946AA4613243BE095
:10366000012C17D147480088474921F814004548E4
:1036700041884548283020F8141042488188424843
:10368000503020F814103F48C1883F48783020F867
:1036900014101FE0601E3C4931F8100021F814009E
:1036A000601E283131F810103748283020F81410E7
:1036B000601E3549503131F810103348503020F831
:1036C0001410601E3049783131F810102E487830CF
:1036D00020F81410601EC4B2002CC1DC012414E0D8
:1036E000294830F8140005442748283030F81400E1
:1036F00006442548503030F8140081442248783080
:1037000030F814008244601CC4B2142CE8DB284654
:1037100001F058FA074600221C4B01F04BF8CDE9A6
:10372000000101F00BFA1A490880304601F04AFA0C
:1037300007460022154B01F03DF8CDE9000101F0EC
:10374000FDF913494880484601F03CFA074600223B
:103750000E4B01F02FF8CDE9000101F0EFF90C4913
:103760008880504601F02EFA07460022074B01F0F0
:1037700021F8CDE9000101F0E1F90549C880BDE873
:10378000FC87000000040020C0040020000033403B
:10379000080400202DE9F0410026344890F900107B
:1037A000334800F0C1F8334890F90010324800F077
:1037B000BBF84DE02E480168083047562E48016896
:1037C000083010F901802A4800F098F82A4800F0E3
:1037D00095F8002639E029488057C41928488057B1
:1037E00000EB08052946204600F054F858B30120A4
:1037F00004EB440101EBC401224A1144485578B25C
:1038000004EB440101EBC4011F4A114448554FFA2F
:1038100088F004EB440101EBC4011C4A11444855F3
:1038200004EB440000EBC40019490844405D5428EF
:1038300001D1BDE8F08161B20D4800F075F869B2C0
:103840000D4800F071F8701C46B2042EC3DB00BFB7
:103850000748006806494968884205D0064800685C
:10386000054949688842A5D100BFE2E71404002059
:10387000CC06002015040020BC0A00201A040020F9
:103880001E040020A2160020D905002052060020A8
:10389000600500200246002A26DB144890F900004B
:1038A000824221DA00291FDB114890F90000814291
:1038B0001ADA02EB420000EBC2000E4B1844405CE7
:1038C00090B902EB420000EBC2000B4B1844405C85
:1038D0002A2807D002EB420000EBC2001844405CEB
:1038E000542801D1012070470020FCE71204002079
:1038F00013040020A216002060050020D0E9001269
:10390000914200D170470168491C016000BFF9E78E
:10391000044A1268111800BF024A12688A42FBD397
:10392000704700002C00002000B502460B4650688E
:10393000B0F57A7F0EDAD2E90001884202D1104652
:1039400000F076F802F10800516843545068401CBA
:10395000506000E000BD00BFFCE700002DE9F05F13
:1039600004460D46DFF838A000220E4B20462946BB
:1039700001F078F9804600F037FE83460A49584640
:1039800001F094FC8146514601F0B6FB804601F0FF
:1039900087FB06460F4630463946BDE8F09F0000DB
:1039A0003BEF303E00004E400000104210B5FCF7E7
:1039B00013FDFCF7D1FD10BD08B501210820FFF76C
:1039C0001BF90120ADF8000048208DF8030069467E
:1039D0001648FDF739FD01210820FFF70DF90220F7
:1039E000ADF8000048208DF8030069460F48FDF748
:1039F0002BFD01210820FFF7FFF80420ADF800009F
:103A000048208DF8030069460848FDF71DFD012197
:103A10000820FFF7F1F80820ADF8000048208DF8E5
:103A2000030069460148FDF70FFD08BD000C014089
:103A3000002141600160704730B5002015490860E1
:103A4000154800684FF47A72B0FBF2F1B1F1807F53
:103A500000D31DE021F07F40401E4FF0E022506176
:103A600050170F22002807DA13071D0E0B4B00F02A
:103A70000F04241F1D5503E013071C0E084B1C5494
:103A800000BF00204FF0E02290610720106100BFCE
:103A900030BD00002C0000201800002018ED00E0D0
:103AA00000E400E000B591B001210820FFF7A4F880
:103AB00001218804FFF780F83D48FFF74DFC4FF4E3
:103AC0000060ADF82C0004208DF82F000BA93948B8
:103AD000FDF7BAFC4FF48060ADF82C0003208DF8A0
:103AE0002E0018208DF82F000BA93248FDF7ACFCF2
:103AF0004FF4E1300D900020ADF83800ADF83A00F9
:103B0000ADF83C00ADF840000420ADF83E000DA932
:103B10002748FFF795FC01212548FFF707FC012105
:103B20000846FFF739F8002240212148FFF70AFC38
:103B30002148FDF7A5FB1E48001D00901F4801907D
:103B4000002002900820039000200490802005901F
:103B500000200690079020200890C00109900020C6
:103B60000A9069461448FDF750FC4FF40070FDF7C9
:103B70005FFB012202211048FDF73EFC012240219B
:103B80000B48FFF7DFFB0D208DF8300002208DF889
:103B9000310003208DF8320001208DF833000CA88D
:103BA000FEF7F0F901210448FDF75EFB11B000BDFE
:103BB00000480040000C0140300002406C00002032
:103BC00000211D4A11808178128811431A4A118000
:103BD000C1784FF47F4202EA0121174A128811434B
:103BE000154A11800021154A11800179128811436C
:103BF000124A118041794FF47F4202EA01210F4AB3
:103C0000128811430D4A118011460988142911DDCB
:103C100011460988B1F5FA6F0CDA074909881E299F
:103C200008DB05490988B1F5966F03DC024909886C
:103C3000034A1180704700007600002078000020C1
:103C40001400002001210846FEF7D6FF0121634839
:103C5000FDF786FCFFF73CFAFFF7EEFE4FF4A0609D
:103C6000FEF7C8F94FF4E13000F06EFCFCF70CFFF2
:103C7000FDF746FEFFF74AF8FEF7E6F9FFF712FFF9
:103C8000FEF764FFFFF792FEFFF796FEFDF77CFD5F
:103C9000FEF7BAF900F0BCFA5148007851490978AA
:103CA000884205D15048007850490978884201D0AF
:103CB00000F04CFB4B48007840B24D4908704B482F
:103CC000007840B24B49087040F2E7312320FFF7FB
:103CD00041FA42F20F7140F26710FFF77BFA7BE086
:103CE00045480088B0F5B67F34DB4348008840F291
:103CF000946188422EDC40494988A1F5806000F03B
:103D00004AFF04463D4A3E4B00F0ACFF3D4A03C229
:103D10003C4903C9FFF722FE044600F0DFFE00B273
:103D200039494880374903C9FFF718FE044600F0B7
:103D3000D5FE00B2354948802F48007A032802D1C9
:103D40000120FFF76DF82C48407A032802D10020AB
:103D5000FFF766F800F066F82D48007830B10022D1
:103D60001346284903C900F07DFE01D1FEF7F4F99E
:103D70002848007830B300212748FFF75EFA002278
:103D80001346204903C901F06BF808D2234A244B9B
:103D90001C4903C901F09AF81A4A03C20EE0002236
:103DA0001346184903C900F021FF07D21B4A1C4BD8
:103DB000144903C900F04AFC124A03C20120144905
:103DC000087009E01248007830B101211248FFF76D
:103DD00034FA00200E49087082E70000000230002B
:103DE0000E0000200B0000200F0000200C0000201F
:103DF00018040020190400208A040020DAE6C6F422
:103E000084254E3F00000020440000204800002090
:103E10001000002009000020001000409A99999994
:103E20009999A93F10B5EA4890F90000401C00B3E9
:103E3000E84890F90000401CD8B1E5480078E64910
:103E40000870E4480078E5490870E14890F90000FE
:103E5000E349097888420BD1DE4890F90000E14936
:103E600009788842F7D1FF20D9490870D9490870EC
:103E700085E1D74890F90100401C00B3D54890F97E
:103E80000100401CD8B1D2484078D3490870D148CD
:103E90004078D2490870CE4890F90100D04909789D
:103EA0008842E5D1CB4890F90100CE490978884293
:103EB000DED1FF20C6494870C64948705FE1C4485A
:103EC00090F90200401C00B3C24890F90200401C67
:103ED000D8B1BF488078C0490870BE488078BF49D3
:103EE0000870BB4890F90200BD4909788842BFD1EB
:103EF000B84890F90200BB4909788842B8D1FF2040
:103F0000B3498870B349887039E1B14890F903002A
:103F1000401C00B3AF4890F90300401CD8B1AC4836
:103F2000C078AD490870AB48C078AC490870A84863
:103F300090F90300AA490978884299D1A54890F9D7
:103F40000300A8490978884292D1FF20A049C8708F
:103F5000A049C87013E19E4890F90400401C00B3CA
:103F60009C4890F90400401CD8B1994800799A49BE
:103F700008709848007999490870954890F90400AC
:103F800097490978884299D1924890F90400954957
:103F90000978884292D1FF208D4908718D490871B6
:103FA000EDE08B4890F90500401C00B3894890F97A
:103FB0000500401CD8B1864840798749087085487B
:103FC000407986490870824890F90500844909784B
:103FD000884299D17F4890F9050082490978884242
:103FE00092D1FF207A4948717A494871C7E07848F0
:103FF00090F90600401C00B3764890F90600401C7A
:10400000D8B17348807974490870724880797349CF
:1040100008706F4890F9060071490978884299D173
:104020006C4890F906006F490978884292D1FF20C8
:104030006749887167498871A1E0654890F9070070
:10404000401C00B3634890F90700401CD8B1604899
:10405000C079614908705F48C079604908705C4860
:1040600090F907005E49097888420BD1594890F9C8
:1040700007005C490978884204D1FF205449C8717F
:104080005449C8717BE0524890F90800401C00B3C5
:10409000504890F90800401CD8B14D48007A4E496C
:1040A00008704C48007A4D490870494890F908005A
:1040B0004B490978884262D1464890F9080049493D
:1040C000097888425BD1FF20414908724149087252
:1040D00055E03F4890F90900401C00B33D4890F975
:1040E0000900401CD8B13A48407A3B490870394829
:1040F000407A3A490870364890F9090038490978F9
:1041000088423CD1334890F9090036490978884201
:1041100035D1FF202E4948722E4948722FE02C4895
:1041200090F90A00401C00B32A4890F90A00401C8C
:10413000D8B12748807A284908702648807A2749CC
:104140000870234890F90A0025490978884216D159
:10415000204890F90A002349097888420FD1FF20AE
:104160001B4988721B49887209E01F48007840B2D9
:10417000194908701D48007840B21849087018485D
:10418000007819490978884217D1164800781749EC
:104190000978884211D10120154908701248007829
:1041A00040B20D4908701148007840B20B490870C0
:1041B0000021104A1160516002E000200C49087093
:1041C000064A1178044A1078FDF7E8FB10BD00009C
:1041D0008C160020971600201804002019040020D7
:1041E0000B0000200C0000200E0000200F0000201B
:1041F000100400200000002010B50246012000E05D
:1042000050430B00A1F10104E1B2F9D110BD00004F
:1042100010B54FF0FF3279213C48FCF73BF84FF0E6
:10422000FF3279213A48FCF735F84FF0FF320B2185
:104230003848FCF72FF84FF0FF320B213648FCF7D7
:1042400029F83648FFF7F4FB3548FFF7F1FB35480E
:10425000FFF7EEFB3448FFF7EBFB34A13648FBF7E2
:10426000F5FF32A134480B30FBF7F0FF2FA13248A5
:104270001630FBF7EBFF31A12F482130FBF7E6FFAB
:104280002EA12D482C30FBF7E1FF2CA12A48373016
:10429000FBF7DCFF29A128484230FBF7D7FF23A119
:1042A00025484D30FBF7D2FF20A123485830FBF7BB
:1042B000CDFF1EA120486330FBF7C8FF22480078DD
:1042C000072821D2DFE800F02004090E13181C0093
:1042D0002321194880F8591016E02321164880F848
:1042E0005C1011E02321144880F860100CE02321B9
:1042F000114880F83F1007E023210F48C17403E004
:1043000023210D48017400BF00BF10BDD905002056
:10431000520600208C16002097160020CC060020A4
:10432000BC0A0020AC0E00209C1200202A2A2A2A57
:104330002A2A2A2A2A2A0000600500202A2A2A235B
:104340002323232A2A2A0000120000202DE9F0410D
:104350004FF0FF36374600BF0025FFF759FF5321C6
:104360005648007800EB400202EBC000544A10446B
:10437000544A1278815454205349097801EB410280
:1043800002EBC1014E4A1144504A127888544B48FE
:10439000007840B24E4908704A48007840B24D4912
:1043A00008704948007840B24B4908704748007887
:1043B00040B24A490870FFF7EDF9474A92F90020E8
:1043C00002EB420303EBC202454B1A44434B93F901
:1043D0000030D156404A92F9002002EB420303EB31
:1043E000C202404B1A443D4B93F90030D05600F0C6
:1043F00083F8394890F900103B48FFF795FA3748A1
:1044000090F900103948FFF78FFA3748046831E017
:10441000374635480830611C41560057081AB0F13C
:10442000FF3F16D010B1012815D110E02F480830F9
:10443000611C41560057081AB0F1FF3F03D0012814
:1044400003D1002601E0012600BF00BF03E00326E0
:1044500001E0022600BF00BFB7420AD02248083060
:10446000005D2349485521480830005D21494855E1
:104470006D1C641C1C484068A042C9DCFF201C491C
:1044800048551C4948552A200C49097801EB41023E
:1044900002EBC1010A4A11440A4A127888542A21BF
:1044A0000948007800EB400202EBC000044A1044C7
:1044B000064A12788154BDE8F08100000B0000200C
:1044C000600500200C0000200E0000200F000020DE
:1044D00014040020150400201604002017040020F6
:1044E00052060020D9050020AC0E00209C120020AE
:1044F0008C1600209716002070B504460D46601CEF
:1045000000B970BD04EB440202EBC4020A4B1A442A
:10451000515704EB440202EBC402084B1A445057B3
:10452000FFF7EAFF21460648FFF7FEF9294605484E
:10453000FFF7FAF900BFE4E752060020D905002092
:10454000AC0E00209C12002010B586B0044601215C
:1045500044F20400FEF750FB4FF40070ADF8140075
:1045600003208DF8160018208DF8170005A91C48A7
:10457000FCF76AFF4FF40060ADF8140004208DF8DA
:10458000170005A91648FCF75FFF01940020ADF85D
:104590000800ADF80A00ADF80C00ADF810000C20D2
:1045A000ADF80E0001A90F48FEF74AFF25208DF84F
:1045B000000000208DF8010001208DF802008DF828
:1045C00003006846FDF7DEFC012240F22551054854
:1045D000FEF710FF01210348FEF7A8FE06B010BD4C
:1045E000000801400038014021F00042A2F1605271
:1045F000B2F5801F01F0004328BFD2F17F6C0BD9C8
:104600005FEA001C43EAC20242EB507018BF7047D9
:1046100028BF20F001007047B2F5801FBCBF1846CC
:1046200070474FEA410C1CF5001F02D2084600F00B
:1046300004BF70B500F0C0FB00000089FFF7F6BFB3
:104640004FF00040A0F580007047000010B591EADF
:10465000030F48BF83F0004300F14084841A71EBDC
:10466000030C05D2121943EB0C03001B61EB0C0188
:10467000DFF824E14FEA1154A4EB135C1EEA430F68
:1046800018BF9EEA445F73D023EA0E03DCF1200ECC
:1046900021EA045143F4801332D322FA0CFE10EBCA
:1046A0000E0023FA0CFE41EB0E01CCF1200E03FAB2
:1046B0000EFE10EB0E0051F10001B1F5801FCCF1A0
:1046C000200E32D201EB045112FA0EF2BDE8104076
:1046D00058BF7047401C38BF5FEA420218BF70479E
:1046E000002814BF20F0010041F100014FEA41030E
:1046F00013F5001F38BF7047A1F1C04100F0AABBFD
:10470000012A43EB0302ACF1200CDCF11F0E32BF97
:104710004FF0000E23FA0CF310EB030041EB0451B1
:10472000B4EB115FD0D0A1EB045101F58011490821
:104730005FEA300001EB04510ED350F1000038BFA6
:1047400012FA0EFE08D1BDE81040C9E7401C38BF80
:104750005FEA4202CAD1C3E7BDE810404FEA410315
:1047600013F5001F38BF7047A1F1C04100F072BBC4
:104770009EEA445F08D011EA5E0FBDE8104004BF16
:1047800001F0004100207047BDE8104070B500F016
:1047900013FB00BF64FBBE3E0000E0FF491058BFA2
:1047A000C1F140415B1058BFC3F140438B42EFF36E
:1047B000008070472DE9C04130B4DFF8A0C23CEA68
:1047C000111418BF3CEA131400F0EC8081EA0305D1
:1047D0001CEA111444EAD57418BF1CEA131500F042
:1047E000C780A4EB05044FF0004545EAC12145EA26
:1047F000C32341EA505143EA525304F17F74994272
:1048000004F500344FEAC0204FEAC22208BF9042AC
:1048100000F09C804FEA13650FF24016765D4FEA78
:10482000134506FB05F7C7F1807706FB07F74FEA4C
:10483000D737A7FB03687642C8F58038A7FB06CEBA
:1048400038BFA8F1010807FB08E64FF0000EA6FBF1
:10485000028CE6FB03CEDCF1000CCEF1004E38BF3B
:10486000AEF1010EA6FB0C584FF000074FF000050B
:10487000E6FB0E87A1FB08C6A0FB07CE16EB0E06D3
:1048800045F10005E1FB076515F1E04E7EBFA4F59B
:1048900080345FEA46066D4116F1800745F1000558
:1048A0004FEA17274FEA066647EA0567A6F1DE4694
:1048B000B6F1805F4FEA15251FD9384624F0010C68
:1048C00005EBC471BCF1FE6F01EB0C1102D8F0BC1A
:1048D000BDE8008124425CBF01F5801E9EEAC47FD2
:1048E00002D4F0BCBDE80081244238D4F0BCA1F170
:1048F000C041BDE8004100F0ADBA4FEAD22242EA21
:1049000043524FEAD323A7FB02864FEAD02040EA66
:10491000415007FB03661EEA0E0F4FEAD12105FB4B
:10492000026658BFA6EB0056B6EB00564FEA520E91
:104930004EEAC37E18EB0E0E56EB530EBDD518EBA8
:1049400002085E417F1C55F10005B6E74FF4801563
:104950004FF000074FF000064FF00008ADE7F0BC45
:104960004FF0000001F1C04101F00041BDE80081BD
:1049700011EA0C1F0CEA131500D00CE013EA0C1F0F
:1049800000F025804FF00000F0BC81EA030101F047
:104990000041BDE80081F0BCBDE8004181EA0301AF
:1049A00000F058BAF0BCBDE8004170B500F004FA60
:1049B000097EFC3E00F007B881EA03014FF00000D9
:1049C00001F00041704781EA030100F043BAF0BCF6
:1049D000BDE800414FF0000021497047FFFDFBF9A1
:1049E000F7F5F4F2F0EEEDEBE9E8E6E4E3E1E0DE22
:1049F000DDDBDAD8D7D5D4D3D1D0CFCDCCCBCAC894
:104A0000C7C6C5C4C2C1C0BFBEBDBCBBBAB9B8B7BA
:104A1000B6B5B4B3B2B1B0AFAEADACABAAA9A8A8AD
:104A2000A7A6A5A4A3A3A2A1A09F9F9E9D9C9C9B7B
:104A30009A99999897979695959493939291919026
:104A40008F8F8E8E8D8C8C8B8B8A898988888787B7
:104A50008685858484838382828181800000FF072C
:104A60000000F87F51EA030C17D41CF5801F58BFD3
:104A7000BCF5801F00F10680994218BF704708BF3F
:104A80009042704707D711F5801F58BF13F5801F5C
:104A900019D499427047894270471CF5801F08D588
:104AA000BCF5801FF7D58B4218BF704708BF824204
:104AB00070474FF4001C1CEB410F38BF1CEB430F39
:104AC00001D28B42704770B500F076F9922449000C
:104AD0004FF000514FF08053FFF760BE4FEA4103A3
:104AE0004FEA5353A3F58063D3F11E03C8BFD3F13C
:104AF000210C0CDD4FF0004242EAC12242EA505242
:104B000032FA03FC8CEAE17CACEBE1707047102BCD
:104B1000C4BF0020704703F5787CBCF1FF3F04D090
:104B20006FF0004282EA2100704770B500F044F94E
:104B30004992248000207047F2E700004FEA1153A9
:104B4000A3F58063D3F11E03A8BFD3F1200C08DBCB
:104B50004FF0004242EAC12252EA505232FA03F0C8
:104B6000704709420BD4102BC4BF0020704703F5D7
:104B7000787CBCF1FF3F05D04FF0FF3070474FF01D
:104B80000000704770B500F017F900BF499224800B
:104B900000207047F0E710F0004248BF4042B0FAF2
:104BA00080F310FA03F10AD0C3F11D0303F580630B
:104BB0004FEA415002EB035202EBD12170474FF014
:104BC00000007047B0FA80F310FA03F10AD0C3F185
:104BD0001D0303F580634FEA41504FEA035202EB95
:104BE000D12170474FF000007047000051EA030CDC
:104BF00017D41CF5801F58BFBCF5801F00F106803C
:104C0000994218BF704708BF9042704707D711F507
:104C1000801F58BF13F5801F19D4994270478942ED
:104C200070471CF5801F08D5BCF5801FF7D58B4257
:104C300018BF704708BF824270474FF4001C1CEB3E
:104C4000410F38BF1CEB430F01D28B42704770B548
:104C500000F0B2F8922449004FF000514FF0805319
:104C6000FFF79CBDDFF848C170B51CEA111E1EBFDE
:104C70001CEA13159EEA0C0F95EA0C0F00F06F80EA
:104C800081EA030423EA4C134EEAD47E21EA4C1154
:104C900041F4801143F48013AE44A1FB024CA0FB0D
:104CA0000365AEF17F7E361955EB0C05A1FB034C75
:104CB0004CF10003A0FB021C16EB0C06654153F1FE
:104CC0000003094218BF46F0010613F4007F0BD120
:104CD0004FEA03314FEA0530340341EA155140EA07
:104CE00016506FF003020AE04FEAC3214FEAC520D5
:104CF000F40241EA555140EA56506FF0020202EBCD
:104D00002E4201EB025585EACE710AD05FEA440CCF
:104D100018BF24F0004450F1000041F1000120EAE6
:104D2000D47040F2FE7C624500D270BDA84214BF30
:104D30004FF080444FF04044002E08BF0024BEF1E5
:104D4000806FA8BFA1F1C041BDE8704080F28280B1
:104D50004FF0000001F1C04101F0004170479EEAB0
:104D60000C0F0CEA131518BF95EA0C0F06D04FF084
:104D7000000081EA030E0EF0004170BD00F01CF847
:104D80008900013E00F007B800F009B84FEA430C73
:104D90005FEA5C5C08D081EA030100F05BB84FEA8F
:104DA000410C5FEA5C5CF6D14FF0000001497047AE
:104DB0000000FF070000F87F0EF1020E2EF0030E38
:104DC0005EF8046B364205D4012A43EB030515F562
:104DD000001F12D8012841EB010C1CF5001F0CD854
:104DE0000ED14FEAD17C15F5001F0CEB4C0C0CF1E9
:104DF000020C08BF4CEBD37C04E04FF0080C01E040
:104E00004FEAD37C0CEB4C0526FA05F606F00706B4
:104E1000B6F1040C06D20EEB860CBDE870404CF0E7
:104E2000010C6047DFE80CF0090B02024FF0004173
:104E30004FF00000A1F5002170BD19461046012871
:104E400051EB010418BFD4F5001484BF002001F019
:104E5000004170BD0808A0F500114FEA310170470C
:104E600053EA010C17D41CF5801F58BFBCF5801FF6
:104E700000F106808B4218BF704708BF824270471E
:104E800007D713F5801F58BF11F5801F19D48B4227
:104E900070479B4270471CF5801F08D5BCF5801FEA
:104EA000F7D5994218BF704708BF904270474FF43A
:104EB000001C1CEB430F38BF1CEB410F01D2994281
:104EC00070470FB40CBC03BCFFF7C1BE10B591EA2C
:104ED000030F48BF83F000433FF5C0AB841A71EB6A
:104EE000030C07D212198CF0004C43EB0C03001B8F
:104EF00061EB0C01DFF8A4E14FEA1154A4EB135C61
:104F00001EEA430F18BF9EEA445F00F0B08023EA18
:104F10006E03524221EA0451C3EB6E0338BF5B1E9D
:104F2000DCF1200E25D322FA0CFE10EB0E0043FA22
:104F30000CFE41EB0E01CCF1200E03FA0EFE10EB3D
:104F40000E0051F10001CCF1200E29D412FA0EF21C
:104F500001EB0451BDE8104058BF7047401C1CBF16
:104F6000B2F1004F704700280CBF491C20F001002F
:104F7000704712EB020E43EB030218BF4FF0010E15
:104F80004EEA4202ACF1200CDCF11E0E54D943FA79
:104F90000CFE10EB0E0051F1FF31CCF11E0ED5D5F9
:104FA0000EF1010E12FA0EFE404141EB010101EB40
:104FB000445C5FEA5C5C10D910EBDE7001EB0451DD
:104FC00038BFBEF1004FBDE8104018BF7047002841
:104FD0000CBF491C20F00100704730D24FEAD42C9E
:104FE00011F5001124F400641BD0B1FA81F20B3AE0
:104FF000A41AA41ED2F12003914030FA03F31943FE
:10500000904001EBCC71002C01EB0451BDE8104045
:10501000A8BF704701F1C0414FF0000001F000410E
:105020007047B0FA80F310FA03F100D110BDE41A12
:10503000173C4805C90AE4E701EB045110BD4910CB
:1050400001EB0451BDE810404FEA300002E04FF0A0
:10505000000170474A0008BF0042F8D0B2F5001FB7
:1050600028BF704701F000414FF0000070479EEAF2
:10507000445F07D011EA5E0FBDE8104004BF002175
:1050800000207047BDE8104070B5FFF795FE00BFE7
:1050900040DFF63E83F00041104670470000E0FF1D
:1050A00043004FEAD30C4FEA3C0C43401FBF40077C
:1050B0000CF1605113F0FE4F70471CF0006F03D1EC
:1050C00000200CF0004170470CF0004343EA5070A0
:1050D00010B540EACC0000F06AF900BF0000009271
:1050E0004FEA0001FFF7B6BE4FF000414FF000005D
:1050F000A1F50021704700004FF47F0C1CEAD0128C
:105100001EBF1CEAD11392EA0C0F93EA0C0F00F0B9
:10511000858090EA010F48BF42F4807240F4000C91
:1051200041F400002CF07F4120F07F4000B5814227
:10513000A2EB03020FF2081CACEB504EC0F10000D2
:105140009EF800E04FEA4E0E00FB0EFC38BF49000F
:105150004FEA2C1C02F5FA020CFB0EF34FEACE1EAE
:105160004FEA112C4FEAC1210EEB635E42EB224263
:105170000EFB0CFC4FEA1C5300FB03114FEA112CF1
:105180004FEA01310EFB0CFC4FEADC4C00FB0C112A
:10519000C14228BF09184CEB03335DF804EB10EB58
:1051A000410143EBC250B2F57C0F38BF704729D59F
:1051B00012F0F00F1CBF00F1C04000F0004070473B
:1051C000008182838485868788898B8C8D8E8F91E0
:1051D0009293959697999A9C9D9FA0A2A3A5A7A804
:1051E000AAACAEB0B2B3B5B7B9BCBEC0C2C5C7C930
:1051F000CCCED1D4D7D9DCDFE2E6E9ECF0F3F7FA94
:10520000FE0000004FEA400C0CF1807CBCF17E4FA8
:1052100028BF7047B0F1C04000F00FB990EA010F0D
:105220000CEAD11348BF42F48072624538BF63452F
:1052300007D213F47F0F16D080EA010000F000407F
:10524000704710B500F0B3F8097EFC3E00F005B8D9
:1052500080EA010000F00040704780EA010000F0A1
:10526000004000F0EAB812F47F0F04BF0248704714
:1052700080EA010000F0E1B80000C07F10F00041BA
:1052800048BF4042B0FA80F310FA03F2C3F19D0325
:105290000BD051EAC35101EB1220530638BF7047BF
:1052A00000F1010008BF20F0010070474FF47F0CAF
:1052B0001CEAD0121EBF1CEAD11392EA0C0F93EA2B
:1052C0000C0F00F0478090EA010F48BF42F4807253
:1052D0004FF0004C4CEA00204CEA012102EB0302A3
:1052E000A0FB0113A2F50002002918BF43F001033F
:1052F0005B0028BF4FEA330342EB22425FEA132CE4
:105300004CEBC2502EBFBCEB436FB2F57C0F704725
:105310004FEA036CBCF1004F08BF20F00100B2F56A
:105320007C0F38BF70470BD582F0FF0212F5803F2B
:10533000C8BF704700F1C040D8BF00F000407047C0
:1053400000F5000C5FEA4C0C48BF7047B0F1C0405C
:1053500000F073B890EA010F0CEAD11348BF42F491
:105360008072624538BF634504D280EA010000F0D4
:105370000040704710B500F01AF800BF8900013EE8
:1053800000F007B800F009B85FEA410C5FEA1C6C56
:1053900008D080EA010000F050B85FEA400C5FEAF4
:1053A0001C6CF6D14FF00040A0F5800070470EF164
:1053B000020E2EF0030E5EF8044B244204D44FEA92
:1053C0004102B2F17F4F11D84FEA4003B3F17F4F52
:1053D0000CD80ED14FEAD07CB2F17F4F0CEB4C0CC5
:1053E0000CF1020C08BF4CEBD17C04E04FF0080C30
:1053F00001E04FEAD17C0CEB4C0324FA03F404F0F7
:105400000704B4F1040C06D20EEB840CBDE8104086
:105410004CF0010C6047DFE80CF0070802024FF087
:105420000040A0F5800010BD0846420018BFD2F130
:10543000807288BF00F0004010BDFF2141EAD050CB
:10544000C00570470000000000000000002F0000B1
:1054500000000700070000147F147F1400242A7F37
:105460002A120062640813230036495522500000B6
:105470000503000000001C224100000041221C0026
:105480000014083E08140008083E0808000000A0A8
:1054900060000008080808080000606000000020A4
:1054A00010080402003E5149453E0000427F400082
:1054B000004261514946002141454B310018141208
:1054C0007F10002745454539003C4A4949300001D5
:1054D0007109050300364949493600064949291E24
:1054E0000000363600000000563600000008142286
:1054F0004100001414141414000041221408000286
:105500000151090600324959513E007C1211127CAA
:10551000007F49494936003E41414122007F4141D7
:10552000221C007F49494941007F09090901003EC9
:105530004149497A007F0808087F0000417F410007
:10554000002040413F01007F08142241007F40407D
:105550004040007F020C027F007F0408107F003E65
:105560004141413E007F09090906003E4151215E4B
:10557000007F091929460046494949310001017F48
:105580000101003F4040403F001F2040201F003FDE
:105590004038403F00631408146300070870080790
:1055A00000615149454300007F41410000552A55A3
:1055B0002A55000041417F0000040201020400401E
:1055C0004040404000000102040000205454547840
:1055D000007F484444380038444444200038444460
:1055E000487F00385454541800087E0901020018FE
:1055F000A4A4A47C007F080404780000447D40003B
:10560000004080847D00007F102844000000417F1E
:105610004000007C04180478007C080404780038FA
:105620004444443800FC242424180018242418FC82
:10563000007C0804040800485454542000043F44EB
:105640004020003C4040207C001C2040201C003CAE
:105650004030403C004428102844001CA0A0A07CFE
:10566000004464544C441414141414140000000036
:10567000000000000000000000000000000000F832
:1056800000000000000000333000000000100C0695
:10569000100C0600000000000000000040C0784030
:1056A000C0784000043F04043F040400007088FCFC
:1056B00008300000001820FF211E0000F008F00054
:1056C000E018000000211C031E211E0000F00888C5
:1056D000700000001E2123241927211010160E002F
:1056E000000000000000000000000000000000E0DA
:1056F00018040200000000071820400000020418EF
:10570000E00000000040201807000000404080F04A
:10571000804040000202010F01020200000000F080
:10572000000000000101011F010101000000000054
:105730000000000080B070000000000000000000C9
:105740000000000000010101010101010000000052
:1057500000000000003030000000000000000000E9
:1057600080601804006018060100000000E01008C6
:105770000810E000000F102020100F00001010F89B
:10578000000000000020203F2020000000700808DA
:10579000088870000030282422213000003008885A
:1057A000884830000018202020110E000000C02082
:1057B00010F8000000070424243F240000F80888A3
:1057C000880808000019212020110E0000E0108830
:1057D00088180000000F112020110E000038080862
:1057E000C83808000000003F000000000070880872
:1057F00008887000001C222121221C0000E01008F3
:105800000810E0000000312222110F00000000C04B
:10581000C0000000000000303000000000000080E8
:1058200000000000000080600000000000008040D8
:1058300020100800000102040810200040404040F1
:105840004040400004040404040404000008102044
:105850004080000000201008040201000070480889
:105860000808F0000000003036010000C030C828F1
:10587000E810E0000718272423140B000000C038AC
:10588000E0000000203C23020227382008F8888826
:1058900088700000203F202020110E00C030080832
:1058A00008083800071820202010080008F8080809
:1058B0000810E000203F202020100F0008F8888802
:1058C000E8081000203F20202320180008F88888CE
:1058D000E8081000203F200003000000C030080846
:1058E0000838000007182020221E020008F80800CF
:1058F0000008F808203F210101213F20000808F896
:10590000080800000020203F2020000000000808B8
:10591000F8080800C08080807F00000008F888C078
:1059200028180800203F20012638200008F8080029
:1059300000000000203F20202020300008F8F80060
:10594000F8F80800203F003F003F200008F830C072
:105950000008F808203F200007183F00E010080862
:105960000810E0000F10202020100F0008F8080891
:105970000808F000203F210101010000E0100808A4
:105980000810E0000F18242438504F0008F88888C9
:1059900088887000203F2000030C302000708808A9
:1059A000080838000038202121221C00180808F8B7
:1059B000080818000000203F2000000008F8080038
:1059C0000008F808001F202020201F000878880009
:1059D00000C83808000007380E010000F80800F879
:1059E0000008F800033C0700073C03000818688023
:1059F0008068180820302C03032C30200838C80099
:105A0000C83808000000203F2000000010080808E7
:105A1000C83808002038262120201800000000FE89
:105A2000020202000000007F40404000000C30C035
:105A300000000000000000010638C0000002020261
:105A4000FE000000004040407F0000000000040213
:105A5000020204000000000000000000000000003E
:105A6000000000008080808080808080000202042E
:105A70000000000000000000000000000000808026
:105A8000808000000019242222223F2008F8008094
:105A900080000000003F112020110E000000008057
:105AA00080800000000E11202020110000000080E6
:105AB0008088F800000E112020103F200000808018
:105AC00080800000001F222222221300008080F02C
:105AD000888888180020203F202000000000808057
